:400000000080002011000000650100006501000008B5044B1A6803F53F5302331A6000F0BBF800BFFA46004010B5054C237833B9044B13B10448AFF300800123237010BDF8
:40004000A881FF1F000000004C250000084B10B51BB108480849AFF300800848036803B910BD074B002BFBD0BDE81040184700BF000000004C250000AC81FF1F0881FF1F1F
:400080000000000010B50446034800F0B7FD204600F048F8002010BD5025000010B51C48032100F073FB1B48032100F089FB00F025FA00F031F862B600F02EFB10F0100F2C
:4000C0001CD000F097FB03280DD1124B1B78012B0BD1104B9B78172B09D10E4B5878FFF7D1FF044604E0FF2402E0FF2400E0FF2400F08CFB00F02CFB054B5C7000F00CFB1E
:4001000010F0010FD8D000F07BFB00F00BFBD3E70C81FF1FD481FF1F08B50020012100F077FC08BD00B58FB0024601A80C4901F003FE0EAB03440D2203F8342C0EAB0344F6
:400140000A2203F8332C02300EAB1844002300F8343C01A800F052FD0FB05DF804FB00BF5C250000FEE700BF08B5094B1A681044084BC31A802B02DC054B186005E001F00A
:400180009BFD0C2303604FF0FF32104608BD00BF1081FF1FC082FF1F08B5104E104D16E029686B68AC68002204E051F8040B43F8040B0432A242F8D1E868002203E00021D5
:4001C00043F8041B04328242F9D11035013E002EE6D101F077FDFFF761FFFEE7010000006027000008B5124A124B1A60124A136843F40073136000230AE0032B03D80F4AFD
:4002000052F8231000E00E490E4A42F8231001332F2BF2D90C4B1A780C4B1A70094A0C4B1A6000F0B7F800220A4B1A6008BD00BF0004FA050CED00E014ED00E0000000002D
:40024000650100000080FF1FBC7600400481FF1F08ED00E00081FF1FFEE700BFF0B40022174611E050F82760F3B226F0FF0608E001EB420511F812406D78A5550132013BE6
:40028000DBB2002BF4D10137172FEBD9F0BC7047064B1B78DBB203F00701054A11701B09013213704422034B1A707047CF0100496E5800407658004008B50A46002101F0C5
:4002C00032FD08BD38B506222A4B1A7043F21332EE3B1A80023B05221A701B7843F2C82404E04FF4F07001F03BFC013C24B1224B1B7813F0800FF4D114B90120FFF7ACFF70
:4003000040224FF040231A70702203F500731A704FF4E16222331A8041F25122023B1A80002419250CE0154B1B7803F0010343EA440404F003044FF4F07001F011FC013D2F
:400340000DB1032CEFD115B90320FFF785FF0C4A4FF48073138007231370002309490B704820023108701370053213700222064B1A7038BD004300401042004025420040A9
:4003800004400040064000400140004008B501F0BFFC08BD38B572B6274A137843F00403137000240CE0254963001A1952000A4423445B00C8589188FFF77EFF0134E4B2C9
:4003C000072CF0D94FF090401D49FFF747FF1D4A137843F0020313701032137843F002031370194C237843F040032370A2F58632513A137843F010031370144814490A22FF
:40040000FFF7C4FF134814490A22FFF7BFFF134A137843F008031370114D01232B70FFF751FF81232B70FFF733FF0E4821460E22FFF7ACFF38BD00BFE846004060250000C3
:400440006000004803500140A04300400051004010010048F05100401C0100482243004000480040B043004070B50122134B1A7081220E3B1A70082602331E700F251133DE
:400480001D70002401331C704FF400420C4B1A602846072101F094FB28460A4901F07CFB1022094B1A70094B1C70094B1C70094B1C70304600F062F970BD00BFD64900407A
:4004C00080E100E025050000D781FF1FE081FF1FD881FF1FD981FF1F08B501F049FB064A137843F0040313701032137843F00403137001F041FB08BDA543004008B5074B70
:400500001B7823B9FFF7B0FF0122044B1A70FFF7E3FF4FF40042024B1A6008BDC481FF1F00E100E008B5714B1B78DAB2704B1B7813F0400F40F0D8806D4B1B7813F0100F71
:4005400000F0CF8012F0200F03D102F00903092B15D1674B1B78DBB2112B10D165490B7803F0EF030B70644B197801F0DF011970197841F01001197010215D4B197012F045
:40058000010F00F0B18012F0080F41D05B4B1B7813F0010F2BD05A4B1B785A4A1278DBB2934215D2564A1378DBB257490968CB5CDBB252490B7014214C4B19701378013343
:4005C000DBB213704C4A137843F0020313700AE0FF224A4B1A701422013B1A70464A137843F0060313701222414B1A7008BD10223E4B1A7011223E4B1A703F4A137843F02E
:40060000200313703B4A137843F01003137008BD374B1B78DBB2112B20D13C4B1B783C4A1278DBB2934210D2344B1978C9B21022013B1A70354A1378DBB236480068C15424
:4006400013780133DBB2137008BD0022274B1A70294A137843F04003137008BD244B1B78DBB2122B39D112F0020F23D1244B1B78244A1278DBB2934210D2214A1378DBB26E
:4006800021490968CB5CDBB21C490B700421174B197013780133DBB2137008BDFF22174B1A700422013B1A70134A137843F00403137008BDFF22114B1A700022013B1A70D5
:4006C0000D4B1A7802F0FD021A701A7842F001021A701022064B1A7008BD002001F050FA08BD1022024B1A7008BD00BFD7490040D781FF1FD6490040E081FF1FD8490040B0
:40070000D881FF1FDB81FF1FDC81FF1FD981FF1FDA81FF1FE481FF1F014B1878704700BFE081FF1F4FF40041064B1960064B18781A7802F0F2021A70044B196000F00F0010
:40074000704700BF80E100E0E081FF1F00E100E04FF40041064B1960064B18781A7802F02F021A70044B196000F0F000704700BF80E100E0E081FF1F00E100E000F07F0006
:40078000014B1870704700BFCA490040024660B14FF400430548036005480260054A11700021054A1170054A1360704780E100E0DC81FF1FDB81FF1FD881FF1F00E100E0B6
:4007C000024660B14FF400430548036005480260054A11700021054A1170054A1360704780E100E0E481FF1FDA81FF1FD981FF1F00E100E0014B1878704700BFD981FF1F41
:400800000022014B1A707047D881FF1F0022014B1A707047D981FF1FF8B501F0A9F90746404A137843F0010313701032137843F00103137001263C4B1E700225943B1D70C9
:4008400002F5E2521B32137803F07F031370002001F098F9354C237803F0F9032370344A137803F0DF031370237833432370304601F088F9282001F085F92E4B1A7802F09C
:400880007F021A701A7802F0BF021A7023782B432370284601F076F9237843F0040323700024254B1C7001331C70384601F064F91720072101F084F91720204901F06CF91D
:4008C0001820072101F07CF918201D4901F064F91520072101F074F915201A4901F05CF92046072101F06CF92046174901F054F93046072101F064F93046144901F04CF9D0
:400900002846072101F05CF92846114901F044F90C20072101F054F90C200E4901F03CF9F8BD00BFA54300409D6000409443004012600040F8510040846000400D1200003C
:40094000DD0F0000091200005111000089110000C51100001512000008B5214B18700023204A1370204A1370204A1370204A1370204A1370204A1370204A1370204B4FF47A
:4009800000021A604FF080721A604FF400121A6001221A6002221A6004221A6011B1012906D00BE0174A137803F0FE0313700AE0144A137843F00103137004E0114A1378FF
:4009C00043F00103137003220F4B1A708022203B1A70012001F0C4F804220C4B1A7008BD1082FF1F8582FF1F8D82FF1F0082FF1F8A82FF1F1182FF1F8B82FF1F8C82FF1F3F
:400A000000E100E009600040286000401260004038B505460C46064B1B7823B9FFF7FCFE0122034B1A7028462146FFF795FF38BDC581FF1F00230A4A13700A4A13700A4AC0
:400A400013700A4A13700A4A13700A4A13700A4A13700322094B1A708022203B1A7070478582FF1F8D82FF1F0082FF1F8A82FF1F1182FF1F8B82FF1F8C82FF1F286000406A
:400A8000431EDBB2072B3BD8F0B4074600EB40039B001C4C2344DB889BB2C3F500739A4207D900EB40039B002344DA88C2F5007292B200EB40039B00124C2344DB7843EAD6
:400AC0001223114D04012E192B55D3B2737039B909E0CE5C3D010D4C665501339BB200E000239342F5D3430003449B00054A134400225A705A79D2B20001054B1A54F0BC3E
:400B0000704700BF1882FF1FFC5F004078600040FE5F00400246002001E0013080B2135C002BFAD1704700BF10B4FF2400220EE00A4B9B5C03EB43039B0009490B449B78EA
:400B4000DBB2834201D1144602220132D2B2012AEED920465DF8044B704700BFEC81FF1F2082FF1F10B5204C2079FFF7DDFF237813F0800F0ED06378DBB2212B2FD11B4B9E
:400B800007221A80C0EBC000194A1044586000F093FA10BD144B5B78DBB2202B02D0222B10D01EE0114A07231380C0EBC00310490B4453600F4A135C43F00103135400F010
:400BC000A3FA10BD084B9B780B4A22F81030094A135C43F00203135400F02EF910BD002010BD002010BD00BF006000400482FF1F1481FF1FF481FF1FFC81FF1F2DE9F84322
:400C00008046224B1B78224AD65CF6B2FFF782FF05460027344606EB46039B001D4A13441B899BB2AB4208D206EB46039B001344B3F808901FFA89F900E0A946304608EBB8
:400C400007014A46FFF71CFFC9EB0505ADB245B906EB46039B000F4A13441B899BB2994510D14F44BFB204EB44039B00094A13445B7813F0FF0FF6D025B9304600210A468D
:400C8000FFF7FEFE002DC5D1BDE8F883C681FF1FF081FF1F1882FF1FC37803F0030390F9020000280FDA032B06D002F001030B48C15442F001020EE0C2F380030848C154C1
:400CC00042F0040207E0032B05D0C2F340030548C15442F002021046704700BFF081FF1FEC81FF1FE881FF1F1C4B19781C4A13880B449BB2138000230EE01A4A51680978FE
:400D0000C9B21948C1545168013151600133DBB21188013989B21180124A128892B20AB1072BEAD90D4A1278D2B2082A00D05BB10E490A7882F080020A700F210C4A11701B
:400D400002210C4A117004E0022209490A7009490A70094A1370014A137070478C82FF1F1282FF1F0482FF1F006000408682FF1F8482FF1F8582FF1F8E82FF1F0222074B49
:400D80001A708022064B1A700F22064B1A700023054A1370054A1370012070478582FF1F8682FF1F8482FF1F8C82FF1F8E82FF1F08B5FFF799FF08BD10B4184B197801F0FF
:400DC0000F010239C9B2164A13880B449BB21380002010E0134B5C68134A125CD2B222705A6801325A600130C0B20139C9B21A88013A92B21A800B4B1B889BB20BB1002903
:400E0000E8D10A4B19700A4A137883F0800313700B22084B1A705DF8044B7047296000401282FF1F0482FF1F006000408E82FF1F8682FF1F8482FF1F0623064A1370064ADB
:400E400013708022054B1A700022054B1A700120704700BF8582FF1F8482FF1F8682FF1F8E82FF1F064B9B6843B1054B9A6810709A6804490988518000229A60704700BFE6
:400E80000482FF1F1282FF1F08B5134B1A78D2B21A701B78DBB213F0800F02D00F4A137008BD0220FFF7DEFF0D4B1B7803F06003202B05D0402B06D043B900F095FC06E002
:400EC00000F0CEFE03E000F037FE00E0002010B90322024B1A7008BD286000408482FF1F0060004008B5084B1978084A13880B449BB213800022064B1A700120FFF7B2FF96
:400F00000322044B1A7008BD8C82FF1F1282FF1F8582FF1F8482FF1F08B50B4B1B78DBB2042B06D0062B07D0022B0BD1FFF7DAFF08BDFFF741FF08BD0320FFF793FF03221F
:400F4000024B1A7008BD00BF8582FF1F8482FF1F08B50022044B1A700120FFF783FF0322024B1A7008BD00BF8582FF1F8482FF1F08B50B4B1B7813F0FF0F07D0084A137848
:400F800043F0800307490B70002313700022064B1A700120FFF766FF0322044B1A7008BD1182FF1F086000408582FF1F8482FF1F08B5094B1B78DBB2042B06D0062B07D0EE
:400FC000022B07D1FFF7F4FE08BDFFF7C1FF08BDFFF7CEFF08BD00BF8582FF1F08B5284B1B78DBB213F0100F48D013F0800F0CD003F00F03012B16D1FFF746FF214B1B780E
:4010000013F0800F11D1012312E013F0400F03D0FFF7CEFF01230BE013F0200F07D0FFF77BFF012304E0002302E0002300E0002323B3134B1B7813F0800F1FD1124B1B784A
:40104000124A12781343124A13701278D2B29A4214D10C4B1B78DBB2094A127812F0800F07D1084B1B78DBB2054A1370137803F00F03044A1278D2B29342EAD108BD00BF84
:40108000286000408482FF1F8682FF1F8E82FF1F296000400022064B1A80064B9B682BB1044A916800230B7092685380704700BF1282FF1F0482FF1F08B50F4B1B889BB265
:4010C00013B9FFF75BFE15E002220C4B1A7000220B4B1A70FFF7DEFF0A4AD179937943EA0123054A128892B29A4201D9024A1380FFF7FAFD012008BD0482FF1F8582FF1FAD
:401100008682FF1F0060004008B504220B4B1A7080220B4B1A70FFF7BDFF0A4AD179937943EA0123084A128892B29A4201D9064A13800B22054B1A70012008BD8582FF1F1C
:401140008682FF1F006000400482FF1F8482FF1F0A4A137803F0FE031370094B9B7C094B1B7B03F00303012B04D0064AD37B83F08003D3730122034B5A7370470B600040C3
:40118000FC5F00401882FF1F0B4A137803F0FD0313700A4B93F82230094B1B7E03F00303012B04D0064AD37E83F08003D3760122034B5A76704700BF0B600040FC5F004091
:4011C0001882FF1F0D4A137803F0FB0313700C4B93F832300B4B93F8243003F00303012B06D0084A92F8273083F0800382F827300122044B83F82520704700BF0B60004020
:40120000FC5F00401882FF1F704700BF08B5FFF711FC08BD08B500F09BFC08BD70B588B0054603AC174E0FCE0FC43368237035B322232B7003236B7001A800F0D9FC002462
:4012400002231AE008AA224412F81C2C08A901EB121111F8141CE954581C00212954981C02F00F0208AE324412F8142C2A54DA1CA9540134E4B20433DBB2212BE2D908B0B1
:4012800070BD00BF9025000010B401223DE0114613010C242148C45402EB42039B00204803445B7913F0FF0F12D002EB42039B0003441B7913F0800F04D01001194B034460
:4012C0009C700AE01001174B03440820987004E01001144B0344802098704B000B449B000F480344DC88E4B208010C4901448C71D888C0F30720C871D888C0B20871DB883D
:40130000C3F307234B710132D2B2082ABFD9FF22054B1A705DF8044B704700BF706000401882FF1FFC5F00400A600040074B1B78074A02EBC30253681A7C824203D903EBA7
:40134000C003586970470020704700BF1082FF1FA4250000F8B5404B1B7813F0FF0F79D03D4B18780138C0B2FFF7E0FF047AC2683A4B1878C0B200236AE01178814264D149
:401380003749095CC9B25578A9425ED1917801F07F01D67806F00306DFF8C8E04D000D44AD000EEB05074FF0000C87F803C092F802C087F804C092F803C00EF805C09588FF
:4013C0003D8192F90250002D0DDA012E01D1072700E00D274D000D44AD00224E35446F7101266E700CE0012E01D1052700E009274D000D44AD001B4E35446F7100266E70A8
:40140000DFF868E00F010EEB07060125B57001FA05F529448900134D29440D89C5F307250EF807500D89EDB27570CE88F6B20E4D3D44AE71CE88C6F30726EE71CE88F6B2F1
:401440002E71C988C1F30721697108320133DBB2A34292D3F8BD00BF0082FF1F8A82FF1F9482FF1F1882FF1F70600040FC5F0040034B1A78034B03EBC2035868704700BF95
:401480001082FF1FA425000008B5074B18780138C0B2FFF74BFF28B14268127900EBC203586908BD002008BD0082FF1F2DE9F84300220EE06F4E53009D18AD0074190021DF
:4014C0007155A170E1702181A172617061710132D2B2082AEED940B90AE000226649CA546649CA540133DBB200E00023012BF4D9634B1B7813F0FF0F00F0B980604B1878AA
:401500000138C0B2FFF712FF80464368DB7913F0400F05D05B4A137843F00103137004E0584A137803F0FE03137098F808704FF0000901266CE0D8F80C50002464E0AB7821
:4015400003F07F039E425CD1314606EB46039B00484803441B899BB2A888834205D206EB46039B00434A134418812B784248C35CDBB26878834244D195F802C03D484B0005
:401580000B449B0000EB030E8EF804C095F803E000F803E0EB7803F0030395F90200002811DA012B02D14FF0070C01E04FF00D0CDFF8C0E04B0058188000704480F805C084
:4015C0000123437012E0012B02D14FF0050C01E04FF0090C27484FEA410E0EEB01039B00034483F805C0194600234B70AB790A2B01D0022B05D1284631464A46FFF74CFB6C
:40160000814608350134E4B2BC4298D30136F6B2082E90D9D8F80C0000220CE0837803F07F0310F8084B03EB43039B0016490B449C700132D2B2BA42F0D3FFF725FF134BC8
:401640001860002301210EE00A4C4A00501880002044C380028913449BB203F0010213449BB20131C9B20829EED9FFF70DFEBDE8F88300BF1882FF1F9482FF1F8882FF1F2E
:401680000082FF1F8B82FF1F2082FF1F9082FF1F08B5154B1A7902F07F02531EDBB2072B20D8530013449B0010490B44997841F0010199700021D970597841F002015970B2
:4016C0001B7913F0800F05D01201094B13448D229A7004E01201064B134489229A70FFF7ABFB08BD002008BD006000401882FF1FFC5F0040264B1B7903F07F035A1ED2B275
:40170000072A43D810B55A001A44920021490A44917801F0FE0191700021D17019017F241D484454517801F0FD015170127912F0800F14D003EB4302920016490A445278CB
:40174000D2B2012A05D11B0102461A440C23937019E01B01104A1A440D23937013E003EB430292000B490A445278D2B2012A05D11B01094A1A440823937004E01B01064AFC
:401780001A4409239370FFF757FB10BD00207047006000401882FF1FFC5F004010B50E4B1C79E4B20D4B18780138C0B2FFF7BEFD43681B799C4201D9022C0AD8084A135D67
:4017C000DBB208490B55044B9B78DBB21355012010BD002010BD00BF006000400082FF1F9482FF1F8882FF1F10B59B4B1B78DBB200219A4A118013F0800F00F0AD80964A2E
:401800005278D2B20A2A00F27281DFE812F06900700170017001700170010B007001920070019A008C4BDB78DBB2012B09D1FFF71FFE4268894B5A6012221A80FFF73CFCBD
:4018400010BD854BDB78DBB2022B13D1824B9878FFF76CFD002800F04C8142687F4B5A605A68D1785A68927842EA01221A80FFF723FC10BD784BDB78DBB2032B05D02CE037
:401880000A7811440133DBB201E000237449724A9278D2B29A4203D90A7812F0FF0FEFD16D4B9B7813F0FF0F0BD06B4B9B78DBB26C4A127C934204D16B4C2046FFF7AEFCC3
:4018C00021460B7813F0FF0F00F015810B78634A13805160FFF7F0FB10BD00F0C1F910BD13F0030317D0022B40F007815B490B80594B1B7903F07F0303EB43039B005B4AA9
:4019000013449A78D2B25A4B1A7000225A704B60FFF7D2FB10BD514902230B80554B1A78D2B2534B1A7000225A704B60FFF7C4FB10BD4A4B01221A804F4A5A60FFF7BCFBD1
:4019400010BD464A01231380434B1B794B490B445360FFF7B1FB10BD3F4A5278013A0A2A00F2CD80DFE812F04B00CB009600CB000B00CB00CB00CB001300CB003000364BF0
:401980009B78DBB23E4A1370FFF756FA10BD324B9B7803F0FF041BB1601EC0B2FFF7C6FC04B110B9002C40F0AC80334B1B78DBB29C4206D0304B1C700120324B1870FFF7F4
:4019C00075FDFFF739FA10BDFFF7E8FE002800F09A80214A1379DBB21279D2B22A490A702A4AD25C2549C95CD3B28B4204D00122244B1A70FFF7AEFCFFF71EFA10BD03F00C
:401A00000303012B17D04BB1022B7ED1124B9B7813F0FF0F7BD1FFF76DFE10BD0E4B9B78DBB2012B75D1134A137803F0FD031370FFF702FA10BD084B1B79DBB2012B6AD8B0
:401A4000054B98781B79DBB21149CA5C22EA0002CA54FFF7F1F910BD006000400482FF1F0C260000F02600009882FF1F1882FF1FC881FF1F8B82FF1F0082FF1F9482FF1FAA
:401A80001182FF1F8D82FF1F8A82FF1F8882FF1F1482FF1F03F00303012B17D04BB1022B3BD1224B9B7813F0FF0F38D1FFF7F0FD10BD1E4B9B78DBB2012B32D11C4A13788E
:401AC00043F002031370FFF7B7F910BD174B1B79DBB2012B27D8154B98781B79DBB21549CA5C22EA0002CA54FFF7A6F910BD002010BD002010BD002010BD002010BD002093
:401B000010BD002010BD002010BD002010BD002010BD002010BD002010BD002010BD002010BD002010BD002010BD00BF006000408B82FF1F1482FF1F044B1B7813F0800FE4
:401B400001D0024B5B780020704700BF00600040024B1878C0F38010704700BF8F4500400230800803D000BF01380046FCD17047EFF3108072B6704780F31088704700BF73
:401B800001BE704708B5034B1B7A03FB00F0FFF7E7FF08BD3081FF1F70B504460E46074B1D681F2802D90020FFF7EAFF04F01F04103455F8240045F8246070BD08ED00E067
:401BC00038B504460D46072902D90020FFF7D8FF1F2C02D90020FFF7D3FF04F01F0000F1604000F564406D01EDB2057038BD00BF134B1B78DBB20360124A127843EA0223C9
:401C00000360114A127843EA024303600F4A127843EA026303600E4B1B78DBB243600D4A127843EA022343600B4A127843EA024343600A4A127843EA02634360704700BF40
:401C40000301004904010049EC460040020100490101004900010049050100490601004908B5124B1B7803F00303012B02D0022B04D00FE00D4B1B79DBB20CE00B4B1B79F4
:401C800003F07F0303EB43039B00094A13449B78DBB200E00023074A1268D35C022B02D1FEF760FF08BD002008BD00BF006000402082FF1F9082FF1F014B1868704700BF0A
:401CC000A081FF1F0E4B70B51E460E4C0025E41AA410A54204D056F8253098470135F8E700F02CFD084B094C1E46E41AA4100025A54204D056F8253098470135F8E770BDC5
:401D00004827000048270000482700005027000010B5431E0A44914204D011F8014B03F8014FF8E710BD03460244934202D003F8011BFAE7704700000EB400B54FF4027166
:401D40009CB0ADF814106FF00041049107914FF6FF711DABADF81610084953F8042B02900690086802A9019300F064F8029B00221A701CB05DF804EB03B07047A081FF1F49
:401D80002DE9F0478E688246B3420C469046994640D38A8912F4906F3AD02568096902236F1A656905EB450595FBF3F57B1C4B449D4238BF1D4653050FD5294600F030FB95
:401DC000064698B121693A46FFF7A2FFA38923F4906343F08003A38113E02A4600F076FB064670B95046216900F0D6FA0C23CAF80030A3894FF0FF3043F04003A381BDE88A
:401E0000F08726613E4426604E466561ED1BA560B14500D24E4632462068414600F0A0FAA36800209B1BA36023681E442660BDE8F08700002DE9F0439DB003938B890646C9
:401E40001C060D4690460CD50B6953B9402100F0E7FA2860286110B90C233360CCE040236B610023099320238DF8293030238DF82A3043461C4613F8012B1AB9B4EB080956
:401E80000FD002E0252AF5D1F8E73046294642464B46FFF775FF013000F0A980099B4B4409932378002B00F0A28000234FF0FF3204930793059206938DF853301A9304F176
:401EC00001084446DFF8489121784846052200F039FA08F10108049B30B1C9EB00000122824013430493ECE7D80644BF20228DF85320190744BF2B228DF8532022782A2AE2
:401F000002D0079923460EE0039A0134111D12680391002ABBBF524243F0020307920792B8BF04930AE01C4622780133303A092A03D80A2000FB0121F5E7079123782E2BD9
:401F40001AD163782A2B0AD1039B02341A1D1B680392002BB8BF4FF0FF3305930CE0611C00220C4623780131303B092B03D80A2000FB0232F5E70592DFF89880217840469F
:401F8000032200F0DFF938B1049AC8EB00004023834013430493013421781A48062204F101088DF8281000F0CDF988B1164B33B9039B073323F007030833039313E003AB31
:401FC0000093304604A92A46104BAFF3008007E003AB0093304604A92A460C4B00F092F8421C074603D0099B3B44099341E7AB895B0601D4099801E04FF0FF301DB0BDE881
:40200000F08300BF1027000000000000811D0000062700000C2700002DE9F84391461F468A680B6906469342B8BF1346C9F8003091F843200C46DDF8208012B10133C9F8F9
:4020400000302368990642BFD9F800300233C9F80030256815F006051CD094F843302268003318BF012392061FD5E118302081F843005A1C94F845102244023382F843104E
:4020800013E03046394604F119020123C047013007D00135E368D9F800209B1A9D42F0DBDBE74FF0FF30BDE8F8833046394604F14302C0470130F4D02268D9F80050E368B3
:4020C00002F00602042A08BF5D1B2269A3680CBF25EAE57500259342C4BF9B1AED184FF00009A9450ADA3046394604F11A020123C0470130D5D009F10109F2E70020BDE8B5
:40210000F88300002DE9FF410C461746227E98466E2A06460A9B01F1430100F0B08012D8632A23D00AD8002A00F0BD80582A40F0CC8084F84520DFF804E257E0642A1ED0D0
:40214000692A1CD0C1E0732A00F0B18009D86F2A2ED0702A40F0B980226842F0200222603FE0752A24D0782A3BD0AEE01A6804F14205111D1960136884F84230A9E02068DA
:402180001A6810F0800F02D0101D186008E010F0400F02F10400186002D0B2F9003000E01368002B3EDA2D225B4284F8432039E020681A6810F0800F02D0101D186007E0CB
:4021C00010F0400F02F10400186001D0138800E01368227EDFF864E16F2A0CBF08220A221CE07822DFF858E184F845202268186812F0800F00F104051D6003D1550601D546
:40220000038800E00368D00744BF42F0200222601BB9226822F0200222601022002084F8430002E0DFF814E10A226568002DA8BF2068A560A4BF20F00400206003B965B162
:402240000D46B3FBF2F002FB10331EF8033005F8013D03460028F4D100E00D46082A0BD12368DA0708D5236962689A42DEBF302305F8013C05F1FF35491B21612EE02568F0
:402280001A6815F0800F606903D0151D1D60136808E015F0400F02F104051D60136801D0188000E01860002323610D4616E01A68111D1960156800212846626800F042F838
:4022C00008B1401B6060636804E004F1420584F8422001232361002384F84330CDF800803046214603AA3B46FFF796FE013002D14FF0FF301FE0304639462A462369C04744
:402300000130F5D023689B0705D4E068039B9842B8BF18460FE00025E368039A9B1A9D42F3DA3046394604F119020123C0470130DED00135F0E704B0BDE8F081172700008B
:402340002827000010B5C9B202449042034605D01C7801308C42F8D1184610BD002010BD814210B501EB020301D3421E0BE09842FBD28118D21AD34204D013F8014D01F825
:40238000014DF8E710BD994204D011F8014B02F8014FF8E710BD000030B500293CD051F8042C0B1F1D49002AB8BF9B180A680C4612B95A600B6030BD93420DD2196858186C
:4023C000904201BF5A5852181A60426823605A6030BD994203D80A4651680029F9D1146815199D420AD11B682344D0188842136012D10868034413604B680CE002D90C2306
:40240000036030BD1C681819884201BF08684968001918605960536030BD00BFD081FF1F70B5CC1C24F0030408340C2C38BF0C24002C064603DA0C233360002070BD8C42DF
:40244000F9D3204A136810461946A1B10A68121B0ED40B2A03D90A608B188C501FE08B420BBF5A684A6802605A6018BF0B4616E00B464968E9E7144D2B681BB9304600F0E5
:402480004BF828603046214600F046F8421C0346D1D0C51C25F0030585420AD11C6003F10B001A1D20F00700821A0AD05142995070BD3046E91A00F02FF80130BBD02B46B9
:4024C000ECE770BDD081FF1FCC81FF1FF8B5074615460E4621B91146BDE8F840FFF7A0BF1AB9FFF759FF2846F8BD00F025F8A8420ED238462946FFF793FF044650B13146A4
:402500002A46FFF705FC38463146FFF745FF01E03046F8BD2046F8BD38B5064C0023054608462360FDF720FE431C02D1236803B12B6038BDBC82FF1F51F8040C0028BEBF03
:40254000091851F8043CC018043870470000000052656365697665643A200000256C7500C84900401900105100406000C051004010000000014000100014014000080040A5
:402580000140000A004C01400002005001402000303132333435363738394142434445460000000001000000AC25000001000000F026000000000000000000000100000004
:4025C000C425000001000000AC26000003000000F02500000000000000000000000000000000000000000000EC250000020A000000008103080002000100820240000A008D
:402600000100030240000A0002030000040309042C0343007900700072006500730073002000530065006D00690063006F006E0064007500630074006F0072001003550032
:402640005300420055004100520054003803430044004300200043006F006D006D0075006E00690063006100740069006F006E00200049006E007400650072006600610025
:4026800063006500260343004400430020004400610074006100200049006E00740065007200660061006300650000000902430002010180320904000001020201030524D1
:4026C00000100104240202052406000105240100010705810308000A09040100020A0000040705820240000007050302400000001201000202000008B40432F20100010262
:40270000800100004300232D302B2000686C4C006566674546470030313233343536373839414243444546003031323334353637383961626364656600000000F8B500BF76
:40274000F8BC08BC9E4670474D000000E5010000F8B500BFF8BC08BC9E46704729000000702700000881FF1FA0000000180100000000000001FF1700C082FF1F00C201003A
:4027800000000800C201000000080000A120000000000200000000000000E02EC05D00001800000000366E010000000000000000000000000000000000000000000000009B
:4027C00000000000000000000427000000000000000000000000000000000000000000000000000000000000000000000000000000000000000000000000000000000000AE
:4028000000000000000000004081FF1F00000000000000000000000000000000000000000000000000000000000000000000000000000000000000000000000000000000B9
:402840000000000000000000000000000000000000000000000000000000000000000000000000000000000000000000000000000000000000000000000000000000000058
:402880000000000000000000000000000000000000000000000000000000000000000000000000000000000000000000000000000000000000000000000000000000000018
:4028C00000000000000000000000000000000000000000000000000000000000000000000000000000000000000000000000000000000000000000000000000000000000D8
:402900000000000000000000000000000000000000000000000000000000000000000000000000000000000000000000000000000000000000000000000000000000000097
:020000040003F7
:0200000480007A
:40000000014500400352004001030140010501400107014001090140010B0140010D0140021501400217014002190140021B0140034001400C410140084201400843014054
:4000400001450140044601400747014006480140044901400C4C0140024D0140025101407E02018004907C40E204E820E601E601E820E204EA01EC08EA02EE0AEA02EE0A63
:40008000EA01EC0833813640CC700B400F026180620882089F01A640A780C290D640D840E2203E109F01A301A580A640A780B340CE20818096109F01A301A580A640A780D9
:4000C000E68081049320A504B310E80408080B040F4083029320A504C20E9610A301AE40AF81EA40EE50AA10AF01EA80EC101108132017027B807F1093209F02A504AC08AB
:40010000AF44C40EDE03AB20AF80002A03C000009000000090009000000000004000000000000000C000000000000000000000000000000000000000000000000000000082
:40014000000000000000000000000000000000000000000000000000000000000000000000000000000000000000000000000000000000000000000000000000000000007F
:40018000000000000000000000000000000000000000000000000000000000000000000000000000000000000000000000000000000000000000000000000000000000003F
:4001C00000000000000000000000000000000000000000000000000000000000000000000000000000000000000000000000000000000000000000000000000000000000FF
:4002000000000000000000000000000000000000000000000000000000000000000000000000000000000000000000000000000000000000000000000000000000000000BE
:0200000490006A
:0400000000004005B7
:0200000490105A
:04000000BC90ACAF55
:0200000490303A
:020000007CBBC7
:0200000490402A
:4000000000000000000000000000000000000000000000000000000000000000000000000000000000000000000000000000000000000000000000000000000000000000C0
:400040000000000000000000000000000000000000000000000000000000000000000000000000000000000000000000000000000000000000000000000000000000000080
:400080000000000000000000000000000000000000000000000000000000000000000000000000000000000000000000000000000000000000000000000000000000000040
:4000C0000000000000000000000000000000000000000000000000000000000000000000000000000000000000000000000000000000000000000000000000000000000000
:0200000490501A
:0C00000000012E12306900012E20AD24FA
:00000001FF