:400000000080002011000000490200004902000008B5044B1A6803F53F5302331A6000F02DF900BFFA46004010B5054C237833B9044B13B10448AFF300800123237010BDBB
:40004000F881FF1F0000000064350000084B10B51BB108480849AFF300800848036803B910BD074B002BFBD0BDE81040184700BF0000000064350000FC81FF1F0881FF1F2F
:400080000000000008B500F06FFC00F0A9FC08BD08B5002000F0BAFD0C4B18804FF6FF73984202D10022094B1A80084B1888084B1B88984204D0064B188020B1400208BD8F
:4000C0004FF0FF3008BD4FF0FF3008BD3882FF1F3A82FF1F08B500F0EBFA18B900F076FD00F0A4FBFFF7D4FF08BD00BF08B502F059F908BD10B582B001238DF804308DF827
:40010000050017238DF80630082001A90322002302F0C2FA02F08EFB10F0020FFAD002F089FB10F0800F05D102F0B8FB032803D0FF2402E0FF2400E0002402F097FB204613
:4001400002B010BD10B582B0082001A90322002302F008FB02F06EFB10F0010FFAD002F069FB10F0800F10D102F092FB03280ED19DF80430012B0CD19DF80630172B0AD1BC
:400180009DF805304BB1FF2408E0FF2406E0FF2404E0FF2402E0FF2400E0002402F066FB204602B010BD00BF08B50020012100F0A3FE08BD00B58FB0024601A80F4902F0B7
:4001C000C7FD0EAB03440D2203F8342C0EAB03440A2203F8332C02300EAB1844002300F8343C01A800F07EFF00F016FAB0FA80F0400900F005FA0FB05DF804FB6835000041
:4002000010B562B6FFF7D0FFFFF73CFFFFF76EFF00242046FFF76EFF70B9FFF793FF58B9FFF758FFB0F1FF3F05D0C0F307242046FFF7C0FF00E0642400F0EEF9B0FA80F086
:40024000400900F0DDF9E4E7FEE700BF08B5094B1A681044084BC31A802B02DC054B186005E002F035FD0C2303604FF0FF32104608BD00BF0C81FF1FC883FF1F08B5104E84
:40028000104D16E029686B68AC68002204E051F8040B43F8040B0432A242F8D1E868002203E0002143F8041B04328242F9D11035013E002EE6D102F011FDFFF7A1FFFEE770
:4002C000010000003C38000008B5124A124B1A60124A136843F40073136000230AE0032B03D80F4A52F8231000E00E490E4A42F8231001332F2BF2D90C4B1A780C4B1A709A
:40030000094A0C4B1A6000F0F3F800220A4B1A6008BD00BF0004FA050CED00E014ED00E000000000490200000080FF1FBC7600400481FF1F08ED00E00081FF1FFEE700BF76
:40034000F0B40022174611E050F82760F3B226F0FF0608E001EB420511F812406D78A5550132013BDBB2002BF4D101371D2FEBD9F0BC70470E4B1B78DBB203F007010D4A23
:4003800011701B090132137010220B4B1A70002203F255731A70202203F259231A70012290331A704422A3F2E5231A70704700BFCF0100496E5800401D51004008B50A46DD
:4003C000002102F0BCFC08BD38B50122304B1A80182202331A70062203F27E231A7043F21332EE3B1A80023B05221A701B7843F2C82404E04FF4F07001F00EFF013C24B191
:40040000244B1B7813F0800FF4D114B90120FFF795FF40224FF040231A70702203F500731A704FF4E16222331A8041F25122023B1A80002419250CE0174B1B7803F00103AA
:4004400043EA440404F003044FF4F07001F0E4FE013D0DB1032CEFD115B90320FFF76EFF0E4A4FF4807313800723137000230C490B70482002310870137005321370022222
:40048000084B1A70084A137843F00103137038BD804000401042004025420040044000400640004001400040A243004008B502F03BFC08BD0A2808D8044B53F820201844F7
:4004C00090F82C1013780B43137070476C3500000A2809D8054B53F82020184490F82C10137823EA01031370704700BF6C35000038B572B6304A137843F004031370002445
:400500000AE02E4963001A1952000A44906B918FFFF754FF0134E4B2082CF2D94FF090402749FFF70DFF4FF44072264B1A8040F20312283B1A80244A137843F0020313707D
:400540001032137843F002031370204C237843F040032370A2F58632513A137843F0100313701B481B490A22FFF7A0FF1A481B490822FFF79BFF1A481A490A22FFF796FF31
:4005800019481A490822FFF791FF4422184B1A70184A137843F008031370174D61232B70FFF712FF81232B70FFF7E4FE134821460E22FFF77BFF38BDE84600406C350000BF
:4005C000780000487258004003500140A0430040F0510040C803004812510040D403004820510040DC03004832510040E8030048DB0801402243004000480040B0430040D2
:40060000044A137803F0FD03400000F0020018431070704720510040024B1878C0F34000704700BF2151004010B501F0FDFD0446134A137843F02003137001F0D7FD01F010
:40064000FBFC01F051FD0F4A137843F020031370103A137843F02003137002F5A6520732137843F001031370204601F0E1FD0122054B1A60054A137843F08003137010BD6A
:4006800099640040BB43004000E100E07A6400400130C0B2082808D0C20800F0070101238B4002498A5C1342F2D070471081FF1F024B187800F00100704700BF3D82FF1FB5
:4006C00010B50B4B195C1A18147A03EB80031B6909221A700F2900D10721054A02EB8102126B137823431370FFF7E4FE10BD00BFDC35000070B505460B4B1C5C03441E7A8D
:40070000FFF7E6FE0F2C00D10724074800EB8404226B137823EA0603137000EB8500036908221A7070BD00BFDC35000010B5002404E02046FFF7DEFF0134E4B2072CF8D9D3
:4007400010BD00BF10B50E4A137803F0FC0313700C4B1B781B020C4921F810306D3A12781343DB4321F81030FFF7C4FF002001F0D7FC064A137843F00103137010BD00BF5F
:400780007A6400401D6400404882FF1F72580040024B187040081033187070472964004070B50446084B034493F85050074E3318187901F0B5FC35442A7B054B1A70054BAD
:4007C000185DFFF7E5FF70BDDC3500001081FF1F5C6400404082FF1F38B50546FFF7E0FF084C237843F001032370074A137803F0FE0313702846FFF763FF237843F002032B
:40080000237038BD7A6400407258004008B5054B00221A70044A107081221A70FFF7DCFF08BD00BF3D82FF1F3C82FF1F10B500220A4B1A700A4CFF2323702078FFF728FFC0
:4008400020702378DBB2072B07D8044A137843F0010313702078FFF7BFFF10BD3D82FF1F3C82FF1F012805D1054A137803F0EF0313707047024A137843F0100313707047FB
:400880007A64004038B5FFF751FF0220FFF7EAFF01F0CAFC2E4A137843F0030313700132137843F00303137001F0C2FC4FF43442284B1A804FF6FF7520331D8007243F333B
:4008C0001C7001F0B1FC244A137843F0030313700132137843F00303137001F0A9FCFF231E4A157020321370403A13702132137030321370103A1370012203F1E0238133D2
:400900001A600020164901F0A3FC0020214601F0B3FC01F067FC0820FFF7CCFD0920FFF7C9FD0A20FFF7C6FD0E4A137843F00403137001F0BBFB01F013FC002001F026FC8A
:40094000042001F033FC002001F0EAFB38BD00BF9A6400402A6400409C6400402C640040790C00007A64004008B5084B1B7823B9FFF788FF0122054B1A70FFF755FE00F098
:40098000AFF90122024B5A7308BD00BF1482FF1F1081FF1F074B33F81030074A22F81030002206490A5406490A54064A22F81030704700BF4882FF1F7082FF1F8082FF1F4F
:4009C0005882FF1F6082FF1F10B50446FFF71EFFFFF76EFE0028FBD12046FFF7DBFF10BD10B5002404E02046FFF7EEFF0134E4B2072CF8D910BD00BF70B4094D054400262A
:400A0000FF20334608E0EC5C944203D9A64201D2264618460133DBB28B42F4D370BC70475882FF1FF0B59DF81450284C2144044610B1461EF6B200E00026601CC0B211F8FC
:400A400004E0234F87F809E024B900263E72095CB9720DE0013A944205D1895D1C4A11720021917204E08E5D194A1672095C9172174A127AAA4203D9521B15490A7202E0AE
:400A80000021134A1172124A517A491BC9B25172927AAA4203D9551B0D4A957202E000200B4A90720A4A907A157A421B29440844120292FBF0F000EB04201BB200FB03F023
:400AC00000F5FE40C0F30740F0BD00BF5882FF1F1882FF1F00EB41000844C0F38F0070472DE9F0410446314B1B5C314A13441E7A304D314B33F8100035F81410FFF7EAFFEA
:400B0000074625F81400204600F0E6F82B4B33F81420BA4204D8BD1AADB24FF0010803E0D51BADB24FF00008B8F1000F10D1142D0ED9234B1B5D042B06D92046FFF72AFF25
:400B400000221F4B1A551AE001331D4A135516E0B3B2AB4204D2132D11D8B8F1000F0ED118490B5D43EA02231F44BF1AC7F30F22124B23F814200F550022114B1A55B6B2F8
:400B8000AE420DD2B8F1000F0AD0FF2D04D9FF220D4B1A55BDE8F0810B4B1D55BDE8F0810022094B1A55BDE8F08100BF2C3600002081FF1F6082FF1F4882FF1F7082FF1F1C
:400BC0008C82FF1F8082FF1F5882FF1F10B500240DE0E20804F0070101238B4005498A5C134202D02046FFF77BFF0134E4B2072CEFD910BD1081FF1F884202D9013880B283
:400C00007047884201D2013080B2704770B582B00446184B1A18157B002008211A5DFFF7EBFEFF281DD0134E3444237A00930021082241F22423FFF7F5FE024680B26B1C15
:400C4000DBB22E44317B29B90A490B441A73012333730CE0074C1C44217BFFF7CDFF207305E0044B1D4400232B734FF6FF7002B070BD00BF2081FF1F10B5114B1878FFF750
:400C800061FD104B1B7813F0800F05D00D4A137803F0FE03137010BD094C2078FFF7F8FC20702378DBB2072B03D82078FFF794FD10BD044A137803F0FE03137010BD00BFF7
:400CC0003C82FF1F3D82FF1F08B5FFF79FFD08BD08B5FFF7EDFC08BD08B501F0EBFE08BD08B501F09DFF08BD08B50220FFF7BAFD08BD00BF08B50120FFF7B4FD08BD00BF42
:400D0000F8B501F091FA0746404A137843F0010313701032137843F00103137001263C4B1E700225943B1D7002F5E2521B32137803F07F031370002001F080FA354C237886
:400D400003F0F9032370344A137803F0DF031370237833432370304601F070FA282001F06DFA2E4B1A7802F07F021A701A7802F0BF021A7023782B432370284601F05EFA51
:400D8000237843F0040323700023254A137001321370384601F04CFA1720072101F06CFA1720204901F054FA1820072101F064FA18201D4901F04CFA1520072101F05CFA8E
:400DC00015201A4901F044FA3046072101F054FA3046174901F03CFA2846072101F04CFA2846144901F034FA0320072101F044FA0320114901F02CFA0C20072101F03CFA12
:400E00000C200E4901F024FAF8BD00BFA54300409D6000409443004012600040F851004084600040F5160000C5140000F11600003916000071160000AD160000FD1600003A
:400E400008B5214B18700023204A1370204A1370204A1370204A1370204A1370204A1370204A1370204B4FF400021A604FF080721A604FF400121A6002221A6004221A6041
:400E800008221A6011B1012906D00BE0174A137803F0FE0313700AE0144A137843F00103137004E0114A137843F00103137003220F4B1A708022203B1A70012001F0ACF926
:400EC00004220C4B1A7008BD0483FF1F7983FF1F8183FF1FF482FF1F7E83FF1F0583FF1F7F83FF1F8083FF1F00E100E009600040286000401260004038B505460C46064BEC
:400F00001B7823B9FFF7FCFE0122034B1A7028462146FFF795FF38BD2482FF1F00230A4A13700A4A13700A4A13700A4A13700A4A13700A4A13700A4A13700322094B1A7038
:400F40008022203B1A7070477983FF1F8183FF1FF482FF1F7E83FF1F0583FF1F7F83FF1F8083FF1F28600040431EDBB2072B3BD8F0B4074600EB40039B001C4C2344DB8876
:400F80009BB2C3F500739A4207D900EB40039B002344DA88C2F5007292B200EB40039B00124C2344DB7843EA1223114D04012E192B55D3B2737039B909E0CE5C3D010D4C8D
:400FC000665501339BB200E000239342F5D3430003449B00054A134400225A705A79D2B20001054B1A54F0BC704700BF0C83FF1FFC5F004078600040FE5F004002460020C1
:4010000001E0013080B2135C002BFAD1704700BF10B4FF2400220EE00A4B9B5C03EB43039B0009490B449B78DBB2834201D1144602220132D2B2012AEED920465DF8044B76
:40104000704700BFE082FF1F1483FF1F10B5204C2079FFF7DDFF237813F0800F0ED06378DBB2212B2FD11B4B07221A80C0EBC000194A1044586000F093FA10BD144B5B78EB
:40108000DBB2202B02D0222B10D01EE0114A07231380C0EBC00310490B4453600F4A135C43F00103135400F0A3FA10BD084B9B780B4A22F81030094A135C43F00203135444
:4010C00000F02EF910BD002010BD002010BD00BF00600040F882FF1F6481FF1FE882FF1FF082FF1F2DE9F8438046224B1B78224AD65CF6B2FFF782FF05460027344606EB6F
:4011000046039B001D4A13441B899BB2AB4208D206EB46039B001344B3F808901FFA89F900E0A946304608EB07014A46FFF71CFFC9EB0505ADB245B906EB46039B000F4A21
:4011400013441B899BB2994510D14F44BFB204EB44039B00094A13445B7813F0FF0FF6D025B9304600210A46FFF7FEFE002DC5D1BDE8F8832582FF1FE482FF1F0C83FF1FAF
:40118000C37803F0030390F9020000280FDA032B06D002F001030B48C15442F001020EE0C2F380030848C15442F0040207E0032B05D0C2F340030548C15442F00202104635
:4011C000704700BFE482FF1FE082FF1FDC82FF1F1C4B19781C4A13880B449BB2138000230EE01A4A51680978C9B21948C1545168013151600133DBB21188013989B2118035
:40120000124A128892B20AB1072BEAD90D4A1278D2B2082A00D05BB10E490A7882F080020A700F210C4A117002210C4A117004E0022209490A7009490A70094A1370014A48
:40124000137070478083FF1F0683FF1FF882FF1F006000407A83FF1F7883FF1F7983FF1F8283FF1F0222074B1A708022064B1A700F22064B1A700023054A1370054A137073
:40128000012070477983FF1F7A83FF1F7883FF1F8083FF1F8283FF1F08B5FFF799FF08BD10B4184B197801F00F010239C9B2164A13880B449BB21380002010E0134B5C68E9
:4012C000134A125CD2B222705A6801325A600130C0B20139C9B21A88013A92B21A800B4B1B889BB20BB10029E8D10A4B19700A4A137883F0800313700B22084B1A705DF8D2
:40130000044B7047296000400683FF1FF882FF1F006000408283FF1F7A83FF1F7883FF1F0623064A1370064A13708022054B1A700022054B1A700120704700BF7983FF1FB0
:401340007883FF1F7A83FF1F8283FF1F064B9B6843B1054B9A6810709A6804490988518000229A60704700BFF882FF1F0683FF1F08B5134B1A78D2B21A701B78DBB213F09C
:40138000800F02D00F4A137008BD0220FFF7DEFF0D4B1B7803F06003202B05D0402B06D043B900F095FC06E001F07EFA03E000F037FE00E0002010B90322024B1A7008BD36
:4013C000286000407883FF1F0060004008B5084B1978084A13880B449BB213800022064B1A700120FFF7B2FF0322044B1A7008BD8083FF1F0683FF1F7983FF1F7883FF1F2C
:4014000008B50B4B1B78DBB2042B06D0062B07D0022B0BD1FFF7DAFF08BDFFF741FF08BD0320FFF793FF0322024B1A7008BD00BF7983FF1F7883FF1F08B50022044B1A70BE
:401440000120FFF783FF0322024B1A7008BD00BF7983FF1F7883FF1F08B50B4B1B7813F0FF0F07D0084A137843F0800307490B70002313700022064B1A700120FFF766FF15
:401480000322044B1A7008BD0583FF1F086000407983FF1F7883FF1F08B5094B1B78DBB2042B06D0062B07D0022B07D1FFF7F4FE08BDFFF7C1FF08BDFFF7CEFF08BD00BF36
:4014C0007983FF1F08B5284B1B78DBB213F0100F48D013F0800F0CD003F00F03012B16D1FFF746FF214B1B7813F0800F11D1012312E013F0400F03D0FFF7CEFF01230BE007
:4015000013F0200F07D0FFF77BFF012304E0002302E0002300E0002323B3134B1B7813F0800F1FD1124B1B78124A12781343124A13701278D2B29A4214D10C4B1B78DBB265
:40154000094A127812F0800F07D1084B1B78DBB2054A1370137803F00F03044A1278D2B29342EAD108BD00BF286000407883FF1F7A83FF1F8283FF1F296000400022064B85
:401580001A80064B9B682BB1044A916800230B7092685380704700BF0683FF1FF882FF1F08B50F4B1B889BB213B9FFF75BFE15E002220C4B1A7000220B4B1A70FFF7DEFF09
:4015C0000A4AD179937943EA0123054A128892B29A4201D9024A1380FFF7FAFD012008BDF882FF1F7983FF1F7A83FF1F0060004008B504220B4B1A7080220B4B1A70FFF7B3
:40160000BDFF0A4AD179937943EA0123084A128892B29A4201D9064A13800B22054B1A70012008BD7983FF1F7A83FF1F00600040F882FF1F7883FF1F0A4A137803F0FE03E4
:401640001370094B9B7C094B1B7B03F00303012B04D0064AD37B83F08003D3730122034B5A7370470B600040FC5F00400C83FF1F0B4A137803F0FD0313700A4B93F822304F
:40168000094B1B7E03F00303012B04D0064AD37E83F08003D3760122034B5A76704700BF0B600040FC5F00400C83FF1F0D4A137803F0FB0313700C4B93F832300B4B93F83F
:4016C000243003F00303012B06D0084A92F8273083F0800382F827300122044B83F82520704700BF0B600040FC5F00400C83FF1F704700BF08B5FFF711FC08BD08B500F05E
:4017000083FD08BD70B588B0054603AC174E0FCE0FC43368237035B322232B7003236B7001A800F0C1FD002402231AE008AA224412F81C2C08A901EB121111F8141CE954C7
:40174000581C00212954981C02F00F0208AE324412F8142C2A54DA1CA9540134E4B20433DBB2212BE2D908B070BD00BF6C36000010B401223DE0114613010C242148C454BD
:4017800002EB42039B00204803445B7913F0FF0F12D002EB42039B0003441B7913F0800F04D01001194B03449C700AE01001174B03440820987004E01001144B0344802001
:4017C00098704B000B449B000F480344DC88E4B208010C4901448C71D888C0F30720C871D888C0B20871DB88C3F307234B710132D2B2082ABFD9FF22054B1A705DF8044B97
:40180000704700BF706000400C83FF1FFC5F00400A600040074B1B78074A02EBC30253681A7C824203D903EBC003586970470020704700BF0483FF1F80360000F8B5404B05
:401840001B7813F0FF0F79D03D4B18780138C0B2FFF7E0FF047AC2683A4B1878C0B200236AE01178814264D13749095CC9B25578A9425ED1917801F07F01D67806F00306B8
:40188000DFF8C8E04D000D44AD000EEB05074FF0000C87F803C092F802C087F804C092F803C00EF805C095883D8192F90250002D0DDA012E01D1072700E00D274D000D4478
:4018C000AD00224E35446F7101266E700CE0012E01D1052700E009274D000D44AD001B4E35446F7100266E70DFF868E00F010EEB07060125B57001FA05F529448900134D68
:4019000029440D89C5F307250EF807500D89EDB27570CE88F6B20E4D3D44AE71CE88C6F30726EE71CE88F6B22E71C988C1F30721697108320133DBB2A34292D3F8BD00BF58
:40194000F482FF1F7E83FF1F8883FF1F0C83FF1F70600040FC5F0040034B1A78034B03EBC2035868704700BF0483FF1F8036000008B5074B18780138C0B2FFF74BFF28B15E
:401980004268127900EBC203586908BD002008BDF482FF1F2DE9F84300220EE06F4E53009D18AD00741900217155A170E1702181A172617061710132D2B2082AEED940B999
:4019C0000AE000226649CA546649CA540133DBB200E00023012BF4D9634B1B7813F0FF0F00F0B980604B18780138C0B2FFF712FF80464368DB7913F0400F05D05B4A137800
:401A000043F00103137004E0584A137803F0FE03137098F808704FF0000901266CE0D8F80C50002464E0AB7803F07F039E425CD1314606EB46039B00484803441B899BB254
:401A4000A888834205D206EB46039B00434A134418812B784248C35CDBB26878834244D195F802C03D484B000B449B0000EB030E8EF804C095F803E000F803E0EB7803F0C5
:401A8000030395F90200002811DA012B02D14FF0070C01E04FF00D0CDFF8C0E04B0058188000704480F805C00123437012E0012B02D14FF0050C01E04FF0090C27484FEA5B
:401AC000410E0EEB01039B00034483F805C0194600234B70AB790A2B01D0022B05D1284631464A46FFF74CFB814608350134E4B2BC4298D30136F6B2082E90D9D8F80C00CA
:401B000000220CE0837803F07F0310F8084B03EB43039B0016490B449C700132D2B2BA42F0D3FFF725FF134B1860002301210EE00A4C4A00501880002044C3800289134499
:401B40009BB203F0010213449BB20131C9B20829EED9FFF70DFEBDE8F88300BF0C83FF1F8883FF1F7C83FF1FF482FF1F7F83FF1F1483FF1F8483FF1F08B5154B1A7902F0D6
:401B80007F02531EDBB2072B20D8530013449B0010490B44997841F0010199700021D970597841F0020159701B7913F0800F05D01201094B13448D229A7004E01201064B50
:401BC000134489229A70FFF7ABFB08BD002008BD006000400C83FF1FFC5F0040264B1B7903F07F035A1ED2B2072A43D810B55A001A44920021490A44917801F0FE01917028
:401C00000021D17019017F241D484454517801F0FD015170127912F0800F14D003EB4302920016490A445278D2B2012A05D11B0102461A440C23937019E01B01104A1A448D
:401C40000D23937013E003EB430292000B490A445278D2B2012A05D11B01094A1A440823937004E01B01064A1A4409239370FFF757FB10BD00207047006000400C83FF1F77
:401C8000FC5F004010B50E4B1C79E4B20D4B18780138C0B2FFF7BEFD43681B799C4201D9022C0AD8084A135DDBB208490B55044B9B78DBB21355012010BD002010BD00BF04
:401CC00000600040F482FF1F8883FF1F7C83FF1F10B59B4B1B78DBB200219A4A118013F0800F00F0AD80964A5278D2B20A2A00F27281DFE812F0690070017001700170011D
:401D000070010B007001920070019A008C4BDB78DBB2012B09D1FFF71FFE4268894B5A6012221A80FFF73CFC10BD854BDB78DBB2022B13D1824B9878FFF76CFD002800F033
:401D40004C8142687F4B5A605A68D1785A68927842EA01221A80FFF723FC10BD784BDB78DBB2032B05D02CE00A7811440133DBB201E000237449724A9278D2B29A4203D9B9
:401D80000A7812F0FF0FEFD16D4B9B7813F0FF0F0BD06B4B9B78DBB26C4A127C934204D16B4C2046FFF7AEFC21460B7813F0FF0F00F015810B78634A13805160FFF7F0FB43
:401DC00010BD00F071FD10BD13F0030317D0022B40F007815B490B80594B1B7903F07F0303EB43039B005B4A13449A78D2B25A4B1A7000225A704B60FFF7D2FB10BD5149E9
:401E000002230B80554B1A78D2B2534B1A7000225A704B60FFF7C4FB10BD4A4B01221A804F4A5A60FFF7BCFB10BD464A01231380434B1B794B490B445360FFF7B1FB10BD6E
:401E40003F4A5278013A0A2A00F2CD80DFE812F04B00CB009600CB000B00CB00CB00CB001300CB003000364B9B78DBB23E4A1370FFF756FA10BD324B9B7803F0FF041BB116
:401E8000601EC0B2FFF7C6FC04B110B9002C40F0AC80334B1B78DBB29C4206D0304B1C700120324B1870FFF775FDFFF739FA10BDFFF7E8FE002800F09A80214A1379DBB205
:401EC0001279D2B22A490A702A4AD25C2549C95CD3B28B4204D00122244B1A70FFF7AEFCFFF71EFA10BD03F00303012B17D04BB1022B7ED1124B9B7813F0FF0F7BD1FFF7AD
:401F00006DFE10BD0E4B9B78DBB2012B75D1134A137803F0FD031370FFF702FA10BD084B1B79DBB2012B6AD8054B98781B79DBB21149CA5C22EA0002CA54FFF7F1F910BD25
:401F400000600040F882FF1FE8360000CC3700009C83FF1F0C83FF1F2882FF1F7F83FF1FF482FF1F8883FF1F0583FF1F8183FF1F7E83FF1F7C83FF1F0883FF1F03F00303D3
:401F8000012B17D04BB1022B3BD1224B9B7813F0FF0F38D1FFF7F0FD10BD1E4B9B78DBB2012B32D11C4A137843F002031370FFF7B7F910BD174B1B79DBB2012B27D8154B2A
:401FC00098781B79DBB21549CA5C22EA0002CA54FFF7A6F910BD002010BD002010BD002010BD002010BD002010BD002010BD002010BD002010BD002010BD002010BD00203C
:4020000010BD002010BD002010BD002010BD002010BD00BF006000407F83FF1F0883FF1F044B1B7813F0800F01D0024B5B780020704700BF00600040054A137843F002034A
:4020400013701032137843F002031370704700BFA74300400F490B7803F0FC0200F0030313430B7001280AD10B4B1B78DBB20B4A13700B4B1B78DBB2013213707047094B99
:402080001B78DBB2054A1370074B1B78DBB201321370704741580040110100493246004015010049AF010049B701004908B50020FFF7D0FF0B4B1A7842F020021A701A7810
:4020C00002F0FB021A701A7842F008021A7003F28E231A7802F0E7021A701A7842F010021A7008BD41580040054A137843F0010313701032137843F001031370704700BFE3
:40210000A8430040054B1A7802F0FD021A701A7800F0020010431870704700BF20580040014B1870704700BF805B0040094B1B7803F00C035B08084A127812F0040F00D018
:40214000013303F1924393F82031DBB2034A1370704700BF20580040215800400846004008B51422084B1A700133002018701A7842F004021A701A7842F002021A70FFF76C
:40218000C1FFFFF7D3FF08BD2058004008B5064B1A7802F0FB021A701A7800F0040010431870FFF7C3FF08BD2158004008B5064B1A7802F0F3021A701A7800F00C00104378
:4021C0001870FFF7B3FF08BD2058004010B5002404E02046FEF77CF90134E4B20A2CF8D910BD00BF08B5FFF7F1FF08BD054A137843F0010313701032137843F001031370B4
:40220000704700BFA2430040024B1878C0F38010704700BF8F4500400230800803D000BF01380046FCD17047EFF3108072B6704780F31088704700BF01BE704708B5034BB7
:402240001B7A03FB00F0FFF7E7FF08BD8081FF1F70B504460E46074B1D681F2802D90020FFF7EAFF04F01F04103455F8240045F8246070BD08ED00E038B504460D46072917
:4022800002D90020FFF7D8FF1F2C02D90020FFF7D3FF04F01F0000F1604000F564406D01EDB2057038BD00BF134B1B78DBB20360124A127843EA02230360114A127843EA47
:4022C000024303600F4A127843EA026303600E4B1B78DBB243600D4A127843EA022343600B4A127843EA024343600A4A127843EA02634360704700BF030100490401004954
:40230000EC460040020100490101004900010049050100490601004938B50222114B1A7081220E3B1A70082202331A700F2511331D70002401331C704FF400420A4B1A6018
:4023400028460721FFF798FF28460849FFF780FF1022074B1A70074B1C70074B1C70074B1C7038BDD649004080E100E0CD2300008A83FF1F9583FF1F9483FF1F9683FF1F0C
:4023800008B5FFF751FF064A137843F0040313701032137843F004031370FFF749FF08BDA543004008B5074B1B7823B9FFF7B4FF0122044B1A70FFF7E3FF4FF40042024B00
:4023C0001A6008BD2C82FF1F00E100E038B5A44B1C78E4B2A34B1B7813F0400F00F0378114F0010F00F01B819E4B1B78453B052B00F21281DFE813F00600820010011001CB
:402400000600DE0004F0DF0504F00A04082C42D1944B1B78DBB2452B35D1934B1B7813F0FF0F10D0914B1B681B78DBB2904A137004228B4B1A7001228E4B1A704622894B9C
:402440001A702C46EBE08C4B1B7813F0020F0DD08A4A137843F00A0313706022814B1A704FF40042864B1A602C46D8E0854A137843F0100313701022834B1A700422023B36
:402480001A702C46CBE00022754B1A704A22754B1A702C46C3E00A2C2BD1784A137843F0A0031370744B1B7813F0020F14D06D4B1B7813F0080F01D0092300E00A236F4AF4
:4024C00011780B4313706022664B1A704FF400426B4B1A602C46A2E06A4A137843F0100313701022684B1A700422023B1A702C4695E00020FFF7A0FE2C4690E014F0020F26
:4025000035D15C4B1B78584A1278DBB2934210D2584A1378DBB255490968CB5CDBB254490B7004214E4B197013780133DBB2137075E0514B1B7813F0020F0CD04F4A1378A8
:4025400043F00A0313706022464B1A704FF400424B4B1A6063E04B4A137843F0100313701022494B1A700422023B1A7057E0424B1B7813F0020F0CD0404A137843F09A03D1
:4025800013706022374B1A704FF400423C4B1A6045E03C4A137843F01003137010223A4B1A700422023B1A70344A137843F09003137034E0354A1378DBB2354908682C49F7
:4025C0000978C9B2C15413780133DBB213701378304A1278DBB2934203D21022204B1A701DE0254B1B7813F0020F0CD0234A137843F00903137060221A4B1A704FF400426E
:402600001F4B1A600BE01F4A137843F0100313700022134B1A7002E00020FFF70DFE14F0200F1CD00F4B1B7813F0080F01D0012300E00223114A11780B431370114A137846
:4026400003F0EF0313701022064B1A7038BD054B1B7813F0100F02D11022024B1A7038BDD74900408A83FF1F9983FF1F9083FF1FD84900409683FF1F9783FF1F9583FF1F1E
:4026800080E100E0D6490040D94900409483FF1F8C83FF1F9883FF1F002948D070B40C4626490978C9B2102906D12549097811F0080F11D1002112E020490978C9B2602961
:4026C0000CD14FF400451F490D601F4D297801F0F7012970002102E0012100E0022149BB4526164D2E700026184D2E70184D2A70184A1460184A1370134C227802F0FD02AC
:4027000022704200D2B21548027013F0010F06D012220B4B1A700422023B1A7002E00122074B1A704FF400420D4B1A6002E0022108467047084670BC704700BF8A83FF1F2B
:40274000D949004080E200E09583FF1F9683FF1F9983FF1F9083FF1F9783FF1FD849004000E100E000294AD070B40C4627490978C9B2102906D12649097811F0080F11D164
:40278000002112E021490978C9B260290CD14FF4004520490D60204D297801F0F7012970002102E0012100E0022159BB4926174D2E700026194D2E70194D2A70194A14609E
:4027C000194A1370144C227802F0FE0222704200D2B242F001021548027013F0010F06D012220B4B1A700422023B1A7002E00122074B1A704FF400420D4B1A6002E0022184
:4028000008467047084670BC704700BF8A83FF1FD949004080E200E09583FF1F9483FF1F9883FF1F8C83FF1F9783FF1FD849004000E100E04FF40042084B1A60084B187874
:40284000C0B2084B1B7813F0400F01D040F004004FF40042044B1A60704700BF80E100E09583FF1F8A83FF1F00E100E04FF40043044A1360044A107800211170034A136003
:40288000704700BF80E100E09583FF1F00E100E0014B1878704700BF9483FF1F014B1878704700BF9683FF1F08B5124B1B7803F00303012B02D0022B04D00FE00D4B1B79DA
:4028C000DBB20CE00B4B1B7903F07F0303EB43039B00094A13449B78DBB200E00023074A1268D35C022B02D1FEF7B0FB08BD002008BD00BF006000401483FF1F8483FF1F67
:40290000F7B50193194B041C1B7883422CD9184B184F1B6808261954396800230B54164B16491B6809681B5C8025CA54420000923968201C0B191A782A431A70FEF7C4F96D
:40294000FEF7C6F90028FBD10D4B009A1B6801999B5A8B4204D23A6813191A78AA431A70013E6D08002EE3D1F7BDC0463181FF1F4081FF1F4481FF1F5481FF1F5881FF1F65
:402980003C81FF1F70B5194DFF232B54184B0F221B68041C1E5C174BFFF7B2FF164A174B10881B5D311C584300F07EF980B2802804D92B5D40085B082B55F8E7104BC0B21F
:4029C0001855104B1049800818556200002353520E490F4853520F490968095DFF2444540D4843540D4909688B5270BDB082FF1F4481FF1F980D00003481FF1F6436000058
:402A0000CC82FF1FD482FF1F9482FF1FB882FF1FAC82FF1F5481FF1FC882FF1F3881FF1F1E4BF7B51A681E4E43001E4C9A5A9F5B195BBD1AADB20191891A6940090429D57B
:402A4000002D27D0019D1F53511B89B28DB22CB2002C01DA4D42ADB21349EDB20F5C79088D4217DA114C215C8D4206DD104D00260131FF082E54C9190BE08D420AD00C4D29
:402A80002F5C092F02D801372F5403E000272F54013921540249CA52F7BDC0463C81FF1F9482FF1FB882FF1FCC82FF1FD482FF1FA482FF1F70B5264B051C1B681C5CFFF72E
:402AC000AFFF244B595D244B48005A5DC0B2234B824204D9185D904205D91A5503E01E5D864200D9185548080918C8B29208011C904200D2111C1A4AC8B2165D864200D2B6
:402B0000115518490968085D17490968095D4118013989B28D421AD11449185D0D6828551348155D0668355500680E680019355D06786D08AE4200D3057009680D48095DD0
:402B4000006889080155FF2119550023135570BD5481FF1FD482FF1FCC82FF1FAC82FF1FC882FF1F4C81FF1F5081FF1F4881FF1F6081FF1F5C81FF1FF7B50022224B1B78B0
:402B800093423FD9214C2248267800230768B446191CDDB265450BD2FD5C954206D11D4DEE5C351C8E4200D20D1CE9B20133F0E7194B1B689954247800680194009000233F
:402BC000019CD8B2A0421AD2009CE05C904214D1124CE05C0F4D5D192F78B94206D901267F003743B0402F7080B2F3E7FF25071CAF4301D0E55400E0E0540133E0E7013224
:402C0000D2B2BBE7F7BDC0463081FF1F3281FF1F5481FF1FB082FF1F5881FF1FCC82FF1F38B5FEF767F80024194B1A781D1CA2420AD9184B01221978D923201C93400134BC
:402C4000FFF75EFEE4B2EFE70023134A12789A420BD91249124A09681248C95C1268C908415CD1540133DBB2EFE7FEF73DF800242B78A34208D90A4B201C1B68195D01340B
:402C8000FFF780FEE4B2F3E7FFF776FF38BDC0463181FF1F3681FF1F3281FF1F4481FF1F4081FF1F44360000002902D0B0FBF1F0704708B14FF0FF3000F008B80029F8D012
:402CC0000246B0FBF1F000FB11217047704700BF014B1868704700BFF081FF1F0E4B70B51E460E4C0025E41AA410A54204D056F8253098470135F8E700F08EFD084B094C4D
:402D00001E46E41AA4100025A54204D056F8253098470135F8E770BD2438000024380000243800002C38000010B5431E0A44914204D011F8014B03F8014FF8E710BD0346B1
:402D40000244934202D003F8011BFAE7704700000EB400B54FF402719CB0ADF814106FF00041049107914FF6FF711DABADF81610084953F8042B02900690086802A90193BE
:402D800000F064F8029B00221A701CB05DF804EB03B07047F081FF1F2DE9F0478E688246B3420C469046994640D38A8912F4906F3AD02568096902236F1A656905EB450584
:402DC00095FBF3F57B1C4B449D4238BF1D4653050FD5294600F030FB064698B121693A46FFF7A2FFA38923F4906343F08003A38113E02A4600F076FB064670B95046216997
:402E000000F0D6FA0C23CAF80030A3894FF0FF3043F04003A381BDE8F08726613E4426604E466561ED1BA560B14500D24E4632462068414600F0A0FAA36800209B1BA3601A
:402E400023681E442660BDE8F08700002DE9F0439DB003938B8906461C060D4690460CD50B6953B9402100F0E7FA2860286110B90C233360CCE040236B61002309932023E0
:402E80008DF8293030238DF82A3043461C4613F8012B1AB9B4EB08090FD002E0252AF5D1F8E73046294642464B46FFF775FF013000F0A980099B4B4409932378002B00F071
:402EC000A28000234FF0FF3204930793059206938DF853301A9304F101084446DFF8489121784846052200F039FA08F10108049B30B1C9EB00000122824013430493ECE783
:402F0000D80644BF20228DF85320190744BF2B228DF8532022782A2A02D0079923460EE0039A0134111D12680391002ABBBF524243F0020307920792B8BF04930AE01C464D
:402F400022780133303A092A03D80A2000FB0121F5E7079123782E2B1AD163782A2B0AD1039B02341A1D1B680392002BB8BF4FF0FF3305930CE0611C00220C4623780131EE
:402F8000303B092B03D80A2000FB0232F5E70592DFF8988021784046032200F0DFF938B1049AC8EB00004023834013430493013421781A48062204F101088DF8281000F080
:402FC000CDF988B1164B33B9039B073323F007030833039313E003AB0093304604A92A46104BAFF3008007E003AB0093304604A92A460C4B00F092F8421C074603D0099BCD
:403000003B44099341E7AB895B0601D4099801E04FF0FF301DB0BDE8F08300BFEC37000000000000992D0000E2370000E83700002DE9F84391461F468A680B69064693421A
:40304000B8BF1346C9F8003091F843200C46DDF8208012B10133C9F800302368990642BFD9F800300233C9F80030256815F006051CD094F843302268003318BF01239206CA
:403080001FD5E118302081F843005A1C94F845102244023382F8431013E03046394604F119020123C047013007D00135E368D9F800209B1A9D42F0DBDBE74FF0FF30BDE887
:4030C000F8833046394604F14302C0470130F4D02268D9F80050E36802F00602042A08BF5D1B2269A3680CBF25EAE57500259342C4BF9B1AED184FF00009A9450ADA30463C
:40310000394604F11A020123C0470130D5D009F10109F2E70020BDE8F88300002DE9FF410C461746227E98466E2A06460A9B01F1430100F0B08012D8632A23D00AD8002A09
:4031400000F0BD80582A40F0CC8084F84520DFF804E257E0642A1ED0692A1CD0C1E0732A00F0B18009D86F2A2ED0702A40F0B980226842F0200222603FE0752A24D0782AC6
:403180003BD0AEE01A6804F14205111D1960136884F84230A9E020681A6810F0800F02D0101D186008E010F0400F02F10400186002D0B2F9003000E01368002B3EDA2D22CF
:4031C0005B4284F8432039E020681A6810F0800F02D0101D186007E010F0400F02F10400186001D0138800E01368227EDFF864E16F2A0CBF08220A221CE07822DFF858E1A2
:4032000084F845202268186812F0800F00F104051D6003D1550601D5038800E00368D00744BF42F0200222601BB9226822F0200222601022002084F8430002E0DFF814E13D
:403240000A226568002DA8BF2068A560A4BF20F00400206003B965B10D46B3FBF2F002FB10331EF8033005F8013D03460028F4D100E00D46082A0BD12368DA0708D5236978
:4032800062689A42DEBF302305F8013C05F1FF35491B21612EE025681A6815F0800F606903D0151D1D60136808E015F0400F02F104051D60136801D0188000E018600023A3
:4032C00023610D4616E01A68111D1960156800212846626800F042F808B1401B6060636804E004F1420584F8422001232361002384F84330CDF800803046214603AA3B4631
:40330000FFF796FE013002D14FF0FF301FE0304639462A462369C0470130F5D023689B0705D4E068039B9842B8BF18460FE00025E368039A9B1A9D42F3DA3046394604F1C2
:4033400019020123C0470130DED00135F0E704B0BDE8F081F33700000438000010B5C9B202449042034605D01C7801308C42F8D1184610BD002010BD814210B501EB020388
:4033800001D3421E0BE09842FBD28118D21AD34204D013F8014D01F8014DF8E710BD994204D011F8014B02F8014FF8E710BD000030B500293CD051F8042C0B1F1D49002A46
:4033C000B8BF9B180A680C4612B95A600B6030BD93420DD219685818904201BF5A5852181A60426823605A6030BD994203D80A4651680029F9D1146815199D420AD11B68C8
:403400002344D0188842136012D10868034413604B680CE002D90C23036030BD1C681819884201BF08684968001918605960536030BD00BF3482FF1F70B5CC1C24F00304F5
:4034400008340C2C38BF0C24002C064603DA0C233360002070BD8C42F9D3204A136810461946A1B10A68121B0ED40B2A03D90A608B188C501FE08B420BBF5A684A680260E0
:403480005A6018BF0B4616E00B464968E9E7144D2B681BB9304600F04BF828603046214600F046F8421C0346D1D0C51C25F0030585420AD11C6003F10B001A1D20F00700AD
:4034C000821A0AD05142995070BD3046E91A00F02FF80130BBD02B46ECE770BD3482FF1F3082FF1FF8B5074615460E4621B91146BDE8F840FFF7A0BF1AB9FFF759FF2846B1
:40350000F8BD00F025F8A8420ED238462946FFF793FF044650B131462A46FFF705FC38463146FFF745FF01E03046F8BD2046F8BD38B5064C0023054608462360FCF786FE16
:40354000431C02D1236803B12B6038BDC083FF1F51F8040C0028BEBF091851F8043CC0180438704700000000256C75003C5100403C5100403C5100403C5100403C5100407F
:403580003C5100403C5100403C5100401C510040CB5A0040835A0040010204081020408010011000C84900401900005100401000405100403000C0510040100000000140A7
:4035C000001000140140000800400140000A004C0140000200500140200000000303030303030303010204081020408018500040195000401A5000401B5000401C5000402A
:403600001D5000401E5000401F500040065200400E520040165200401E520040265200402E520040365200407E52004000000000000000001600000024120000080000004C
:40364000000000000101010101010202020202030303030303040404040404050505050505060606020202020202020230313233343536373839414243444546000000002E
:40368000010000008836000001000000CC370000000000000000000001000000A0360000010000008837000003000000CC36000000000000000000000000000000000000AB
:4036C00000000000C8360000020A000000008103080002000100820240000A000100030240000A0002030000040309042C034300790070007200650073007300200053006F
:4037000065006D00690063006F006E0064007500630074006F007200100355005300420055004100520054003803430044004300200043006F006D006D0075006E00690047
:4037400063006100740069006F006E00200049006E007400650072006600610063006500260343004400430020004400610074006100200049006E00740065007200660005
:403780006100630065000000090243000201018032090400000102020103052400100104240202052406000105240100010705810308000A09040100020A000004070582B7
:4037C0000240000007050302400000001201000202000008B40432F201000102800100004300232D302B2000686C4C006566674546470030313233343536373839414243B1
:40380000444546003031323334353637383961626364656600000000F8B500BFF8BC08BC9E4670474D000000C9020000F8B500BFF8BC08BC9E467047290000005038000090
:403840000881FF1FF0000000D00100000000000000000000C883FF1FFF000000C8C8C8C8C8C8C8C8030100006400000001000000140000000100000001080800F229050089
:403880007082FF1F4882FF1F4082FF1F1481FF1F2081FF1F403600003C3600002C3600001C81FF1F1882FF1F2881FF1F00C2010000000800C201000000080000A1200000E3
:4038C00000000200000000000000E02EC05D00001800000000366E010000000000000000000000000000000000000000000000000000000000000000E037000000000000C7
:4039000000000000000000000000000000000000000000000000000000000000000000000000000000000000000000000000000000000000000000009081FF1F0000000058
:403940000000000000000000000000000000000000000000000000000000000000000000000000000000000000000000000000000000000000000000000000000000000047
:403980000000000000000000000000000000000000000000000000000000000000000000000000000000000000000000000000000000000000000000000000000000000007
:4039C00000000000000000000000000000000000000000000000000000000000000000000000000000000000000000000000000000000000000000000000000000000000C7
:403A00000000000000000000000000000000000000000000000000000000000000000000000000000000000000000000000000000000000000000000000000000000000086
:020000040003F7
:0200000480007A
:4000000001450040045200400864004001010140020301402A08014022090140470A01402D0B01404F0C0140320D0140010F0140021501400117014002190140041B0140AB
:4000400007400140064101400342014002430140034401400C450140084601400A47014003480140054901400C4C0140014D014003500140025101407E02100114091EFFF3
:400080007C4009FF0CFF0DFF1CFF1DFF2CFF2DFF891FE204E208E608810283018B028C068F01940495039602980299019A049B029C01A401A804B103B201B406B808C023D2
:4000C000C554C620C80BC9FFCAFFCBFFCC02CD20CF05D110D602D804D904DA04DB04DE08DF01E040E140E280E480E68002020A140B01102819181A04210122023114395217
:4001000040204110421048204B015110734078209150921195029604974099049D18A008A602C001C207C406CC06CE0DD006DE040302060507020802093B0B040C020D04E0
:40014000153D17021802193F1C011D1F1F202004220825102608270129262B192D082E022F01320233033401353C360C3E404002410349FF4AFF4BFF4C024D0C4EF8521782
:40018000580459045A045B045F01624863A168F06AF06CF06EF09701B701C006C103C6A0C9FFCAFFCBFFCC03CD0CCEF4D904DA04DF01E248E3A1E8F0EAF0ECF0EEF0001085
:4001C0000108020209400A04102011401302181419241A112110222825402A802B2831103248350839263B404014430447044D20542068086954730292809504960497403D
:400200009A80A328A62AB640C007C203C40DCA0ECC4ECE0FD046D22000071607200122042406340436033E504026410145604662480E58045A045F01610C62F0630C650C47
:40024000670C6840694C6A406B4C6C906D586F0C8601876089528C098D298E04920893039409960298099C029D789F04A202A401A608A809AB7BAD7BAE01B001B160B2086E
:40028000B318B406B507BE10BF15C042C103C762C830D608D804D904DA04DB0FDF01E10CE2F0E30CE50CE70CE840E94CEA40EB4CEC90ED58EF0C01040302050208010940C6
:4002C0000A140B400E101080122A16A019021A901B1A1DA02044210428022B083002324038083AA04044410445A04C804F205006554056A057205A406002780184028608D0
:40030000C015C22FC43FCA0CCC09CE0ED037D220D608D808DE01E402E608E204E680EA01EE029201EE028A019201E680EA0130023120350236408002CCF0E22085229D0234
:40034000A520A640E210E6103E10A640CE209610A6403B208240CE08010104101108510454208420871096409720C009C408D40690109101950896409C20A420B504EE024C
:4003800008200B400E4090109101950896409C20A420C20E9610AE40EE4079088904AA10DE40EA8010201320150879017C10901091019508A420AF40C40EDE03AB200001EE
:4003C0000C010E0100AB03C04000000000000000C00000000000000000001000090000020B000900000000000000FF00000000000000000000000000000000000000000045
:4004000000000000000000000000000000000000000000000000000000000000000000000000000000000000000000000000000000000000000000000000000000000000BC
:40044000000000000000000000000000000000000000000000000000000000000000000000000000000000000000000000000000000000000000000000000000000000007C
:40048000000000000000000000000000000000000000000000000000000000000000000000000000000000000000000000000000000000000000000000000000000000003C
:4004C00000000000000000000000000000000000000000000000000000000000000000000000000000000000000000000000000000000000000000000000000000000000FC
:0200000490006A
:0400000000004005B7
:0200000490105A
:04000000BC90ACAF55
:0200000490303A
:020000009F3D22
:0200000490402A
:4000000000000000000000000000000000000000000000000000000000000000000000000000000000000000000000000000000000000000000000000000000000000000C0
:400040000000000000000000000000000000000000000000000000000000000000000000000000000000000000000000000000000000000000000000000000000000000080
:400080000000000000000000000000000000000000000000000000000000000000000000000000000000000000000000000000000000000000000000000000000000000040
:4000C0000000000000000000000000000000000000000000000000000000000000000000000000000000000000000000000000000000000000000000000000000000000000
:0200000490501A
:0C00000000012E16106900012E2BAFA687
:00000001FF