:400000000080002011000000650200006502000080B500AF024A034B1B68136000F026F9BC760040FA460040080002230000087608000323000010760800042300002876A0
:4000400008000523000030760500062300002070050007230000307005000823000060700500FE230000707010000A220000105130000B220000405110000C220000C0513D
:400080001000FE220000F05180050E220000000080010F22000000068001102200000008000211220000000E80031222000000148001132200000018000214220000001A79
:4000C0000001152200000040800016220000004280001722000000438004182200000044000219220000004C1000FE220000105007001B23000000522000FE2300007064CB
:4001000080001D230000000A80001E230000800A80001F230000000C800020230000800C1000212300000050800022230000801980002323000080178000242300008009DE
:400140008000252300008007800026230000000B800027230000800B8000282300008005800029230000000D80002A230000800D80002B230000004980002C2300008049D5
:4001800080002D230000804880002E230000804380002F230000804280003023000000418000FE2300008041010000000100000001000000004801400100000000480040F4
:4001C0000100000000200140010000000020004010B5054C237833B9044B13B10448AFF300800123237010BD2081FF1F000000003C0E0000084B10B51BB108480849AFF36A
:4002000000800848036803B910BD074B002BFBD0BDE81040184700BF000000003C0E00002481FF1F0881FF1F0000000080B500AF00F0E2FC00F0D8FA00F01EFD0346002BF8
:400240000DD0012000F022FB054800F0DDFA00F003FD0346184600F077FC00F025FDEBE7400E000080B400AFFEE700BF80B586B000AF224B7B61224B3B61204B7B6135E0E4
:400280003B691B68FB603B695B68BB603B699B683B6000237B600CE0FB681A68BB681A60BB680433BB60FB680433FB607B6804337B607A683B689A42EED13B69DB683B608B
:4002C00000237B6008E0BB6800221A60BB680433BB607B6804337B607A683B689A42F2D13B6910333B617B69013B7B617B69002BC6D100F071FDFFF799FFFEE701000000D4
:40030000380F000080B582B000AF174B174A1A60174A174B1B6843F40073136000237B600FE07B68032B04D8124A7B6852F8233000E0114B11497A6841F822307B680133F0
:400340007B607B682F2BECD90D4B1B78DAB20D4B1A700D4B094A1A6000F08AF90B4B00221A600837BD4680BD0CED00E00004FA0514ED00E000000000650200000080FF1F7C
:40038000BC7600400481FF1F08ED00E00081FF1F80B584B000AFF860B9607A60F868B9687A6800F03FFD1037BD4680BD80B483B000AF0346FB71FEE780B483B000AF434BE7
:4003C00000221A60424B10221A70424B01221A70414B00221A70414B4FF4C0721A80404B01221A703F4B03221A703F4B3F4A92B21A803F4B47F608021A803E4B00221A80F9
:400400003D4B4FF480421A803C4B09221A703C4B0D221A703B4B1A221A703B4B1C221A70BFF35F8F394B01221A70BFF35F8F00BF2A4B1B889BB2002BFAD100237B600DE009
:400440007B68DA00324B13441946324A7B6852F823309BB20B807B6801337B607B682F2BEED9BFF35F8F294B01221A70BFF35F8F00BF294B1B78DBB203F00103002BF8D123
:4004800000BF264B1B78DBB203F00103002BF8D100BF234B1B78DBB203F00103002BF8D100BF204B1B78DBB203F00103002BF8D100BF1D4B1B78DBB203F00103002BF8D162
:4004C0000C37BD465DF8047B704700BF4081FF1F00760040107000401970004000780040027800400378004004780040280000000678004004760040067600402970004030
:40050000397000406970004079700040147000400C780040440E0000187000402870004038700040687000407870004080B582B000AF304B77221A802F4B18221A702F4B72
:4005400002221A704FF0402308221A702C4B03221A702C4B2C4A1278D2B21A702B4B08221A802B4B41F251221A800023FB7019237B6014E0FB785B00DAB2264B1B78DBB258
:4005800003F00103DBB21343DBB203F00303FB704FF4F07000F0DCFB7B68013B7B607B68002B02D0FB78032BE4D17B68002B02D10320FFF7FBFE184B4FF480721A80164B50
:4005C00007221A70154B00221A70154B48221A70114B00221A70134B02221A70124A124B1B78DBB243F00103DBB213700837BD4680BD00BF804000408240004000430040F1
:4006000000420040A14600400801004922420040204200402542004004400040064000400840004001400040A243004080B483B000AF0B4B1B78FB710A4AFB7903F007036A
:40064000DBB21370084AFB791B09DBB21370074B44221A700C37BD465DF8047B704700BFCF0100496E5800406F5800407658004080B500AF72B62B4A2A4B1B78DBB243F021
:400680000403DBB21370FFF797FE274A264B1B78DBB243F00203DBB21370244A234B1B78DBB243F00203DBB21370214A204B1B78DBB243F04003DBB213701E4A1D4B1B782B
:4006C000DBB243F01003DBB213701B481B490822FFF75EFE1A481B490822FFF759FE1A481A490822FFF754FE194BE4221A70194A184B1B78DBB243F00803DBB21370164BD7
:4007000061221A70FFF712FF134B81221A70134B01221A70FFF78AFF114805490E22FFF737FE80BDE84600400350014013500140A0430040C243004002510040380A004826
:4007400022510040400A004832510040480A00485B0A0140224300400048004004000840B043004080B500AF282000F001FB032000F09EF9052000F0FBFA032000F098F915
:400780000F2000F0F5FA032000F092F9012000F0EFFA022000F08CF9052000F0E9FA062000F074F80E2000F071F82C2000F06EF8082000F06BF8012000F068F80C2000F051
:4007C00065F8032000F062F8052000F0D1FA80BD80B500AF0C2000F059F8024B01221A7080BD00BF4881FF1F80B500AF054B1B78002B04D1FFF7B6FF024B01221A70FFF782
:40080000E7FF80BD4981FF1F80B584B000AF78600123FB737B681B78BB730BE0BB7B184600F01AF8FB7B7A6813441B78BB73FB7B0133FB73BB7B002BF0D11037BD4680BDD5
:4008400080B582B000AF0346FB71FB79184600F003F80837BD4680BD80B584B000AF0346FB7100F02DF8FB791B09FB73FB7B184600F0E2F8FB7903F00F03FB73FB7B184630
:4008800000F0DAF81037BD4680BD00BF80B584B000AF0346FB7100F013F8FB791B09FB73FB7B184600F004F9FB7903F00F03FB73FB7B184600F0FCF81037BD4680BD00BFBC
:4008C00080B582B000AF4FF4CA737B60554A554B1B78DBB223F07F03DBB21370524B1B78DBB223F00F03FB704F4AFB7843F00F03DBB213704D4B1B78DBB223F00F03FB708D
:400900004A4AFB7813704A4B1B78DBB223F00F03FB70474AFB781370424A424B1B78DBB223F02003DBB213703E4A3E4B1B78DBB243F04003DBB21370002000F03BFA394A63
:40094000384B1B78DBB243F01003DBB21370012000F030FA374B1B78FB70324A314B1B78DBB223F01003DBB21370002000F022FAFB7803F00803FB702A4A2A4B1B78DBB264
:4009800043F01003DBB21370012000F013FA254A244B1B78DBB223F01003DBB21370FB78002B02D10A2000F005FA7B68013B7B60FB78002B02D07B68002BBDD1194A194B38
:4009C0001B78DBB223F04003DBB21370154A154B1B78DBB223F07F03DBB21370124A124B1B78DBB223F00F03DBB213700F4B1B78DBB223F00F03FB700C4AFB7843F00F03C7
:400A0000DBB213700A4B1B78DBB223F00F03FB70074AFB7843F00F03DBB213700837BD4680BD00BF205100402251004023510040245100402151004080B582B000AF03466C
:400A4000FB711A4A194B1B78DBB243F02003DBB21370164A154B1B78DBB223F04003DBB21370002000F0A6F9104A104B1B78DBB223F00F03DBB213700C490C4B1B78DAB2F2
:400A8000FB791343DBB243F01003DBB20B70012000F090F9054A054B1B78DBB223F01003DBB213700837BD4680BD00BF2051004080B582B000AF0346FB71144A134B1B78F9
:400AC000DBB223F06003DBB21370104A0F4B1B78DBB223F00F03DBB213700C490B4B1B78DAB2FB791343DBB243F01003DBB20B70012000F05FF9054A044B1B78DBB223F031
:400B00001003DBB213700837BD4680BD2051004080B582B000AF0346FB71FB791B09DBB21A46084B9B5C1846FFF78AFEFB7903F00F03044AD35C1846FFF782FE0837BD46E0
:400B400080BD00BF040F000080B582B000AF0346FB80FB881B0A9BB2DBB21846FFF7D8FFFB88DBB21846FFF7D3FF0837BD4680BD80B500AF074B0F221A7000F0A9F800F0B8
:400B80004BF800F059F8044B00221A70034B00221A7080BD8A6400408C6400408B64004080B582B000AF00F0DBF80346FB710F4A0E4B1B78DBB243F02003DBB213700C4AD6
:400BC0000B4B1B78DBB243F01003DBB21370094A084B1B78DBB243F01003DBB21370FB79184600F0C1F80837BD4680BD9A6400409C6400409B64004080B500AF054B1B788F
:400C0000002B04D1FFF7B4FF024B01221A70FFF7C7FF80BD4A81FF1F80B483B000AF054B1B78FB71FB7918460C37BD465DF8047B704700BF6C64004080B483B000AF054BF2
:400C40001B78FB71FB7918460C37BD465DF8047B704700BF6B64004080B483B000AF054B1B88FB80FB8818460C37BD465DF8047B704700BF5A64004080B483B000AF094BA7
:400C80001B78DBB203F00803002B01D0012300E00023FB71FB7918460C37BD465DF8047B704700BF6B64004080B400AF01E0064B1B88064B1B78DBB203F00803002BF6D1FD
:400CC000BD465DF8047B70475A6400406B64004080B582B000AF01E0194B1B88194B1B78DBB203F00803002BF6D100F039F80346FB71154A144B1B78DBB243F00303DBB26D
:400D00001370114A104B1B78DBB223F00303DBB213700E4A0D4B1B78DBB243F00303DBB213700A4A094B1B78DBB223F00303DBB21370FB79184600F017F80837BD4680BDD7
:400D40005A6400406B6400409A6400409B6400400230800803D000BF01380046FCD17047EFF3108072B6704780F31088704700BF80B582B000AF786008E00C4B1B681846BA
:400D8000FFF7E6FF7B68A3F500437B607B68B3F5004FF2D8064B1B687A6802FB03F31846FFF7D6FF0837BD4680BD00BF1881FF1F1081FF1F80B582B000AF0346FB80FB8848
:400DC000044A127802FB03F31846FFF7C1FF0837BD4680BD1481FF1F0E4B70B51E460E4C0025E41AA410A54204D056F8253098470135F8E700F08EF8084B094C1E46E41AFD
:400E0000A4100025A54204D056F8253098470135F8E770BD200F0000200F0000200F0000280F000010B5431E0A44914204D011F8014B03F8014FF8E710BD0000000000002F
:400E400030780000C8010000C0010000B8010000B0010000A8010000A8010000A8010000A80100004081FF1F4081FF1F4081FF1F4081FF1F4081FF1F4081FF1F4081FF1F19
:400E80004081FF1F4081FF1F4081FF1F4081FF1F4081FF1F4081FF1F4081FF1F4081FF1F4081FF1F4081FF1F000000480802004808000048880000480801004888010048A0
:400EC0002802004838020048B802004838030048B803004838040048B804004838050048B805004838060048B806004838070048B807004838080048B80800483809004831
:400F0000B809004830313233343536373839414243444546F8B500BFF8BC08BC9E467047F501000005030000F8B500BFF8BC08BC9E467047D1010000480F00000881FF1F3A
:400F400018000000300000000000000000366E01C05D0000180000000000E02E00000000000000000000000000000000000000000000000000000000000000000000000041
:400F80000000000000000000000000000000000000000000000000000000000000000000000000000000000000000000000000000000000000000000000000000000000031
:400FC00000000000000000000000000000000000000000000000000000000000000000000000000000000000000000000000000000000000000000000000000000000000F1
:4010000000000000000000000000000000000000000000000000000000000000000000000000000000000000000000000000000000000000000000000000000000000000B0
:401040000000000000000000000000000000000000000000000000000000000000000000000000000000000000000000000000000000000000000000000000000000000070
:020000040003F7
:0200000480007A
:40000000060C000000000000000000000000000000001E0000002100000080000000000000000000C100020000010000C1000400C10008001000C1008000200040011F00CC
:400040000000000000005110020620000100000000FFFFFF0200700C8C10000000000224040424240888082100000000000000004001C001000000000000000000000000AE
:400080000000000000000000020000000000000000000100000000000000000001000000000000000000000000000000000000000000000000000000020000000000010039
:4000C00000000000000041000602600005C0EFDB3EFFFFFF2300F00C8C10000020000000040024040008002100000000000000004001C0010000000000000000000000005B
:400100000000000000000000080000000000000000000001050000000000000000000000000000000000010000000700000000000000080000000000020108000400010091
:4001400000000000000054000000000000000000000000000000000000000000410000000404000400000001000000000000000000000000000000000000000000000000DD
:40018000000000000000000000000000000000000000000000000000000000000000000000000000000000000000000000000000000000000000000000000000000000003F
:4001C00000000000000000000000000000000000000000000000000000000000000008000000000400000000000000000000000000000000000000000000000000000000F3
:40020000000000000000000000000000000000000000000000000000000000000000000000000F7847000000010000000000000000000000010001000000000001000000EC
:40024000000000000000000000000000000000000000000000000000010000000000000000000000000000000000000000000000000000000000000000000000000000007D
:40028000000000000000000000000000000000000000000000000000000000000000000000000000000000000000000000000000000000000000000000000000000000003E
:4002C00000000000000000000000000000000000000000000000000000000000000000000000000000000000000000000000000000000000000000000000000000000000FE
:4003000000000000000000000000000000000000000000000000000000000000000008000000000000000000000000000000000000000000000000000000000000000000B5
:4003400000000000000000000000000000000000000000000000000001000000000000000000200000000000000010800000000000000000000000000000000000000000CC
:4003800000000000000000000000000000000000000000000000000000000000000000008000000000000000000000000000000000000000000000000000000000000000BD
:4003C00000000000000000000000000000000000000000000000000000000000000000000000000000000000000000000000000000000000000000000000000000000000FD
:4004000000000000000000000000000000000000000000000000000000000000000000008000000001000000000000000000000000000000000000001000020000028400A3
:4004400000010100000020000A04000000000000150008420200000108200000000000000000008000000000000000000000000000101000000000000500000000200000FD
:40048000040000000000448000000000000194000000000000020000002000000000080A0A04010000000000000000000000000000002080000020000000000000000000DC
:4004C00000000200000000000000000804108000000008000000000000000000000100020021000000000000040000020401000000000000000000005300290007000000A4
:4005000000000100000000002C0034000000800074000000000043000000000020000000000000000000000000000000000000000000000000000000000000000000000003
:40054000000000000000000000000000000000000000000000000000000000000000000000000000000000000000000000000000000000000000000000000000000000007B
:40058000000000000000000000000000000000000000000000000000000000002000000000000000000000000000000000000000000000000000000000000000400000805B
:4005C0000000000000000002000000008000040000000000400002140000000000000080000000000000000000000000000000000000080400000020000000000000000073
:4006000000800100000000000000000000000000042180000098000080400426000000200000000000000000000000000000000000000000000000000000000000000000F2
:4006400000480000000000000000000000000000000000000000000000000000000000000000000000000000000000000000000000000000000000009000800050000000D2
:4006800000000000000020000000000000007F004F0000000000000000000000000000000000000000000000000000000000000000000000000000001000000000401000EC
:4006C00000000000000000000000000000000000000000000000000000000000000000000000000000000000000000000000000000000000000000000000000000000000FA
:4007000000000000000000000000000400000000000000000000000000000000000000000000000000000000000000000000000000000000000000000000000000000000B5
:400740000000000000000000000000081000000000000000004010000000000000000000000000000000000000000000000000000000000000000000E00000000000000031
:400780000000000000000000000000002000000000000000000000000000000000000000000000000000000000000000000000000000000000000000000000000000000415
:4007C0000000000000000000000000001000000800000000004010000000000000000000000000000000000000000000000000000000000000000000000000000000000091
:4008000000000000000000000000000000000000000000000000000000000000000010000000000000000000000000000000000000000000000000000000000000000000A8
:4008400000000000000000000000000010000008000000000040100000000000000000001000000000000000004000000000000000000000000000000000000000000000C0
:4008800000000000000000000000000000000000000000000000000000000000000000000000000080000000000000000000000000000000000000000000000000000000B8
:4008C0000000100000000000000000001000000800000000004010000000000000000000000000000000000000000000000000000000000000000000000000000000000080
:4009000000000000000000000000000000000000000000000000000000000000000000000000000000000000000000000000000000000000000000000000000000000000B7
:400940000000000000000000000000000000000000000000000000000000000000000000000000000000000000000000000000000000000000000000000000000000000077
:4009800000000000000000000000000400001000004000001000000000000000000000000000000000000000000000000000000000000000000000000000000000000000D3
:4009C00000000000000000000000000000000000000000000000000000000000000000000000000000000000000000000000000000000000000000000000000000000000F7
:400A0000000000000000000000000000E000200000000000000000000000000000000000000000000000000000000000000000000000000000000000001F1F001F00000059
:400A4000007F7F00000000000E0101000100000000000000000000000000000000000000000000000000000000000000000000000000000000000000000000000000000067
:400A80000000000000000000000000000000000000000000000000000000000000000000000000000000000000000000000000000000000000000000000000000000000036
:400AC00000000000000000000000000000000000000000000000000000000000000000000000000000000000000000000000000000000000000000000000000000000000F6
:400B000000000000000000000000000000000000000000000000000000000000000000000000000000000000000000000000000000000000000000000000000000000000B5
:400B40000000000000000000000000000000000000000000000000000000000000000000000000000000000000000000000000000000000000000000000000000000000075
:0200000490006A
:0400000000004005B7
:0200000490105A
:04000000BC90ACAF55
:0200000490303A
:0200000084CBAF
:0200000490402A
:4000000000000000000000000000000000000000000000000000000000000000000000000000000000000000000000000000000000000000000000000000000000000000C0
:400040000000000000000000000000000000000000000000000000000000000000000000000000000000000000000000000000000000000000000000000000000000000080
:400080000000000000000000000000000000000000000000000000000000000000000000000000000000000000000000000000000000000000000000000000000000000040
:4000C0000000000000000000000000000000000000000000000000000000000000000000000000000000000000000000000000000000000000000000000000000000000000
:0200000490501A
:0C00000000012E16106900012E1B953423
:00000001FF