:400000000080002011000000950000009500000080B500AF024A034B1B68136000F03EF8BC760040FA46004010B5054C237833B9044B13B10448AFF300800123237010BDB7
:400040004081FF1F00000000A41E0000084B10B51BB108480849AFF300800848036803B910BD074B002BFBD0BDE81040184700BF00000000A41E00004481FF1F0881FF1F4D
:400080000000000080B500AF62B600F0D5FD00F0EFFDFCE780B400AFFEE700BF80B586B000AF224B7B61224B3B61204B7B6135E03B691B68FB603B695B68BB603B699B68C9
:4000C0003B6000237B600CE0FB681A68BB681A60BB680433BB60FB680433FB607B6804337B607A683B689A42EED13B69DB683B6000237B6008E0BB6800221A60BB680433F9
:40010000BB607B6804337B607A683B689A42F2D13B6910333B617B69013B7B617B69002BC6D101F085FEFFF7ADFFFEE701000000901F000080B582B000AF174B174A1A6068
:40014000174A174B1B6843F40073136000237B600FE07B68032B04D8124A7B6852F8233000E0114B11497A6841F822307B6801337B607B682F2BECD90D4B1B78DAB20D4BA0
:400180001A700D4B094A1A6000F06EF90B4B00221A600837BD4680BD0CED00E00004FA0514ED00E000000000950000000080FF1FBC7600400481FF1F08ED00E00081FF1F4F
:4001C00080B582B000AF78603960786800213A6801F05FFE0837BD4680BD00BF80B584B000AFF860B9607A60F868B9687A6801F045FE1037BD4680BD80B483B000AF034669
:40020000FB71FEE780B487B000AF7860396000233B6100237B6127E07B699B007A6813441B68BB60BB68FB73BB6823F0FF03BB6014E03B695B003A6813441B781A46BB68E1
:40024000134419463B695B003A6813445B780B703B6901333B61FB7B013BFB73FB7B002BE7D17B6901337B617B69192BD4D91C37BD465DF8047B704780B582B000AF304B5A
:4002800001221A802F4B18221A702F4B02221A704FF0402308221A702C4B03221A702C4B2C4A1278D2B21A702B4B08221A802B4B41F251221A800023FB7019237B6014E091
:4002C000FB785B00DAB2264B1B78DBB203F00103DBB21343DBB203F00303FB704FF4F07000F05EFF7B68013B7B607B68002B02D0FB78032BE4D17B68002B02D10320FFF72E
:400300007BFF184B4FF480721A80164B07221A70154B00221A70154B48221A70114B00221A70134B02221A70124A124B1B78DBB243F00103DBB213700837BD4680BD00BF2B
:4003400080400040824000400043004000420040A14600400801004922420040204200402542004004400040064000400840004001400040A243004080B483B000AF114B66
:400380001B78FB71104AFB7903F00703DBB213700E4AFB791B09DBB213700D4B80221A700C4B00221A700C4B20221A700B4B09221A700B4B44221A700C37BD465DF8047B4E
:4003C000704700BFCF0100496E5800406F5800402D51004070580040D35A0040005B00407658004080B483B000AF0346FB71FB79092B0ED8FB79094A52F82330FA79074905
:4004000051F822201178FA790548825C0A43D2B21A700C37BD465DF8047B7047A81E0000D01E000080B483B000AF0346FB71FB79092B10D8FB790A4A52F82330FA790849A6
:4004400051F822201178FA790648825CD243D2B20A40D2B21A700C37BD465DF8047B7047A81E0000D01E000080B582B000AF72B6434A434B1B78DBB243F00403DBB2137090
:400480000023FB7113E0FA7913465B0013445B003C4A13443B603B681A683B689B889BB210461946FFF78CFEFB790133FB71FB79072BE8D94FF090403349FFF7A3FE334BE1
:4004C0004FF440721A80324B40F203221A80314A304B1B78DBB243F00203DBB213702E4A2D4B1B78DBB243F00203DBB213702B4A2A4B1B78DBB243F04003DBB21370284A47
:40050000274B1B78DBB243F01003DBB21370254825490822FFF762FE244825490A22FFF75DFE244824490522FFF758FE234824490822FFF753FE234823490822FFF74EFE49
:40054000224B44221A70224A214B1B78DBB243F00803DBB213701F4B61221A70FFF78CFE1C4B81221A701C4B01221A70FFF704FF1A480A490E22FFF731FE0837BD4680BDB7
:40058000E8460040DC1E000068000048705800404C5800400350014013500140A0430040C24300400251004098030048C0510040A0030048CB510040AC03004812510040EF
:4005C000B403004822510040BC0300485B0A0140224300400048004004000840B043004080B485B000AF0346FB71FB79114AD35CFB73FB79FA79104931F812100F4A22F8B9
:400600001310FB790E4A0021D154FB790D4A002122F81310FB7B002B06D0FB7B013BFA7B0949895C094AD1541437BD465DF8047B704700BF641F00000082FF1F8481FF1F31
:400640009481FF1F7481FF1F2481FF1F5C81FF1F80B582B000AF0346FB71FB79184600F055FF00BF00F096FF0346002BFAD1FB791846FFF7B5FF0837BD4680BD80B582B0B0
:4006800000AF0023FB7106E0FB791846FFF7E0FFFB790133FB71FB79062BF5D90837BD4680BD00BF80B586B000AF0346FB71FB79454AD35C7B757B7D444A32F813307B82C9
:4006C000FB79434A32F813303B82FB79414A32F813303A8A9A4209D3FB793E4A32F813303A8AD31AFB8201237B7508E0FB79394A32F813203B8AD31AFB8200237B757B7DC6
:40070000002B18D1FB8A142B15D9FB79324AD35C042B08D9FB791846FFF762FFFB792E4A0021D1543AE0FB792B4AD25C0132D1B2294AD15432E0FA8A7B8A9A4205D9FB8A10
:40074000132B2BD87B7D002B28D1FB79214A32F813301B02FB60FB79204AD35C1A46FB681343FB603B8AFA681344FB60FB79194A32F813301A46FB689B1AFB60FB79FA6811
:40078000120A91B2134A22F81310FB79FA68D1B2124AD154FB79104A0021D154FA8A7B8A9A4208D97B7D002B05D0FB790C49FA8A21F8132004E0FB79094A002122F8131072
:4007C0001837BD4680BD00BF641F00001481FF1F0082FF1F8481FF1FA081FF1F9481FF1F7481FF1F80B582B000AF0023FB7118E0FB79DB08BB71FB7903F00703012202FA7D
:4008000003F37B71BB790A4AD25C7B791340DBB2002B03D0FB791846FFF744FFFB790133FB71FB79062BE3D90837BD4680BD00BF2881FF1F80B487B000AF0346FB71FB7986
:40084000DB08BB75FB7903F00703012202FA03F37B75FB793A4AD35C3B753B7D394A32F813307B823B7D384A32F813303B823B7D364AD35CFB733B7D002B06D10223FB75EB
:40088000FB7D334A0121D15402E03B7D013BFB75BB7D304AD25C7B7D1340DBB2002B19D0FB792D4A32F8133019467A8A3B8AD31A994233DABB7DBA7D2649895C7A7DD243C6
:4008C000D2B20A40D1B2234AD154FB7D2049FA7BCA5423E0FB79204A32F8133019467A8A3B8A1344994215DDFB7D194AD35C012B08D8BB7DBA7D1749895C7A7D0A43D1B276
:40090000144AD154FB7D124AD25C013AD1B2104AD15403E0FB7D0E49FA7BCA54BB7D0D4AD25C7B7D1340DBB2002B01D0012300E0002318461C37BD465DF8047B704700BFFA
:40094000641F00000C81FF1F1C81FF1F2481FF1F5C81FF1F9C81FF1F7481FF1F80B584B000AF0346FB71FB790F4AD35CFB73FB790E4AD25CFB7B13447B730023BB73FB7BCF
:400980001846FFF757FF0346002B01D00123BB73FB7B0133FB73FA7B7B7B9A42EFD3BB7B18461037BD4680BD0C1F0000101F000080B582B000AF0023BB710023FB710BE081
:4009C000FB791846FFF7CAFF0346002B01D00123BB71FB790133FB71FB79022BF0D9BB7918460837BD4680BD80B485B000AF0346FB710B46BB711346BB80FF23BB730023F1
:400A0000BB81FB795B00164A1344BB600023FB731AE0FB7B5B00BA6813441B88BA889A420FD2FB7B5B00BA6813441B88BA899A4207D2FB7BBB73FB7B5B00BA6813441B88EC
:400A4000BB81FB7B0133FB73FA7BBB799A42E0D3BB7B18461437BD465DF8047B704700BF7481FF1F90B488B000AF0446084611461A462346FB710346BB710B467B71134651
:400A80007B800023FB770023BB77BB795B00494A1344BB61FB79002B02D0FB79013BFB77FB790133BB77FB795B00BA6913441A88414B5A80FB79002B0AD13F4B00221A803E
:400AC000BB7F5B00BA6913441A883B4B9A801DE0FA797B79013B9A420AD1FB7F5B00BA6913441A88344B1A80334B00229A800DE0FB7F5B00BA6913441A882F4B1A80BB7F5E
:400B00005B00BA6913441A882B4B9A802A4B1B883A8D9A4207D2284B1A883B8DD31A9AB2254B1A8002E0244B00221A80224B5A883B8DD31A9AB2204B5A801F4B9B883A8D04
:400B40009A4207D21C4B9A883B8DD31A9AB21A4B9A8002E0184B00229A80174B9B881A46154B1B88D31A7B61134B1B881A46124B5B881344104A928813443B617B691B0225
:400B80001A463B6992FBF3F3FA79120213443B617B881AB23B6902FB03F33B613B6903F5FE431B0CFB73FB7B18462037BD4690BC704700BF7481FF1F6081FF1F90B587B052
:400BC00002AF0346FB71FB79174AD35C7B73FB79164AD35C3B73FB79154A32F81330797B3A7B084611461A46FFF7FEFE0346FB72FB7AFF2B0FD04FF4C854FB790D4A32F884
:400C00001330F87A797B3A7B00932346FFF72AFF0346FB8102E04FF6FF73FB81FB8918461437BD4690BD00BF0C1F0000101F00000C81FF1F1481FF1F80B500AF0A4800F047
:400C40009BFE0A4B01221A7000F000FCFFF716FDFFF714FD00F0ECF83F203F21034A00F01BF900F06DFC80BDA981FF1FA881FF1F80B500AF00F08EFC0346002B21D11148B7
:400C800000F00EFFFFF7AEFD0F4800F025F80D4800F09AFE0D4B4FF400421A6000BF0C4B5B78DBB2042BFAD100F0D2F8034603F01003002BF3D1074B4FF400421A6000F055
:400CC0003FFC80BDA981FF1FAC81FF1F00E100E0A881FF1F80E100E0B0B584B000AF78600023FB7319E0FC7BFB7B1846FFF766FF03461B029DB2FB7B1846FFF75FFF03462A
:400D00001B0A9BB29BB22A4613439BB29AB27B6823F81420FB7B0133FB73FB7B002BE2D0FFF746FE0023FB730BE0FB7BFA7B0849895C7A6813440A4683F82C20FB7B013327
:400D4000FB73FB7B002BF0D01037BD46B0BD00BF9C81FF1F80B500AF154B01221A70154B81221A70144B04221A70144B03221A70134B00221A70134B4FF400421A600F20C2
:400D8000072100F051FA0F200F4900F025FA0F4B00221A700E4B00221A700E4B00221A800D4B00221A800D4B00221A8080BD00BFD6490040C8490040CA490040DB4900408F
:400DC000DC49004080E100E0050F0000EA81FF1FF081FF1FF881FF1FEC81FF1FEE81FF1F80B582B000AF00F0E3F90346FB710D4A0C4B1B78DBB243F00403DBB213700A4A6F
:400E0000094B1B78DBB243F00403DBB21370FB79184600F0D1F9054B4FF400421A600837BD4680BDA5430040B543004000E100E080B500AF054B1B78002B04D1FFF78AFF33
:400E4000024B01221A70FFF7CBFF80BD6881FF1F80B483B000AF0D4B4FF400421A600C4B1B78FB710A4B1B78DBB203F01003DAB2074B1A70074B4FF400421A60FB791846AB
:400E80000C37BD465DF8047B704700BF80E100E0F081FF1F00E100E080B483B000AF03463A60FB800B46BB800F4B4FF400421A603B68002B08D00D4A3B6813600C4AFB88CC
:400EC00013800C4ABB8813800B4B00221A800B4B00221A800A4B4FF400421A600C37BD465DF8047B704700BF80E100E0F481FF1FE881FF1FEE81FF1FF881FF1FEC81FF1F21
:400F000000E100E080B400AF974B1B78DAB2974B1A70964B1B7803F00803002B42D0944B1B78DBB203F00103002B24D0904A914B1B689149098889B20B441B78DBB213700B
:400F4000894B14221A708C4B1B889AB28B4B1A808A4B1B889BB201339AB2884B1A80884B1B78DBB243F01103DAB2854B1A70854B08221A70D9E07C4B10221A70804B1B78B7
:400F8000DBB243F01203DAB27D4B1A707D4B01221A707D4A7C4B1B78DBB243F01003DBB21370C2E0714B1B7803F00103002B00F0BC80744B1B78DBB2013B072B00F2A8805F
:400FC00001A252F823F000BFE90F000003100000111100004F10000011110000111100001111000099100000614B1B78DBB29AB2664B1A805C4B10221A70624B02221A7076
:4010000093E0624B1B881B029AB2594B1B78DBB29BB213439AB25D4B1A805C4B1A885C4B1B889BB29A420ED24F4B10221A70574B1A88514B1A80554B1A88504B1A80514B10
:4010400004221A7071E0484B00221A706DE04B4B1B889AB24F4B1B889BB29A4218D2444B1B78DAB24C4B1A703F4B10221A70414B1B68424A128892B21344474A12781A7084
:401080003E4B1B889BB201339AB23C4B1A804CE0354B00221A7048E0344B1B7803F00203002B23D1354B1B889AB2394B1B889BB29A4214D22E4A2F4B1B683049098889B20E
:4010C0000B441B78DBB21370274B04221A702B4B1B889BB201339AB2284B1A8025E0244BFF221A70204B04221A701EE0204BFF221A701D4B00221A70214B1B78DBB223F0E8
:401100001003DAB21E4B1A701E4B00221A700CE01C4B00221A70184B00221A80174B00221A80114B00221A7000BF0F4B1B78DBB203F02003002B12D0114B1B78DBB223F0D9
:401140001003DAB20E4B1A700E4B00221A700E4A0D4B1B78DBB223F01003DBB21370BD465DF8047B704700BFD74900406A81FF1FD8490040F481FF1FF881FF1FEC81FF1F16
:40118000F081FF1FEA81FF1FD64900406C81FF1FE881FF1FEE81FF1F6E81FF1F000000000230800803D000BF01380046FCD17047EFF3108072B6704780F31088704700BF6B
:4011C00080B483B000AF0346FB7101BE0C37BD465DF8047B704700BF80B584B000AF03463960FB710F4B1B68FB60FB791F2B02D90020FFF7E5FFFB7903F01F0310339B003D
:40120000FA6813441B68BB60FB7903F01F0310339B00FA6813443A681A60BB6818461037BD4680BD08ED00E080B582B000AF03460A46FB711346BB71BB79072B02D900203D
:40124000FFF7BEFFFB791F2B02D90020FFF7B8FFFB7903F01F0303F1604303F56443BA795201D2B21A700837BD4680BD80B582B000AF00F09FF9022000F0A8FAFFF798FFA4
:401280000346FB713B4A3B4B1B78DBB243F00303DBB21370384A384B1B78DBB243F00303DBB21370FB791846FFF786FF334B4FF434421A80324B4FF6FF721A80314B072207
:4012C0001A70FFF775FF0346FB712F4A2E4B1B78DBB243F00303DBB213702C4A2B4B1B78DBB243F00303DBB21370FB791846FFF763FF274BFF221A70264BFF221A70264BC1
:40130000FF221A70254BFF221A70254BFF221A70244BFF221A70244B01221A6000202349FFF75AFF00200721FFF77EFF00F04CFD0720FFF757F80820FFF754F80920FFF7E2
:4013400051F81B4A1A4B1B78DBB243F00403DBB2137000F0D7FB00F061FC002000F0BAFC042000F0D7FC002000F0F4FC0837BD4680BD00BF986400409964004028640040B1
:40138000486400408A6400409C6400409D6400402C6400404C6400400C6400402D6400405D6400404D64004080E100E00D1800007964004080B582B000AFFFF7F9FE034690
:4013C000FB711C4A1B4B1B78DBB243F02003DBB2137000F013FD00F0C7FB00F041FC164A154B1B78DBB243F01003DBB21370134A124B1B78DBB243F01003DBB21370104A90
:401400000F4B1B78DBB243F00103DBB21370FB791846FFF7D1FE0B4B01221A600A4A0A4B1B78DBB263F07F03DBB213700837BD4680BD00BF9A640040BB430040AB430040CB
:401440007058004000E100E07964004080B500AF054B1B78002B04D1FFF708FF024B01221A70FFF7A7FF80BD7081FF1F80B485B000AF0346FB71FB790133FB71FB79072B59
:4014800000D111E0FB79DB08FB73FB7903F00703012202FA03F3BB73FB7B074AD25CBB7B1340DBB2002BE6D0FB7918461437BD465DF8047B704700BF2881FF1F80B584B06B
:4014C00000AF0346FB71FB790B4AD35CFB73FB790A4AD35C184600F03DFC094AFB7B0949CB5C1370FB79084AD35C184600F058F91037BD4680BD00BF641F00002C81FF1FB7
:401500005C6400403481FF1F3881FF1F80B582B000AF0346FB71084B00221A70074AFB791370054B81221A70FB79184600F0C0F80837BD4680BD00BFFD81FF1FFC81FF1F83
:4015400080B500AF114B00221A70114BFF221A700F4B1B78DBB21846FFF788FF03461A460B4B1A700A4B1B78DBB2062B0DD8074B1B78DBB243F00103DAB2044B1A70044BB2
:401580001B78DBB2184600F093F880BDFD81FF1FFC81FF1F80B400AF054B1B78DBB203F00103DBB21846BD465DF8047B704700BFFD81FF1F80B582B000AF0023FB7106E015
:4015C000FB79184600F03EF8FB790133FB71FB79062BF5D90837BD4680BD00BF80B584B000AF0346FB71FB79124AD35CFB73FB79114AD35CBB73FB79104A52F82330092232
:401600001A70FB7B0F2B01D10723FB73FB7B0C4A52F82330FA7B0A4951F822201178BA7B0A43D2B21A70FB791846FEF7DBFE1037BD4680BD341F00003C1F0000181F000025
:40164000441F000080B584B000AF0346FB71FB79134AD35CFB73FB79124AD35CBB73FB791846FEF7DFFEFB7B0F2B01D10723FB73FB7B0D4A52F82330FA7B0B4951F8222023
:401680001178BA7BD243D2B20A40D2B21A70FB79064A52F8233008221A701037BD4680BD341F00003C1F0000441F0000181F000080B582B000AF0346FB71FB791846FFF704
:4016C000FDFE0F4A0E4B1B78DBB243F00103DBB213700C4A0B4B1B78DBB223F00103DBB21370FB791846FFF779FF054A044B1B78DBB243F00203DBB213700837BD4680BD1E
:40170000796400407058004080B582B000AF0346FB711E4A1D4B1B78DBB223F00303DBB21370FB791A4A1278D2B292B2120291B2184A22F81310184B1B78DBB29AB2FB793D
:40174000F979144830F811100A4391B2114A22F81310FB79FA790F4931F81220D24391B20C4A22F81310FB791846FFF76BFF002000F0F0FA094A094B1B78DBB243F001037B
:40178000DBB213700837BD4680BD00BF796400401D6400400082FF1F0D6400407058004080B483B000AF0346FB71064AFB791370054AFB795B08DBB213700C37BD465DF8C1
:4017C000047B70472B6400403B64004080B483B000AF0346FB71FB79012B08D10A4A0A4B1B78DBB223F01003DBB2137007E0064A054B1B78DBB243F01003DBB213700C3782
:40180000BD465DF8047B70477964004080B500AF1A4B1B78DBB21846FFF776FF184B1B78DBB2DBB25BB2002B08DA154B1B78DBB223F00103DAB2124B1A701DE00F4B1B78AD
:40184000DBB21846FFF712FE03461A460B4B1A700A4B1B78DBB2062B06D8084B1B78DBB21846FFF725FF07E0054B1B78DBB223F00103DAB2024B1A7080BD00BFFC81FF1F17
:40188000FD81FF1F80B584B000AF78607B681B78FB73FB7B304AD35CBB73FB7B7A685278D1B22E4AD154BB7B7A689278D1B22C4AD1547B68DA78D2B21B79DBB21B0213439C
:4018C000BB81BB7BBA89120291B2BA89120A92B292B20A4392B291B2224A22F813107B685A79D2B29B79DBB21B021343BB81BB7BBA89120291B2BA89120A92B292B20A43EA
:4019000092B291B2184A22F813107B68DA79D2B21B7ADBB21B021343BB81BB7BBA89120291B2BA89120A92B292B20A4392B291B20E4A22F81310BB7B7A68527AD1B20C4A19
:40194000D154FB7B7A68927AD1B20A4AD154FEF795FE1037BD4680BD641F00002C81FF1F3481FF1F0C81FF1F1481FF1F1C81FF1F2481FF1F3881FF1F80B483B000AF786011
:401980007B6804221A707B685A7800225A709A78002242F03E029A707B68012283F830207B6893F83120002242F0190283F8312093F83220002242F0400283F832200C37F5
:4019C000BD465DF8047B704780B485B000AF786000BF7B681B78DBB2042BFAD10023FB734CE0FB7BFA7B2B4931F81220120290B2FA7B284931F81220120A92B292B20146B4
:401A00000A4392B291B27A685B0013440A46A3F80520FB7BFA7B204931F81220120290B2FA7B1D4931F81220120A92B292B201460A4392B291B27A6808335B0013440A4615
:401A4000A3F80320FB7BFA7B144931F81220120290B2FA7B114931F81220120A92B292B201460A4392B291B27A680C335B0013440A46A3F80920FB7B0133FB73FB7B062B20
:401A8000AFD97B6884221A701437BD465DF8047B704700BF0082FF1F8481FF1F7481FF1F80B584B000AF78607B685A78D2B29B78DBB21B021343FB81FB891B029AB2FB89F4
:401AC0001B0A9BB29BB213439BB21BB20C4A934212D17B683333BB60B868FFF7D3FE7B685A7800225A709A78002242F03E029A707B68002283F830201037BD4680BD00BFF7
:401B00003E80FFFF80B500AF002000F047F8144A134B1B78DBB243F02003DBB21370104A0F4B1B78DBB223F00403DBB213700C4A0B4B1B78DBB243F00803DBB21370094A09
:401B4000084B1B78DBB223F01803DBB21370054A044B1B78DBB243F01003DBB2137080BD42580040D75A004080B400AF094A094B1B78DBB243F00403DBB21370064A064B83
:401B80001B78DBB243F00403DBB21370BD465DF8047B7047A7430040B743004080B483B000AF0346FB71164B154A1278D2B2D2B222F00302D1B2FA7902F00302D2B20A43D7
:401BC000D2B2D2B21A70FB79012B0AD10D4B0E4A1278D2B21A700D4B0D4A1278D2B21A7009E0084B0B4A1278D2B21A70074B0A4A1278D2B21A700C37BD465DF8047B704711
:401C00004258004034460040120100493546004016010049B1010049B901004980B500AF0D4B14221A700D4B00221A700B4A0B4B1B78DBB243F00403DBB21370074A074BE3
:401C40001B78DBB243F00203DBB21370002000F021F800F08FF880BD285800402958004080B400AF094A094B1B78DBB243F00403DBB21370064A064B1B78DBB243F00403AF
:401C8000DBB21370BD465DF8047B7047A8430040B843004080B483B000AF0346FB710C4A0B4B1B78DBB223F00203DBB213700849074B1B78DAB2FB7903F00203DBB2134350
:401CC000DBB20B700C37BD465DF8047B704700BF2858004080B582B000AF0346FB710C4A0B4B1B78DBB223F00403DBB213700849074B1B78DAB2FB7903F00403DBB21343B8
:401D0000DBB20B7000F036F80837BD4680BD00BF2958004080B582B000AF0346FB710C4A0B4B1B78DBB223F00C03DBB213700849074B1B78DAB2FB7903F00C03DBB213439A
:401D4000DBB20B7000F016F80837BD4680BD00BF2858004080B483B000AF0346FB71044AFB7913700C37BD465DF8047B704700BF825B004080B483B000AF104B1B78DBB211
:401D800003F00C035B08FB710D4B1B78DBB203F00403DBB2002B02D0FB790133FB71094AFB7903F1924303F594731B78DBB213700C37BD465DF8047B704700BF28580040C0
:401DC000295800400A46004080B500AF00F002F880BD00BF80B582B000AF0023FB7106E0FB791846FEF71EFBFB790133FB71FB79092BF5D90837BD4680BD00BF80B400AFB2
:401E0000094A094B1B78DBB243F00103DBB21370064A064B1B78DBB243F00103DBB21370BD465DF8047B7047A2430040B24300400E4B70B51E460E4C0025E41AA410A542AA
:401E400004D056F8253098470135F8E700F08EF8084B094C1E46E41AA4100025A54204D056F8253098470135F8E770BD781F0000781F0000781F0000801F000010B5431E95
:401E80000A44914204D011F8014B03F8014FF8E710BD03460244934202D003F8011BFAE770470000000000000C5100400C5100400C5100400C5100400C5100400C5100404E
:401EC0000C5100402C510040D35A0040935A0040204001020408108001100000C84900401900305100404000F0510040100000000140001000140140000800400140000AA9
:401F0000004C0140000200500140200002000100050101000019000005500040065000400050004001500040025000400350004004500040000000000000000020400102D6
:401F400004081000065200400E520040165200401E520040265200402E520040365200407E5200400102000000000000F8B500BFF8BC08BC9E4670474D0000003501000060
:401F8000F8B500BFF8BC08BC9E46704729000000A01F00000881FF1F38000000D00000000000000054007C00420000002A002D00210000000000120009000000010505005B
:401FC0007F0000002B293031292622003F3F1F000202030303030300000000000000000000000000000000000000000000000000000000000000000000000000000000008C
:4020000000000000000000000000000000000000000000000000000000000000000000000000000000000000000000000000000000000000000000000000000000000000A0
:402040000000000000000000000000000000000000000000000000000000000000000000000000000000000000000000000000000000000000000000000000000000000060
:402080000000000000000000000000000000000000000000000000000000000000000000000000000000000000000000000000000000000000000000000000000000000020
:4020C00000000000000000000000000000000000000000000000000000000000000000000000000000000000000000000000000000000000000000000000000000000000E0
:020000040003F7
:0200000480007A
:40000000035200400864004001030140010501403C0801402E090140390A01402F0B0140490C01402A0D0140031501400217014003190140031B014004400140044101406F
:4000400004420140014301400446014003470140054801400F490140094C0140054D01400350014002510140067F600164030BFF0CFF0DFF1CFF1DFF2CFF2DFF8A1FE20857
:40008000E6104005410649FF4AFF4BFF4C024D0C4EF85A045F01624863A168F06AF06CF06EF08102820483018404850187028B048F019004960998049B029C08A001A20286
:4000C000A903AA02B103B203B404B608B704BE04C005C102C70AC9FFCAFFCBFFCC03CD0CCEF4D217D804D904DA04DB04DF01E248E3A1E8F0EAF0ECF0EEF0000609820A0436
:400100000B201080120819601A1C1B402183220229203210380439423B20420449404E044F805208680569406A206B10708090049320950296189D209F10A404A602A70235
:40014000AC02B640C00CC20FC40ACA04CC04CE0FD004D238EC0203020402054807010802093D0A010B020D1F0FA0152617591801193B1A021B042104253F29102B412C03D6
:400180002F0233033403353C37C03F405602580459045B045E085F019C01A801B401B820C046C540C602C705C816C9FFCAFFCBFFCC02CD20CF05D110D804DA04DF01E040AF
:4001C000E140E280E480E680000801300A040F021202160818041A041B101F1020102180222829012A202B12310432203890390646804E044F0256887101724079108E10A8
:400200009080910496C4980299049A209F10A580A62AC006C282C441CA0FCC06CE0FD080D220DE04E610060708010A040C072406320334043E144021410345024660480976
:4002400058045A045F01610C62F0630C650C670C6840694C6A406B4C6C906D586F0C852986018C038D788F04920293039403977B98039B60A401A602A803A952AD7BAE01C9
:40028000B001B160B202B318B507BF15C042C103C562C803D608D804D904DA04DB0FDF01E10CE2F0E30CE50CE70CE840E94CEA40EB4CEC90ED58EF0C0040031004A005046A
:4002C00008010A54122A162018C019041A101D282004210528022A2030203105388039044004410545A8482049014C104D0456205A80600278018608C0E5C20EC427CA0CC3
:40030000CC07CE0AD077D608D808DE01E008E401EA01E201E604B712E201E604E008E401EA0131207380CC10DC8085209F80A520E2103E108F809F80CE20961000103B20E9
:40034000C002CE08AF10B410EA08800881089610E280E6201220164070087508822086409908A008AA10C430DC80DE20E010E480EA801280132017047B107F4082808304AA
:40038000C40EDE03831087409780A710AB2000010C010E01000303C000007F0000000000030000000300030000030000000200000000000000C0C00000000000007F7F00A9
:4003C000000080000000000000000000000000000000000000000000000000000000000000000000000000000000000000000000000000000000000000000000000000007D
:4004000000000000000000000000000000000000000000000000000000000000000000000000000000000000000000000000000000000000000000000000000000000000BC
:40044000000000000000000000000000000000000000000000000000000000000000000000000000000000000000000000000000000000000000000000000000000000007C
:40048000000000000000000000000000000000000000000000000000000000000000000000000000000000000000000000000000000000000000000000000000000000003C
:4004C00000000000000000000000000000000000000000000000000000000000000000000000000000000000000000000000000000000000000000000000000000000000FC
:0200000490006A
:0400000000004005B7
:0200000490105A
:04000000BC90ACAF55
:0200000490303A
:02000000A3500B
:0200000490402A
:4000000000000000000000000000000000000000000000000000000000000000000000000000000000000000000000000000000000000000000000000000000000000000C0
:400040000000000000000000000000000000000000000000000000000000000000000000000000000000000000000000000000000000000000000000000000000000000080
:400080000000000000000000000000000000000000000000000000000000000000000000000000000000000000000000000000000000000000000000000000000000000040
:4000C0000000000000000000000000000000000000000000000000000000000000000000000000000000000000000000000000000000000000000000000000000000000000
:0200000490501A
:0C00000000012E16106900012E23B3B978
:00000001FF