:400000000010002011000000F9010000F901000080B500AF00F07CFA00F0F2F880B500AF0F4B0F4A12688021C9020A431A60202001F022FC0B4B0C4A1A600C4B10221A60AB
:400040000B4B802212061A60054B802212031A60084B094A1A60094B00221A60BD4680BD00010B4004010B40060000800C02024008010B4000000240130000800C020B4031
:4000800080B582B000AF72B6FB1D00221A7023E0FB1D1A78131C5B009B185B002D4A9B183B603B681A78597809020A43997809040A43DB781B061343191C3B681A795B7962
:4000C0001B0213439BB2081C191C00F01FF9FB1D1A78FB1D01321A70FB1D1B78012BD7D91D4B1E4A1A601E4B992212041A601D4B992212041A601C4A1B4B1B78DBB2022119
:400100000B43DBB21370194A184B1B78DBB23C218B43DBB214210B43DBB21370124A124B1B78DBB216210B43DBB21370104B08221A60104BC02212011A600F4B03221A6000
:400140000E4B0F4A1A60FFF769FF00F0EFF8BD4602B080BDDC2600000C000140EEEE000000500F4030500F4000700F4001700F4000000440080004400003044008030440EE
:40018000A40D000010B5064C2378002B07D1054B002B02D0044800E000BF0123237010BDF000002000000000D826000008B5084B002B03D00748084900E000BF0748036808
:4001C000002B00D108BD064B002BFBD09847F9E700000000D8260000F4000020D00000200000000080B500AF62B6002001F076F900F032F9FEE7C04680B500AFFEE7C046E5
:4002000080B586B000AF224B7B61224B3B61204B7B6135E03B691B68FB603B695B68BB603B699B683B6000237B600CE0FB681A68BB681A60BB680433BB60FB680433FB60DA
:400240007B6804337B607A683B689A42EED13B69DB683B6000237B6008E0BB6800221A60BB680433BB607B6804337B607A683B689A42F2D13B6910333B617B69013B7B6135
:400280007B69002BC6D102F0EBF9FFF7ABFFFEE701000000CC27000080B582B000AF00237B600FE07B68032B04D8134B7A689200D35800E0114B124A796889008B507B689C
:4002C00001337B607B682F2BECD9FFF7D9FE0D4B00221A600C4B1B68002B02D10A4B00221A608023DB058022D205126801210A431A60BD4602B080BD00000000F901000018
:4003000000000020C8000020C000002080B582B000AF786039607A683B68101C00211A1C02F0CDF9BD4602B080BDC04680B500AFBD4680BD80B584B000AF78600A1CBB1C85
:400340001A800E23FB1800221A8012E0BB1C1B88013B7A68D3181B7899B20E23FB180E22BA1812888A181A80BB1C1A88BB1C013A1A80BB1C1B88002BE8D10E23FB181B880A
:400380005B429BB2181CBD4604B080BD80B586B000AFF860B960BB1D1A801723FB1800221A701423FB1800221A801AE01423FB181A88FB68D3181B78DAB21423FB181B88EF
:4003C000B968CB181B789A4204D01723FB1802221A700DE01423FB181A881423FB1801321A801423FA18BB1D12881B889A42DDD31723FB181B78181CBD4606B080BDC046D1
:4004000080B586B000AFF860B9607A601723FB1800221A70FB68002B02D0002001F0D8FB0FE07B68013B7B60FA68BB68D2187B68D31819781723FB181722BA1812788A18DF
:400440001A707B68002BECD11723FB181B78181CBD4606B080BDC04690B583B000AF06237B60002000F084F8031E01D100237B601E4B1B681B68C03BFC1C0020C0211A1CB6
:40048000FFF7BEFF031C2370194B1B681A78FB1CF91C09788A1A1A70FB1CFA1C127852421A70134B1B681B78FA1C12789A4204D10E4B1B681B68002B02D1002001F088FBF8
:4004C0000C4B1B68402B02D07B68002B05D0094B00221A60002000F0D3F8142000F0D0F800F00AF8BD4603B090BDC046D8000020D4000020C000002080B500AF034B8022B0
:400500001A6001F06FFBBD4680BDC046C000002080B582B000AF134B1B681022134002D1114B00221A60104B1B68802B17D1FB1D00221A700C4B00221A60FB1D1B78022084
:40054000191C00F0ADFE031E09D0FB1D1B780220191C00F0A5FE031C181C00F007F8BD4602B080BD00030B40C00000200047C04690B587B000AF021CFB1D1A70FB1D1B78D7
:400580000320191C00F08CFE031C0133DC01FB1D1B780420191C00F083FE031CE318FB601323FB1800221A701223FB1800221A70FB1D1B780620191C00F072FE031E012BB3
:4005C00001D1002356E0FB1D1B780320191C00F067FE031C0133DB017B611FE07A690B23FB1812781A700B23FB181B78002B08D00B23FB181B78FF2B03D01323FB18012222
:400600001A701223FB181222B9180B22BA18097812788A181A707B6901337B617A69FB689A42DBD31223FB181222BA18127852421A701223FB181C78FB1D1B780120191C16
:4006400000F02EFE031C9C4204D11323FB181B78002B01D106230DE0FB1D1A78131C5B069B1ADB01054A94466344181C012100F0CBFD0023181CBD4607B090BDD17F000046
:4006800090B5DC4CA54400AF021CDB4BCE2189008C46BC4463441A70D84BFB1800221A80D74BFB180A221A70CC239B00FB1800221A70D44BFB1800221A70CB239B00FB18D6
:4006C00000221A8001F0D6FA62B6CF4BFB1800221A70C94BCE2292009446BC4463441B78002B07D0C44BCE2292009446BC4463441B7800E0FF23EA225200B8189622510002
:40070000C0229200BA1801F0DBFA031CC8229200BA181360B84BCE2292009446BC4463441B78002B06D0B64BFB181A78B44BFB18013A1A70B24BFB181B78002B05D0C82328
:400740009B00FB181B68002BC3D1C8239B00FB181B68002B01D000F0DCFCC0239B00FB181B88062B08D9A94BCE2292009446BC4463441B78012B04D0A34BFB1804221A7028
:4007800073E0A24BCE2292009446BC446344DB789BB21B0299B29D4BCE2292009446BC4463449B789AB2954BFB180A431A80934BFB181B880733C0229200BA181288934247
:4007C00007D88E4BFB181B88DA1D96235B009A4204D98D4BFB1803221A7046E0874BFB181B880533894ACE2189008C46BC446244D35C9BB21B0299B2804BFB181B880433E8
:40080000824ACE2080008446BC446244D35C9AB27F4BFB180A431A80784BFB181B8806337A4ACE2189008C46BC446244D35C172B04D0754BFB1804221A7016E06F4BFB18DE
:400840001B8804339BB2EA225200BA18101C191CFFF770FD031C1A1C6D4BFB181B88934203D0694BFB1808221A706A4BFB1800221A80654BFB181B78002B01D000F03BFC7A
:40088000654BFB18614ACE2189008C46BC44624412791A705C4BFB1804221A705B4BCE2292009446BC4463445B78313B142B01D900F074FB9A00594BD3181B689F46514BCE
:4008C000FB181B78012B1DD14C4BFB181B88002B18D10020FFF74CFE031C5A425341DBB21A1C4A4BCE2189008C46BC4463441A71484BFB1801221A80434BFB1800221A70A4
:4009000000F0F9FB00F0F7FB3E4BFB181B78012B00D09CE0394BFB181B88032B05D0374BFB181B88832B00D091E0384BCE2292009446BC4463449B799BB21B0299B2334B19
:40094000CE2292009446BC4463445B799AB2344BFB180A431A80C6239B00FB1800221A80294BFB1800221A702A4BFB1800221A80224BFB181B88032B0DD0204BFB181B88C2
:40098000DA1EA823F918EA235B00FB180733081C191C01F08BFE204BFB181B78002B51D11D4BFB181B781A021D4BFB181B88D318DB01C5229200BA181360C6239B00FB1819
:4009C000802252001A80164BFA18C6239B00FB1812881B889A4201D2002200E00A220A4BFB181A70084BFB181B78002B1AD000F082FBC046C4FCFFFFCFFCFFFF3203000016
:400A0000310300002F030000350300009CFEFFFF1E030000360300001D030000F02600001A030000CB4BFC18C5239B00FB181A68A823FB18101C191C8022FFF7A7FC031CF8
:400A4000237004E0C34BFB1809221A7053E352E3C14BFB181B78012B66D1C04BFB181B88012B61D1BE4BFB181B78002B5CD1BD4B1B681B68DA0BBC4BFB181A70B84BFA18D7
:400A8000B94BFB1812781B789A420AD1B54B1B681B68DB099AB2B54BFB18FF210A401A8011E0AF4BFA18B04BFB1812781B789A4204D9AE4BFB1800221A8004E0AB4BFB1868
:400AC000802252001A80A94BFB181B88DAB2A84BCE2189008C46BC4463441A71A34BFB181B881B0A9BB2DAB2A14BCE2189008C46BC4463445A719E4BCE2292009446BC4434
:400B00006344FF229A719A4BCE2292009446BC4463440022DA71974BFB1804221A808D4BFB1800221A70E6E2E5E2914BCE2292009446BC4463445B78342B1BD1864BFB18D1
:400B40001B78012B00D0D6E2844BFB181B88032B00D0D0E2CB239B00FB1880221A80CB239B00FB181B88A822BA18101C00211A1C01F0A5FD784BFB181B78012B00D0DCE00F
:400B8000764BFB181B88022B00D8D6E0CB239B00FB181B88A822BA18D118704BFB181B88DA1EEA235B00FB180733081C191C01F07DFDCB239B00FA18684BFB1812881B88BF
:400BC000D3189AB2CB239B00FB18033A1A80634BFB1880221A80C4239B00FB18802252001A80CB239B00FA185C4BFB1812881B889A4200D097E05E4BCE2292009446BC4471
:400C000063449B799BB21B0299B2594BCE2292009446BC4463445B799AB2CB239B00FB180A431A80CB239B00FA18C4239B00FB1812881B889A4201D2002200E00A22454B20
:400C4000FB181A70434BFB181B78002B00D052E2434BFB181B789BB21B0299B2464BFB18CB229200BA1812888A181A803D4B1B681B68DA09CA239B00FB181A80394B1B6813
:400C80001B687F22134008D0CA239B00FB181A88CA239B00FB1801321A80374BFA18CA239B00FB1812881B889A4209D2294BFB180A221A70CB239B00FB1800221A801AE28C
:400CC000CC239B00FB181B78002B1AD10C23FB18181C0021802201F0F2FC284BFB1800221A70264BFB181B78FF22D21A0C23FB18101C191C00F018FCCC239B00FB180122D9
:400D00001A701D4BFB181A88A823FB18101C191C00F00AFC031E01D00A2200E000220D4BFB181A7003E00B4BFB1803221A70CB239B00FB1800221A80DDE1DCE1064BFB1890
:400D40001B78012B05D1CB239B00FB1800221A80DFE1D0E1350300002F030000320300001D030000D8000020130300002A0300009CFEFFFF360300000E0300000D03000029
:400D8000CD4BFB181B78012B34D1CB239B00FB181A88CA4BFB181B88D3181A1C96235B009A4222D8C64BFB1800221A70CB239B00FB181B88A822BA18D118C04BFB181A88DC
:400DC000EA235B00FB180433081C191C01F06EFCCB239B00FB18CB229200B918B74ABA18098812888A181A8004E0B54BFB1803221A7080E17FE1B14BFB181B88002B27D12B
:400E0000B04BCE2292009446BC446344AE4A03CA03C3A94BFB1801221A70AC4BFB1808221A80CB239B00FB1800221A80A74BFB181A88EA235B00FB18191DA023FB18081CFD
:400E4000191C01F033FC9E4BFB1800221A7052E19B4BFB1804221A704DE1974BFB181B78012B00D08CE0954BFB181B88032B00D086E0974BCE2292009446BC4463449B7988
:400E80009BB21B0299B2924BCE2292009446BC4463445B799AB28F4BFB180A431A808E4BFB181B781A028B4BFB181B88D318DB01C1229200BA181360864BFB181B88FF2B50
:400EC00001D8002200E00A227D4BFB181A707C4BFB181B78002B00D00DE1804BFC18C1239B00FB181B680020191C8022FFF788FA031C2370784BFB181B789BB21B0299B2FD
:400F0000774BFB18734ABA1812888A181A80724BFB181B78002B1ED1714BFB181B88FF2B19D10520002100F0BBF9031CDAB26B4BFB186A49791809788A1A1A7006200021DC
:400F400000F0AEF9031CDAB2644BFB186349791809788A1A1A70614BFB181B785B42DAB25B4BCE2189008C46BC4463441A71544BFB1800221A70554BFB1801221A80BAE07C
:400F8000B9E00020FFF7F4FA031E02D1554B80221A6000F08FFE00F025FEACE0524B1B68002B00D183E0444BFB181B78012B00D07DE0474BCE2292009446BC4463445A7854
:400FC0004A4BCE2189008C46BC4463441A70474BCE2292009446BC446344384ABA1812885A80424BCE2292009446BC446344EA225200BA1804325A608C23FB18181C0021BD
:401000000C2201F05CFB3A4BCE2292009446BC446344EA225200BA1804329A60324B1B689822B9188C22BA18081C111C9847274BFB182F4ACE2189008C46BC44624492880F
:401040001A80224BFB181A882623FF339A420CD9274BCE2292009446BC4463449A68EA235B00FB1804339A420DD0214BCE2292009446BC4463449B68002B0DD1134BFB18AA
:401080001B88002B08D00E4BFB180E221A700F4BFB1800221A802DE0154BCE2292009446BC4463441A68064BFB181A7022E0044BFB1805221A701DE02F03000032030000E2
:4010C0003503000068FDFFFFE8260000360300009CFEFFFF0A0300001D0300002703000002030000C00000200C01002060FDFFFF54FDFFFFC046124BFB181978EA235B00F4
:40110000FA18104BFB181B88081C111C1A1C00F01FF80D4BCE2292009446BC4463441B78002B01D1FFF7D1FA084BFB181B78012B01D1FFF7CAFABD46CF239B009D4490BDE3
:401140003503000036030000CFFCFFFF2F03000090B585B000AF3960111CFB1D021C1A703B1D0A1C1A803B6801221A703B680133FA1D12781A703B6802333A1D1288D2B29D
:401180001A703B6803333A1D1288120A92B2D2B21A703B1D1B8804339BB20E22BC183A68101C191CFFF7C6F8031C23803B1D1B8804333A68D3180E22BA181288D2B21A7008
:4011C0003B1D1B8805333A68D3180E22BA181288120A92B2D2B21A703B1D1B8806333A68D31817221A703B1D1B8807339AB239683B1D081C111C1A1C962300F0C3FD031C18
:40120000181CBD4605B090BD80B5A6B000AF78600A1CFB1C1A707B689022BA1813609023FB181B68DA098E23FB181A807B687F2293438822BA1813609623FB1800221A8067
:4012400014E09623FB181B889622BA1811888822BA1812688A1811780822BA18D1549623FB181A889623FB1801321A809623FB181B887F2BE5D97B687F2213400822BA18F5
:40128000F91C0978D1548E23FB181A880823FB18101C191C00F048F9BD4626B080BDC04680B586B000AF021CFB1D1A70BB1D0A1C1A701323FB1802221A700023FB60FB1D32
:4012C0001B780C2B00D9A8E09A00774BD3181B689F46BB1D1A78131C5B069B1ADB01734A944663447B611323FB1801221A709AE0BB1D1A78131C5B069B1ADB016C4A9446E4
:4013000063447B611323FB1804221A708BE0BB1D1A78131C5B069B1ADB01664A944663447B6180E0BB1D1A78131C5B069B1ADB01614A944663447B611323FB1804221A7042
:4013400071E0BB1D1A78131C5B069B1ADB015B4A944663447B611323FB1801221A7062E0BB1D1A78131C5B069B1ADB01544A944663447B611323FB1801221A7053E0BB1DD0
:401380001A78131C5B069B1ADB014E4A944663447B6148E0BB1D1A78131C5B069B1ADB01494A944663447B613DE0BB1D1A78131C5B069B1ADB01454A944663447B6132E03C
:4013C000BB1D1A78131C5B069B1ADB01404A944663447B611323FB1804221A7023E0BB1D1A78131C5B069B1ADB013A4A944663447B611323FB1801221A7014E0BB1D1A78BF
:40140000131C5B069B1ADB01334A944663447B611323FB1804221A7005E0002000F0D8FB00237B61C0461323FB181B78012B03D17B691B78DBB2FB601323FB181B78022BA7
:401440000BD17B691B78DBB2FB607B6901331B78DBB21B02FA681343FB601323FB181B78042B1BD17B691B78DBB2FB607B6901331B78DBB21B02FA681343FB607B690233F2
:401480001B78DBB21B04FA681343FB607B6903331B78DBB21B06FA681343FB60FB68181CBD4606B080BDC04644270000C07F0000C17F0000C57F0000C97F0000D07F000014
:4014C000D17F0000D67F0000D27F0000D47F0000D87F0000DC7F0000E07F000080B584B000AF021CFB1D1A700E4B1B68DAB20F23FB1808218A431A70FB1D1B78DB00DBB27A
:4015000008221340D9B20F23FB180F22BA1812780A431A70034B0F22BA1812781A60BD4604B080BD0000044090B5AFB000AF7860396000239422BA18136000239022BA18E4
:4015400013600023A022BA1813600023B422BA1813600023B022BA1813600023AC22BA1813600023A822BA1813607B68FF2B00D943E13B68002B00D13FE10823FB180833AC
:401580001A1C3B68101C191C802201F08FF80223A422BA1813602FE00823FB18A422BA1812689200D3589C22BA1813609C23FB181B68002B19D0AC23FB181A689C23FB18E9
:4015C0001B68D318AC22BA181360A823FB181A689C23FB181B681343A822BA181360A423FB181B68B422BA181360A423FB181B680133A422BA181360A423FB181B68212B93
:40160000CAD9AC23FB181B68002B06D1A823FB181B68002B01D0012300E00023A022BA181360A023FB181B68002B11D00823FB18B422BA1812689200D358B022BA1813607C
:401640000823FB18B422BA18126892000021D1500823FB186E4A1A600823FB187F225A606C4B0822BA181A606B4B6C4A1A60694B1B681B0F1A07A0231B069A4204D0654B54
:401680001B680F22134000E000239422BA1813609423FB181B68002B00D0ADE09B23FC1800F02CFC031C237000F0C2F8031C9022BA1813609423FB181B68002B24D108235C
:4016C000FB18574A1A600823FB181A687B681B041A430823FB181A604E4B0822BA181A604D4B504A1A604B4B1B681B0F1A07A0231B069A4204D0474B1B680F22134000E0B9
:4017000000239422BA1813609423FB181B68002B60D1A023FB181B68002B5BD00823FB180833181C0021802200F0C9FF0823FB18B422BA1812689200B02179180968D15025
:401740000823FB18324A1A600823FB187F225A60304B0822BA181A602F4B304A1A602D4B1B681B0F1A07A0231B069A4204D0294B1B680F22134000E000239422BA181360EA
:401780009423FB181B68002B24D10823FB18264A1A600823FB181A687B681B041A430823FB181A601B4B0822BA181A601A4B1F4A1A60184B1B681B0F1A07A0231B069A42A8
:4017C00004D0144B1B680F22134000E000239422BA1813609023FB181B68002B05D100F039F8031C9022BA1813609B23FB181B78181C00F087FB04E003E004239422BA18B0
:4018000013609423FB181B68181CBD462FB090BDB6D70000080000400400004004000080B6D8000005000080B6D900000600008080B582B000AF00237B60044B1A68044B8C
:401840001A607B68181CBD4602B080BD08010B401001002080B582B000AF00237B60044A044B1B6813607B68181CBD4602B080BD08010B401001002090B585B000AF78602A
:401880000C23FC1800F03AFB031C23707B68022B00D8B4E07B68302B00D9B0E05E4B1B78DBB21A1E7B689A420AD35C4A0F23FB1812781A705A4A0E23FB1812781A703FE034
:4018C000584B1B78DBB21A1E7B689A420AD3564A0F23FB1812781A70544A0E23FB1812781A702DE0524B1B78DBB21A1E7B689A420AD3504A0F23FB1812781A704E4A0E2308
:40190000FB1812781A701BE04C4B1B78DBB21A1E7B689A420AD34A4A0F23FB1812781A70484A0E23FB1812781A7009E0464A0F23FB1812781A70454A0E23FB1812781A706A
:401940007B68DA1E0B23FB1841498A5C1A700B23FB181B782F2B0DD97B682A2B0AD93D4B19221A60052000F0BFFA0D23FB1819221A7007E0374B1B68DAB20D23FB183F21F4
:401980000A401A700B23FA180D23FB1812781B789A4208D22F4B7A68033A2D498A5C1A60052000F0A1FA7B68284A9A180A23FB1812781A70284B0A22BA1812781A60274B9C
:4019C0000F22BA1812781A60254B0E22BA1812781A60052000F03AF90B23FA180D23FB1812781B789A4209D91A4B7A68033A18498A5C1A60052000F077FA03E002E0002014
:401A000000F0E6F80C23FB181B78181C00F07AFABD4605B090BDC046C0F1FF0FC1F1FF0FC2F1FF0FC3F1FF0FC4F1FF0FC5F1FF0FC6F1FF0FC7F1FF0FC8F1FF0FC9F1FF0FBD
:401A4000CAF1FF0FCBF1FF0FCCF1FF0FCDF1FF0F782700002CFF0B4028FF0B401CFF0B4020FF0B4080B584B000AF021C3960FB1D1A7080239B05FB60FB1D1B781F2B02D906
:401A8000002000F0A5F8FB1D1B7810339B00FA68D3181B68BB60FB1D1B7810339B00FA68D3183A681A60BB68181CBD4604B080BD90B587B000AF021CFB1D1A70BB1D0A1CDF
:401AC0001A70BB1D1B78032B02D9002000F080F8FB1D1B781F2B02D9002000F079F8FB1D1B7803221340DB0006337B611323FC1800F004FA031C2370FB1D1B789B08DBB237
:401B00009B00144A944663441B68FB607B6903229A40131CDA43FB681340FB60BB1D1A787B699A40131CFA681343FB60FB1D1B789B08DBB29B00074A94466344FA681A607F
:401B40001323FB181B78181C00F0DCF9BD4607B090BDC04600E400E080B582B000AF021CFB1D1A70054BFA1D12781F210A40012191400A1C1A60BD4602B080BD00E100E028
:401B800080B582B000AF021CFB1D1A70054BFA1D12781F210A40012191400A1C1A60BD4602B080BD80E100E080B582B000AF021CFB1D1A70054BFA1D12781F210A4001219B
:401BC00091400A1C1A60BD4602B080BD80E200E080B582B000AF021CFB1D1A7001BEBD4602B080BD80B500AF044B044A12681204120C03490A431A60BD4680BD0CED00E05E
:401C00000400FA0580B582B000AF786009E00C4B1B68181C00F068F97B680A4A944663447B607A6880231B029A42F0D8064B1B687A685343181C00F057F9BD4602B080BDE0
:401C4000E80000200080FFFFE000002080B582B000AF021CBB1D1A80BB1D1B88044A12785343181C00F040F9BD4602B080BDC046E400002080B500AF0A4B181C402100F038
:401C800011F9094B181C002100F0E6F8074B181C00F082F9064B00221A6000F051F9BD4680BDC0465401002014010020F51D00009401002080B500AF00F054F9BD4680BD73
:401CC00090B587B000AFF860081C7A60191C0A23FB18021C1A800923FB180A1C1A7001237B61FB68002B42D00A23FB181B88002B3DD010237B610923FB181A78131C9B00E2
:401D00009B185B003B612FE01B4B1B78DBB210221340DBB2002B21D0184B1B689AB27B681A80154B00221A70144B00221A607B681A880A23FB181988101C82B28BB29A42A1
:401D400000D9081C83B21C1CFA680D4B101C191C221C00F0ABFC00237B6108E00120FFF751FF3B69013B3B613B69002BCCD17B69181CBD4607B090BDBC010020AC0100200A
:401D80005401002080B586B000AFF860081C7A60191C0A23FB18021C1A800923FB180A1C1A7001237B61FB68002B1AD00A23FB181B88002B15D07B680A22BA1812881A80A2
:401DC0000A23FB181B880949FA68081C111C1A1C00F06CFC0A23FB181A88054B1A6000237B617B69181CBD4606B080BD140100209401002080B500AF124B1B684022134051
:401E00001DD0114B1B68102213400ED00F4B1B68002B14D00D4B1A680D4B1A600D4B00221A600A4B00221A6009E00A4B1A68084B1B689A4203D0064B1A68064B1A60BD4610
:401E400080BDC0464C0F07406400074094010020B8010020A401002080B582B000AF786039607B68002B11D00B20FFF789FE094B7A681A60084B3A681A60084B00221A6053
:401E8000074B00221A600B20FFF766FEBD4602B080BDC046B0010020B8010020A4010020A001002080B582B000AF786039607B68002B0ED00B20FFF763FE074B7A681A60E4
:401EC000064B3A681A60064B00221A600B20FFF743FEBD4602B080BDB4010020A8010020AC010020000000000230800804D0C0460138FDD1C046C046C0467047EFF31080F3
:401F000072B6704780F310887047C046C046C04680B500AF00F086F8BD4680BD80B500AF064B064A1268802109060A431A6000F03FF800F045F8BD4680BDC0460000074005
:401F400080B500AF064B1B78002B04D1FFF7E0FF034B01221A70FFF7E1FFBD4680BDC0469801002080B500AF0B20FFF709FE00F02BF8074B064A1268520052081A60054B43
:401F800000221A600B20FFF70FFEBD4680BDC04600000740880F074080B582B000AF7860024B7A681A60BD4602B080BD9C01002080B500AF0B20FFF7CFFDBD4680BDC0468F
:401FC00080B500AFBD4680BD80B500AF00F0A6F8BD4680BD80B500AF0E4B1A6880235B00134012D00C4B1A688023DB0113400CD1084B084A126809490A401A60054B054ABD
:402000001268802149000A431A60054B02221A60BD4680BD0000074060000740FFFEFFFF6C00074080B500AF254B254A12680C210A431A60234B00221A60234B234A1A601B
:40204000234B244A1A60244B00221A60234B244A1A60244B1F4A1A60234B00221A600B20FFF78EFD0B200321FFF722FD1F4B0B20191CFFF7F7FC1E4B00221A601D4B0022FB
:402080001A601D4B4C22FF321A601C4B00221A601B4B00221A601B4B00221A601A4B10221A701A4B00221A70194B00221A60194B00221A60184B00221A70BD4680BDC04697
:4020C00070000740000007406000074077080040000307400701008004030740100307401000FE00000207400402074031210000C80E0740880E0740480F0740080F074016
:40210000C80F0740880F0740BE010020BC010020A4010020AC010020BD01002080B500AF024B10221A70BD4680BDC046BE01002080B582B000AF00233B60DA4B1B68002BBE
:4021400002D0D84B1B689847D74B1B680122134002D0D64B00221A60D54B1B78DBB220221340DBB2002B32D1D24B1A680223FF3313402CD0CE4B1B78DBB201221340DBB24D
:40218000002B10D0CC4B1B78DBB202229343DAB2C94B1A70C84B1B78DBB209221343DAB2C54B1A7010E0C44B1B78DBB220229343DAB2C14B1A70C04B1B78DBB27022524235
:4021C0001343DAB2BC4B1A70B94B00221A70B84B1B78DBB220221340DBB2002B00D00DE2B34B1B78DBB210221340DBB2002B00D1D6E1B04B1B680222134056D0AF4B022271
:402200001A60AF4B1B680F221A40AD4B196880231B020B4001D0012300E00023D3187B60A84B1B78DBB21A1E7B689A4208D9A24B1B78DBB204221343DAB29F4B1A700AE07C
:40224000A04B1B78DBB21A1C7B689A1A9E4B1B689A1A9D4B1A609C4B1A689C4B1A609C4B00221A60974B00221A709A4B994A1268802149020A431A60964B964A126896491A
:402280000A401A608C4B1B78DBB202229343DAB2894B1A70884B1B78DBB201221343DAB2854B1A70824B10221A70824B1B680822134048D0814B08221A60884B1A68802357
:4022C0009B01134019D00DE0854B1A68854B1B68D218854B1B68DBB21370824B1B685A1C804B1A60814B1B680F221340ECD17B4B7A4A12687E490A401A607E4B1B6820226F
:40230000134007D06C4B1B78DBB240221343DAB2694B1A70784B00221A60764B774A1A60654B1B78DBB220229343DAB2624B1A70614B1B78DBB210221343DAB25E4B1A7001
:402340005B4B10221A705B4B1B68402213404DD06B4B01221A606B4B1B681022134012D05B4B10221A60594B1A68574B1A60524B1B78DBB202221343DAB24F4B1A704C4BFB
:4023800012221A702CE0604B1A68564B1B68D31A7B607B68072B03D8574B04221A6014E07B68082B07D14D4B4C4A1268A02109020A431A6009E0494B484A12688021890137
:4023C0000A431A604C4B08221A603B4B1B78DBB220221343DAB2384B1A70354B11221A70364B4A4A1A604A4B01221A60494B1B680822134036D0444B1A683A4B1B68D31A66
:40240000083B7B607B68082B04D908237B6000233B6001E001233B6010E0314B1A68314B1B68D218304B1B68DBB213702D4B1B685A1C2C4B1A607B68013B7B607B68002BD8
:40244000EBD13B68002B09D0244B244A1268802109020A431A60284B00221A60254B08221A6066E02B4B1B680422134061D01E4B1B687B601B4B1A68234B1B689A424BD28A
:40248000234B01221A60164B1A68164B1B68D3187A68D2B21A70134B1B685A1C114B1A6044E0C0469C0100208C0E0740880E0740BE0100204C0F0740BC010020400F0740A9
:4024C00008020740BD010020A0010020A4010020880F074004020740FFFFFEFF60000740B4010020AC0100204003074008030740FF5FFFFFC00F0740C80F0740ED0F000050
:40250000800E074064000740A8010020FF0F00006C000740CC0F0740FFF75CFD394B1B78DBB240221343DAB2364B1A70364B04221A60364B1B68102213405FD026E0344BCF
:402540001A68344B1B689A420ED2334A334B19682F4B1B68CB181B78DBB213602C4B1B685A1C2B4B1A6011E02B4BFF221A602C4B1B78DBB220221340DBB2002B06D1284B9C
:402580001B78DBB20133DAB2254B1A70254B1B680F221340082BD2D1234B10221A602DE0224B224A1268520052081A60204B10221A70204B1F4A12681F490A401A601D4B4B
:4025C0001C4A12681D490A401A601D4B00221A601C4B00221A60144B1B4A1A600A4B1B4A1A601B4B1B4A1A601B4B1C4A1A600F4B0E4A1268802109060A431A60BD4602B075
:4026000080BDC046BC010020C00F07408C0F0740A0010020B801002040020740B0010020BD01002008020740800F074000000740BE01002060000740FF5FFFFFFFFCFFFF67
:40264000C80F0740880F0740ED0F0000F3070000400F0740FF0F0000000F0740170300000E4B70B500251E1C0D4CE41AA410A54204D0AB00F35898470135F8E700F094F84B
:40268000084B00251E1C084CE41AA410A54204D0AB00F35898470135F8E770BDB4270000B4270000B4270000BC270000002310B5934203D0CC5CC4540133F9E710BD031C4C
:4026C0008218934202D019700133FAE77047000030000000002800000000000000300F40000400400F4000049311C80411320101BE080000500A00009C0F00002A0B000021
:402700003C0D00009C0F0000800D0000F60D00002A0B00005A0E0000820F00009C0F00009C0F00009C0F00009C0F00009C0F00009C0F00009C0F00009C0F00009C0F0000E4
:40274000080900001A140000D2120000F01200000E130000241300004213000060130000941300007E130000AA130000C0130000DE130000FC130000030405060708090A18
:402780000B0C0E0F101112131415161718191B1C1D1E1F2021222325262728292A2B2E2F3031323334350000F8B5C046F8BC08BC9E467047AD01000099020000F8B5C0469B
:4027C000F8BC08BC9E46704785010000E0270000D000002020000000D00000000000000000000000D0260000D42600000024F400803E0000100000000000401F0000000024
:402800000010002011280000212D0000212D000080B500AF024B83F3088800F0AFFAC0460010002080B500AF1B4B1B4A12688021C9020A431A60182001F01EFE164B164A2B
:40284000126816490A401A60154B164A1A60164B11221A60154B30221A60154B20221A60144B10221A60144B802212061A600A4B00221A60114B124A1A60124B124A1A6037
:40288000124B134A1A60134B134A1A60134B00221A60BD4680BDC04600010B40FFFFFBFF04010B4006000080080202400C020240140202401802024008010B40000002406F
:4028C000FE00008040000240FE0000C0800002400E00008004000240100000800C020B4080B582B000AF72B6FB1D00221A7023E0FB1D1A78131C5B009B185B003F4A9B1818
:402900003B603B681A78597809020A43997809040A43DB781B061343191C3B681A795B791B0213439BB2081C191C00F0ADFAFB1D1A78FB1D01321A70FB1D1B78012BD7D974
:402940002F4A304B101C191C00F0AEFA2E4B2F4A1A602F4B99221A602E4B992212041A602D4B992212041A602C4B992212041A602B4B802292051A602A4A2A4B1B78DBB2D4
:4029800002210B43DBB21370274A274B1B78DBB23C218B43DBB214210B43DBB21370214A204B1B78DBB216210B43DBB213701F4BFF221A601E4BFF221A601E4B0F221A60A0
:4029C0001D4BC02252031A601C4B0F221A601C4B03221A601B4B1C4A1A601C4B06221A601B4B31221A601B4B06221A60FFF71AFF00F09AFABD4602B080BDC046E061000050
:402A0000EC610000006200000C000140EEEE00001000014000500F4010500F4030500F4038500F4000700F4001700F4000000440180004400001044008010440180104406B
:402A40000003044008030440A40D000000040440080404401804044010B5064C2378002B07D1054B002B02D0044800E000BF0123237010BDB001002000000000D86100009C
:402A800008B5084B002B03D00748084900E000BF07480368002B00D108BD064B002BFBD09847F9E700000000D8610000B4010020D00000200000000080B582B000AF62B61C
:402AC000FB1D00221A70174B3B6000F077F800F02BF800F0ADF8FB1D1B78181C00F0AEF8031E14D100F0E4F8031E10D100F056F8031C3B603B68013309D03B681B0ADBB2C8
:402B0000181C00F061F83B681A0AFB1D1A7000F071FA031C5A425341DBB2181C00F044FAD9E7C0463075000080B500AF00F014FB00F0CAFEBD4680BD80B582B000AF00209A
:402B400001F04EF9031C1A1C114B1A80104B1B88104A934202D10E4B00221A800C4B1A880D4B1B889A420DD0094B1A880A4B1A80074B1B88002B05D0054B1B885B027B600B
:402B80007B6801E001235B42181CBD4602B080BD3C020020FFFF00003E02002080B500AF00F066FB031E03D100F0CEFF00F034FBFFF7C2FF031C181CBD4680BD80B500AF7A
:402BC00001F028FEBD4680BD80B590B000AF78600823F918154A7B68081C111C1A1C02F0FBFE031CFB630823FA18FB6BD3180D221A70FB6B01330822BA180A21D154FB6B82
:402C000002330822BA180021D1540823FB18181C01F07EFE00F0EEF9031C5A425341DBB2181C00F0C1F9BD4610B080BDDC61000080B500AF01F09EFEBD4680BD80B584B056
:402C400000AF021CFB1D1A70FF23FB600823FB1801221A700823FB18FA1D12785A700823FB1817229A700823FB180820191C0322002301F011FFC04602F046F8021C0223F6
:402C80001340F9D002F040F8021C80239B00134006D102F02FF8031E032B01D10023FB6002F054F8FB68181CBD4604B080BDC04680B582B000AFFF237B603B1C0820191CFA
:402CC0000322002301F076FFC04602F01DF8021C01231340F9D002F017F8021C80239B00134013D101F0FCFF031E032B10D13B1C1B78012B0CD13B1C9B78172B08D13B1C3C
:402D00005B78002B04D100237B6001E0FF237B6002F01CF87B68181CBD4602B080BDC04680B500AFFEE7C04680B584B000AF7860104B1A687B68D3181A1C0F4BD21A802346
:402D40005B009A4209DC0B4B1B68FB60094B1A687B68D218074B1A6007E002F0FFFD031C0C221A6001235B42FB60FB68181CBD4604B080BDD40000207003002080B586B05F
:402D800000AF224B7B61224B3B61204B7B6135E03B691B68FB603B695B68BB603B699B683B6000237B600CE0FB681A68BB681A60BB680433BB60FB680433FB607B68043380
:402DC0007B607A683B689A42EED13B69DB683B6000237B6008E0BB6800221A60BB680433BB607B6804337B607A683B689A42F2D13B6910333B617B69013B7B617B69002B95
:402E0000C6D102F0B1FDFFF757FEFEE701000000B463000080B582B000AF00237B600FE07B68032B04D8134B7A689200D35800E0114B124A796889008B507B6801337B6057
:402E40007B682F2BECD9FFF74BFD0D4B00221A600C4B1B68002B02D10A4B00221A608023DB058022D205126801210A431A60BD4602B080BD00280000212D0000000000206E
:402E8000C8000020C000002080B582B000AF786039607A683B68101C00211A1C02F093FDBD4602B080BDC04680B586B000AF7860396000233B6100237B612FE07B699B006A
:402EC0007A68D3181B68BB600F23FB18BA681A70BB68FF229343BB6018E03B695B003A68D3181B781A1CBB68D318191C3B695B003A68D3185B780B703B6901333B610F2331
:402F0000FB181A780F23FB18013A1A700F23FB181B78002BE1D17B6901337B617B69042BCCD9BD4606B080BD80B500AF012000F003F8BD4680BDC04680B584B000AF021C1F
:402F4000FB1D1A70154B1B68FB60FB1D1B78002B05D0FB68802212061343FB6003E0FB685B005B08FB600D4BFA681A600C4B1B68FB60FB1D1B78002B05D0FB6880229204EA
:402F80001343FB6003E0FB68064A1340FB60044BFA681A60BD4604B080BDC04680031A4008010B40FFFFFFFD80B584B000AF021CFB1D1A700E4B1B68DAB20F23FB184021E6
:402FC0008A431A70FB1D1B789B01DBB240221340D9B20F23FB180F22BA1812780A431A70034B0F22BA1812781A60BD4604B080BD0001044080B500AF044B1B6840221340C4
:403000009B09DBB2181CBD4680BDC0460401044080B582B000AF00237B6007E07B68181C002100F0B1FB7B6801337B607B680B2BF4D900F009F8002000F010FB00F034F9CC
:40304000BD4602B080BDC04680B582B000AF244B1B68DAB2234B1A70224B1B787B607B680F2293437B60204B1B78DBB21A1C0F2313407A6813437B607B68F02293437B602D
:40308000194B1B78DBB21A1CF02313407A6813437B60134B7A681A60144B154A1A60154B154A1A60154B1B687B607B68144A13407B607B68C022D20013437B600F4B7A6881
:4030C0001A600F2001F05CFB0E4B0F20191C01F0C9FA0F20032101F0EBFABD4602B080BD00FF08404002002062F1FF0F080008400002000104000840C008A00110000140F0
:40310000FFF0FFFFC93F000080B582B000AF01F077F901F03FF90020002101F047F90020002101F079F901F05DF901F025F9084B1B687B607B68074A13437B60044B7A6847
:403140001A600F2001F008FBBD4602B080BDC046040008400010088080B500AF0C4B1B78002B04D1FFF754FF094B01221A70FFF7CBFF00F095FF074B01221A70064B064ADA
:4031800012688021C9030A431A60BD4680BDC046E8010020CC0100200400084080B584B000AF021CFB1D1A70FB1D1A78FB1D01321A70FB1D1B780C2B00D10BE0FB1D1B7839
:4031C000074A101C191C00F061FA031CFB60FB68002BE9D0FB1D1B78181CBD4604B080BDD800002080B582B000AF7860084B00221A707B68DAB2074B1A70054B81221A7091
:403200007B68181C00F054F9BD4602B080BDC046CE010020CF01002080B500AF124B00221A70124BFF221A70104B1B78DBB2181CFFF7B4FF031C1A1C0C4B1A700B4B1B78F7
:40324000DBB20B2B0DD8084B1B78DBB201221343DAB2054B1A70054B1B78DBB2181C00F027F9BD4680BDC046CE010020CF01002080B500AF044B1B78DBB21A1C012313407B
:40328000181CBD4680BDC046CE01002080B582B000AF7860034B7A685200D35A181CBD4602B080BDD001002080B582B000AF00237B6006E07B68181C00F06EF87B68013373
:4032C0007B607B680B2BF5D9BD4602B080BDC04690B587B000AF78602B4A7B68D3181B787B612A4A7B68D3181B781322BA18191C0B1CDB185B181370244A7B68D3181A7870
:403300001223FB1892001A701123FC1801F0AAF8031C23701E4B7A699200D3581B68FB601223FB181B780F229A40131CDA43FB681340FB601223FB181B7804229A40131C68
:40334000FA681343FB60134B7A699200D358114A796989008A58126813217918097807208840011CC9430A401A60094B7A699200D358FA681A601123FB181B78181C01F029
:4033800075F8BD4607B090BD206200005C620000746200008862000090B589B000AF78603D4A7B68D3181B787B613C4A7B68D3181A781323FB1892001A70384A7B68D31835
:4033C0001B781222BA18191C0B1CDB185B1813700023FB61324A7B68D3181B78BB61314B7A699200D3582F4A796989008A5812681321791809780F208840011CC9430A406B
:403400001A60BB69022B01D10023BB61BB69012B01D00623FB611123FC1801F023F8031C2370214B7A699200D3581B68FB601223FB181B7807229A40131CDA43FB6813403A
:40344000FB601223FB181B78FA699A40131CFA681343FB60144B7A699200D358FA681A601123FB181B78181C01F000F80F4B7A699200D3580D4A796989008A58126807485E
:40348000796841180978081C01218140C9430A401A60BD4609B090BD206200005C6200006402002074620000886200009C62000090B587B000AF78601723FB183D497A6835
:4034C0008A1812781A701723FB181A783A4B9200D3583B61394A7B68D3181B789BB2013B9BB2181C002100F061FF354A7B68D3181B789BB2013B9BB2181C002100F08CFF74
:40350000304B1B78002B0FD00F2001F039F92E4B1B68FB60FB6840221343FB602A4BFA681A600F2001F018F90F2001F029F9274B1B68FB60FB68264A1340FB60254A7B686D
:40354000D3181B78191C244A7B68D3181B781B040B43FA681343FB601C4BFA681A601A4B1B68FB60FB681D4A1340FB60FB681C4A1343FB600F2001F0EFF87B68181CFFF7BD
:40358000A7FE0B23FC1800F06DFF031C23700E4BFA681A60002000F05BFF124B3A691A600B23FB181B78181C00F060FFBD4607B090BDC046686200000C0100207C02002004
:4035C00054020020CD010020040008400800084000FF80FF7002002048020020FF1FDFFF200020000C00084080B584B000AF7860144B1B6899B2144B7A685200D1527B680B
:40360000181CFFF7C9FE0F2001F0BAF80F4B1B68FB60FB680E4A1340FB60FB68A02212021343FB60094BFA681A600A4B094A126809490A401A600F2001F08EF8BD4604B077
:4036400080BDC0460C000840D001002004000840FF1FDFFF0800084000FF80FF80B584B000AF78607B68032213407B60064B1B68FB607B685B02FA681343FB60024BFA6855
:403680001A60BD4604B080BD0400084080B584B000AF786039603B68DB08FB603B680722134001229A400B23FB181A707A68FB68D3181B780B22BA1812781340DBB2002BA8
:4036C00001D0012300E00023181CBD4604B080BD80B586B000AFF860B9607A60BB68DB087B61BB680722134001229A401323FB181A707B68002B0DD0FA687B69D318F96877
:403700007A698A1811781322BA1812780A43D2B21A700EE0FA687B69D318F9687A698A181278132179180978C943C9B20A40D2B21A70BD4606B080BD80B584B000AF7860F5
:403740000023BB600023FB6015E07B68181CFFF749FDC046FFF78CFD031E012BFAD07B68181CFFF793FD031C1A1CBB689B18BB60FB680133FB60FB68002BE6D0BB689BB220
:40378000181CBD4604B080BD80B582B000AF786039603B68D9B2044A7B68D3180A1C1A70BD4602B080BDC0466402002080B588B000AF786039600023FB613AE000237B61BD
:4037C0001F4AFB69D3181B783B611E4AFB69D3181B78BB61BA693B69D318FB600FE03A68BB69D3181B781A1E7B699A4204D93A68BB69D3181B787B61BB690133BB61BA69B0
:40380000FB689A42EBD30F4AFB69D3181B78BB6108E03A68BB69D3187A69D2B21A70BB690133BB61BA69FB689A42F2D3FB690133FB61FA697B689A42C0D3BD4608B080BD6E
:40384000B4620000B062000080B582B000AF78600E4B7A685200D15A0D4B7A685200D1520C4A7B68D31800221A700B4A7B68D31800221A70054B7A685200D15A074B7A6849
:403880005200D152BD4602B080BDC046D0010020EC01002004020020100200209402002080B582B000AF78607B68181CFFF79AFCC046FFF7DDFC031EFBD17B68181CFFF72F
:4038C000C3FFBD4602B080BD80B582B000AF00237B6006E07B68181CFFF7E2FF7B6801337B607B680B2BF5D9BD4602B080BDC04690B587B000AF78600F23FB187E497A686A
:403900008A1812781A700F23FB181A780E23FB187A498A5C1A701023FB18794A796849008A5A1A80774B1B78002B15D0764B7A685200D25A1023FC181023FB181B88181CE8
:40394000111C00F0FDFA031C23806F4B7A685200102179180988D1527B68DAB26B49684B081C111C1A1C01F0DDFD694B7A685200D35A1022BA1812889A4212D3654A7B68DF
:40398000D31800221A70624B7A685200D25A1223FB181021791809888A1A1A8001237B610CE05B4B7A685200D15A1223FB181022BA1812888A1A1A8000237B617B69002B67
:4039C0002AD10F23FB181B78534AD35C9BB21222BA1812889A421FD94E4A7B68D3181A784E497B68CB181B789A4209D37B68181CFFF72AFF474A7B68D31800221A7051E055
:403A0000444A7B68D3181B780133D9B2414A7B68D3180A1C1A7045E00E23FB181B789BB21222BA1812889A420DD90F23FB181B78394AD35C9BB21222BA1812889A4231D2CE
:403A40007B69002B2ED1324B7A685200D35A1B02BB60334A7B68D3181B781A1CBB681343BB601023FB181B88BA68D318BB60284B7A685200D35A1A1CBB689B1ABB60BB6849
:403A80001B0A99B2224B7A685200D152BB68D9B2234A7B68D3180A1C1A701E4A7B68D31800221A700E23FB181B789BB21222BA1812889A4217D97B69002B14D01223FB188C
:403AC0001B88FF2B05D9174A7B68D318FF221A700EE01223FB181B88D9B2124A7B68D3180A1C1A7004E00F4A7B68D31800221A70BD4607B090BDC04668620000AC020020A7
:403B0000D00100201C01002094020020D4020020EC010020B00200208C02002010010020040200201002002080B582B000AF78607B68181C00F03AFB7B68181CFFF7D8FE88
:403B4000BD4602B080BDC04680B582B000AF00237B6011E00B4A7B68101C191CFFF796FD031C3B603B68002B03D07B68181CFFF7DBFF7B6801337B607B680B2BEAD9BD4613
:403B800002B080BDD800002090B585B000AF041C081C111CFB1D221C1A70BB1D021C1A707B1D0A1C1A700E23FB18FF221A700D23FB1800221A70FB1D1A78204BD318BB60E3
:403BC0000F23FB1800221A702AE00F23FB181B78BA68D3181B787A1D12789A4219D20F23FB181B78BA68D3181B780D22BA1812789A420ED20E23FB180F22BA1812781A7050
:403C00000F23FB181B78BA68D2180D23FB1812781A700F23FB181A780F23FB1801321A700F23FA18BB1D12781B789A42CDD30E23FB181B78181CBD4605B090BD1002002079
:403C4000B0B588B000AF051C0C1C101C191CFB1D2A1C1A70BB1D221C1A707B1D021C1A70BB1C0A1C1A80BB1D1A785B4BD318BB611F23FB1800221A70FB1D1B78002B05D02C
:403C80001F23FB18FA1D1278013A1A701723FB18FA1D127801321A70FB1D1B78BA69D3181A784E4B5A70FB1D1B78002B0BD14B4B00221A701723FB181B78BA69D3181A787C
:403CC000464B9A7022E0FB1D1A787B1D1B78013B9A420BD11F23FB181B78BA69D3181A783E4B1A703D4B00229A700FE01F23FB181B78BA69D3181A78384B1A701723FB183E
:403D00001B78BA69D3181A78344B9A70334B1B783022BA1812789A4209D2304B1A783023FB181B78D31ADAB22C4B1A7002E02B4B00221A70294B5A783023FB181B78D31AA1
:403D4000DAB2264B5A70254B9B783022BA1812789A4209D2214B9A783023FB181B78D31ADAB21E4B9A7002E01C4B00229A701B4B9B781A1C194B1B78D31A3B61174B1B7898
:403D80001A1C164B5B78D318144A92789B18FB603B691B02181CF96801F0EEFC031C1A1CFB1D1B781B02D318FB60BB1C1B881AB2FB685343FB60FB68FE22D2019446634433
:403DC0001A0C0B23FB181A700B23FB181B78181CBD4608B0B0BDC046100200202402002090B587B002AF78600D23FB184F497A688A1812781A700C23FB184D497A688A1850
:403E000012781A700B23FB1800221A700A23FB180C221A70474A7B68D3181A780923FC180B23FB1819780A23FB181B78081C191CFFF7AAFE031C23700923FB181B78FF2B0E
:403E40005BD03D4C3D4A7B68D3181B780922BA1810780B22BA1811780A22BA1812780093231CFFF7EDFE031C1A1C0E23FB181A800C23FB181B781F2213404FD00823FB1865
:403E80000D22BA18127801321A700D23FB181B78264AD35C002B0FD10823FB181B780E22BA181288D1B2214AD1540D23FB181B781E4A0121D15431E00C23FB181B7810221D
:403EC00013402BD00823FB181B78184AD35C9AB20E23FC180E23FB181B88181C111C00F04DF8031C23800823FB181B780E22BA181288D1B20D4AD15410E00E23FB1801227F
:403F000052421A800C23FB181B781F22134005D00D23FB181B78054A0021D1540E23FB181B88181CBD4605B090BDC0462801002024010020880200208B0B0000AC020020E8
:403F400080B584B000AF021CBB1D1A803B1D0A1C1A80BB1D1A883B1D1B88D318FB603B1D1B885B00FA68D318FB60FB689B08FB60FB689BB2181CBD4604B080BD80B582B028
:403F800000AF021CBB1D1A803B1D0A1C1A80BA1D3B1D12881B889A4205D9BB1D1A88BB1D013A1A800AE0BA1D3B1D12881B889A4204D2BB1D1A88BB1D01321A80BB1D1B88BB
:403FC000181CBD4602B080BD80B500AF0F2000F0D7FB2D4B01221A602C4B1B78DBB2181CFFF702FB2A4B1B78DBB2DBB25BB2002B08DA274B1B78DBB201229343DAB2244B31
:404000001A703CE0214B1B78DBB2181CFFF7C6F8031C1A1C1D4B1A701C4B1B78DBB20B2B06D81A4B1B78DBB2181CFFF741FA26E0174B1B78DBB201229343DAB2144B1A70A4
:40404000134B1B78DBB21A1C4023134017D0114B00221A700FE00F4B1B781A1C0D4B1B78191C0D4B595C0D4B99540A4B1B780133DAB2084B1A70074B1B78012BEBD90F20DA
:4040800000F06AFBBD4680BD14000840CF010020CE0100202802002060020020D800002080B582B000AF374B0C221A70354B01225A70344B0C229A70324B1822DA80314B6B
:4040C000314A9A802F4B314A9A6000F0E7F800233B6007E02E4B3A6892002E49D1503B6801333B60274B5B781A1E3B689A42F1D800237B600CE0284A7B68D31804221A7072
:40410000264A7B68D31802221A707B6801337B607B680B2BEFD900F0CDF81A4B204A181C111C01F05FF91F4B0120191CFFF73EFB144B181C01F067F91B4B01221A70114B50
:40414000174A181C111C01F04DF9164B0120191CFFF72CFB0B4B181C01F076F9094B181C00F0C2F800237B6006E07B68181C00F01DF87B6801337B607B680B2BF5D9BD467A
:4041800002B080BDD402002066020000CC6200000C0100200000FF0F540200207C0200209A0D000070020020CD01002090B587B002AF7860334A7B68D3181B78FB607B68ED
:4041C000D9B2FB68DAB23048304C314B0093231C01F026FA0B23FB182C49FA688A1812781A702B4AFB68D31819782A4AFB68D3180A1C1A700B23FB181B78DB2B0AD80B2374
:40420000FB181B78DB08D9B2234AFB68D3180A1C1A7034E00B23FB181B78EC2B0AD80B23FB181B781B09D9B21B4AFB68D3180A1C1A7024E00B23FB181B78F42B0AD80B2331
:40424000FB181B785B09D9B2134AFB68D3180A1C1A7014E00B23FB181B78F92B0AD80B23FB181B789B09D9B20B4AFB68D3180A1C1A7004E0084AFB68D31800221A70BD46F7
:4042800005B090BD68620000D402002088020020AC0200208C0200209002002080B500AF034B034A126840218A431A60BD4680BD0400084080B582B000AF094B1B687B606F
:4042C0007B68084A13407B607B688022920013437B60034B7A681A60BD4602B080BDC04608000840FFFCFFFC80B584B000AF78600023FB6019E01B4AFB68D3181B785B081B
:40430000D9B2194AFB68D3180A1C1A70154AFB68D3181B7801335B08D9B2124AFB68D3180A1C1A70FB680133FB607B681B781A1EFB689A42DFD80F2000F022FA0B4B1B682B
:40434000BB60BB680A4A1340BB60BB68094A1343BB60064BBA681A600F2000F0FDF9BD4604B080BD700200204802002008000840FFFCFFFC0002000180B500AF044B044A9A
:404380001268802109060A431A60BD4680BDC0460000024080B500AF034B034A1268520052081A60BD4680BD0000024080B584B000AF021CBB1D1A807B1D0A1C1A70084BA0
:4043C0001B681B0C1B04FB60BB1D1A88FB681343BB60034BBA681A60BD4604B080BDC0460000024080B500AF044B044A1268802109060A431A60BD4680BDC04640000240EB
:4044000080B500AF034B034A1268520052081A60BD4680BD4000024080B584B000AF021CBB1D1A807B1D0A1C1A70084B1B681B0C1B04FB60BB1D1A88FB681343BB60034B98
:40444000BA681A60BD4604B080BDC046400002400230800804D0C0460138FDD1C046C046C0467047EFF3108072B6704780F310887047C046C046C04690B585B000AF78609A
:404480000C23FC18FFF7EEFF031C23707B68022B00D8B4E07B68302B00D9B0E05E4B1B78DBB21A1E7B689A420AD35C4A0F23FB1812781A705A4A0E23FB1812781A703FE04A
:4044C000584B1B78DBB21A1E7B689A420AD3564A0F23FB1812781A70544A0E23FB1812781A702DE0524B1B78DBB21A1E7B689A420AD3504A0F23FB1812781A704E4A0E23DC
:40450000FB1812781A701BE04C4B1B78DBB21A1E7B689A420AD34A4A0F23FB1812781A70484A0E23FB1812781A7009E0464A0F23FB1812781A70454A0E23FB1812781A703E
:404540007B68DA1E0B23FB1841498A5C1A700B23FB181B782F2B0DD97B682A2B0AD93D4B19221A600520FFF773FF0D23FB1819221A7007E0374B1B68DAB20D23FB183F2109
:404580000A401A700B23FA180D23FB1812781B789A4208D22F4B7A68033A2D498A5C1A600520FFF755FF7B68284A9A180A23FB1812781A70284B0A22BA1812781A60274BB1
:4045C0000F22BA1812781A60254B0E22BA1812781A60052000F0F2F80B23FA180D23FB1812781B789A4209D91A4B7A68033A18498A5C1A600520FFF72BFF03E002E0002072
:4046000000F0D2F80C23FB181B78181CFFF72EFFBD4605B090BDC046C0F1FF0FC1F1FF0FC2F1FF0FC3F1FF0FC4F1FF0FC5F1FF0FC6F1FF0FC7F1FF0FC8F1FF0FC9F1FF0FE6
:40464000CAF1FF0FCBF1FF0FCCF1FF0FCDF1FF0F286300002CFF0B4028FF0B401CFF0B4020FF0B4080B584B000AF021C3960FB1D1A7080239B05FB60FB1D1B781F2B02D9EE
:40468000002000F091F8FB1D1B7810339B00FA68D3181B68BB60FB1D1B7810339B00FA68D3183A681A60BB68181CBD4604B080BD90B587B000AF021CFB1D1A70BB1D0A1CC7
:4046C0001A70BB1D1B78032B02D9002000F06CF8FB1D1B781F2B02D9002000F065F8FB1D1B7803221340DB0006337B611323FC18FFF7B8FE031C2370FB1D1B789B08DBB275
:404700009B00144A944663441B68FB607B6903229A40131CDA43FB681340FB60BB1D1A787B699A40131CFA681343FB60FB1D1B789B08DBB29B00074A94466344FA681A6053
:404740001323FB181B78181CFFF790FEBD4607B090BDC04600E400E080B582B000AF021CFB1D1A70054BFA1D12781F210A40012191400A1C1A60BD4602B080BD00E100E03D
:4047800080B582B000AF021CFB1D1A70054BFA1D12781F210A40012191400A1C1A60BD4602B080BD80E100E080B582B000AF021CFB1D1A7001BEBD4602B080BD80B582B0F4
:4047C00000AF021CBB1D1A80BB1D1B88044A12785343181CFFF73CFEBD4602B080BDC0464001002080B500AF00F030F8BD4680BD80B500AF064B064A1268802109060A439C
:404800001A6000F019F800F01BF8BD4680BDC0460000064080B500AF064B1B78002B04D1FFF7E0FF034B01221A70FFF7E1FFBD4680BDC0462902002080B500AFBD4680BD4B
:4048400080B500AF00F056F8BD4680BD80B500AF174B184A1A60184B00221A60174B01221A60174B174A1A60174B07221A60174B00221A60164B01221A60164B114A1A6042
:40488000154B00221A60154B00221A60144B00221A60144B00221A60134B00221A60134B00221A60124B00221A60BD4680BDC046000006400B000002400006404800064070
:4048C00000030640070000800403064010030640440006400002064004020640880E0640C80E0640480F0640080F0640C80F0640880F064080B500AF044B044A1268F0212C
:404900008A4390210A431A60BD4680BD1000014080B584B000AF78600023FB6009E07A68FB68D3181B78181C00F0BEFAFB680133FB607A68FB68D3181B78002BEFD1BD4608
:4049400004B080BD80B500AF00F032F8BD4680BD80B500AF064B064A1268802109060A431A6000F019F800F01FF8BD4680BDC0460000074080B500AF064B1B78002B04D135
:40498000FFF7E0FF034B01221A70FFF7E1FFBD4680BDC0462C02002080B500AF0B20FFF7DBFEBD4680BDC04680B500AFBD4680BD80B500AF234B234A12680C210A431A6048
:4049C000214B00221A60214B214A1A60214B224A1A60224B00221A60214B00221A60214B1D4A1A60204B00221A600B20FFF7C8FE0B200321FFF75CFE1C4B0B20191CFFF764
:404A000031FE1B4B00221A601A4B00221A601A4B00221A60194B1422FF321A60184B00221A60184B00221A60174B10221A70174B00221A80164B00221A60164B00221A60CA
:404A4000BD4680BD70000740000007406000074077080080000307400701008004030740100307400002074004020740D54E0000C80E0740880E0740480F0740080F074029
:404A8000C80F0740880F074040030020500300204C0300205403002080B586B000AFF860B9607A603B6004237B61BB68002B20D0324B1B78DBB2102B0CD10B20FFF760FEC9
:404AC0002F4B1B680122134001D0082300E000237B610EE0294B1B78DBB2602B09D1294B1B889BB2082293439AB2264B1A8000237B617B69002B38D1204B28221A70224B03
:404B000000221A60214B00221A60214B7A681A60204BBA681A603B68DAB21F4B1A70FB685B00FF221340FB60164B1B889BB2022293439AB2134B1A80184B194A1A60194B1F
:404B400040221A60184B40221A603B680122134005D000F013F9154BFA681A6005E0134BFA681A60124B02221A600B20FFF7F4FD7B69181CBD4606B080BDC0464003002051
:404B800064000740500300205C03002054030020640300204803002058030020000F074017030000800F0740880F0740400207406800074080B586B000AFF860B9607A60B3
:404BC0003B6004237B61BB68002B20D0374B1B78DBB2102B0CD10B20FFF7D2FD344B1B680122134001D0082300E000237B610EE02E4B1B78DBB2602B09D12E4B1B889BB287
:404C0000082293439AB22B4B1A8000237B617B69002B43D1254B29221A70274B00221A60264B7A681A60264BBA681A603B68DAB2244B1A70FB685B00FF22134001221343F6
:404C4000FB601C4B1B889BB2012293439AB2194B1A801D4B1D4A1A60184B1B68072B03D81B4B04221A6009E01A4B1A4A1268802149000A431A60164B08221A603B68012255
:404C8000134005D000F07AF8134BFA681A6005E0114BFA681A60114B02221A600B20FFF75BFD7B69181CBD4606B080BD4003002064000740500300204C030020600300201F
:404CC0004403002058030020000F074017030000C80F074060000740400207406800074080B500AF024B1B68181CBD4680BDC0464C03002080B500AF024B1B68181CBD46DD
:404D000080BDC0465403002080B582B000AF0B20FFF736FD0B4B1B889BB27B600A4B1B78DBB220221340DBB2002B03D07B68042213437B600B20FFF70FFD7B68181CBD4618
:404D400002B080BD500300204003002080B582B000AF0B20FFF714FD074B1B889BB27B60054B00221A800B20FFF7F6FC7B68181CBD4602B080BDC0465003002080B582B001
:404D800000AF254B1B687B60C04600F04DF8031EFBD0002000F056F8204B204A12680F218A431A601E4B1E4A1268520052081A607B682022134010D0002000F043F80A20ED
:404DC000FFF7FCFC012000F03DF8C04600F05EF8031EFBD00A20FFF7F1FC002000F032F80A20FFF7EBFC0F4B01221A600C4B0C4A1268802109060A431A60084B074A126846
:404E00000F218A430E210A431A60012000F01AF8BD4602B080BDC046640007400C000140000007406800074080B500AF044B1B68022213405B08DBB2181CBD4680BDC046DF
:404E40000403044080B584B000AF021CFB1D1A700D4B1B68DAB20F23FB1801218A431A70FB1D1B7801221340D9B20F23FB180F22BA1812780A431A70034B0F22BA181278BA
:404E80001A60BD4604B080BD0003044080B500AF044B1B68DBB201221340DBB2181CBD4680BDC0460403044080B582B000AF7860C046064B1B680F221340082BF9D0044B9B
:404EC0007A681A60BD4602B080BDC046080206404002064080B582B000AF00233B60BE4B1B68002B02D0BC4B1B689847BB4B1B680122134002D0BA4B00221A60B94B1B78B7
:404F0000DBB220221340DBB2002B38D0B64B1A6880235B0013400AD0B44B1B889BB2C022920013439AB2B14B1A8001233B60AE4B1B68012213400AD0AC4B1B889BB2902222
:404F4000920013439AB2A94B1A8001233B603B68002B14D0A34B1B78DBB201221340DBB2002B01D0012300E00223A04A128892B213439AB29D4B1A809A4B00221A70994B67
:404F80001B78DBB220221340DBB2002B00D1A2E1954B1B681022134018D0954B10221A60904B1B78DBB201221340DBB2002B01D0012300E002238D4A128892B213439AB25A
:404FC0008A4B1A80874B10221A70BAE1854B1B78DBB208221340DBB2002B29D0824B1B68022213400ED0824B02221A607F4B1B889BB28822920013439AB27C4B1A800123CE
:405000003B6015E0774B1B78DBB201221340DBB2002B03D0734B25221A7009E0714B24221A70744B1B68002B02D0734B10221A606C4B1B78DBB204221340DBB2002B00D177
:4050400011E1684B1B78DBB201221340DBB2002B5BD06A4B1B680822134033D0684B1A68684B1B680F211940674B1B68CB18D31A7B607B68082B02D908237B600CE07B68C0
:40508000002B09D1614B614A126861490A401A6008237B6001233B6010E05E4B1A685A4B1B68D2185C4B1B68DBB21370564B1B685A1C554B1A607B68013B7B607B68002BC4
:4050C000EBD11EE04D4B1B680422134019D0514B1A684D4B1B68D2184F4B1B68DBB21370494B1B685A1C484B1A60474B1A68444B1B689A4203D2494B04221A6001E001237F
:405100003B60474B474A1A60ADE0374B1B680222134032D0364B02221A60434B1B680F221A40414B196880231B020B4001D0012300E00023D2183D4B1B689A1A3B4B1A60B8
:405140003A4B1A683A4B1A60284B1B889BB28422920013439AB2254B1A80364B354A1268802149020A431A60324B324A126832490A401A6001233B6075E0304B1B681022BF
:40518000134065D015E0294B1A681A4B1B689A420ED22B4A2B4B1968244B1B68CB181B78DBB21360214B1B685A1C204B1A6000E005E01D4B1B680F221340082BE3D11B4B39
:4051C0001A680C4B1B689A4202D10B4B40221A601D4B1E4A1A6046E0300200208C0E0740880E0740400300200C0F074050030020000F074064030020880F0740CC0F0740DD
:4052000060030020080307404C03002060000740FFFEFFFF440300204003074068000740C00F0740ED0F0000080207405C0300205403002004020740FFFFFEFF8C0F074065
:405240004002074048030020800F0740F30700003D4B1B684022134005D03C4B1A683C4B1A6001233B603B68002B6AD0394B394A126839490A401A60384B00221A60384B9B
:4052800000221A60374B1B78DBB202221340DBB2002B15D0344B1B78DBB201221340DBB2002B01D0092300E00A23304A128892B213439AB22D4B1A802B4B60221A7040E017
:4052C0002B4B2C4A126820210A4001D0182200E010221A6035E0244B1B78DBB210221340DBB2002B2DD1244B234A1268520052081A601D4B10221A70164B164A12681F4904
:405300000A401A60134B134A12681D490A401A60124B00221A60124B00221A60194B1A4A1A601A4B1A4A1A601A4B1B4A1A601B4B1B4A1A60104B104A1268802109060A431E
:405340001A60BD4602B080BD8C0F07405C0300205403002060000740FFFEFFFFC80F0740880F0740580300204003002050030020680007406400074000000740FF5FFFFFFD
:40538000FFFCFFFF800F0740ED0F0000C00F0740F3070000400F0740FF0F0000000F074017030000F7B59C180023071C08268025019100922370237800982B432370BB6877
:4053C0009B6C9847019B984202D22378AB432370013E6D08002EEED12378F82B01D9F8232370F7BD70B5051C0E1C00242B789C4208D2AB68221C281C311C1B68FFF7D2FFAB
:405400000134F3E770BD38B5051C00242B789C4219D2AA6813681B5DDB080F2B00D90F23D16BD268C95C1155AA68042B04D9936D906B211C012203E0936D906B211C0022AE
:4054400098470134E2E738BDF0B5041C002687B063789E4262D2A3685A6C925D0392002A01D1013203921A6C925D019201992278914251D29A689B69515C0F221140B20017
:405480000492002205910499019D5A50019B5B000293039B019A9B189D423DD2A768E388A0885843FB68595D00F066F93B68595D00F0D2F8059B5843194B40005A2802D95F
:4054C0005B084008FAE7BA6904991B0C1B045350A36882085B6B01215855A368C008DB69029F5A550F22A36849421B6A5855A3685B6A5A55A368986AC1530021D86AC153D6
:40550000186B9B68C1535B19197801350A401A703B1C02330293BCE7013699E707B0F0BD0000FFFFF0B585684E002B6B925B9B191C8887B0141B0094AC6A1A80A45B6B6AAC
:405540000294EC6A5F5CA45B2B6A03946C6B7F00645C5B180494AC680193645C1B780594009CE40FA4460F24251C6744009C3D40AC46E51764196C409C4203D2012B05D028
:40558000013B00E00133FF273F2B00D89F00019D2B7065460F2D29D0002D24D0BC4225D8059C029F24090094974200D9171C039D954200D2151C009A092A01D8141C0134F2
:4055C0003A1C0A2C14D1EA1B934206D9049A92089A42924152429B1A00E001338268D26953543A1C04E0151C644601E0151C00246746836824015B6A5F5483689F6ABA53F0
:40560000DA6A9B6895530F225B181D782A401A7083689B6859180B781C430C7007B0F0BD70B58068446BC069655C405CFF213F2801D88100C9B246B2FF24002E01DB4000EA
:40564000C4B28D4201D9291C6C08012081439954049B9C5470BD0000002243088B4274D303098B425FD3030A8B4244D3030B8B4228D3030C8B420DD3FF22090212BA030CAE
:405680008B4202D31212090265D0030B8B4219D300E0090AC30B8B4201D3CB03C01A5241830B8B4201D38B03C01A5241430B8B4201D34B03C01A5241030B8B4201D30B03EF
:4056C000C01A5241C30A8B4201D3CB02C01A5241830A8B4201D38B02C01A5241430A8B4201D34B02C01A5241030A8B4201D30B02C01A5241CDD2C3098B4201D3CB01C01AEB
:40570000524183098B4201D38B01C01A524143098B4201D34B01C01A524103098B4201D30B01C01A5241C3088B4201D3CB00C01A524183088B4201D38B00C01A52414308D1
:405740008B4201D34B00C01A5241411A00D20146524110467047FFE701B5002000F0FCF802BDC0460029F7D003B5FFF775FF0EBC4243891A1847C04603460B437FD40022E2
:4057800043088B4274D303098B425FD3030A8B4244D3030B8B4228D3030C8B420DD3FF22090212BA030C8B4202D31212090265D0030B8B4219D300E0090AC30B8B4201D3C6
:4057C000CB03C01A5241830B8B4201D38B03C01A5241430B8B4201D34B03C01A5241030B8B4201D30B03C01A5241C30A8B4201D3CB02C01A5241830A8B4201D38B02C01A33
:405800005241430A8B4201D34B02C01A5241030A8B4201D30B02C01A5241CDD2C3098B4201D3CB01C01A524183098B4201D38B01C01A524143098B4201D34B01C01A5241F4
:4058400003098B4201D30B01C01A5241C3088B4201D3CB00C01A524183088B4201D38B00C01A524143088B4201D34B00C01A5241411A00D201465241104670475DE0CA0F6C
:4058800000D04942031000D34042534000229C4603098B422DD3030A8B4212D3FC22890112BA030A8B420CD3890192118B4208D3890192118B4204D389013AD0921100E00C
:4058C0008909C3098B4201D3CB01C01A524183098B4201D38B01C01A524143098B4201D34B01C01A524103098B4201D30B01C01A5241C3088B4201D3CB00C01A524183084F
:405900008B4201D38B00C01A5241D9D243088B4201D34B00C01A5241411A00D20146634652415B10104601D34042002B00D54942704763465B1000D3404201B5002000F047
:405940000BF802BD0029F8D003B5FFF715FF0EBC4243891A1847C0467047C046014B18687047C046A80100200E4B70B500251E1C0D4CE41AA410A54204D0AB00F3589847D4
:405980000135F8E700F004FD084B00251E1C084CE41AA410A54204D0AB00F35898470135F8E770BD9C6300009C6300009C630000A4630000002310B5934203D0CC5CC45483
:4059C0000133F9E710BD031C8218934202D019700133FAE7704700000EB410B59DB002A9029008610B48822488604861012040421FABC881084804CBA400006801938C818B
:405A000000F06CF80023029A13701DB010BC08BC03B01847FFFFFF7FA8010020F0B58E6885B0071C0C1C03920193B34245D390238A89DB001A423DD0032509692368019803
:405A40005B1A029363695D43EB0F5D19029B6D1001331B189D4200D21D1C381C53050FD5291C00F01DFB061E13D0029A2169FFF7A1FFA289184B134080221343A38111E047
:405A80002A1C00F065FB061E0CD1381C216900F0C1FA0C23402201203B60A38940421343A38117E0029B2661F61826606561019EED1AA560019BB34200D2019E321C206859
:405AC000039900F092FA0020A3689B1BA36023689E19266005B0F0BD7FFBFFFFF0B59FB0029005938B890E1C171C1B0610D50B69002B0DD1402100F0D3FA3060306100288F
:405B000004D10C23029A01381360D0E040237361002306AD6B6120336B761033AB763C1C2378002B03D1E31B049312D003E0252BF9D00134F4E7049B0298311C3A1CFFF7B1
:405B40006DFF431C00D1ACE06A69049B944663446B612378002B00D1A3E00122002352426A6002A95432521801342B60EB60AB601370AB654F4F2178381C052200F02AFA76
:405B8000002808D0C01B01278740381C2B68013418432860EEE72B68DA0604D55322202102A8121811701A0704D553222B2102A81218117022782A2A01D0099B0EE0059AF0
:405BC000111D12680591002A01DB099204E05242EA60022213432B60013409E02278303A092A04D80A214B4301349B18F6E7099323782E2B18D163782A2B09D1059B0234F7
:405C00001A1D1B680592002B0DDA01235B420AE0002301342278303A092A04D80A214B4301349B18F6E70793234F2178381C032200F0D0F9002807D0C01B40278740381C3A
:405C40002B6801341843286021781C480622671C297600F0BFF9002812D0194B002B06D10722059B073393430833059314E005AB00930298291C321C124B00E000BF07E027
:405C800005AB00930298291C321C0E4B00F08AF80390039B013304D06B69039A9B186B613DE7B3890B985B0601D5012040421FB0F0BDC0465A6300006063000064630000DA
:405CC000000000001D5A0000F7B5171C01930A698B6800900C1C934200DA131C221C3B6043321278002A01D001333B6023689B0602D53B6802333B60062523681D401ED0A5
:405D0000231C43331B785A1E9341226892061CD53020E1184031C870211C5A1C45310978A21840320233D1700FE0221C0123009801991932089EB047431C0ED00135E36855
:405D40003A689B1A9D42F0DBDAE7221C009801994332089DA847431C02D10120404220E006232068E1683A6803400025042B03D18D1AEB43DB171D40A3682269934201DD9F
:405D80009B1AED180027AF420ADA221C0123009801991A32089EB047431CDED00137F2E70020FEBDF0B58BB006920A1C43320793059004920A7E0C1C109B6E2A00D1A8E093
:405DC00011D8632A22D009D8002A00D1B2E0582A00D0C2E045310A707C4A4FE0642A1DD0692A1BD0B9E0732A00D1A7E009D86F2A29D0702A00D0B0E0202209680A4322607E
:405E000037E0752A1FD0782A33D0A6E00E1C1A684236111D196013683370A1E021681A68080606D4490604D5111D19600023D55E02E0111D19601568002D3BDA2D23049ADA
:405E40006D42137036E021681A68080606D4490604D51568111D1960ADB202E0111D196015685A4B227E03930A276F2A1DD108271BE0221C782145321170554A19680392F5
:405E8000081D226818600D68100602D4500600D5ADB2D30702D520231A4322601027002D03D1202322689A432260231C002243331A7002E00A27454B03936368A360002B06
:405EC00003DB0422216891432160002D02D1049E002B0ED0049E281C391CFFF743FC039B013E5B5C281C3370391CFFF7B5FB051EF1D1082F09D12368DB0706D5636822699B
:405F0000934202DC3023013E3370049B9B1B23612BE009681A68080607D4490605D5111D19601368A28A1A8004E0111D1960136862691A600023049E236116E01A68111D6E
:405F4000196016680021301C626800F043F8002801D0801B6060636803E0261C42363270012323610023049A1370079B05980093211C069B09AAFFF7A7FE431C02D101202D
:405F8000404221E0236905980699321C079DA847431CF4D023689B0705D4099BE068984212DA181C10E00025E368099A9B1A9D42F3DA221C0123059806991932079EB047BD
:405FC000431CDCD00135EFE70BB0F0BD6B6300007C630000C9B28218904204D003788B4202D00130F8E70020704710B5814208D28B18984205D29B1A013A09D3995C81546D
:40600000FAE70023934203D0CC5CC4540133F9E710BD000030B500293ED004390B68002B00DAC9181D4A1368141C002B02D14B60116031E099420DD208680A189A4203D1A8
:406040001368C3180B6053684B60216024E08A4203D8131C5A68002AF9D11D685C198C420BD10968691858181960904214D110685268091819605A600EE08C4202D90C2366
:40608000036009E008680C18944203D114685268001908604A60596030BDC04638020020032370B5CC1C9C430834051C0C2C01D20C2405E0002C03DA0C2300202B6042E05B
:4060C0008C42F9D3204A1368101C191C002913D00A68121B0DD40B2A02D90A608B181FE08B4202D15A6802601BE04A685A600B1C17E00B1C4968E9E7144E3368002B03D12B
:40610000281C00F04BF83060281C211C00F046F8031C421CD0D00322C61C964386420AD11C60181C07210B301A1D8843821A0AD05142995007E0311A281C00F02FF8431C16
:40614000BAD0331CECE770BD3802002034020020F8B5061C0C1C151C002904D1111CFFF79FFF041C18E0002A03D1FFF753FF2C1C12E000F025F8A8420ED2301C291CFFF7B9
:406180008FFF071E07D0211C2A1CFFF713FC301C211CFFF73FFF3C1C201CF8BD38B50023064C051C081C2360FCF7BEFD431C03D12368002B00D02B6038BDC0466803002025
:4061C0000B1F1A68101F002A04DA891804390B68D01804387047000000000000256C750000300F40000400400F40000404300F4001310F4001330F4003420F4006430F40C1
:4062000038803E4058045F011801B4016C407008DC036102A102B448B502D802EC0800000000000000000000010101010100000002000000040000000800000010000000F1
:40624000200000004000000080000000010000000200000004000000080000000001020304050607000102030000000000000000000000000000014004000140080001403E
:406280000C0001401000014008000440080104400802044008030440080404400000044000010440000204400003044000040440000000000C0000008B0B000001010102B5
:4062C00002020204040404040404040470020020480200202C010020540200207C020020686200000C010020BC020020C8020020100300201C030020F8020020E0020020CA
:406300003403002044020020BC620000B0620000B462000039370000B13400008D3200008D360000D1360000030405060708090A0B0C0E0F101112131415161718191B1C10
:406340001D1E1F2021222325262728292A2B2E2F30313233343500004300232D302B2000686C4C0065666745464700303132333435363738394142434445460030313233FF
:4063800034353637383961626364656600000000F8B5C046F8BC08BC9E467047812A0000152E0000F8B5C046F8BC08BC9E467047592A0000C8630000D0000020E000000049
:4063C000C0010000000000000000000070030020FF0F00000800044008000440080004400800044008000440080004400800044008000440080104400801044008010440F4
:40640000080104400000FF0F1E1E1E1E1E1E1E1E1E1E1E1E0100000001000000100000000100000004040404040202020202020200366E01C05D0000180000000000E02E7C
:406440000000000000000000000000000000000000000000000000000000000000000000586300000000000000000000000000000000000000000000000000000000000061
:406480000000000000000000000000000000000000000000000000000000000000000000480100200000000000000000000000000000000000000000000000000000000073
:4064C000000000000000000000000000000000000000000000000000000000000000000000000000000000000000000000000000000000000000000000000000000000009C
:40650000000000000000000000000000000000000000000000000000000000000000000000000000000000000000000000000000000000000000000000000000000000005B
:40654000000000000000000000000000000000000000000000000000000000000000000000000000000000000000000000000000000000000000000000000000000000001B
:4065800000000000000000000000000000000000000000000000000000000000000000000000000000000000000000000000000000000000000000000000000000000000DB
:407FC000C5112800004F000000003D0000000000000000000000000000000000000000000000000000000000000000000000000000000000000000000000000000000000F7
:0200000490303A
:02000000960761
:0200000490402A
:200000000000000000000000000000000000000000000000000000000000000000000000E0
:0200000490501A
:0C000000000204C81193110104E9A79A42
:0200000490600A
:0100000001FE
:00000001FF