:400000000080002011000000750A0000750A000080B500AF024A034B1B68136000F02EFDBC760040FA46004008000223000008760800032300001076080004230000287664
:4000400008000523000030760500062300002070050007230000307005000823000060700500FE230000707030000A22000040511000FE220000C05100020C2200000000B9
:4000800080030D220000000880010E220000000C00020F220000000E8001102200000018800111220000001A80001222000000428000132200000043000114220000004486
:4000C000800015220000004680001622000000488000FE220000004D0700182300000052070019230000085207001A230000185207001B230000785208001C230000784524
:4001000020001D23000070642000FE230000706508001F230000005180002023000000028000212300008002800022230000000480002323000080048000242300000006EF
:400140008000252300008006800026230000001480002723000080148000282300000016800029230000801610002A230000105010002B230000005080002C230000804DAC
:4001800080002D230000004C80002E230000804C80002F23000000478000302300008047800031230000804680003223000000458000332300008045800034230000801B12
:4001C0008000352300000015800036230000801580003723000080198000382300000017800039230000801780003A230000000780003B230000800780003C230000800B19
:4002000080003D230000000580003E230000800580003F230000800D800040230000000380004123000080038000422300000049800043230000804980004423000080482B
:40024000800045230000804380004623000080428000472300000041800048230000804180004923000000408000FE23000080400100000001000000010000000048014038
:4002800001000000004800400100000000200140010000000020004010B5054C237833B9044B13B10448AFF300800123237010BDD887FF1F00000000201E0000084B10B57D
:4002C0001BB108480849AFF300800848036803B910BD074B002BFBD0BDE81040184700BF00000000201E0000DC87FF1F0881FF1F0000000080B500AF002000F0A1FB034691
:400300001A46014B1A6080BD0C81FF1F80B500AF62B6334801F0AEFC032001F0CFFC314801F0F6FC00F0A6F800F00CFB00F082FB012000F0B9FA4FF4FA7001F04DFA0220A5
:4003400000F0B2FA002000F0BDFA274B1B68032B0CDD254B1B68254A1360244B1B68713BC82202FB03F3214A136007E01E4B1B68184600F099FA1C4B82221A601C4B1B68BD
:4003800003F10F02194B1B689A4205DA184B1B680133174A136011E0154B1B68A3F10F02124B1B689A4205DD114B1B68013B104A136003E00D4B1B680D4A136001F030FB05
:4003C0000346002B0CBF01230023DBB2184601F009FB064B1B68184600F074FAB5E700BFF5020000DD0800000C81FF1FF887FF1FF487FF1F80B500AF00F062FE80BD00BFBF
:4004000080B584B000AF78600B467B8002E0052001F004FA00F082FE034603F01103002BF5D00023FB811EE07A88FB89D31AFE2B0FDCFB897A68D1187B88DAB2FB89DBB2C7
:40044000D31ADBB20846194600F01EFF7B88FB8109E0FB897A6813441846FF2100F014FFFB89FF33FB81FA897B889A42DCD31037BD4680BD80B582B000AF012001F02AFA8C
:40048000FFF7B8FF002001F025FA142001F0A4F9012001F01FFA4FF4827001F09DF944F6FF70002100F08CF94FF4827001F094F944F6FF70002100F083F94FF4827001F068
:4004C0008BF944F6FF70002100F07AF94FF4827001F082F94FF69000002100F099F9012001F07AF94FF69000012100F091F94FF4827001F071F94FF47440002100F088F923
:40050000012001F069F94FF47440012100F080F94FF4827001F060F94FF20340002100F077F9012001F058F94FF20340012100F06FF9012001F050F94FF20340002100F0F0
:4005400067F9012001F048F94FF20100022100F05FF9012001F040F94FF20200012100F057F9012001F038F94FF20500052100F04FF9012001F030F94FF20300012100F0B3
:4005800047F94FF4827001F027F94FF2500041F6FF7100F03DF9012001F01EF94FF251001F2100F035F9012001F016F94FF280137B600BE07B689BB21846022100F028F9C1
:4005C000012001F009F97B6801337B607B684FF297129342EEDD4FF472404FF4817100F017F9012001F0F8F84FF204204FF4105100F00EF9012001F0EFF84FF208204FF4B7
:40060000817100F005F9012001F0E6F84FF20C2049F2021100F0FCF8012001F0DDF84FF2102049F2021100F0F3F8012001F0D4F84FF2142049F2031100F0EAF8012001F044
:40064000CBF84FF2182049F2021100F0E1F8012001F0C2F84FF21C2049F2021100F0D8F8012001F0B9F84FF44040274940F20C5200F050F8012001F0AFF8002023494FF48A
:40068000CE7200F047F8012001F0A6F846F23C101F49242200F03EF8012001F09DF84FF20340002100F0B4F8012001F095F84FF20440002100F0ACF8012001F08DF84FF22A
:4006C0000140022100F0A4F8012001F085F84FF20240002100F09CF8012001F07DF84FF20240012100F094F8032001F075F84FF47440002100F08CF84FF4827001F06CF814
:400700000837BD4680BD00BF1081FF1F1C86FF1FFC87FF1F2DE9F04387B000AF03463960FB801346BB806B461E46BB88D91C4B1E3B610B461A464FF000034FEAC30949EACE
:4007400052794FEAC2080B461A464FF00003DD0045EA5275D4000B460733DB08DB00ADEB030D6B460033FB60FB6800221A70FB881B0A9BB2DAB2FB685A70FB88DAB2FB68B2
:400780009A700023FB820AE0FB8A0333FA8A39680A441178FA68D154FB8A0133FB82FA8ABB889A42F0D3FA68BB8803339BB210461946FFF725FEB5461C37BD46BDE8F0836C
:4007C00080B584B000AF03463960FB8000233B72FB881B0A9BB2DBB27B72FB88DBB2BB723B681B0EDBB2FB723B681B0CDBB23B733B681B0ADBB27B733B68DBB2BB7307F1A4
:40080000080318460721FFF7FBFD1037BD4680BD80B584B000AF03460A46FB801346BB8000233B72FB881B0A9BB2DBB27B72FB88DBB2BB72BB881B0A9BB2DBB2FB72BB8884
:40084000DBB23B7307F1080318460521FFF7D8FD1037BD4680BD00BF80B582B000AF03463960FB80272042F28A01FFF7A9FF1A2000F0B2FF14203968FFF7A2FF012000F036
:40088000ABFFFB8819201946FFF79AFF012000F0A3FF1A200121FFF793FF3C2000F09CFF0837BD4680BD00BF80B582B000AF78607B68022B03D826207968FFF781FF083773
:4008C000BD4680BD80B582B000AF78607B682A201946FFF7C1FF0837BD4680BD80B500AF134B1B889BB201339AB2114B1A80104B1B889BB2092B03D80D4B1B889BB200E0DF
:4009000000230B4A13800A4B1B889AB2094B1B889BB29A420AD1084B1B78184600F0A6FD064B00221A70064B00221A7080BD00BF2088FF1F2288FF1F3488FF1F2488FF1F6E
:400940002588FF1F80B500AF01F01AF800F004F801F026F880BD00BF90B583B000AF324B1B0C9BB2012001211A464FF4804301F067F803461A462D4B1A700023FB7109E09A
:40098000FC7900F081FE03461A46294B1A55FB790133FB71FB79092BF2D90023FB710FE0FB79234AD15CFB790133214AD35C084630211A46012300F095FEFB790133FB71B8
:4009C000FB79082BECD91A4B5A7A194B1B78104630211A46012300F085FE0023FB7114E0FB79134AD15CFA7913465B0013441B011A460D4B13449BB20846194646F24752C8
:400A000000F0B0FEFB790133FB71FB79092BE7D9064B1A78064B1B781046194600F0C6FD0C37BD4690BD00BF3888FF1F3488FF1F188AFF1F80B500AF01F090F880BD00BF4A
:400A400080B584B000AF0346FB71FB79002B08D002E0052000F0E2FE01F0C0F80346002BF7D001F0ABF80346FB73FB7B18461037BD4680BD80B400AFFEE700BF80B586B0DF
:400A800000AF224B7B61224B3B61204B7B6135E03B691B68FB603B695B68BB603B699B683B6000237B600CE0FB681A68BB681A60BB680433BB60FB680433FB607B680433A3
:400AC0007B607A683B689A42EED13B69DB683B6000237B6008E0BB6800221A60BB680433BB607B6804337B607A683B689A42F2D13B6910333B617B69013B7B617B69002BB8
:400B0000C6D101F053F9FFF701FCFEE7010000006C1F000080B582B000AF184B184A1A60184A184B1B6843F40073136000237B600FE07B68032B04D8134A7B6852F823300C
:400B400000E0124B12497A6841F822307B6801337B607B682F2BECD90E4B1B78DAB20E4B1A700E4B0A4A1A6000F0B6F900F050FC0B4B00221A600837BD4680BD0CED00E0D5
:400B80000004FA0514ED00E000000000750A00000080FF1FBC7600400481FF1F08ED00E00081FF1F80B582B000AF78603960786800213A6801F02BF90837BD4680BD00BF2E
:400BC00080B584B000AFF860B9607A60F868B9687A6801F011F91037BD4680BD80B483B000AF0346FB71FEE780B582B000AF454B00221A60444B10221A70444B01221A7034
:400C0000434B00221A70434B4FF412721A80424B01221A70414B03221A70414B414A92B21A80414B47F608021A80404B00221A803F4B4FF480421A803E4B09221A703E4B7D
:400C40000B221A703D4B17221A703D4B1E221A70BFF35F8F3B4B01221A70BFF35F8F00BF2C4B1B889BB2002BFAD100237B600DE07B68DA00344B13441946344A7B6852F809
:400C800023309BB20B807B6801337B607B68482BEED9BFF35F8F2B4B01221A70BFF35F8F00BF2B4B1B78DBB203F00103002BF8D100BF284B1B78DBB203F00103002BF8D11A
:400CC00000BF254B1B78DBB203F00103002BF8D100BF224B1B78DBB203F00103002BF8D100BF1F4B1B78DBB203F00103002BF8D11C484FF090410622FFF762FF0837BD461A
:400D000080BD00BF2888FF1F00760040107000401970004000780040027800400378004004780040280000000678004004760040067600402970004039700040697000408A
:400D400079700040147000400C780040241E000018700040287000403870004068700040787000401051014080B582B000AF364B04221A80354B1C221A70354B20221A801B
:400D8000344B19221A70344B41221A80334B18221A70334B06221A70324B52221A70324B324A1278D2B21A70314B40F20B721A80304B41F251221A800023FB7019237B60D0
:400DC00014E0FB785B00DAB22B4B1B78DBB203F00103DBB21343DBB203F00303FB704FF4F07000F005FB7B68013B7B607B68002B02D0FB78032BE4D17B68002B02D103207D
:400E0000FFF7ECFE1D4B4FF480721A801B4B07221A701B4B00221A701A4B48221A70174B00221A70184B00221A70184B02221A70174A174B1B78DBB243F00703DBB21370B9
:400E40000837BD4680BD00BF80400040824000408440004086400040884000408A4000400043004000420040A14600400F0100492242004020420040254200400440004020
:400E800006400040084000400940004001400040A243004080B483B000AF0B4B1B78FB710A4AFB7903F00703DBB21370084AFB791B09DBB21370074B44221A700C37BD4633
:400EC0005DF8047B704700BFCF0100496E5800406F5800407658004080B500AF72B6314A304B1B78DBB243F00403DBB21370FFF77BFE2D480421FFF755FE2C4A2B4B1B7837
:400F0000DBB243F00203DBB21370294A284B1B78DBB243F00203DBB21370264A254B1B78DBB243F04003DBB21370234A224B1B78DBB243F01003DBB21370204820490822BD
:400F4000FFF73EFE1F4820490A22FFF739FE1F481F490822FFF734FE1E481F490822FFF72FFE1E481E490822FFF72AFE1D4BE4221A701D4A1C4B1B78DBB243F00803DBB214
:400F800013701A4B61221A70FFF7EEFE174B81221A70FFF77FFF164806490E22FFF710FE80BD00BFE8460040007600400350014013500140A0430040C24300400251004023
:400FC00018150048F051004020150048125100402C1500482251004034150048325100403C1500485B1601402243004000480040B043004080B500AF114B0F221A70114B49
:4010000002221A600120072100F042FC01200E4900F016FC00F054F90C4B00221A700C4B00221A700B4B00221A7000F077F800F093F8094B00221A70084B00221A7080BDC6
:401040008364004080E100E01D130000248BFF1F258BFF1F268BFF1F856400408464004080B582B000AF00F0CBF90346FB71114A104B1B78DBB243F02003DBB213700E4A0A
:401080000D4B1B78DBB243F01003DBB213700B4A0A4B1B78DBB243F01003DBB21370FB79184600F0B1F900F01BF800F025F80837BD4680BD9364004095640040946400409F
:4010C00080B500AF054B1B78002B04D1FFF792FF024B01221A70FFF7C3FF80BD3088FF1F80B400AF034B02221A60BD465DF8047B704700BF00E100E080B400AFBD465DF8C5
:40110000047B704780B400AF034B02221A60BD465DF8047B704700BF80E100E080B582B000AFFFF7EFFF0A4B1B78DAB2094B1B78DBB203F00903DBB21343FB71054B00227A
:401140001A70FFF7CDFFFB7918460837BD4680BD65640040238BFF1F80B483B000AF054B1B78FB71FB7918460C37BD465DF8047B704700BF6464004080B584B000AF0346CD
:40118000FB71394B1B78FB73FB7B002B02D1FE23FB7302E0FB7B013BFB73344B1B78DBB2FA7B9A42EDD0FFF7ADFF314B1B78DAB2304B1B78DBB203F00903DBB21343BB73A4
:4011C0002C4ABB7B1370284B1B78DAB2274B1B78DBB29A420AD1274B1B78DBB203F00403002B03D0244AFB79137037E01F4B1B78DBB20133DAB21D4B1A701C4B1B78DBB21C
:40120000FF2B02D1194B00221A70184B1B78DAB2154B1B78DBB29A4211D1134B1B78DBB20133DAB2104B1A700F4B1B78DBB2FF2B02D10D4B00221A70104B01221A700B4BE5
:401240001B78DBB219460E4AFB7953540D4A0D4B1B78DBB243F00403DBB21370FFF740FF1037BD4680BD00BF258BFF1F268BFF1F65640040238BFF1F44640040248BFF1FC1
:40128000248AFF1F8564004080B584B000AF78600B46FB700023FB730CE0FB7B7A6813441B781846FFF768FFFB7B0133FB73FB78013BFB70FB78002BEFD11037BD4680BDFC
:4012C00080B582B000AF01E0114B1B78114B1B78DBB203F02003002BF6D100F091F80346FB710D4A0C4B1B78DBB243F00103DBB21370094A084B1B78DBB223F00103DBB2D7
:401300001370FB79184600F07FF80837BD4680BD54640040646400409464004080B483B000AF37E02A4B1B78DAB22A4B1B78DBB203F00903DBB21343FB71264AFB7913702F
:40134000244B1B78DBB203F00403002B21D0224B1B78DBB2002B0FD1204B1B78DBB20133DAB21E4B1A701D4B1B78DBB2FF2B06D11A4B00221A7002E0174B00221A70184B05
:40138000164A1278D2B21146164A525CD2B21A7000E007E0114B1B78DAB2134B1B78DBB29A42BFD10D4B1B78DAB20F4B1B78DBB29A4207D10D4A0D4B1B78DBB223F0040392
:4013C000DBB213700C37BD465DF8047B704700BF65640040238BFF1F248BFF1F258BFF1F44640040248AFF1F268BFF1F856400400230800803D000BF01380046FCD17047E2
:40140000EFF3108072B6704780F31088704700BF80B483B000AF134B7F221A70124B80221A707F23FB710CE0FB79DB0003F1804303F5F043FA79013AD2B21A70FB79013B1B
:40144000FB71FB79002BEFD1FB79DB0003F1804303F5F04300221A700C37BD465DF8047B704700BFB987FF1FB887FF1F80B485B000AF0346FB710123FB60FB79172B1DD882
:40148000FB791A01114B1344FA7911010F4A0A441278D2B222F00102D2B21A70FB791A010A4B1344FA791101084A0A441278D2B222F02002D2B21A700023FB60FB6818469E
:4014C0001437BD465DF8047B704700BF1070004080B485B000AF03460A46FB711346BB710123FB60FB79172B18D8FB791A010F4B13441B78DBB223F00E03FB72FB791A014D
:401500000A4B1344BA7902F00702D2B25200D1B2FA7A0A43D2B21A700023FB60FB6818461437BD465DF8047B704700BF1070004080B485B000AF0346FB710B46BB80134660
:401540007B800123FB60BB8841F6FF72934202D14FF40053BB807B8841F6FF72934202D14FF400537B80FB79172B17D8FB79DB0003F1804303F5EC430433BB60BB68BA8820
:401580001A80FB79DB0003F1804303F5EC430633BB60BB687A881A800023FB60FB6818461437BD465DF8047B704700BF80B485B000AF03460A46FB711346BB710123FB6059
:4015C000FB79172B07D8FB791A01064B1344BA795A720023FB60FB6818461437BD465DF8047B70471070004090B484B000AF0446084611461A462346FB710346BB710B4637
:401600007B7113463B710123FB60FB79172B34D8FB79DB0003F1804303F5EC43BA7902F07F02D1B27A79D201D2B20A43D2B21A70FB79DB0003F1804303F5EC433A7E120185
:40164000D1B23A7902F00F02D2B20A43D2B25A70FB79DB0003F1804303F5EC433A7F02F00F02D2B29A70FB79DB0003F1804303F5EC430022DA700023FB60FB68184610377C
:40168000BD4690BC704700BF80B582B000AFFF23FB71FFF7B5FE0346BB71104B1B78182B12D90F4B1B78FB710C4B1B78013BDAB20A4B1A70FB79DB0003F1804303F5F0436C
:4016C0001B78DAB2064B1A70BB791846FFF79CFEFB7918460837BD4680BD00BFB887FF1FB987FF1F90B484B000AF0446084611461A462346FB710346BB800B46BB7113465E
:40170000FB700123FB60FB795BB2002B23DBBB8823F47F6323F00F039BB2002B1BD1FB79DB0003F1804303F5F043BB60BB68BA881A80FB79DB0003F1804303F5F043BA79A1
:401740009A70FB79DB0003F1804303F5F043FA78DA700023FB60FB6818461037BD4690BC704700BF80B485B000AF0346FB710B46BB8013467B800123FB60FB795BB2002B4F
:4017800017DBFB79DB0003F1804303F5F0430433BB60BB68BA881A80FB79DB0003F1804303F5F0430633BB60BB687A881A800023FB60FB6818461437BD465DF8047B704759
:4017C00080B483B000AF0346FB7101BE0C37BD465DF8047B704700BF80B582B000AF786008E00C4B1B681846FFF702FE7B68A3F500437B607B68B3F5004FF2D8064B1B68BA
:401800007A6802FB03F31846FFF7F2FD0837BD4680BD00BFCC87FF1FC487FF1F80B582B000AF0346FB80FB88044A127802FB03F31846FFF7DDFD0837BD4680BDC887FF1F36
:4018400080B584B000AF03463960FB710F4B1B68FB60FB791F2B02D90020FFF7B1FFFB7903F01F0310339B00FA6813441B68BB60FB7903F01F0310339B00FA6813443A68EB
:401880001A60BB6818461037BD4680BD08ED00E080B582B000AF03460A46FB711346BB71BB79072B02D90020FFF78AFFFB791F2B02D90020FFF784FFFB7903F01F0303F1A2
:4018C000604303F56443BA795201D2B21A700837BD4680BD80B485B000AF0346FB710B4B1B78DBB223F02003FB730849FB795B01DBB203F02003DAB2FB7B1343DBB20B7088
:401900001437BD465DF8047B704700BF2051004080B582B000AFFFF773FD0346FB710B4A0A4B1B78DBB243F02003DBB21370FB791846FFF769FD064A054B1B78DBB243F0DC
:401940000403DBB213700837BD4680BD976400407465004080B400AF084A084B1B78DBB223F00703DBB21370044B044A1278D2B21A70BD465DF8047B704700BF84650040FD
:4019800080B500AF054B1B78002B04D1FFF7E2FF024B01221A70FFF7BBFF80BD3188FF1F80B582B000AFFFF72BFD0346FB710B4A0A4B1B78DBB243F01003DBB21370FB794E
:4019C0001846FFF721FD064A054B1B78DBB243F00103DBB213700837BD4680BD946500407465004080B485B000AF0346FB710B4B1B78DBB223F00203FB730849FB795B00B4
:401A0000DBB203F00203DAB2FB7B1343DBB20B701437BD465DF8047B704700BF2051004080B400AF054B1B78DBB203F002035B08DBB21846BD465DF8047B7047215100409F
:401A400090B585B002AF0446084611461A462346FB710346BB710B46BB8013467B80114B00221A700F4B1878F979BA7900230093002301930023FFF7B7FD0A4B1978BA88C9
:401A80007B88084611461A46FFF752FD054B1B7818460221FFF71CFD024B1B7818460C37BD4690BDD087FF1F80B500AF0D4B07221A700D4B04221A6002200C49FFF7C0FE0E
:401AC00002200721FFF7E4FE00F0A0F800F056F800F064F8064B00221A70064B08221A7080BD00BF8665004080E100E0691C0000826400408765004080B582B000AFFFF765
:401B00007FFC0346FB71114A104B1B78DBB243F02003DBB213700E4A0D4B1B78DBB243F01003DBB213700B4A0A4B1B78DBB243F01003DBB21370FB791846FFF765FC064B79
:401B400004221A600837BD4680BD00BF96650040926400409765004000E100E080B500AF054B1B78002B04D1FFF79EFF024B01221A70FFF7C1FF80BD3288FF1F80B483B093
:401B800000AF054B1B78FB71FB7918460C37BD465DF8047B704700BF6264004080B483B000AF054B1B78FB71FB7918460C37BD465DF8047B704700BF6765004080B483B085
:401BC00000AF054B1B78FB71FB7918460C37BD465DF8047B704700BF5565004080B483B000AF094B1B78DBB203F00803002B01D0012300E00023FB71FB7918460C37BD465C
:401C00005DF8047B704700BF6765004080B582B000AF01E0114B1B78114B1B78DBB203F00803002BF6D1FFF7EBFB0346FB710D4A0C4B1B78DBB243F00303DBB21370094A01
:401C4000084B1B78DBB223F00303DBB21370FB791846FFF7D9FB0837BD4680BD55650040676500409565004080B400AFBD465DF8047B704780B582B000AF786000F03CF8EA
:401C8000786800F009F8072000F018F800F028F80837BD4680BD00BF80B485B000AF7860054B1B68FB60FB6854337A681A601437BD465DF8047B704708ED00E080B483B065
:401CC00000AF0346FB71054AFB795B01DBB213700C37BD465DF8047B704700BF05E400E080B400AF034B20221A60BD465DF8047B704700BF00E100E080B400AF034B20228A
:401D00001A60BD465DF8047B704700BF80E100E080B582B000AF786000F03CF8786800F009F8072000F018F800F028F80837BD4680BD00BF80B485B000AF7860054B1B6880
:401D4000FB60FB6840337A681A601437BD465DF8047B704708ED00E080B483B000AF0346FB71054AFB795B01DBB213700C37BD465DF8047B704700BF00E400E080B400AFF7
:401D8000034B01221A60BD465DF8047B704700BF00E100E080B400AF034B01221A60BD465DF8047B704700BF80E100E00E4B70B51E460E4C0025E41AA410A54204D056F8B2
:401DC000253098470135F8E700F0BEF8084B094C1E46E41AA4100025A54204D056F8253098470135F8E770BD541F0000541F0000541F00005C1F000010B5431E0A44914277
:401E000004D011F8014B03F8014FF8E710BD03460244934202D003F8011BFAE77047000000000000900200008802000080020000780200007002000070020000700200002F
:401E4000700200002888FF1F2888FF1F2888FF1F2888FF1F2888FF1F2888FF1F2888FF1F2888FF1F2888FF1F2888FF1F2888FF1F2888FF1F2888FF1F2888FF1F080000485C
:401E80001000004818000048200000482800004838050048580500483000004838000048B800004838010048B801004838020048B802004838030048B80300483804004860
:401EC000B80400487805004888050048980500481806004898060048180700489807004818080048980800481809004898090048180A0048980A0048180B0048980B004879
:401F0000180C0048980C0048180D0048980D0048180E0048980E0048180F0048980F00481810004898100048181100489811004818120048981200481813004898130048A9
:401F40001814004898140048F8B500BFF8BC08BC9E467047BD020000150B0000F8B500BFF8BC08BC9E46704799020000801F00000881FF1FD0060000500300000000000012
:401F80000000000004000000000000020C00DCDC0D00FFD20D00FFD00D00F4500D00F400C000238080000000C000230080000000C00023C080000010C00022008000000070
:401FC0000880DCE00C00DCDCC0002830800000D0C0003000800000000100001606405010C0002000800000290D00FFC1C0002000800000010D00F462C000200080000000CA
:402000000D00F462C0002000800000020D00FFD1000000030D00FFD2000000050000000000000000020100240000000000000000089EDCE0089C001000000000C00000001B
:40204000824F0014088ADCE00A21001A008C20000AA5001902090040C000287080006000008C119100000023000000003000BCE90000C2F10100003F0600401436405015A3
:4020800026404015092A001A000000000C00FC680640102E089000220C70001B0E3D001E00F4AE0F0A25DCDC0AE1001C0000DC700000A4D800D621010000E0290705880866
:4020C000008419B30004459000442C3000044928009408870BE1001C054D101E0C00FC500640100EC0000000820F00270600100E0600901E0601102E06484030C000000028
:40210000820F0027C0000000821F0026050C40110000D8400C000025050C88000004451000000000054C903E0A61002C0AA1002A00F481080AA5DC94009402190890002E27
:402140000000DC620B29002C0B44002D0A21DCDC0000A44900D620000000E02807058808008419B300046D900084003B0A25DC2E00F7C01000864100008828080AA5DC7051
:4021800000200C380C50002A000469980E0D00310088100A008413380088181A00841BB80034E5390F0D00310600103EC000001880401CDEC0000000820E00050AA1002BB2
:4021C000001D168B0084138200841B8A0000D8630E09DCDC0000A54B00D622020000E02A0000AD5B00D62A0A0000E0BA070518000000D87300841AA2000469A007059800D5
:4022000000841BB300046DB10074491B0000F802000441000004611800840008054C104E0600104E0D00FCEE0600104E0D00FCEF0600104E0D00FCED0600104E0D00FCECF1
:402240000600104E0D00FCEB0600104E0D00FCEA0600104E0D00FCE80600104E0D00FCE9089C00100000000000002E0100000000099C0010000000020C10F46002C2000036
:40228000000000000000000000000000000000000000000000000000000000000000000000000000000000000000000000000000000000000000000000000000000000001E
:4022C00000000000000000000000000000000000000000000000000000000000000000000000000000000000000000000000000000000000000000000000000000000000DE
:40230000000000000000000000000000000000000000000000000000000000000000000000000000000000000000000000000000000000000000000000000000000000009D
:40234000000000000000000000000000000000000000000000000000000000000000000000000000000000000000000000000000000000000000000000000000000000005D
:40238000000000000000000000000000000000000000000000000000000000000000000000000000000000000000000000000000000000000000000000000000000000001D
:4023C00000000000000000000000000000000000000000000000000000000000000000000000000000000000000000000000000000000000000000000000000000000000DD
:40240000000000000000000000000000000000000000000000000000000000000000000000000000000000000000000000000000000000000000000000000000000000009C
:40244000000000000000000000000000000000000000000000000000000000000000000000000000000000000000000000000000000000000000000000000000000000005C
:40248000000000000000000000000000000000000000000000000000000000000000000000000000000000000000000000000000000000000000000000000000000000001C
:4024C00000000000000000000000000000000000000000000000000000000000000000D000000000000000000000000000000000000000000000000000000000000000000C
:402500000019999A0000000000000000000007FFFFFFFFFF000AAAAB000000000000C0000000C000000008000100000000000001000000000000000000000000FFFF777778
:402540000000006400000000000000000000C0000000C00000000800000000000000000000000000000000000000000000000000000000000000000000000000000000006F
:40258000000000000000000000000000000000000000000000000000000000000000000000000000000000000000000000000000000000000000000000000000000000001B
:4025C00000000000000000000000000000000000000000000000000000000000000000000000000000000000000000000000000000000000000000000000000000000000DB
:40260000000000000000000000000000000000000000000000000000000000000000000000000000000000000000000000000000807F000001000000408AF701E880000070
:402640002100000000007440FF0000000000000000000000000000000000000000000000000000000000000000000000000000000000000000000000000000000000000086
:40268000000000000000000000000000000000000000000000000000000000000000000000000000000000000000000000000000000000000000000000000000000000001A
:4026C00000000000000000000000000000000000000000000000000000000000000000000000000000000000000000000000000000000000000000000000000000000000DA
:402700000000000000000000000000000000000000000000000000000000000000000000000000000000000000000000000000000000000000000000000000000000000099
:402740000000000000000000000000000000000000000000000000000000000000000000000000000000000000000000000000000000000000000000000000000000000059
:020000040003F7
:0200000480007A
:40000000010000000000000080800000000000004040000000000000082800000000000000000000400000000000000000000200BD0E000000000000000000000000000002
:40004000000000020A000500000000020C00000000000000000000000101020007000801000000000002000000000E000101000228000000000000500000000000000000C1
:40008000000000000000000000000000410000000404000401200001000000000000000000000000000000000000000000000000000000000000000030220044000D00002E
:4000C000000D0000020D1D00036214180000203003020C0D300D000001001A403000000030510022000D30001F000070200F00000000022000001000000000000000000030
:400100000000000000000000000000000000022C040400041110000100000000000000000000000000000000000000000000000000000000000000001228000400390000EC
:4001400003110C280139140002281011032118020000000012390000002E0001120000001000020002040029000F002100101F0080000003000000105403200006BEFDCD9C
:400180003FFFFFFF2200F00C040000004000000004040404111100010000C00040011011C001001140014001000000000000000000000000000000000000000000000000F8
:4001C00001000000010000000000000001000000000000000000000000010000000000010000000100000000010100000000000000000000000001010000000000000000F5
:400200000000000000000000000000000900040004040004001000010000000000000000000000000000000000000000000000000000000000000000000200000000000092
:40024000000000000100000000000000000000000000000000000001000001000000000000000200000000000000000201000201000000000000100400000000000000005F
:4002800000000000000000000000000000000800040400042220000100000000000000000000000000000000000000000000000000000000000000000011206200131F2002
:4002C0000001007220731F08007B0000001100620111026202041C000411014208000108107B0100000000620074000800073F00000000000000000400000000000000002E
:40030000000000000000000000000000000002240404000400000001000000000000000000000000000000000000000000000000000000000000000008000000020104007B
:4003400000000100100000000000000002000400000000000400020000000000000002000800000000000300080003000400100100000000000040000000000000000000F3
:400380000000000000000000000005000100000004040004000000010000000000000000000000000000000000000000000000000000000000000000010002000001210005
:4003C000010008001000010000001E0140010000000040000001000000000000000000010100040000000000200000001F00400100000000000050400106100002EB0CFD1F
:4004000037FFFFFF2200F00C8C10000000000800040424040898000100000000000000004001C00100000000000000000000000000000000000000000000000000000000F3
:400440000000000000000000000000000000000000000000010000000000000001000000010000000000010000000000000001000000000000004000000000000000000037
:400480000000000000000000000000000000022404000024008008010000000000000000000000000000000000000000000000000000000000000000008082081080440285
:4004C0000F80702000800040600008804180020101800010010002000180020401FF02000000037F0000FF7FC0FF00003F000000200000000000000064020003000CB00E03
:4005000019FFFFFF00000000040000002000040004040404002000010000C0004001800030004010100040A800000000000000000000000000000000000000000000000053
:4005400000000000000000000000470F0000007F00000000000000000000000000000000000000000000000000000000000007780000000000000000050100000000000021
:4005800000000501000000000700000000000000060007000000000000000000000000400000000000004000000040000000008000000000000000000000000000000000E1
:4005C00000000010000000000000000020000000000000000000000000000000000000000000000000000000000000000000000000000000000000000000000000000200C9
:400600000000000000000800000000000000000000000000000000000000000000000000000040002000002000000000000000000000000000000000000000000000000032
:4006400000000000000000000000000000000000000000000000000000000000000000000000000000000000000000000000000000000000000000000000000000000080FA
:40068000000000000000000000000000000000000000000000000000000000000000000000000000000000000000000000000000000000000000000000000000000000003A
:4006C00000000000000040000000000000000000000000000000000000000D00000000000000000000000000000000000000000001000000000000000000000000000000AC
:400700000000000000000000000000000000000000000000000000000000000000000000000400000000000000000000000040000000000000000000000000000000000075
:400740000000000000000000000000000000000000000000000000000000000000000000000000000000000000000000000000000000000000000000000000000000000079
:400780000000000000000000000000000000000000000000000000000000000000000000000000000000000000000000000000000000000000000000000000000004000035
:4007C00000000000000000000000000000000000000000000000000000000800040000000000000000000000000000000000000000000000000000000000000000000000ED
:4008000000000000000000000000000000000000000000000000000000000000000000000000000000000000000000000000000000000000000000000000000000040000B4
:400840000000000000000001000000000000000000000000000000000000000000000000000000000000000000000000000000000000000000000000000000000000000077
:400880000000000000000000000000000000000000000000000000000000000000000000000000000000000000000000000000000000000000000000000000000000000038
:4008C00000000000000000000000000000000000000000000000000000000000000000000000000000000000000000000000000000000000000000000000000200000000F6
:4009000000000000000000000000000000000000000000000000000000000000000000000000000000000000000000000000000000000000000000000000000000040000B3
:400940000004000000000000000000000000000000000000000000000000000000000000000000000000000000000000000002000000000000000000000000000000000071
:400980000000000000000000000000000000000000000000000000000000000000000000000000000000000000000000000000000000000000000000000000000000000037
:4009C00000000000000000000000000000000000000000000000000000000000000000000000000000000000000000000000000000000000000000000800000000004000AF
:400A0000000000000000110000000000000000000000000000000000020001280000204580002000000080280200202000000010005A000800208100020000000000000274
:400A40000000000000000800000000002010004500040000000004000000000000A000000000000000000809000000000000098010800000000050000000000000002002B5
:400A8000020400000000000000000000000000000000000008040001000000000000010000020000000040000000340000000003908000752848090200802830020000804F
:400AC000000100100000588010000008000010000000000000000000FF0075004700000000004000D00042003000200000003C003000000000001000080080000000000084
:400B000000000000000001000000000000000000000000000000000000000000000000000000000000000000000000000000000000000000000000000000000000000000B4
:400B40000000000000000000000000000000000000000000000000000000000000000000000000000000000000000000000000000000000000000000000000000000000075
:400B80000000080000000000000000000000000000000000000000000022002000000000400A0004000002002111020000400014001200210080000000000200000000005E
:400BC000490802000000000022080000000000000091000400000000E012000002000100001420000000000000001008000000000220200000000000044104000400000013
:400C00000000000000400655000000000000000000000000000200010041000004000800000000000000000044B120040000000100800620081410022008080000815209CF
:400C40000000000000002100000000000000000000000000000000000E008F00EF00000000000F0007000F0007000400000001002F000000000090000000000000000000D7
:400C800000000800000000000000000000000000000000000000000001401000000000010000010400000000201100008000080001000000040000806010300000000801EE
:400CC000001402010000000020480100800000004011000400020000000000000000000000400200000000000000000000000000000000000004A00208000000800088287D
:400D000020D1000000000000000803240000000000000000000000000000840010800000008400000100000800000000000000290000000000000000000000000000008049
:400D40002100002104000002000000000000000000000000000000008D0003005E00000000000F001F008F00000000000000F000F40000000000000000001000000010007C
:400D80000000000000000000000000000000000000000000000000000000000000000000000000000000000000000000000000000000000000000000000000000000000033
:400DC00000000000000000000000000000000000000000000000000000000000000000000000000000000000000000000000000000000000000000000000000000000000F3
:400E000000000000080000000000000000000000000000000000000010800040108000000100110000001000280001000000000000800000000000013C01060000000080BB
:400E4000808000000000009401000441000000008014010000000000940100000000000000A900000000000001284100000000000000000020088002002040200800004ADF
:400E800000000000000000000000000000000000000000000000000000001200000000400000000000000000801401000000002000200041088100A028004010100802808F
:400EC000000010000000040000200000000000000000000000000000CB002D00070000000000E9000B000F0007000C000000F0009E0000000000000000000000000000001B
:400F00002000000008000000000000000000000000000000000000000000000000000000000000000000000000000000000000000000000000000000000000000000000089
:400F40000000000000000000000000000000000000000000000000000000000000000000000000000000000000000000000000000000000000000000000000000000000071
:400F80000000040000000000000000000000000000000000000000004000004000800000001841000000100029400002000020024000001000001020000014000020400043
:400FC00001012000008040910000164000000202801400022020200000000000002008000000000000000000000000000000000000000000080000A0400000000000080016
:401000002854004100000000400001000000000000000000000000000000000000000000000000000000002000000000000000000000000000000000000000000000000092
:4010400000000000000000000000000000000000000000000000000089002F003F0000000000DD008F002F00000000000000700041000000000000000000400000000000ED
:40108000000004000000000000000000000000000000000000000000000000000000000000000000000000000000000000000000000000000000000000000000000000002C
:4010C00000000000000000000000000000000000000000000000000000000000000000000000000000000000000000040000000000000000000000200000040000000000C8
:401100000000000000000000000000000000000000000000000000000000000000000000000000040000000000000000000000000000042000000000000000000000000087
:4011400000000000000000000000000000000000000000000000000000000000000000000000000000000000000000002000200040000000000000000000000000000000EF
:401180000000000000000000000000000000000000000000000000000200040000000000000000000000000000000000000000000000002000000000000000000200000007
:4011C00000000000000000400000000000000000000000000000000000000000000000000000000000000000000000000000000000000000000000000000A000000000000F
:4012000000001000000000000000000000000000000000000000000000000000000000000000000000000030000000000000008000000000000000000000000002000010DC
:40124000000000000000000000000000000000000000000000000000000000000000000000000000000000000000000000000000000000000000000000000000000000006E
:40128000000000000000000000000000000000000000000000000000000000000000400000000000000000000000000000000080000000000000000000000000020040101C
:4012C000000004000000000000000040000000000000000000000000000000000000000000000000000000000000000000000000000000000000000000000000000040006A
:4013000000008000000000000000000000000000000000000000000000000000000000000000000000000040000000000000000000000000000000000000000000000000ED
:401340000000000000000000400000000000000000000000000000000000000000000000000000000000000000000000000000000008000000000000000000000000040021
:401380000000000000000000020000000000000040000000000000000000000000000000000000000008000000000000000000800000000000000000000000000200401011
:4013C00000000800000000000000000000000000000000000000000000002000000000000000000010000000000000000000400080000000000000000000000000000000F5
:40140000000020000000000000000000000000000000000000000000000000000000000000000000000000000000000000000000000000000000000000000000000000008C
:401440000000000000000000020000000000480000000080000000200000000000000000000000000000000000000000000000000000000000000000000000000000000082
:40148000000000000000000000000000000000000000000000000000000000000000000000000000000000000000000000000000000000000000000000000000000000002C
:4014C000000000000000000000000000000000000000000000000000000000000000000000000000E0003000000000000000000000000000000000000000000000000000DC
:4015000000000000000000000000000000000000000000000000000020C0C000C00000004000000000000000C0000000B040400040000000003A3A0018000000002A2A00FB
:401540002A00000000000000000000000000000000000000000000000000000000000000000000000000000000000000000000000000000000000000000000000000000041
:40158000000000000000000000000000000000000000000000000000000000000000000000000000000000000000000000000000000000000000000000000000000000002B
:4015C00000000000000000000000000000000000000000000000000000000000000000000000000000000000000000000000000000000000000000000000000000000000EB
:4016000000000000000000000000000000000000000000000000000000000000000000000000000000000000000000000000000000000000000000000000000000000000AA
:40164000000000000000000000000000000000000000000000000000000000000000000000000000000000000000000000000000000000000000000000000000000000006A
:0200000490006A
:0400000000004005B7
:0200000490105A
:04000000BC90ACAF55
:0200000490303A
:0200000031329B
:0200000490402A
:4000000000000000000000000000000000000000000000000000000000000000000000000000000000000000000000000000000000000000000000000000000000000000C0
:400040000000000000000000000000000000000000000000000000000000000000000000000000000000000000000000000000000000000000000000000000000000000080
:400080000000000000000000000000000000000000000000000000000000000000000000000000000000000000000000000000000000000000000000000000000000000040
:4000C0000000000000000000000000000000000000000000000000000000000000000000000000000000000000000000000000000000000000000000000000000000000000
:0200000490501A
:0C00000000012E16106900012E23419B08
:00000001FF