:4000000000800020110000008D0800008D08000080B500AF024A034B1B68136000F03AFCBC760040FA4600400800022300000876080003230000107608000423000028762D
:4000400008000523000030760500062300002070050007230000307005000823000060700500FE23000070703000FE220000405100040B220000000080010C22000000084E
:4000800080010D220000000A00040E220000000C80010F2200000018000210220000001A8000112200000042800012220000004300011322000000448000142200000046CC
:4000C00080001522000000480001FE220000004D07001723000000520700182300000852070019230000105207001A230000185207001B230000785208001C2300007845FE
:4001000020001D23000070642000FE230000706508001F230000005180002023000000048000212300008004800022230000000680002323000080068000242300000014D9
:400140008000252300008014800026230000001680002723000080161000282300001050100029230000005080002A230000004C80002B230000804C80002C2300000047B4
:4001800080002D230000804780002E230000804680002F230000004580003023000080458000312300000015800032230000801580003323000080198000342300000017B2
:4001C0008000352300008017800036230000800980003723000000078000382300008007800039230000800B80003A230000000580003B230000800580003C230000004917
:4002000080003D230000804980003E230000804880003F230000804380004023000080428000412300000041800042230000804180004323000000408000FE2300008040D0
:400240000100000001000000010000000048014001000000004800400100000000200140010000000020004010B5054C237833B9044B13B10448AFF300800123237010BD04
:40028000C883FF1F00000000243B0000084B10B51BB108480849AFF300800848036803B910BD074B002BFBD0BDE81040184700BF00000000243B0000CC83FF1F0881FF1FBD
:4002C0000000000080B582B000AF62B600F042F81A4800F047F800F0A7F8194800F042F8184800F03FF800F0EDF90346012B03D1154800F037F802E0144800F033F800F090
:40030000B7FA00F0BDFA4FF080737B602620796800F086FA0CE02620796800F081FA7B68A3F5F423A3F590737B60142000F070FF7B68074A9342EED8E5E700BF283B0000EB
:40034000383B0000403B00004C3B0000583B000020A1070080B500AF0020012101F038F880BD00BF80B582B000AF786001F0FAF90346002B06D001F0E9F90346002B01D036
:4003800001F06AFB01F0E2F90346002B08D000BF01F03CFC0346002BFAD0786801F0C8FB0837BD4680BD00BF80B500AF00F07CFD80BD00BF80B584B000AF78600B467B8052
:4003C00002E0052000F046FF00F09CFD034603F01103002BF5D00023FB811EE07A88FB89D31AFE2B0FDCFB897A68D1187B88DAB2FB89DBB2D31ADBB20846194600F038FE98
:400400007B88FB8109E0FB897A6813441846FF2100F02EFEFB89FF33FB81FA897B889A42DCD31037BD4680BD80B582B000AF012003F0C8F9FFF7B8FF002003F0C3F9142098
:4004400000F0E6FE012003F0BDF94FF4827000F0DFFE44F6FF70002100F096F94FF4827000F0D6FE44F6FF70002100F08DF94FF4827000F0CDFE44F6FF70002100F084F933
:400480004FF4827000F0C4FE4FF69000002100F0A3F9012000F0BCFE4FF69000012100F09BF94FF4827000F0B3FE4FF47440002100F092F9012000F0ABFE4FF47440012151
:4004C00000F08AF94FF4827000F0A2FE4FF20340002100F081F9012000F09AFE4FF20340012100F079F9012000F092FE4FF20340002100F071F9012000F08AFE4FF2010089
:40050000022100F069F9012000F082FE4FF20200012100F061F9012000F07AFE4FF20500052100F059F9012000F072FE4FF20300012100F051F94FF4827000F069FE4FF2E1
:40054000500041F6FF7100F047F9012000F060FE4FF251001F2100F03FF9012000F058FE4FF280137B600BE07B689BB21846022100F032F9012000F04BFE7B6801337B60D2
:400580007B684FF297129342EEDD4FF472404FF4817100F021F9012000F03AFE4FF2042042F2021100F018F9012000F031FE4FF208204FF4817100F00FF9012000F028FE97
:4005C0004FF20C2049F2021100F006F9012000F01FFE4FF2102049F2021100F0FDF8012000F016FE4FF2142049F2031100F0F4F8012000F00DFE4FF2182049F2021100F0E7
:40060000EBF8012000F004FE4FF21C2049F2021100F0E2F8012000F0FBFD4FF4404026494FF4F07200F05AF8012000F0F1FD00202249B02200F052F8012000F0E9FD46F248
:4006400004001F49102200F049F8012000F0E0FD4FF20340002100F0BFF8012000F0D8FD4FF20440002100F0B7F8012000F0D0FD4FF20140022100F0AFF8012000F0C8FD56
:400680004FF20240002100F0A7F8012000F0C0FD4FF20240012100F09FF8032000F0B8FD4FF47440002100F097F84FF4827000F0AFFD0837BD4680BD0C81FF1FEC82FF1F27
:4006C000E483FF1F80B483B000AF0023FB71FB7918460C37BD465DF8047B70472DE9F04387B000AF03463960FB801346BB806B461E46BB88D91C4B1E3B610B461A464FF0CB
:4007000000034FEAC30949EA52794FEAC2080B461A464FF00003DD0045EA5275D4000B460733DB08DB00ADEB030D6B460033FB60FB6800221A70FB881B0A9BB2DAB2FB68F3
:400740005A70FB88DAB2FB689A700023FB820AE0FB8A0333FA8A39680A441178FA68D154FB8A0133FB82FA8ABB889A42F0D3FA68BB8803339BB210461946FFF71BFEB546E8
:400780001C37BD46BDE8F08380B584B000AF03463960FB8000233B72FB881B0A9BB2DBB27B72FB88DBB2BB723B681B0EDBB2FB723B681B0CDBB23B733B681B0ADBB27B73CC
:4007C0003B68DBB2BB7307F1080318460721FFF7F1FD1037BD4680BD80B584B000AF03460A46FB801346BB8000233B72FB881B0A9BB2DBB27B72FB88DBB2BB72BB881B0A03
:400800009BB2DBB2FB72BB88DBB23B7307F1080318460521FFF7CEFD1037BD4680BD00BF80B582B000AF03463960FB80272042F28A01FFF7A9FF1A2000F0EAFC1420396869
:40084000FFF7A2FF012000F0E3FCFB8819201946FFF79AFF012000F0DBFC1A200121FFF793FF3C2000F0D4FC0837BD4680BD00BF80B500AF02F0FCFF03F00AF880BD00BF5F
:4008800080B500AF03F06EF880BD00BF80B400AFFEE700BF80B586B000AF224B7B61224B3B61204B7B6135E03B691B68FB603B695B68BB603B699B683B6000237B600CE080
:4008C000FB681A68BB681A60BB680433BB60FB680433FB607B6804337B607A683B689A42EED13B69DB683B6000237B6008E0BB6800221A60BB680433BB607B6804337B6066
:400900007A683B689A42F2D13B6910333B617B69013B7B617B69002BC6D103F0D1F8FFF7D1FCFEE7010000008C3E000080B582B000AF174B174A1A60174A174B1B6843F46F
:400940000073136000237B600FE07B68032B04D8124A7B6852F8233000E0114B11497A6841F822307B6801337B607B682F2BECD90D4B1B78DAB20D4B1A700D4B094A1A6066
:4009800000F0A0F90B4B00221A600837BD4680BD0CED00E00004FA0514ED00E0000000008D0800000080FF1FBC7600400481FF1F08ED00E00081FF1F80B584B000AFF86054
:4009C000B9607A60F868B9687A6803F09FF81037BD4680BD80B483B000AF0346FB71FEE780B483B000AF434B00221A60424B10221A70424B01221A70414B00221A70414B59
:400A00004FF406721A80404B01221A703F4B03221A703F4B3F4A92B21A803F4B47F608021A803E4B00221A803D4B4FF480421A803C4B09221A703C4B0A221A703B4B1622F1
:400A40001A703B4B1E221A70BFF35F8F394B01221A70BFF35F8F00BF2A4B1B889BB2002BFAD100237B600DE07B68DA00324B13441946324A7B6852F823309BB20B807B687F
:400A800001337B607B68422BEED9BFF35F8F294B01221A70BFF35F8F00BF294B1B78DBB203F00103002BF8D100BF264B1B78DBB203F00103002BF8D100BF234B1B78DBB2E9
:400AC00003F00103002BF8D100BF204B1B78DBB203F00103002BF8D100BF1D4B1B78DBB203F00103002BF8D10C37BD465DF8047B704700BFF883FF1F007600401070004005
:400B000019700040007800400278004003780040047800402800000006780040047600400676004029700040397000406970004079700040147000400C780040683B000078
:400B4000187000402870004038700040687000407870004080B582B000AF364B07221A80354B19221A70354B20221A80344B19221A70344B41221A80334B18221A70334B32
:400B800006221A70324B52221A70324B324A1278D2B21A70314B40F20B721A80304B41F251221A800023FB7019237B6014E0FB785B00DAB22B4B1B78DBB203F00103DBB2EA
:400BC0001343DBB203F00303FB704FF4F07000F003FB7B68013B7B607B68002B02D0FB78032BE4D17B68002B02D10320FFF7F2FE1D4B4FF480721A801B4B07221A701B4B4D
:400C000000221A701A4B48221A70174B00221A70184B00221A70184B02221A70174A174B1B78DBB243F00703DBB213700837BD4680BD00BF8040004082400040844000400D
:400C400086400040884000408A4000400043004000420040A14600400F0100492242004020420040254200400440004006400040084000400940004001400040A243004029
:400C800080B483B000AF0B4B1B78FB710A4AFB7903F00703DBB21370084AFB791B09DBB21370074B44221A700C37BD465DF8047B704700BFCF0100496E5800406F58004002
:400CC0007658004080B500AF72B6304A2F4B1B78DBB243F00403DBB21370FFF781FE2C4A2B4B1B78DBB243F00203DBB21370294A284B1B78DBB243F00203DBB21370264AF5
:400D0000254B1B78DBB243F04003DBB21370234A224B1B78DBB243F01003DBB21370204820490822FFF748FE1F4820490822FFF743FE1F481F490A22FFF73EFE1E481F49EA
:400D40000822FFF739FE1E481E490822FFF734FE1D481E490822FFF72FFE1D4A1C4B1B78DBB243F00803DBB213701A4B61221A70FFF7F0FE174B81221A70FFF781FF1648EF
:400D800005490E22FFF718FE80BD00BFE84600400350014013500140A0430040C24300400251004018120048C251004020120048F051004028120048125100403412004899
:400DC000225100403C12004832510040441200482243004000480040B043004080B500AF114B0F221A70114B01221A600020072100F06AFA00200E4900F03EFA00F054F97D
:400E00000C4B00221A700C4B00221A700B4B00221A7000F077F800F093F8094B00221A70084B00221A7080BD8465004080E100E0051100000C85FF1F0D85FF1F0E85FF1F04
:400E4000856500408764004080B582B000AF00F0CBF90346FB71114A104B1B78DBB243F02003DBB213700E4A0D4B1B78DBB243F01003DBB213700B4A0A4B1B78DBB243F03F
:400E80001003DBB21370FB79184600F0B1F900F01BF800F025F80837BD4680BD94650040956500409764004080B500AF054B1B78002B04D1FFF792FF024B01221A70FFF728
:400EC000C3FF80BD0084FF1F80B400AF034B01221A60BD465DF8047B704700BF00E100E080B400AFBD465DF8047B704780B400AF034B01221A60BD465DF8047B704700BFE9
:400F000080E100E080B582B000AFFFF7EFFF0A4B1B78DAB2094B1B78DBB203F00903DBB21343FB71054B00221A70FFF7CDFFFB7918460837BD4680BD656500400B85FF1F79
:400F400080B483B000AF054B1B78FB71FB7918460C37BD465DF8047B704700BF6764004080B584B000AF0346FB71394B1B78FB73FB7B002B02D1FE23FB7302E0FB7B013BB6
:400F8000FB73344B1B78DBB2FA7B9A42EDD0FFF7ADFF314B1B78DAB2304B1B78DBB203F00903DBB21343BB732C4ABB7B1370284B1B78DAB2274B1B78DBB29A420AD1274BB2
:400FC0001B78DBB203F00403002B03D0244AFB79137037E01F4B1B78DBB20133DAB21D4B1A701C4B1B78DBB2FF2B02D1194B00221A70184B1B78DAB2154B1B78DBB29A42AF
:4010000011D1134B1B78DBB20133DAB2104B1A700F4B1B78DBB2FF2B02D10D4B00221A70104B01221A700B4B1B78DBB219460E4AFB7953540D4A0D4B1B78DBB243F00403D7
:40104000DBB21370FFF740FF1037BD4680BD00BF0D85FF1F0E85FF1F656500400B85FF1F456500400C85FF1F0C84FF1F8565004080B584B000AF78600B46FB700023FB731E
:401080000CE0FB7B7A6813441B781846FFF768FFFB7B0133FB73FB78013BFB70FB78002BEFD11037BD4680BD80B582B000AF01E0114B1B78114B1B78DBB203F02003002B8D
:4010C000F6D100F091F80346FB710D4A0C4B1B78DBB243F00103DBB21370094A084B1B78DBB223F00103DBB21370FB79184600F07FF80837BD4680BD55650040676400403C
:401100009565004080B483B000AF37E02A4B1B78DAB22A4B1B78DBB203F00903DBB21343FB71264AFB791370244B1B78DBB203F00403002B21D0224B1B78DBB2002B0FD12D
:40114000204B1B78DBB20133DAB21E4B1A701D4B1B78DBB2FF2B06D11A4B00221A7002E0174B00221A70184B164A1278D2B21146164A525CD2B21A7000E007E0114B1B78AD
:40118000DAB2134B1B78DBB29A42BFD10D4B1B78DAB20F4B1B78DBB29A4207D10D4A0D4B1B78DBB223F00403DBB213700C37BD465DF8047B704700BF656500400B85FF1FD3
:4011C0000C85FF1F0D85FF1F456500400C84FF1F0E85FF1F856500400230800803D000BF01380046FCD17047EFF3108072B6704780F31088704700BF80B483B000AF03469D
:40120000FB7101BE0C37BD465DF8047B704700BF80B582B000AF786008E00C4B1B681846FFF7DAFF7B68A3F500437B607B68B3F5004FF2D8064B1B687A6802FB03F31846D2
:40124000FFF7CAFF0837BD4680BD00BFA883FF1FA083FF1F80B582B000AF0346FB80FB88044A127802FB03F31846FFF7B5FF0837BD4680BDA483FF1F80B584B000AF034692
:401280003960FB710F4B1B68FB60FB791F2B02D90020FFF7B1FFFB7903F01F0310339B00FA6813441B68BB60FB7903F01F0310339B00FA6813443A681A60BB6818461037D0
:4012C000BD4680BD08ED00E080B582B000AF03460A46FB711346BB71BB79072B02D90020FFF78AFFFB791F2B02D90020FFF784FFFB7903F01F0303F1604303F56443BA7935
:401300005201D2B21A700837BD4680BD80B483B000AF7860264B1B78DBB21A467B681A60244B1B78DBB21B027A6812681A437B681A60214B1B78DBB21B047A6812681A436B
:401340007B681A601D4B1B78DBB21B067A6812681A437B681A607B680433194A1278D2B21A60184B1B78DBB21A027B6804337968043109680A431A60134B1B78DBB21A04A9
:401380007B6804337968043109680A431A600F4B1B78DBB21A067B6804337968043109680A431A600C37BD465DF8047B704700BF0301004904010049EC46004002010049DA
:4013C0000101004900010049050100490601004980B582B000AF03460A46FB711346BB71084B1B78002B04D100F00EF8054B01221A70FA79BB791046194600F0D5F80837E8
:40140000BD4680BD0184FF1F80B582B000AFFFF7EBFE0346FB71534A524B1B78DBB243F00103DBB21370504A4F4B1B78DBB243F00103DBB213704D4B01221A704C4B0222E3
:401440001A704C4A4B4B1B78DBB203F07F03DBB213700020FFF7FEFE474A474B1B78DBB223F00603DBB21370444A444B1B78DBB223F02003DBB213703F4A3F4B1B78DBB2DA
:4014800043F00103DBB213700120FFF7E3FE2820FFF7E0FE3A4A3A4B1B78DBB203F07F03DBB21370364A364B1B78DBB223F04003DBB21370304A304B1B78DBB243F002034F
:4014C000DBB213700220FFF7C5FE2B4A2A4B1B78DBB243F00403DBB213702A4B00221A70294B00221A70FB791846FFF781FE17200721FFF7E9FE17202449FFF7BDFE18205C
:401500000721FFF7E1FE18202149FFF7B5FE15200721FFF7D9FE15201E49FFF7ADFE01200721FFF7D1FE01201B49FFF7A5FE02200721FFF7C9FE02201849FFF79DFE032092
:401540000721FFF7C1FE03201549FFF795FE0C200721FFF7B9FE0C201249FFF78DFE0837BD4680BDA5430040B54300409D600040096000401060004094430040126000403D
:40158000F85100408460004085600040F5230000C51C0000E9230000E5220000392300008D230000A927000080B584B000AF03460A46FB711346BB710023FB7306E0FB7BE2
:4015C000324A0121D154FB7B0133FB73FB7B012BF5D92F4AFB7913702E4B00221A702E4B00221A702D4B00221A702D4B00221A702C4B00221A702C4B00221A702B4B0022C0
:401600001A702B4B4FF400021A60294B4FF080721A60274B4FF400121A60254B02221A60234B04221A60224B08221A60BB79002B02D0012B09D011E01E4A1E4B1B78DBB246
:4016400023F00103DBB2137011E01A4A194B1B78DBB243F00103DBB2137008E0154A154B1B78DBB243F00103DBB2137000BF124B03221A70114B80221A700120FFF7ACFD02
:401680000F4B04221A701037BD4680BDC485FF1F2985FF1F2C85FF1F4885FF1F4B85FF1F4085FF1F4A85FF1F4D85FF1F2885FF1F00E100E009600040286000400860004059
:4016C0001260004080B483B000AF0023FB7106E0FB79144A0121D154FB790133FB71FB79012BF5D9104B00221A70104B00221A700F4B00221A700F4B00221A700E4B00227D
:401700001A700E4B00221A700D4B00221A700D4B03221A700C4B80221A700C37BD465DF8047B7047C485FF1F2C85FF1F4885FF1F4B85FF1F4085FF1F4A85FF1F4D85FF1FEC
:401740002885FF1F286000400860004080B400AF034B1B78DBB21846BD465DF8047B70474B85FF1F80B483B000AF0023FB71094B1B78DBB2002B05D0064B1B78FB71054B4A
:4017800000221A70FB7918460C37BD465DF8047B704700BF4885FF1F80B483B000AF0346FB71FA79064913465B0013449B000B445B78DBB218460C37BD465DF8047B70471F
:4017C0005085FF1FB0B485B000AF03463960FB711346BB80FB79002B66D0FB79082B63D8B988FA79324813465B0013449B000344DB889BB2C3F5007399420BD9FA792C4978
:4018000013465B0013449B000B44DB889BB2C3F50073BB80274CF979BB881B0A9BB2D8B2FA79234D13465B0013449B002B44DB78DBB20343DAB20B0123441A701D4AFB79F7
:40184000B988C9B21B0113440A465A703B68002B13D00023FB810CE01748FB79FA8939680A4412781B01034408331A70FB890133FB81FA89BB889A42EED3FA790C49134634
:401880005B0013449B000B4400225A700948F979FA79074C13465B0013449B0023445B79DAB20B0103449A701437BD46B0BC70475085FF1FFC5F00407060004090B482B0C8
:4018C00000AF0346FB71FB79002B19D0FB79082B16D8FA790C4913465B0013449B000B4400225A700948F979FA79074C13465B0013449B0023445B79DAB20B0103449A706B
:401900000837BD4690BC70475085FF1FFC5F004080B582B000AF0023FB71324B1B79DBB2184600F069F80346BB712E4B1B78DBB2DBB25BB2002B16DA2A4B5B78DBB2212BFE
:4019400000D00FE0284B07221A80BA791346DB009B1A264A1344244A536000F02DFB0346FB7100BF38E01F4B5B78DBB2202B02D0222B1AD030E01C4B07221A80BA791346E6
:40198000DB009B1A194A1344174A5360BB79BA7917498A5CD2B242F00102D1B2144AD15400F08AFB0346FB7116E0BB790D4A9278D2B291B20F4A22F81310BB79BA790C498F
:4019C0008A5CD2B242F00202D1B2094AD15400F00FFC0346FB7100BFFB7918460837BD4680BD00BF006000403485FF1FAC83FF1F1085FF1F2485FF1F80B485B000AF03462E
:401A0000FB710023FB73FF23BB7317E0FB7B104AD35C7B737A7B0F4913465B0013449B000B4408339B78DBB2FA799A4203D1FB7BBB730223FB73FB7B0133FB73FB7B012B44
:401A4000E4D9BB7B18461437BD465DF8047B70471885FF1F5085FF1F80B582B000AF0023BB71224B00221A70214B00221A70204B00225A700023FB7110E0FB791D4AD35C18
:401A80007B717B79002B06D07B79082B03D87B791846FFF713FFFB790133FB71FB79012BEBD9154B1B78DBB2002B18D0114B1B78DBB2002B13D0114B1B78DBB2002B0ED0CF
:401AC0000D4B1B78DBB2082B09D80A4B1B78DBB2082B04D8094B1B78DBB2082B01D90123BB71BB7918460837BD4680BD0284FF1F1085FF1F1C85FF1F1485FF1F1885FF1F6C
:401B000080B485B000AF78600023FB8102E0FB890133FB81FB897A6813441B78002BF6D1FB8918461437BD465DF8047B704700BF80B584B000AF78600023BB81304B1B78E7
:401B40001A46304B9B5CFB727868FFF7D9FF0346FB81FA7A2C4913465B0013449B000B4408331B889BB2FA899A420AD9FA7A264913465B0013449B000B4408331B889BB265
:401B800000E0FB893B81BB897A681A44F97A3B89084611461A46FFF715FEFA893B89D31AFB81FB89002B0CD1FA7A174913465B0013449B000B4408331B889BB23A899A426D
:401BC00018D1BA893B891344BB8100BFFA7A0E4913465B0013449B000B445B78DBB2002BF4D0FB89002B05D1FB7A184600210022FFF7E8FDFB89002BABD11037BD4680BD6C
:401C00000284FF1F1485FF1F5085FF1F80B500AF054B1B781A46054B9B5CDBB21846FFF7BBFD0346184680BD0284FF1F1485FF1F80B485B000AF78600B46FB701346BB70E0
:401C40007B68DB7803F00303FB737B689B78DBB25BB2002B1ADAFB7B032B0AD0BB7803F001031549FA78CA54BB7843F00103BB701BE0BB789B08DBB203F001030F49FA78CE
:401C8000CA54BB7843F00403BB700EE0FB7B032B0BD0BB785B08DBB203F001030849FA78CA54BB7843F00203BB70BB7818461437BD465DF8047B70471485FF1F1885FF1F94
:401CC0001C85FF1F80B582B000AF374B1B78BB71BB7903F01003002B63D00123FB71BB795BB2002B13DABB7903F00F03012B02D00023FB711DE000F061F82C4B1B78DBB2AA
:401D0000DBB25BB2002B14DA0023FB7111E0BB7903F04003002B02D000F094F809E0BB7903F02003002B02D000F0B2F801E00023FB71FB79002B34D01B4B1B78BB71BB7957
:401D40005BB2002B2DDB1A4B1B78DAB2194B1B78DBB21343BB71184ABB791370164B1B78DBB2BA799A421CD1104B1B78FB710E4B1B78DBB223F07F03BB71BB79002B0AD135
:401D8000094B0A4A1278D2B21A70074B1B78DBB203F00F03FB71054B1B78DBB2FA799A42E2D10837BD4680BD286000404985FF1FBE85FF1F4C85FF1F2960004080B582B0DB
:401DC00000AF1D4B1B78FB711B4AFB7913701A4B1B78FB71FB795BB2002B03DA174AFB79137025E0022000F043FA154B1B78DBB203F06003202B08D0402B0BD0002B0ED18F
:401E000000F0D8FC0346FB710CE001F015FE0346FB7107E001F09CFC0346FB7102E00023FB7100BFFB79002B02D1044B03221A700837BD4680BD00BF286000404985FF1FCD
:401E40000060004080B500AF104B1B78DBB2062B19D801A252F823F0871E0000871E0000751E0000871E00007B1E0000871E0000811E000000F0FAF806E000F0A9F903E0A5
:401E800000F0D2F900E000BF80BD00BF2C85FF1F80B500AF124B1B78DBB2062B1DD801A252F823F0DB1E0000DB1E0000C11E0000DB1E0000C71E0000DB1E0000CD1E0000E3
:401EC00000F0DAF80AE000F029F907E0032000F0CFF9044B03221A7000E000BF80BD00BF2C85FF1F4985FF1F80B483B000AF0023FB71294B1B78DBB29AB2284B1B889BB226
:401F000013449AB2254B1A8015E02549FB79254A52681278D2B2CA54224B5B680133214A5360FB790133FB711E4B1B889BB2013B9AB21C4B1A801B4B1B889BB2002B02D0FD
:401F4000FB79072BE1D9144B1B78DBB2082B02D0FB79002B0FD0144B1B78DBB283F07F03DB43DAB2104B1A70104B0F221A70104B02221A7005E00D4B02221A700C4B022277
:401F80001A700C4AFB791370034AFB7913700C37BD465DF8047B70472885FF1F2A85FF1F006000403485FF1FBE85FF1F4985FF1F2C85FF1F4C85FF1F80B582B000AF164BA4
:401FC0001B889BB2002B02D100F02EF81EE0134B02221A70124B00221A7000F069F9114BDB79DBB29BB21B029AB20E4B9B79DBB29BB21343FB80084B1B889BB2FA889A42CC
:4020000002D2054AFB881380FFF76EFF012318460837BD4680BD00BF3485FF1F2C85FF1FBE85FF1F0060004080B400AF0A4B02221A700A4B80221A70094B0F221A70094BD3
:4020400000221A70084B00221A7001231846BD465DF8047B704700BF2C85FF1FBE85FF1F4985FF1F2885FF1F4C85FF1F80B500AFFFF73AFF80BD00BF80B500AF0A4B1B7835
:40208000DBB29AB2094B1B889BB213449AB2074B1A80074B00221A70012000F0E9F8054B03221A7080BD00BF2885FF1F2A85FF1F2C85FF1F4985FF1F80B582B000AF124BC3
:4020C00004221A70114B80221A7000F0F1F8104BDB79DBB29BB21B029AB20D4B9B79DBB29BB21343FB800B4B1B889BB2FA889A4202D2084AFB881380074B0B221A700123B9
:4021000018460837BD4680BD2C85FF1FBE85FF1F006000403485FF1F4985FF1F80B483B000AF0023BB71234B1B78DBB203F00F03DBB2023BFB71FB799AB21F4B1B889BB2E7
:4021400013449AB21C4B1A8018E01C4B5B681C49BA798A5CD2B21A70184B5B680133174A5360BB790133BB71FB79013BFB71134B1B889BB2013B9AB2104B1A800F4B1B8827
:402180009BB2002B02D0FB79002BDED10D4AFB7913700D4B1B78DBB283F07F03DB43DAB2094B1A70094B0B221A700C37BD465DF8047B7047296000402A85FF1F3485FF1FFB
:4021C000006000404C85FF1FBE85FF1F4985FF1F80B500AF044B00221A70012000F048F8024B03221A7080BD2C85FF1F4985FF1F80B400AF084B06221A70084B06221A70F2
:40220000074B80221A70074B00221A7001231846BD465DF8047B70472C85FF1F4985FF1FBE85FF1F4C85FF1F80B500AF0C4B1B78DBB2002B0AD00B4A094B1B78DBB263F08B
:402240007F03DBB21370064B00221A70064B00221A70012000F00CF8044B03221A7080BD4A85FF1F086000402C85FF1F4985FF1F80B483B000AF0346FB710B4B9B68002BE3
:402280000CD0094B9B68FA791A70074B9B68074A128892B25A80044B00229A600C37BD465DF8047B704700BF3485FF1F2A85FF1F80B400AF094B00221A80094B9B68002B7C
:4022C00007D0074B9B6800221A70054B9B6800225A80BD465DF8047B704700BF2A85FF1F3485FF1F80B400AF104A104B1B78DBB223F00103DBB213700D4B9B7C0D4B1B7B8A
:40230000DBB203F00303012B08D00A4BDB7BDBB283F07F03DB43DAB2064BDA73054B01225A73BD465DF8047B704700BF0B600040FC5F00405085FF1F80B400AF104A104B40
:402340001B78DBB223F00203DBB213700D4B93F822300D4B1B7EDBB203F00303012B08D0094BDB7EDBB283F07F03DB43DAB2064BDA76054B01225A76BD465DF8047B70471A
:402380000B600040FC5F00405085FF1F80B400AF124A124B1B78DBB223F00403DBB213700F4B93F832300F4B93F82430DBB203F00303012B0AD00B4B93F82730DBB283F0BA
:4023C0007F03DB43DAB2074B83F82720054B012283F82520BD465DF8047B70470B600040FC5F00405085FF1F80B400AFBD465DF8047B704780B500AFFFF764F980BD00BFFF
:4024000080B582B000AF0023FB716C4B1B79BB716A4B1B78DBB2DBB25BB2002B6DDA674B5B78DBB2013B052B65D801A252F823F08F240000A9240000D5240000F724000050
:40244000F7240000492400005C4BDB78DBB2212B0BD100F0BDF85A4B1B889BB2002B15D0FFF7AAFD0346FB7146E0544BDB78DBB2222B0BD100F0EAF8514B1B889BB2002B32
:4024800004D0FFF799FD0346FB7135E034E000F025F94B4B1B889BB2002B04D0FFF78CFD0346FB7128E027E0BB79012B11D8434B9B78DBB2002B0CD1414B01221A80BB790C
:4024C000404A13443E4A5360FFF776FD0346FB7112E011E0BB79012B0CD8394B01221A80BB79394A1344364A5360FFF765FD0346FB7101E000E000BF5AE0304B5B78DBB257
:402500000A2B11D00B2B3FD0092B00D050E000F0E5F82B4B1B889BB2002B04D0FFF7CCFD0346FB7144E043E0BB79012B2BD8234B9B78DBB2002B26D1BB79204AD278D1B221
:40254000204AD154BB791F4AD35CDAB2BB791F49CB5CDBB29A4204D2BB791C4A0021D1540CE0BB79194AD35CDBB2012B06D9BB79BA7914498A5CD1B2144AD154FFF738FE6C
:402580000346FB7114E013E0BB79012B0FD80B4B9B78DBB2012B0AD8BB79084A9278D1B2094AD154FFF724FE0346FB71FFE700BFFB7918460837BD4680BD00BF0060004087
:4025C0003485FF1FCC85FF1FC485FF1FC885FF1F80B584B000AF194B1B78DBB2013BDBB2184600F015FFF860154B1B79FB72FB7A0233DB00FA681344FB60FB685B68FB6029
:40260000FB7A104AD35CDBB2DB00FA681344FB60FB685B68FB60FB682033FB60FB685B687B607B681B78DBB29AB2074B1A80064A7B6853601037BD4680BD00BF4B85FF1F38
:4026400000600040BC85FF1F3485FF1F80B584B000AF1E4B1B78DBB2013BDBB2184600F0D7FEF8601A4B1B79FB72FB7A0233DB00FA681344FB60FB685B68FB60FB7A154A4B
:40268000D35CDBB2DB00FA681344FB60FB685B68FB60FB681833FB60FB685B687B607B6801331B78DBB29BB21B029AB27B681B78DBB29BB213439AB2074B1A807B68023301
:4026C000054A53601037BD4680BD00BF4B85FF1F00600040BC85FF1F3485FF1F80B584B000AF2D4B00221A802C4B1B78DBB2013BDBB2184600F08CFEF860294BDB78FB72BE
:40270000274B1B79BB72BB7A0233DB00FA681344FB60FB685B68FB60BB7A012B38D8BB7A204AD35CDBB2DB00FA681344FB60FB685B68FB60FB7A002B2AD0FB7A032B27D814
:40274000FB7A03F10053013BDB00FA681344FB60134B9B78FB72FB681B78FA7A9A4217D8FB685B687B60FA7A13465B0013449B001A467B6813447B607B685B68064A536026
:402780007B681A88044B1A807B689B68024A93601037BD4680BD00BF3485FF1F4B85FF1F00600040BC85FF1F80B500AF00F0FAFF80BD00BF80B586B000AF0023FB759D4B1E
:4027C0001B78FB7100233B619B4B00221A80FB795BB2002B80F20481964B5B78DBB20A2B00F2FC8001A252F823F000BF35290000DD290000DD290000DD290000DD290000BD
:40280000DD29000019280000DD290000A7290000DD290000BD290000864BDB78DBB2012B0ED100F01FFEB860BB685B68824A5360814B12221A80FFF7BFFB0346FB7578E0EE
:402840007C4BDB78DBB2022B24D17A4B9B78DBB2184600F0DDFDB860BB68002B69D0BB685B68754A5360744B5B6803331B78DBB29BB21B029AB2704B5B6802331B78DBB2AA
:402880009BB213439AB26C4B1A80FFF795FB0346FB75A4E0674BDB78DBB2032B44D10023FB73664B3B6109E03B691B78BB71BB793A6913443B61FB7B0133FB735D4B9B7879
:4028C000DBB2FA7B9A4204D23B691B78DBB2002BEAD1584B9B78DBB2EE2B01D1584B3B61544B9B78DBB2002B0BD0524B9B78DAB2544B1B7C9A4204D1534800F0A1F9524BE3
:402900003B613B691B78DBB2002B12D03B691B78DBB29AB2484B1A80474A3B695360FFF74BFB0346FB755AE001F086F80346FB7555E054E0FB7903F00303002B1FD0022B91
:4029400000D02FE03C4B02221A803A4B1B79DBB203F07F023D4913465B0013449B000B449B78DAB23A4B1A70394B00225A70324B374A5A60FFF720FB0346FB7512E02E4B93
:4029800002221A80334B1B78DAB2314B1A70304B00225A70284B2E4A5A60FFF70DFB0346FB7500BF1BE0244B01221A80224B2A4A5A60FFF701FB0346FB7510E01E4B01224B
:4029C0001A801C4B1B79DBB21A46244B13441A4A5360FFF7F1FA0346FB7500E000BF19E1144B5B78DBB2013B0A2B00F2128101A252F823F0FF2A0000132C0000892B000074
:402A0000132C0000212A0000132C0000132C0000132C0000652A0000132C0000BB2A0000044B9B78DAB20E4B1A70FFF7E1FB0346FB75EFE0006000403485FF1FE03C0000DE
:402A40002C3E0000883C0000D085FF1F5085FF1F0484FF1F4D85FF1F4B85FF1FBC85FF1F4A85FF1F6E4B9B787B717B79002B06D07B79013BDBB2184600F0CAFCB8607B7968
:402A8000002B02D0BB68002B02D17B79002B13D1644B1B78DBB27A799A4208D0614A7B791370614B01221A70012000F0C1F9FFF79FFB0346FB75ADE0ACE000F011FE03468F
:402AC000002B1BD0564B1B793B71554B1B79DAB2564B1A703B79564AD35CDAB23B795549CB5CDBB29A4204D04F4B01221A7000F071FBFFF77DFB0346FB758BE08AE0FB791C
:402B000003F00303012B22D0012B0DD3022B00D039E0434B9B78DBB2002B04D100F048FD0346FB752FE02EE03D4B9B78DBB2012B0CD1414B1B78DBB223F00203DAB23E4B19
:402B40001A70FFF755FB0346FB751CE01BE0344B1B79DBB2012B15D8314B9B78DBB2DB43DBB22F4A1279D2B211461046334A125CD2B21340DAB2314B5A54FFF739FB034635
:402B8000FB75FFE700BF45E0FB7903F00303012B22D0012B0DD3022B00D039E0204B9B78DBB2002B04D100F095FC0346FB752FE02EE01B4B9B78DBB2012B0CD11E4B1B78C1
:402BC000DBB243F00203DAB21B4B1A70FFF710FB0346FB751CE01BE0114B1B79DBB2012B15D80F4B9B78DBB2DB43DBB20C4A1279D2B211461046114A125CD2B21340DAB26A
:402C00000E4B5A54FFF7F4FA0346FB75FFE700BF00E000BFFB7D18461837BD4680BD00BF006000404B85FF1F4885FF1F4085FF1F3085FF1FBC85FF1F4D85FF1FC085FF1FA7
:402C4000B0B58AB000AF7860314B07F114041D460FCD0FC42B682370002387F826307B68002B52D07B6822221A707B68013303221A7007F10C031846FEF748FB022387F88A
:402C800027303EE097F827307A68134497F8262007F128010A4412F81C2C1209D2B207F128010A4412F8142C1A7097F8273001337A68134400221A7097F8273002337A680C
:402CC000134497F8262007F128010A4412F81C2C02F00F0207F128010A4412F8142C1A7097F8273003337A68134400221A7097F82630013387F8263097F82730043387F816
:402D0000273097F82730212BBCD92837BD46B0BD743C000090B482B000AF0123FB7174E03F4AFB791B0113440C221A70FA793D4913465B0013449B000B445B79DBB2002B4B
:402D40001AD0FA79374913465B0013449B000B441B79DBB2DBB25BB2002B06DA324AFB791B0113440C229A700CE02F4AFB791B01134408229A7005E02B4AFB791B0113445F
:402D800080229A702648F979FA79264C13465B0013449B002344DB889BB2DAB20B0103449A711F48F979FA791E4C13465B0013449B002344DB889BB21B0A9BB2DAB20B017E
:402DC0000344DA711648F979FA79164C13465B0013449B002344DB889BB2DAB20B0103441A710F48F979FA790E4C13465B0013449B002344DB889BB21B0A9BB2DAB20B0118
:402E000003445A71FB790133FB71FB79082B87D9064BFF221A700837BD4690BC704700BF706000405085FF1FFC5F00400A60004080B58AB000AF0346FB7100237B84002305
:402E400087F827304CE097F82720C44913465B0013449B000B4400221A7097F82720BF4913465B0013449B000B4400229A7097F82720BA4913465B0013449B000B440022DD
:402E8000DA7097F82720B54913465B0013449B000B44083300221A8097F82720AF4913465B0013449B000B44083300229A7097F82720AA4913465B0013449B000B440022FE
:402EC0005A7097F82720A54913465B0013449B000B4400225A7197F82730013387F8273097F82730082BAED9FB79002B16D0002387F825300EE097F82530994A0021D1545B
:402F000097F82530974A0021D15497F82530013387F8253097F82530012BECD9924B1B78DBB2002B00F050810023FB768E4B1B78DBB2013BDBB2184600F06AFA78617B6917
:402F40005B683B613B6907331B7803F04003002B08D0864B1B78DBB243F00103DAB2834B1A7007E0814B1B78DBB223F00103DAB27E4B1A707B6908337B617B691B7887F882
:402F80002730012387F82530B3E07B695B68FB61002387F82630A0E097F82520FB699B7803F07F039A4240F0908097F825206B4913465B0013449B000B4408331B889AB231
:402FC000FB699B889A420CD297F82520FB699888624913465B0013449B000B44083302461A80FB691B781A465D4B9B5CDAB2FB695B789A4269D197F82520FB6998785749C4
:4030000013465B0013449B000B4402461A7197F82520FB69D878514913465B0013449B000B4402461A70FB69DB7803F00303FB73FB699B78DBB25BB2002B1ADA97F82520BD
:40304000FB7B012B01D1072000E00D20434913465B0013449B000B4402465A7197F825203E4913465B0013449B000B4401225A7019E097F82520FB7B012B01D1052000E091
:403080000920364913465B0013449B000B4402465A7197F82520314913465B0013449B000B4400225A70FB699B790A2B03D0FB699B79022B09D197F82520FB7EF86911462D
:4030C0001A46FEF7B5FD0346FB76FB690833FB6197F82630013387F8263097F8262097F827309A42FFF458AF97F82530013387F8253097F82530082B7FF647AF7B695B6880
:40310000FB61002387F8253016E0FB699B7803F07F02FB691878114913465B0013449B000B44083302469A70FB690833FB6197F82530013387F8253097F8252097F82730EA
:403140009A42E2D300F0A0F90246094B1A6000237B84012387F8273030E000BF5085FF1FBC85FF1F3085FF1F4B85FF1F4D85FF1F4485FF1F97F82720154913465B0013440B
:403180009B000B447A8CDA8097F82720104913465B0013449B000B4408331B889AB27B8C13447B847B8C03F001039AB27B8C13447B8497F82730013387F8273097F827309D
:4031C000082BD7D9FFF7A6FD2837BD4680BD00BF5085FF1F90B585B000AF874B1B78DBB2002B00F00681844B1B78DBB2013BDBB2184600F00DF978607B6808337B607B6885
:403200001B78FB707B685B68BB607C4B1B78BB700023FB73E8E0BB681B78BA789A4240F0DD80BB78764AD35CDAB2BB685B789A4240F0D480BB689B7803F07F037B70BB68E3
:40324000DB7803F003033B707A786E4913465B0013449B000B440022DA707A78BB689878684913465B0013449B000B4402461A717A78BB68D878634913465B0013449B00F8
:403280000B4402461A707A78BB6898885D4913465B0013449B000B44083302461A80BB689B78DBB25BB2002B18DA7A783B78012B01D1072000E00D20524913465B00134496
:4032C0009B000B4402465A717A784E4913465B0013449B000B4401225A7017E07A783B78012B01D1052000E00920464913465B0013449B000B4402465A717A784149134632
:403300005B0013449B000B4400225A703E4A7B781B01134401229A703B4879787A78394C13465B0013449B00234408331B889BB21B0A9BB2DAB20B0103441A703248797881
:403340007A78304C13465B0013449B00234408331B889BB2DAB20B0103445A702B4879787A78284C13465B0013449B002344DB889BB2DAB20B0103449A71244879787A783E
:40338000204C13465B0013449B002344DB889BB21B0A9BB2DAB20B010344DA711B4879787A78184C13465B0013449B002344DB889BB2DAB20B0103441A71144879787A7838
:4033C000104C13465B0013449B002344DB889BB21B0A9BB2DAB20B0103445A71BB680833BB60FB7B0133FB73FA7BFB789A42FFF412AF1437BD4690BD4B85FF1F4085FF1F23
:40340000BC85FF1F5085FF1FFC5F00407060004080B485B000AF0346FB71104B1B78DBB20F4ADB0013445B68FB60FB681033FB60FB681B78FA799A4202D30023FB6005E020
:40344000FB79DB00FA6813445B68FB60FB6818461437BD465DF8047B704700BF2985FF1F243E000080B400AF054B1B78DBB2054ADB0013445B681846BD465DF8047B70471C
:403480002985FF1F243E000080B584B000AF104B1B78DBB2013BDBB21846FFF7B9FFB860BB68002B0DD0BB685B681B79FB71FB790233DB00BA681344BB60BB685B68FB60F4
:4034C00001E00023FB60FB6818461037BD4680BD4B85FF1F80B582B000AF0023FB71314B1B79DBB203F07F03BB71BB79002B53D0BB79082B50D8BA79B9792B480B465B00BF
:403500000B449B0003449B78DBB243F00103D8B2254913465B0013449B000B4402469A70BA79214913465B0013449B000B440022DA70BA79B9791C480B465B000B449B00E7
:4035400003445B78DBB243F00203D8B2164913465B0013449B000B4402465A70BA79124913465B0013449B000B441B79DBB2DBB25BB2002B06DA0D4ABB791B0113448D2286
:403580009A7005E0094ABB791B01134489229A70FEF72EFE0346FB71FB7918460837BD4680BD00BF006000405085FF1FFC5F004080B582B000AF0023FB71464B1B79DBB202
:4035C00003F07F03BB71BB79002B7DD0BB79082B7AD8BA79B97940480B465B000B449B0003449B78DBB223F00103D8B23A4913465B0013449B000B4402469A70BA7936493E
:4036000013465B0013449B000B440022DA70334ABB791B0113447F221A70BA79B9792E480B465B000B449B0003445B78DBB223F00203D8B2284913465B0013449B000B44BA
:4036400002465A70BA79244913465B0013449B000B441B79DBB2DBB25BB2002B18DABA791D4913465B0013449B000B445B78DBB2012B06D1194ABB791B0113440C229A7098
:403680001EE0164ABB791B0113440D229A7017E0BA79114913465B0013449B000B445B78DBB2012B06D10D4ABB791B01134408229A7005E0094ABB791B01134409229A70AA
:4036C000FEF796FD0346FB71FB7918460837BD4680BD00BF006000405085FF1FFC5F004080B584B000AF0023FB73154B1B79BB73144B1B78DBB2013BDBB21846FFF788FE62
:40370000B860BB685B681B79FB71BA7BFB799A4202D9BB7B022B0ED8BB7BBA7B0A498A5CD1B20A4AD154BB7B054A9278D1B2064AD1540123FB73FB7B18461037BD4680BDCE
:40374000006000404B85FF1FBC85FF1F3085FF1F80B582B000AF0023FB710F4B1B78DBB2DBB25BB2002B12DA0B4B5B78DBB2012B00D00CE0094B0A4A5A60094B1B789AB286
:40378000064B1A80FEF718FC0346FB7100BFFB7918460837BD4680BD006000403485FF1F403E000080B400AF054B1B78DBB203F040039B09DBB21846BD465DF8047B7047B5
:4037C0008F45004080B485B000AF0346FB710B4B1B78DBB223F02003FB730849FB795B01DBB203F02003DAB2FB7B1343DBB20B701437BD465DF8047B704700BF2051004061
:4038000080B582B000AFFDF7EFFC0346FB710B4A0A4B1B78DBB243F02003DBB21370FB791846FDF7E5FC064A054B1B78DBB243F00403DBB213700837BD4680BD9664004044
:403840007665004080B400AF084A084B1B78DBB223F00703DBB21370044B044A1278D2B21A70BD465DF8047B704700BF8665004080B500AF054B1B78002B04D1FFF7E2FF0D
:40388000024B01221A70FFF7BBFF80BD0884FF1F80B582B000AFFDF7A7FC0346FB710B4A0A4B1B78DBB243F01003DBB21370FB791846FDF79DFC064A054B1B78DBB243F0A3
:4038C0000103DBB213700837BD4680BD966500407665004080B500AF074B0F221A7000F07DF800F05BF800F069F8044B00221A70034B00221A7080BD87650040856400406E
:403900008464004080B582B000AFFDF76DFC0346FB71114A104B1B78DBB243F02003DBB213700E4A0D4B1B78DBB243F01003DBB213700B4A0A4B1B78DBB243F01003DBB238
:403940001370FB791846FDF753FC00F01BF800F01FF80837BD4680BD97650040956400409464004080B500AF054B1B78002B04D1FFF7B0FF024B01221A70FFF7C3FF80BD1E
:403980000984FF1F80B400AFBD465DF8047B704780B400AFBD465DF8047B704780B483B000AF054B1B78FB71FB7918460C37BD465DF8047B704700BF6564004080B483B043
:4039C00000AF054B1B78FB71FB7918460C37BD465DF8047B704700BF6464004080B582B000AF01E0114B1B78114B1B78DBB203F02003002BF6D1FDF7F7FB0346FB710D4A03
:403A00000C4B1B78DBB243F00103DBB21370094A084B1B78DBB223F00103DBB21370FB791846FDF7E5FB0837BD4680BD57640040646400409764004080B582B000AF1D4BFA
:403A40001B78DBB203F00303012B02D0022B04D012E0184B1B79BB7111E0164B1B79DBB203F07F02144913465B0013449B000B4408339B78BB7102E00023BB7100BF0F4B1C
:403A80001A68BB7913441B78022B06D0032B09D1FEF7B6FC0346FB7107E0FDF739FF0346FB7102E00023FB7100BFFB7918460837BD4680BD006000405085FF1F4485FF1F3C
:403AC0000E4B70B51E460E4C0025E41AA410A54204D056F8253098470135F8E700F0C4F9084B094C1E46E41AA4100025A54204D056F8253098470135F8E770BD743E0000A0
:403B0000743E0000743E00007C3E000010B5431E0A44914204D011F8014B03F8014FF8E710BD00000000000044535020696E69742E2E2E2E2E2E0D00646F6E650A0D000067
:403B40004453502E2E2E2E2E2E0D0000636F6E6E65637465640A0D004E4F5420636F6E6E65637465640A0D00600200005802000050020000480200004002000040020000BC
:403B80004002000040020000F883FF1FF883FF1FF883FF1FF883FF1FF883FF1FF883FF1FF883FF1FF883FF1FF883FF1FF883FF1FF883FF1FF883FF1FF883FF1F0000004874
:403BC000080000481000004818000048200000482800004838040048580400483000004838000048B800004838010048B801004838020048B802004838030048B803004839
:403C000078040048880400489804004818050048980500481806004898060048180700489807004818080048980800481809004898090048180A0048980A0048180B0048C3
:403C4000980B0048180C0048980C0048180D0048980D0048180E0048980E0048180F0048980F0048181000489810004818110048981100483031323334353637383941429B
:403C800043444546000000001201000202000008B40432F2010001048001000009024300020104C03209040000010202000205240010010424020205240600010524010055
:403CC000010705810308000A09040100020A000003070582024000000705030240000000040309042C0343007900700072006500730073002000530065006D0069006300A6
:403D00006F006E0064007500630074006F0072003803430044004300200043006F006D006D0075006E00690063006100740069006F006E00200049006E0074006500720078
:403D40006600610063006500260343004400430020004400610074006100200049006E0074006500720066006100630065001A035300410052005F005300500049004D00DB
:403D80005F005500530042000000000002030000320005010902A1010901A100050919012903150025019503750181029501750581010501093009311581257F75089502AC
:403DC0008106C0C00000000000008103080002000100820240000A000100030240000A00020A0000010000009C3C000003000000C83D000000000000000000000000000022
:403E00000000000000000000E03D000001000000883C0000000000000000000001000000E43D0000010000000C3E000012034D005300460054003100300030000100000052
:403E400028000000000104000100000000000000000143595553420000003030303031000000000000000000F8B500BFF8BC08BC9E4670478D0200002D090000F8B500BFEC
:403E8000F8BC08BC9E46704769020000A03E00000881FF1FC0020000300200000000000000000000000000020C00DCDC0D00FFD20D00FFD00D00F4500D00F400C0002380D6
:403EC00080000000C000230080000000C00023C080000010C0002200800000000880DCE00C00DCDCC000283080000004C0003000800000000100001606405010C000200099
:403F0000800000290D00FFC1C0002000800000010D00F462C0002000800000000D00F462C0002000800000020D00FFD1000000030D00FFD20000000500000000000000005F
:403F4000020100240000000000000000089EDCE0089C001000000000C0000000824F0014088ADCE00A21001A008C20000AA5001902090040C000287080006000008C1191A7
:403F800000000023000000003000BCE90000C2F10100003F060040143640501526404015092A001A00000000089000220C70001B0E3D001E00F4AE0F0A25DCDC0AE1001C80
:403FC0000000DC700000A4D800D621010000E02907058808008419B30004459000442C3000044928009408870BE1001C054D100EC000080F8D800027C000080F8D8400266A
:40400000C000080F8D9400250610100E0C01FDA0000400080D000025054C101E0600101E0D00FCEE0600101E0D00FCEF0600101E0D00FCED0600101E0D00FCEC0600101EEA
:404040000D00FCEB0600101E0D00FCEA0600101E0D00FCE80600101E0D00FCE9089C00100000000000002E0100000000099C0010000000020C10F46002C20000000000000C
:404080000000000000000000000000000000000000000000000000000000000000000000000000000000000000000000000000000000000000000000000000000000000000
:4040C000000000000000000000000000000000040000000000000000000000000000000000000000000000000000000000000000010000000000000000000000000007FFB5
:40410000FFFFFFFF0011999A000000000000C0000000C0000000080000000000010000000000208A00000000000000000000000000000000408AF701E880000021000000C1
:404140000000744000C2010000000800C201000000080000A12000000000020000000000000000000000000000000000000000000000000000000000000000000000000032
:4041800000000000000000000000000000000000000000000000000000000000000000000000000000000000000000000000000000000000000000000000000000000000FF
:4041C00000000000000000000000000000000000000000000000000000000000000000000000000000000000000000000000000000000000000000000000000000000000BF
:40420000000000000000000000000000000000000000000000000000000000000000000000000000000000000000000000000000000000000000000000000000000000007E
:40424000000000000000000000000000000000000000000000000000000000000000000000000000000000000000000000000000000000000000000000000000000000003E
:020000040003F7
:0200000480007A
:4000000040C0000000000000C0800000000000001000000000000000081000000000000000000000400000000000000000000200AB00000000000000000900000209040053
:400040000001000802080D010D021000000E10700214082001C002001D0800001D0000001DAC00121D0900000FFE0001100000000002020000001004000000000000000038
:400080000000000000000000000000004000000004040004222000010000000000000000000000000000000000000000000000000000000000000000800040008000010070
:4000C00080002002800C04010000000000007F0000087F0780000800FF0000008009020680001000000080000001FF080006FF000000000000000005000000000000000086
:400100000000000000000000000000000900000004040004202000010000000000000000000000000000000000000000000000000000000000000000000000000000000069
:400140000004000000000000000800000008000000000000000400000001000200060001000800000000000000080000000700000000002000000001000000000000000025
:400180000000000000000000000000000000022800040004200000010000000000000000000000000000000000000000000000000000000000000000070068002100D2008A
:4001C000000000009202040D9600000000E00000FA5505AA3200C0009633004C920004000449929604000000070F00F01D00E0000008A002000000002604300005CEFB0DEE
:400200001FFFFFFF2200F008040000004000000004040404221200010000C00040011011C0010011400140010000000000000000000000000000000000000000229D0000CA
:4002400063020C0DF29D000001427494231D588000E20018F28D001000110022F2000000D0802240229DD0001F0060F0800F00000200002C000010000000000000000000E3
:400280000000000000000000000000000000022C040400041110000100000000000000000000000000000000000000000000000000000000000000002A0014003000000074
:4002C0001D012200000000000000000006020900000003000001000000000400000000000000000000000000000238010700000008000000000000004305600002FECBD018
:400300002FFFFFFF2200F00C040000000900040004040404011100010000C00040011011C0010011400140010000000000000000000000000000000040020F0020009802BE
:400340000000210000040008000000013000840400001002300082000000000000002108000221000000210310000F00E00C4003080000000000010032010000000CE00BE2
:4003800019FFFFFF00000000040005000100000004040404000000010000C0004001800030004010100040A800000000000000000000000000000000000000800090000003
:4003C0000023004C009000000002001D0021005A009000000000009000430034000000000000000000900000001F00800040002000800002000000140000000000000000A8
:400400000000000000000000000000000000022C00040004102000010000000000000000000000000000000000000000000000000000000000000000000000000000000055
:4004400000000000000000000000000000003F00000000000000000000000000000000000000000000000000000000000F00000F0000000000000000070000000000000018
:400480000000070000000000070000000000000000000700000000000000000000000000000010000000000000000000000000000000000000000000000000000000000017
:4004C00000000000000000000000000000000000000000000000000000000000000000000000000000000000000000000000000000000400080000000000000000000400EC
:40050000000000000000000000000000000000000000000000000000000000000800000000008000000000000000040000001000000004000000800000000000000000009B
:40054000000010000000000000000000000000000000000000000000000008000000000000000000000000000000000000000300010000000000000000000000040000005B
:400580000000000000000000000000000000000000000000000000000000000000000000012000000800000000000000000000000000000000000000000000000000000012
:4005C00000000000000000000000000000000000000000000000000000000000000000000000000000000000000000000000000000000000000000000000000000000000FB
:400600000000000000000000000000000000000000000000000000000000000008000000000000000000000000000400000000000000040001008000000000000020000009
:4006400000000400000000000000000000000000000000000000000000000E0000000000000000000000000000000000000000000000000000000000000000000000000068
:400680000000000000000000000000000000000000000000000000000000000001000000000004000000000000000000000000000000000000008000000000000020000095
:4006C00000000000002000000000000000000000000000000000000000000000000000000000000000000000000000000000000000000000000000000000000004000000D6
:4007000000000000000000000000000000000000000000000000000000000000000000000000000000000000000000000000000000000000000000000000000000000000B9
:4007400000000000000000000000000000000000000000000000000000000000000000000000000000000000000000000000000000000000000000000000000000008000F9
:400780000000000000000000000000000000000000000000000000000000000000000000000000000000000000000000000000000000000000000000000000000000000039
:4007C00000000000000000000000000000000000000000000000000000000000000000000000000000000000000000000000010000000000000000000000000000000000F8
:400800000000000000000000000000000000000000000000000000008000100A2005000000884000000804002A000000000080002001480800040400001808000000006082
:4008400000201042000000001801400000010442802800002000000000000000140800020000000000048480000000000000920000000000002600800000020002000080BC
:400880006A08A00000000000408000000000000000000000000000001000004000000028000204000004000000000000A008A4800600008800010200100006000000880ADF
:4008C00000000000000000000840800000000000000000000000000077006D001700000000000D005F002E00E00030000000F00091000000000000000000100000000000FA
:400900000000000000002000000000000000000000000000000000000000000000000000000000000000000000000000000000000000000000000000000000000000000097
:40094000000000000000000000000000000000000000000000000000000000000000000000000000000000000000000000000000000000000000000000000000280000004F
:400980000000010000000000000000000000000000000000000000000000000005000400000000000088000800000000000000540000000004B84104120002040000000A26
:4009C000000100020040080400005A000010000AA0080201008001080000000000A80000000000000000000800000000000008100000000000004010400000300000000078
:400A0000009500000040082000400000000000000000000000000030000000000000048401000440000000004100080010D5002106000454084100021040000000000C0820
:400A40000000020000000000000000000000000000000000000000007000E000E000000000007900EF00DF0070000000000030000100000000000000000080000800800054
:400A80000000010000000000000000000000000000000000000000000000000000000000000000000000000000000000000000000000000000000000000000000000000035
:400AC00000000000000000000000000000000000000000000000000000000000000000000000000000000000000000000000000000000000000000000000020000000000F4
:400B00000100000000000000000000000000000000000000000000000002012000000000011001000000000000150080008001000002416000000000400004000011200051
:400B400000120000000200280000042000018880400000000020000000044020000000000010820400000000802800000000000000000000000000001800000100000020D1
:400B8000000000000180025400000000100026080000000002020000000000000000000000000000000010800108000002D55004051000000040221E000000008028256096
:400BC00000100000000481200C0000010000000000000000000000000D000B000F0000000000E500D600280007000C00000000004E000000000000000000020000000000C6
:400C00000100000080000000000000000000000000000000000000000000000000000000000000000000000000000000000000000000000000000000000000000000000033
:400C40000000000000000000000000000000000000000000000000000000000000000000000000000000000000000000000000000000000000000000000002002000000052
:400C800000000800000000000000000000000000000000000000000040000020020022041848008000002A00011500000040001A400000100100200000060000001000A003
:400CC000015000400000002080020820101020000095008000A04000000000000000000000000000000000000000000000000000000000000000118400200022000080000D
:400D00000000000000000000000000000000000000000000000000000000480000000000000200000000000000000000000000000000000000000000000000000000000069
:400D4000000000000000000000000000000000000000000000000000F500EF00FF00000000004D002F003F00000000000000F0001E000000000000000000020000000000C5
:400D8000000008000000000000000000000000000000000000000000000000000000000000000000000000000000000000000000000000000000000000000000000000002B
:400DC000000000000000000000000000000000000000000000000000000000000000000000000000000000000010000000004000000000000000000000000004000000009F
:400E0000000000000000000000000000000000000000000000000000000000000000400400000000000000100020000000000000000000000000000000000000000000102E
:400E40000000000000000000001000000000000000000000000000000000000000000000000000000000000000000000600000004000000000000000000050000000000072
:400E80000000000000000000000000000000000000000000000000000000000000000000C000000000000000000000000000000000000000400000000000000080000010A2
:400EC00000000000000000000000000000000000000000000000000000000000000000000000000000000000000000000000000000000000000000000000000000000000F2
:400F000000000000000000000000000000000000000000000000000000000000000800000000000000000000000000000000000000000000400000000000000080080010D1
:400F4000000000000000000000040000000000000000000000000000000000000000000000000000000000000000000000000000000000000000000000004000000000002D
:400F80000000000000000000000000000000000000000000000000000000000000000020000000000000000000080000000000000000000040000020000000008008001011
:400FC00000000000000000080000000000000000000000000000000000000000000000000000000000000000000000000000000000000000000000000000400000000000A9
:40100000000010000000000000000000000000000000000000000000000000000000000000000000000400000000000000000000000000000000000000000000000000009C
:401040000000000000000000000000000000000000000000000000000000000000000000000000000000000000000000000000000000000000000000000000204000000010
:401080000000000000000000000000000000000000000000000000000000000000000000000000000000000000000000000000000000000000000028000000008008000080
:4010C000000000000000000000000000000000000000000000000000000020000000000000000000000000000000000000000000C000000000000000000000000000000010
:4011000000000000000000000000000000000000000000000000000000000000000000000000000000000000000000000000000000000000000000000000000000000000AF
:4011400000000000000000008008000000000028000000000000000000000000000000000000000000000000000000000000000000000000000000000000000000000000BF
:40118000000000000000000000000000000000000000000000000000000000000000000000000000000000000000000000000000000000000000000000000000000000002F
:4011C000000000000000000000000000000000000000000000000000000000000000000000000000F0000000000000000000000000000000000000000000000000000000FF
:4012000000000000000000000000000000000000000000000000000020C0C000C000000000030300000000004000000000000000C000000010E0E000E00000000038380028
:4012400018000000001C1C001C0000000000000000000000000000000000000000000000000000000000000000000000000000000000000000000000000000000000000002
:40128000000000000000000000000000000000000000000000000000000000000000000000000000000000000000000000000000000000000000000000000000000000002E
:4012C00000000000000000000000000000000000000000000000000000000000000000000000000000000000000000000000000000000000000000000000000000000000EE
:4013000000000000000000000000000000000000000000000000000000000000000000000000000000000000000000000000000000000000000000000000000000000000AD
:40134000000000000000000000000000000000000000000000000000000000000000000000000000000000000000000000000000000000000000000000000000000000006D
:0200000490006A
:0400000000004005B7
:0200000490105A
:04000000BC90ACAF55
:0200000490303A
:02000000AAF75D
:0200000490402A
:4000000000000000000000000000000000000000000000000000000000000000000000000000000000000000000000000000000000000000000000000000000000000000C0
:400040000000000000000000000000000000000000000000000000000000000000000000000000000000000000000000000000000000000000000000000000000000000080
:400080000000000000000000000000000000000000000000000000000000000000000000000000000000000000000000000000000000000000000000000000000000000040
:4000C0000000000000000000000000000000000000000000000000000000000000000000000000000000000000000000000000000000000000000000000000000000000000
:0200000490501A
:0C00000000012E16106900012E2EBB60BE
:00000001FF