:400000000080002011000000B9060000B906000080B500AF024A034B1B68136000F07AFBBC760040FA4600400800022300000876080003230000107608000423000028769A
:4000400008000523000030760500062300002070050007230000307005000823000060700500FE230000707010000A220000105130000B22000040511000FE220000C0514B
:4000800080010D220000000080010E220000000200020F22000000048001102200000008800311220000000A800112220000000E8001132200000014800014220000801652
:4000C0008001152200000018000216220000001A80001722000000418000182200000042800019220000004380001A220000004480001B220000004680001C2200000048DF
:4001000080001D220000004C0001FE220000004D07001F23000010520700202300001852070021230000785208002223000078452000FE2300007064080024230000005113
:400140008000252300000006800026230000800680002723000000161000282300001050100029230000005080002A230000804C80002B230000004780002C2300008047D7
:4001800080002D230000804680002E230000004580002F23000080458000302300008044800031230000801580003223000080198000332300000017800034230000801733
:4001C000800035230000800980003623000000078000372300008007800038230000800D800039230000800380003A230000800F80003B230000800180003C2300000049A3
:4002000080003D230000804980003E230000804880003F23000080438000402300008042800041230000804180004223000000408000FE23000080400100000001000000F5
:40024000010000000048014001000000004800400100000000200140010000000020004010B5054C237833B9044B13B10448AFF300800123237010BD8882FF1F00000000DE
:4002800044610000084B10B51BB108480849AFF300800848036803B910BD074B002BFBD0BDE81040184700BF00000000446100008C82FF1F0881FF1F0000000080B582B074
:4002C00000AF62B600F03AF8154800F03FF800F0B5F8144800F03AF8134800F037F800F033F90346012B03D1104800F02FF802E00F4800F02BF832237B600DE00D480E4913
:400300007A6803F0E9FE0B4800F020F8FA2000F0D7FE7B6801337B607B68632BEEDDEAE74861000058610000606100006C61000078610000E482FF1F8861000080B500AFAE
:400340000020012100F09CFF80BD00BF80B582B000AF786001F05EF90346002B06D001F04DF90346002B01D001F0CEFA01F046F90346002B08D000BF01F0A0FB0346002BC4
:40038000FAD0786801F02CFB0837BD4680BD00BF80B500AF00F0A2FC80BD00BF80B584B000AF78600B467B8002E0052000F0AAFE00F0C2FC034603F01103002BF5D00023E3
:4003C000FB811EE07A88FB89D31AFE2B0FDCFB897A68D1187B88DAB2FB89DBB2D31ADBB20846194600F09AFD7B88FB8109E0FB897A6813441846FF2100F090FDFB89FF3389
:40040000FB81FA897B889A42DCD31037BD4680BD80B582B000AF02E0052000F073FE00F051FD0346002BF7D000F03CFD0346FB71FB7918460837BD4680BD00BF80B582B05C
:4004400000AFFFF7A5FF012003F014F9052000F037FE002003F00EF90020002100F0D6F80020002100F0D2F80020002100F0CEF84FF69000002100F0C9F84FF6900001211F
:4004800000F0C4F84FF47040602100F0BFF84FF20100022100F0BAF84FF20200012100F0B5F84FF20500052100F0B0F84FF20300012100F0ABF80B2000F002FE4FF25000C3
:4004C00044F6FF7100F0A2F84FF25100002100F09DF84FF440401949002200F041F800201749B02200F03CF84FF4C0401549202200F036F84FF20440002100F087F84FF253
:400500000140022100F082F80023BB803B1D4FF250001946022200F09DF84FF20240002100F074F84FF20240012100F06FF8322000F0E8FD0837BD4680BD00BFA482FF1FF9
:400540000C81FF1FA882FF1F80B483B000AF0023FB71FB7918460C37BD465DF8047B70472DE9F04387B000AF03463960FB801346BB806B461E46BB88D91C4B1E3B610B467D
:400580001A464FF000034FEAC30949EA52794FEAC2080B461A464FF00003DD0045EA5275D4000B460733DB08DB00ADEB030D6B460033FB60FB6800221A70FB881B0A9BB2C5
:4005C000DAB2FB685A70FB88DAB2FB689A700023FB820AE0FB8A0333FA8A39680A441178FA68D154FB8A0133FB82FA8ABB889A42F0D3FA68BB8803339BB210461946FFF78F
:40060000CDFEB5461C37BD46BDE8F08380B584B000AF03460A46FB801346BB8000233B72FB881B0A9BB2DBB27B72FB88DBB2BB72BB881B0A9BB2DBB2FB72BB88DBB23B731D
:4006400007F1080318460521FFF7A8FE1037BD4680BD00BF90B585B000AF03463960FB801346BB8001233B72FB881B0A9BB2DBB27B72FB88DBB2BB720023FB7200233B7319
:4006800000F038FC07F1080318460521FFF786FE0023FB8109E0FB893A68D418FFF7B8FE03462370FB890133FB81FA89BB889A42F1D31437BD4690BD80B400AFFEE700BF37
:4006C00080B584B000AF7860104B1A687B6813441A460F4BD31AB3F5805F09DC0B4B1B68FB600A4B1A687B681344084A136007E003F020F802460C2313604FF0FF33FB602E
:40070000FB6818461037BD4680BD00BFBC81FF1F1085FF1F80B586B000AF224B7B61224B3B61204B7B6135E03B691B68FB603B695B68BB603B699B683B6000237B600CE0AC
:40074000FB681A68BB681A60BB680433BB60FB680433FB607B6804337B607A683B689A42EED13B69DB683B6000237B6008E0BB6800221A60BB680433BB607B6804337B60E7
:400780007A683B689A42F2D13B6910333B617B69013B7B617B69002BC6D102F0D1FFFFF78DFDFEE7010000001466000080B582B000AF174B174A1A60174A174B1B6843F47E
:4007C0000073136000237B600FE07B68032B04D8124A7B6852F8233000E0114B11497A6841F822307B6801337B607B682F2BECD90D4B1B78DAB20D4B1A700D4B094A1A60E8
:4008000000F08CF90B4B00221A600837BD4680BD0CED00E00004FA0514ED00E000000000B90600000080FF1FBC7600400481FF1F08ED00E00081FF1F80B584B000AFF860BF
:40084000B9607A60F868B9687A6802F09FFF1037BD4680BD80B483B000AF0346FB71FEE780B483B000AF434B00221A60424B10221A70424B01221A70414B00221A70414BD4
:400880004FF404721A80404B01221A703F4B03221A703F4B3F4A92B21A803F4B47F608021A803E4B00221A803D4B4FF480421A803C4B09221A703C4B0C221A703B4B1E226B
:4008C0001A703B4B23221A70BFF35F8F394B01221A70BFF35F8F00BF2A4B1B889BB2002BFAD100237B600DE07B68DA00324B13441946324A7B6852F823309BB20B807B68FC
:4009000001337B607B68412BEED9BFF35F8F294B01221A70BFF35F8F00BF294B1B78DBB203F00103002BF8D100BF264B1B78DBB203F00103002BF8D100BF234B1B78DBB26B
:4009400003F00103002BF8D100BF204B1B78DBB203F00103002BF8D100BF1D4B1B78DBB203F00103002BF8D10C37BD465DF8047B704700BFC882FF1F0076004010700040B7
:4009800019700040007800400278004003780040047800402800000006780040047600400676004029700040397000406970004079700040147000400C78004098610000A4
:4009C000187000402870004038700040687000407870004080B582B000AF304B05221A802F4B19221A702F4B06221A702E4B52221A702E4B2E4A1278D2B21A702D4B40F2C8
:400A00000B721A802C4B41F251221A800023FB7019237B6014E0FB785B00DAB2274B1B78DBB203F00103DBB21343DBB203F00303FB704FF4F07000F027FB7B68013B7B60E9
:400A40007B68002B02D0FB78032BE4D17B68002B02D10320FFF7FEFE194B4FF480721A80174B07221A70174B00221A70164B48221A70134B00221A70144B00221A70144B2B
:400A800002221A70134A134B1B78DBB243F00103DBB213700837BD4680BD00BF80400040824000400043004000420040A14600400F010049224200402042004025420040B4
:400AC0000440004006400040084000400940004001400040A243004080B483B000AF0B4B1B78FB710A4AFB7903F00703DBB21370084AFB791B09DBB21370074B44221A70B9
:400B00000C37BD465DF8047B704700BFCF0100496E5800406F5800407658004080B500AF72B62B4A2A4B1B78DBB243F00403DBB21370FFF795FE274A264B1B78DBB243F0D3
:400B40000203DBB21370244A234B1B78DBB243F00203DBB21370214A204B1B78DBB243F04003DBB213701E4A1D4B1B78DBB243F01003DBB213701B481B490822FFF75CFE19
:400B80001A481B490A22FFF757FE1A481A490822FFF752FE19481A490822FFF74DFE194A184B1B78DBB243F00803DBB21370164B61221A70FFF70EFF134B81221A70FFF76E
:400BC0008BFF124805490E22FFF736FE80BD00BFE84600400350014013500140A0430040C243004002510040E80E0048F0510040F00E004822510040FC0E004832510040FF
:400C0000040F00482243004000480040B043004080B500AF114B0F221A70114B01221A600020072100F0A8FA00200E4900F07CFA00F090F90C4B00221A700C4B00221A70CF
:400C40000B4B00221A7000F077F800F093F8094B00221A70084B00221A7080BD8664004080E100E0B10F00002484FF1F2584FF1F2684FF1F866500408764004080B582B01F
:400C800000AF00F009FA0346FB71114A104B1B78DBB243F02003DBB213700E4A0D4B1B78DBB243F01003DBB213700B4A0A4B1B78DBB243F01003DBB21370FB79184600F099
:400CC000EFF900F01BF800F025F80837BD4680BD96640040966500409764004080B500AF054B1B78002B04D1FFF792FF024B01221A70FFF7C3FF80BDD082FF1F80B400AF3D
:400D0000034B01221A60BD465DF8047B704700BF00E100E080B400AFBD465DF8047B704780B400AF034B01221A60BD465DF8047B704700BF80E100E080B582B000AFFFF7E1
:400D4000EFFF0A4B1B78DAB2094B1B78DBB203F00903DBB21343FB71054B00221A70FFF7CDFFFB7918460837BD4680BD666500402384FF1F80B483B000AF054B1B78FB710B
:400D8000FB7918460C37BD465DF8047B704700BF6764004080B584B000AF0346FB71394B1B78FB73FB7B002B02D1FE23FB7302E0FB7B013BFB73344B1B78DBB2FA7B9A427F
:400DC000EDD0FFF7ADFF314B1B78DAB2304B1B78DBB203F00903DBB21343BB732C4ABB7B1370284B1B78DAB2274B1B78DBB29A420AD1274B1B78DBB203F00403002B03D0BA
:400E0000244AFB79137037E01F4B1B78DBB20133DAB21D4B1A701C4B1B78DBB2FF2B02D1194B00221A70184B1B78DAB2154B1B78DBB29A4211D1134B1B78DBB20133DAB268
:400E4000104B1A700F4B1B78DBB2FF2B02D10D4B00221A70104B01221A700B4B1B78DBB219460E4AFB7953540D4A0D4B1B78DBB243F00403DBB21370FFF740FF1037BD462A
:400E800080BD00BF2584FF1F2684FF1F666500402384FF1F466400402484FF1F2483FF1F8665004080B483B000AF054B1B78FB71FB7918460C37BD465DF8047B704700BF70
:400EC0005664004080B483B000AF094B1B78DBB203F02003002B01D0012300E00023FB71FB7918460C37BD465DF8047B704700BF6764004080B400AF01E0064B1B78064B63
:400F00001B78DBB203F02003002BF6D1BD465DF8047B7047566400406764004080B584B000AF78600B46FB700023FB730CE0FB7B7A6813441B781846FFF72CFFFB7B013362
:400F4000FB73FB78013BFB70FB78002BEFD11037BD4680BD80B582B000AF01E0114B1B78114B1B78DBB203F02003002BF6D100F093F80346FB710D4A0C4B1B78DBB243F069
:400F80000103DBB21370094A084B1B78DBB223F00103DBB21370FB79184600F081F80837BD4680BD56640040676400409664004080B483B000AF37E02A4B1B78DAB22A4B01
:400FC0001B78DBB203F00903DBB21343FB71264AFB791370244B1B78DBB203F00403002B21D0224B1B78DBB2002B0FD1204B1B78DBB20133DAB21E4B1A701D4B1B78DBB219
:40100000FF2B06D11A4B00221A7002E0174B00221A70184B164A1278D2B21146164A525CD2B21A7000E007E0114B1B78DAB2134B1B78DBB29A42BFD10D4B1B78DAB20F4B6D
:401040001B78DBB29A4207D10D4A0D4B1B78DBB223F00403DBB213700C37BD465DF8047B704700BF666500402384FF1F2484FF1F2584FF1F466400402483FF1F2684FF1F3F
:4010800086650040000000000230800803D000BF01380046FCD17047EFF3108072B6704780F31088704700BF80B483B000AF0346FB7101BE0C37BD465DF8047B704700BFCA
:4010C00080B582B000AF786008E00C4B1B681846FFF7DAFF7B68A3F500437B607B68B3F5004FF2D8064B1B687A6802FB03F31846FFF7CAFF0837BD4680BD00BFCC81FF1F67
:40110000C481FF1F80B582B000AF0346FB80FB88044A127802FB03F31846FFF7B5FF0837BD4680BDC881FF1F80B584B000AF03463960FB710F4B1B68FB60FB791F2B02D9FF
:401140000020FFF7B1FFFB7903F01F0310339B00FA6813441B68BB60FB7903F01F0310339B00FA6813443A681A60BB6818461037BD4680BD08ED00E080B582B000AF034673
:401180000A46FB711346BB71BB79072B02D90020FFF78AFFFB791F2B02D90020FFF784FFFB7903F01F0303F1604303F56443BA795201D2B21A700837BD4680BD80B483B0A3
:4011C00000AF7860264B1B78DBB21A467B681A60244B1B78DBB21B027A6812681A437B681A60214B1B78DBB21B047A6812681A437B681A601D4B1B78DBB21B067A68126892
:401200001A437B681A607B680433194A1278D2B21A60184B1B78DBB21A027B6804337968043109680A431A60134B1B78DBB21A047B6804337968043109680A431A600F4B8A
:401240001B78DBB21A067B6804337968043109680A431A600C37BD465DF8047B704700BF0301004904010049EC4600400201004901010049000100490501004906010049A9
:4012800080B582B000AF03460A46FB711346BB71084B1B78002B04D100F00EF8054B01221A70FA79BB791046194600F0D5F80837BD4680BDD182FF1F80B582B000AFFFF7A0
:4012C000EBFE0346FB71534A524B1B78DBB243F00103DBB21370504A4F4B1B78DBB243F00103DBB213704D4B01221A704C4B02221A704C4A4B4B1B78DBB203F07F03DBB23C
:4013000013700020FFF7FEFE474A474B1B78DBB223F00603DBB21370444A444B1B78DBB223F02003DBB213703F4A3F4B1B78DBB243F00103DBB213700120FFF7E3FE28206C
:40134000FFF7E0FE3A4A3A4B1B78DBB203F07F03DBB21370364A364B1B78DBB223F04003DBB21370304A304B1B78DBB243F00203DBB213700220FFF7C5FE2B4A2A4B1B78AF
:40138000DBB243F00403DBB213702A4B00221A70294B00221A70FB791846FFF781FE17200721FFF7E9FE17202449FFF7BDFE18200721FFF7E1FE18202149FFF7B5FE152088
:4013C0000721FFF7D9FE15201E49FFF7ADFE01200721FFF7D1FE01201B49FFF7A5FE02200721FFF7C9FE02201849FFF79DFE03200721FFF7C1FE03201549FFF795FE0C203E
:401400000721FFF7B9FE0C201249FFF78DFE0837BD4680BDA5430040B54300409D60004009600040106000409443004012600040F85100408460004085600040A5220000F8
:40144000751B00009922000095210000E92100003D2200005926000080B584B000AF03460A46FB711346BB710023FB7306E0FB7B324A0121D154FB7B0133FB73FB7B012B77
:40148000F5D92F4AFB7913702E4B00221A702E4B00221A702D4B00221A702D4B00221A702C4B00221A702C4B00221A702B4B00221A702B4B4FF400021A60294B4FF080721A
:4014C0001A60274B4FF400121A60254B02221A60234B04221A60224B08221A60BB79002B02D0012B09D011E01E4A1E4B1B78DBB223F00103DBB2137011E01A4A194B1B7879
:40150000DBB243F00103DBB2137008E0154A154B1B78DBB243F00103DBB2137000BF124B03221A70114B80221A700120FFF7ACFD0F4B04221A701037BD4680BDDC84FF1FA7
:401540004184FF1F4484FF1F6084FF1F6384FF1F5884FF1F6284FF1F6584FF1F4084FF1F00E100E00960004028600040086000401260004080B483B000AF0023FB7106E09D
:40158000FB79144A0121D154FB790133FB71FB79012BF5D9104B00221A70104B00221A700F4B00221A700F4B00221A700E4B00221A700E4B00221A700D4B00221A700D4B10
:4015C00003221A700C4B80221A700C37BD465DF8047B7047DC84FF1F4484FF1F6084FF1F6384FF1F5884FF1F6284FF1F6584FF1F4084FF1F286000400860004080B400AF43
:40160000034B1B78DBB21846BD465DF8047B70476384FF1F80B483B000AF0023FB71094B1B78DBB2002B05D0064B1B78FB71054B00221A70FB7918460C37BD465DF8047BFA
:40164000704700BF6084FF1F80B483B000AF0346FB71FA79064913465B0013449B000B445B78DBB218460C37BD465DF8047B70476884FF1FB0B485B000AF03463960FB7141
:401680001346BB80FB79002B66D0FB79082B63D8B988FA79324813465B0013449B000344DB889BB2C3F5007399420BD9FA792C4913465B0013449B000B44DB889BB2C3F5E5
:4016C0000073BB80274CF979BB881B0A9BB2D8B2FA79234D13465B0013449B002B44DB78DBB20343DAB20B0123441A701D4AFB79B988C9B21B0113440A465A703B68002B7F
:4017000013D00023FB810CE01748FB79FA8939680A4412781B01034408331A70FB890133FB81FA89BB889A42EED3FA790C4913465B0013449B000B4400225A700948F97941
:40174000FA79074C13465B0013449B0023445B79DAB20B0103449A701437BD46B0BC70476884FF1FFC5F00407060004090B482B000AF0346FB71FB79002B19D0FB79082BAA
:4017800016D8FA790C4913465B0013449B000B4400225A700948F979FA79074C13465B0013449B0023445B79DAB20B0103449A700837BD4690BC70476884FF1FFC5F004055
:4017C00080B582B000AF0023FB71324B1B79DBB2184600F069F80346BB712E4B1B78DBB2DBB25BB2002B16DA2A4B5B78DBB2212B00D00FE0284B07221A80BA791346DB00B7
:401800009B1A264A1344244A536000F02DFB0346FB7100BF38E01F4B5B78DBB2202B02D0222B1AD030E01C4B07221A80BA791346DB009B1A194A1344174A5360BB79BA79BE
:4018400017498A5CD2B242F00102D1B2144AD15400F08AFB0346FB7116E0BB790D4A9278D2B291B20F4A22F81310BB79BA790C498A5CD2B242F00202D1B2094AD15400F00A
:401880000FFC0346FB7100BFFB7918460837BD4680BD00BF006000404C84FF1FD081FF1F2884FF1F3C84FF1F80B485B000AF0346FB710023FB73FF23BB7317E0FB7B104A7F
:4018C000D35C7B737A7B0F4913465B0013449B000B4408339B78DBB2FA799A4203D1FB7BBB730223FB73FB7B0133FB73FB7B012BE4D9BB7B18461437BD465DF8047B704770
:401900003084FF1F6884FF1F80B582B000AF0023BB71224B00221A70214B00221A70204B00225A700023FB7110E0FB791D4AD35C7B717B79002B06D07B79082B03D87B797E
:401940001846FFF713FFFB790133FB71FB79012BEBD9154B1B78DBB2002B18D0114B1B78DBB2002B13D0114B1B78DBB2002B0ED00D4B1B78DBB2082B09D80A4B1B78DBB2E6
:40198000082B04D8094B1B78DBB2082B01D90123BB71BB7918460837BD4680BDD282FF1F2884FF1F3484FF1F2C84FF1F3084FF1F80B485B000AF78600023FB8102E0FB898F
:4019C0000133FB81FB897A6813441B78002BF6D1FB8918461437BD465DF8047B704700BF80B584B000AF78600023BB81304B1B781A46304B9B5CFB727868FFF7D9FF0346E8
:401A0000FB81FA7A2C4913465B0013449B000B4408331B889BB2FA899A420AD9FA7A264913465B0013449B000B4408331B889BB200E0FB893B81BB897A681A44F97A3B8901
:401A4000084611461A46FFF715FEFA893B89D31AFB81FB89002B0CD1FA7A174913465B0013449B000B4408331B889BB23A899A4218D1BA893B891344BB8100BFFA7A0E497C
:401A800013465B0013449B000B445B78DBB2002BF4D0FB89002B05D1FB7A184600210022FFF7E8FDFB89002BABD11037BD4680BDD282FF1F2C84FF1F6884FF1F80B500AF8C
:401AC000054B1B781A46054B9B5CDBB21846FFF7BBFD0346184680BDD282FF1F2C84FF1F80B485B000AF78600B46FB701346BB707B68DB7803F00303FB737B689B78DBB24F
:401B00005BB2002B1ADAFB7B032B0AD0BB7803F001031549FA78CA54BB7843F00103BB701BE0BB789B08DBB203F001030F49FA78CA54BB7843F00403BB700EE0FB7B032BE7
:401B40000BD0BB785B08DBB203F001030849FA78CA54BB7843F00203BB70BB7818461437BD465DF8047B70472C84FF1F3084FF1F3484FF1F80B582B000AF374B1B78BB71C2
:401B8000BB7903F01003002B63D00123FB71BB795BB2002B13DABB7903F00F03012B02D00023FB711DE000F061F82C4B1B78DBB2DBB25BB2002B14DA0023FB7111E0BB799A
:401BC00003F04003002B02D000F094F809E0BB7903F02003002B02D000F0B2F801E00023FB71FB79002B34D01B4B1B78BB71BB795BB2002B2DDB1A4B1B78DAB2194B1B7845
:401C0000DBB21343BB71184ABB791370164B1B78DBB2BA799A421CD1104B1B78FB710E4B1B78DBB223F07F03BB71BB79002B0AD1094B0A4A1278D2B21A70074B1B78DBB27F
:401C400003F00F03FB71054B1B78DBB2FA799A42E2D10837BD4680BD286000406184FF1FD684FF1F6484FF1F2960004080B582B000AF1D4B1B78FB711B4AFB7913701A4BB2
:401C80001B78FB71FB795BB2002B03DA174AFB79137025E0022000F043FA154B1B78DBB203F06003202B08D0402B0BD0002B0ED100F0D8FC0346FB710CE001F0F7FC034615
:401CC000FB7107E001F09CFC0346FB7102E00023FB7100BFFB79002B02D1044B03221A700837BD4680BD00BF286000406184FF1F0060004080B500AF104B1B78DBB2062B7A
:401D000019D801A252F823F0371D0000371D0000251D0000371D00002B1D0000371D0000311D000000F0FAF806E000F0A9F903E000F0D2F900E000BF80BD00BF4484FF1F11
:401D400080B500AF124B1B78DBB2062B1DD801A252F823F08B1D00008B1D0000711D00008B1D0000771D00008B1D00007D1D000000F0DAF80AE000F029F907E0032000F0C8
:401D8000CFF9044B03221A7000E000BF80BD00BF4484FF1F6184FF1F80B483B000AF0023FB71294B1B78DBB29AB2284B1B889BB213449AB2254B1A8015E02549FB79254AFE
:401DC00052681278D2B2CA54224B5B680133214A5360FB790133FB711E4B1B889BB2013B9AB21C4B1A801B4B1B889BB2002B02D0FB79072BE1D9144B1B78DBB2082B02D04E
:401E0000FB79002B0FD0144B1B78DBB283F07F03DB43DAB2104B1A70104B0F221A70104B02221A7005E00D4B02221A700C4B02221A700C4AFB791370034AFB7913700C373E
:401E4000BD465DF8047B70474084FF1F4284FF1F006000404C84FF1FD684FF1F6184FF1F4484FF1F6484FF1F80B582B000AF164B1B889BB2002B02D100F02EF81EE0134B42
:401E800002221A70124B00221A7000F069F9114BDB79DBB29BB21B029AB20E4B9B79DBB29BB21343FB80084B1B889BB2FA889A4202D2054AFB881380FFF76EFF012318464F
:401EC0000837BD4680BD00BF4C84FF1F4484FF1FD684FF1F0060004080B400AF0A4B02221A700A4B80221A70094B0F221A70094B00221A70084B00221A7001231846BD46BE
:401F00005DF8047B704700BF4484FF1FD684FF1F6184FF1F4084FF1F6484FF1F80B500AFFFF73AFF80BD00BF80B500AF0A4B1B78DBB29AB2094B1B889BB213449AB2074B21
:401F40001A80074B00221A70012000F0E9F8054B03221A7080BD00BF4084FF1F4284FF1F4484FF1F6184FF1F80B582B000AF124B04221A70114B80221A7000F0F1F8104B4E
:401F8000DB79DBB29BB21B029AB20D4B9B79DBB29BB21343FB800B4B1B889BB2FA889A4202D2084AFB881380074B0B221A70012318460837BD4680BD4484FF1FD684FF1F2B
:401FC000006000404C84FF1F6184FF1F80B483B000AF0023BB71234B1B78DBB203F00F03DBB2023BFB71FB799AB21F4B1B889BB213449AB21C4B1A8018E01C4B5B681C49DD
:40200000BA798A5CD2B21A70184B5B680133174A5360BB790133BB71FB79013BFB71134B1B889BB2013B9AB2104B1A800F4B1B889BB2002B02D0FB79002BDED10D4AFB7930
:4020400013700D4B1B78DBB283F07F03DB43DAB2094B1A70094B0B221A700C37BD465DF8047B7047296000404284FF1F4C84FF1F006000406484FF1FD684FF1F6184FF1F50
:4020800080B500AF044B00221A70012000F048F8024B03221A7080BD4484FF1F6184FF1F80B400AF084B06221A70084B06221A70074B80221A70074B00221A7001231846E3
:4020C000BD465DF8047B70474484FF1F6184FF1FD684FF1F6484FF1F80B500AF0C4B1B78DBB2002B0AD00B4A094B1B78DBB263F07F03DBB21370064B00221A70064B00226D
:402100001A70012000F00CF8044B03221A7080BD6284FF1F086000404484FF1F6184FF1F80B483B000AF0346FB710B4B9B68002B0CD0094B9B68FA791A70074B9B68074A0B
:40214000128892B25A80044B00229A600C37BD465DF8047B704700BF4C84FF1F4284FF1F80B400AF094B00221A80094B9B68002B07D0074B9B6800221A70054B9B68002218
:402180005A80BD465DF8047B704700BF4284FF1F4C84FF1F80B400AF104A104B1B78DBB223F00103DBB213700D4B9B7C0D4B1B7BDBB203F00303012B08D00A4BDB7BDBB228
:4021C00083F07F03DB43DAB2064BDA73054B01225A73BD465DF8047B704700BF0B600040FC5F00406884FF1F80B400AF104A104B1B78DBB223F00203DBB213700D4B93F802
:4022000022300D4B1B7EDBB203F00303012B08D0094BDB7EDBB283F07F03DB43DAB2064BDA76054B01225A76BD465DF8047B70470B600040FC5F00406884FF1F80B400AF53
:40224000124A124B1B78DBB223F00403DBB213700F4B93F832300F4B93F82430DBB203F00303012B0AD00B4B93F82730DBB283F07F03DB43DAB2074B83F82720054B012264
:4022800083F82520BD465DF8047B70470B600040FC5F00406884FF1F80B400AFBD465DF8047B704780B500AFFFF764F980BD00BF80B582B000AF0023FB716C4B1B79BB71C0
:4022C0006A4B1B78DBB2DBB25BB2002B6DDA674B5B78DBB2013B052B65D801A252F823F03F2300005923000085230000A7230000A7230000F92200005C4BDB78DBB2212B3A
:402300000BD100F0BDF85A4B1B889BB2002B15D0FFF7AAFD0346FB7146E0544BDB78DBB2222B0BD100F0EAF8514B1B889BB2002B04D0FFF799FD0346FB7135E034E000F0A0
:4023400025F94B4B1B889BB2002B04D0FFF78CFD0346FB7128E027E0BB79012B11D8434B9B78DBB2002B0CD1414B01221A80BB79404A13443E4A5360FFF776FD0346FB7141
:4023800012E011E0BB79012B0CD8394B01221A80BB79394A1344364A5360FFF765FD0346FB7101E000E000BF5AE0304B5B78DBB20A2B11D00B2B3FD0092B00D050E000F053
:4023C000E5F82B4B1B889BB2002B04D0FFF7CCFD0346FB7144E043E0BB79012B2BD8234B9B78DBB2002B26D1BB79204AD278D1B2204AD154BB791F4AD35CDAB2BB791F495F
:40240000CB5CDBB29A4204D2BB791C4A0021D1540CE0BB79194AD35CDBB2012B06D9BB79BA7914498A5CD1B2144AD154FFF738FE0346FB7114E013E0BB79012B0FD80B4BF7
:402440009B78DBB2012B0AD8BB79084A9278D1B2094AD154FFF724FE0346FB71FFE700BFFB7918460837BD4680BD00BF006000404C84FF1FE484FF1FDC84FF1FE084FF1F8D
:4024800080B584B000AF194B1B78DBB2013BDBB2184600F015FFF860154B1B79FB72FB7A0233DB00FA681344FB60FB685B68FB60FB7A104AD35CDBB2DB00FA681344FB6008
:4024C000FB685B68FB60FB682033FB60FB685B687B607B681B78DBB29AB2074B1A80064A7B6853601037BD4680BD00BF6384FF1F00600040D484FF1F4C84FF1F80B584B070
:4025000000AF1E4B1B78DBB2013BDBB2184600F0D7FEF8601A4B1B79FB72FB7A0233DB00FA681344FB60FB685B68FB60FB7A154AD35CDBB2DB00FA681344FB60FB685B68FA
:40254000FB60FB681833FB60FB685B687B607B6801331B78DBB29BB21B029AB27B681B78DBB29BB213439AB2074B1A807B680233054A53601037BD4680BD00BF6384FF1FC6
:4025800000600040D484FF1F4C84FF1F80B584B000AF2D4B00221A802C4B1B78DBB2013BDBB2184600F08CFEF860294BDB78FB72274B1B79BB72BB7A0233DB00FA681344D6
:4025C000FB60FB685B68FB60BB7A012B38D8BB7A204AD35CDBB2DB00FA681344FB60FB685B68FB60FB7A002B2AD0FB7A032B27D8FB7A03F10053013BDB00FA681344FB60A0
:40260000134B9B78FB72FB681B78FA7A9A4217D8FB685B687B60FA7A13465B0013449B001A467B6813447B607B685B68064A53607B681A88044B1A807B689B68024A9360BB
:402640001037BD4680BD00BF4C84FF1F6384FF1F00600040D484FF1F80B500AF00F0FAFF80BD00BF80B586B000AF0023FB759D4B1B78FB7100233B619B4B00221A80FB79D9
:402680005BB2002B80F20481964B5B78DBB20A2B00F2FC8001A252F823F000BFE52700008D2800008D2800008D2800008D2800008D280000C92600008D2800005728000090
:4026C0008D2800006D280000864BDB78DBB2012B0ED100F01FFEB860BB685B68824A5360814B12221A80FFF7BFFB0346FB7578E07C4BDB78DBB2022B24D17A4B9B78DBB2C1
:40270000184600F0DDFDB860BB68002B69D0BB685B68754A5360744B5B6803331B78DBB29BB21B029AB2704B5B6802331B78DBB29BB213439AB26C4B1A80FFF795FB03460A
:40274000FB75A4E0674BDB78DBB2032B44D10023FB73664B3B6109E03B691B78BB71BB793A6913443B61FB7B0133FB735D4B9B78DBB2FA7B9A4204D23B691B78DBB2002B26
:40278000EAD1584B9B78DBB2EE2B01D1584B3B61544B9B78DBB2002B0BD0524B9B78DAB2544B1B7C9A4204D1534800F0A1F9524B3B613B691B78DBB2002B12D03B691B7823
:4027C000DBB29AB2484B1A80474A3B695360FFF74BFB0346FB755AE000F068FF0346FB7555E054E0FB7903F00303002B1FD0022B00D02FE03C4B02221A803A4B1B79DBB2C5
:4028000003F07F023D4913465B0013449B000B449B78DAB23A4B1A70394B00225A70324B374A5A60FFF720FB0346FB7512E02E4B02221A80334B1B78DAB2314B1A70304BC2
:4028400000225A70284B2E4A5A60FFF70DFB0346FB7500BF1BE0244B01221A80224B2A4A5A60FFF701FB0346FB7510E01E4B01221A801C4B1B79DBB21A46244B13441A4ABC
:402880005360FFF7F1FA0346FB7500E000BF19E1144B5B78DBB2013B0A2B00F2128101A252F823F0AF290000C32A0000392A0000C32A0000D1280000C32A0000C32A000095
:4028C000C32A000015290000C32A00006B290000044B9B78DAB20E4B1A70FFF7E1FB0346FB75EFE0006000404C84FF1F0C63000058640000B4620000E884FF1F6884FF1F9E
:40290000D482FF1F6584FF1F6384FF1FD484FF1F6284FF1F6E4B9B787B717B79002B06D07B79013BDBB2184600F0CAFCB8607B79002B02D0BB68002B02D17B79002B13D1F2
:40294000644B1B78DBB27A799A4208D0614A7B791370614B01221A70012000F0C1F9FFF79FFB0346FB75ADE0ACE000F011FE0346002B1BD0564B1B793B71554B1B79DAB23A
:40298000564B1A703B79564AD35CDAB23B795549CB5CDBB29A4204D04F4B01221A7000F071FBFFF77DFB0346FB758BE08AE0FB7903F00303012B22D0012B0DD3022B00D0F4
:4029C00039E0434B9B78DBB2002B04D100F048FD0346FB752FE02EE03D4B9B78DBB2012B0CD1414B1B78DBB223F00203DAB23E4B1A70FFF755FB0346FB751CE01BE0344B7C
:402A00001B79DBB2012B15D8314B9B78DBB2DB43DBB22F4A1279D2B211461046334A125CD2B21340DAB2314B5A54FFF739FB0346FB75FFE700BF45E0FB7903F00303012BA2
:402A400022D0012B0DD3022B00D039E0204B9B78DBB2002B04D100F095FC0346FB752FE02EE01B4B9B78DBB2012B0CD11E4B1B78DBB243F00203DAB21B4B1A70FFF710FB93
:402A80000346FB751CE01BE0114B1B79DBB2012B15D80F4B9B78DBB2DB43DBB20C4A1279D2B211461046114A125CD2B21340DAB20E4B5A54FFF7F4FA0346FB75FFE700BFA4
:402AC00000E000BFFB7D18461837BD4680BD00BF006000406384FF1F6084FF1F5884FF1F4884FF1FD484FF1F6584FF1FD884FF1FB0B58AB000AF7860314B07F114041D467C
:402B00000FCD0FC42B682370002387F826307B68002B52D07B6822221A707B68013303221A7007F10C031846FEF748FB022387F827303EE097F827307A68134497F8262077
:402B400007F128010A4412F81C2C1209D2B207F128010A4412F8142C1A7097F8273001337A68134400221A7097F8273002337A68134497F8262007F128010A4412F81C2CC9
:402B800002F00F0207F128010A4412F8142C1A7097F8273003337A68134400221A7097F82630013387F8263097F82730043387F8273097F82730212BBCD92837BD46B0BD57
:402BC000A062000090B482B000AF0123FB7174E03F4AFB791B0113440C221A70FA793D4913465B0013449B000B445B79DBB2002B1AD0FA79374913465B0013449B000B4456
:402C00001B79DBB2DBB25BB2002B06DA324AFB791B0113440C229A700CE02F4AFB791B01134408229A7005E02B4AFB791B01134480229A702648F979FA79264C13465B004D
:402C400013449B002344DB889BB2DAB20B0103449A711F48F979FA791E4C13465B0013449B002344DB889BB21B0A9BB2DAB20B010344DA711648F979FA79164C13465B00F9
:402C800013449B002344DB889BB2DAB20B0103441A710F48F979FA790E4C13465B0013449B002344DB889BB21B0A9BB2DAB20B0103445A71FB790133FB71FB79082B87D917
:402CC000064BFF221A700837BD4690BC704700BF706000406884FF1FFC5F00400A60004080B58AB000AF0346FB7100237B84002387F827304CE097F82720C44913465B00C4
:402D000013449B000B4400221A7097F82720BF4913465B0013449B000B4400229A7097F82720BA4913465B0013449B000B440022DA7097F82720B54913465B0013449B00F3
:402D40000B44083300221A8097F82720AF4913465B0013449B000B44083300229A7097F82720AA4913465B0013449B000B4400225A7097F82720A54913465B0013449B00CF
:402D80000B4400225A7197F82730013387F8273097F82730082BAED9FB79002B16D0002387F825300EE097F82530994A0021D15497F82530974A0021D15497F825300133AD
:402DC00087F8253097F82530012BECD9924B1B78DBB2002B00F050810023FB768E4B1B78DBB2013BDBB2184600F06AFA78617B695B683B613B6907331B7803F04003002B4B
:402E000008D0864B1B78DBB243F00103DAB2834B1A7007E0814B1B78DBB223F00103DAB27E4B1A707B6908337B617B691B7887F82730012387F82530B3E07B695B68FB610F
:402E4000002387F82630A0E097F82520FB699B7803F07F039A4240F0908097F825206B4913465B0013449B000B4408331B889AB2FB699B889A420CD297F82520FB699888BE
:402E8000624913465B0013449B000B44083302461A80FB691B781A465D4B9B5CDAB2FB695B789A4269D197F82520FB699878574913465B0013449B000B4402461A7197F847
:402EC0002520FB69D878514913465B0013449B000B4402461A70FB69DB7803F00303FB73FB699B78DBB25BB2002B1ADA97F82520FB7B012B01D1072000E00D2043491346C9
:402F00005B0013449B000B4402465A7197F825203E4913465B0013449B000B4401225A7019E097F82520FB7B012B01D1052000E00920364913465B0013449B000B4402467A
:402F40005A7197F82520314913465B0013449B000B4400225A70FB699B790A2B03D0FB699B79022B09D197F82520FB7EF86911461A46FEF7B5FD0346FB76FB690833FB6197
:402F800097F82630013387F8263097F8262097F827309A42FFF458AF97F82530013387F8253097F82530082B7FF647AF7B695B68FB61002387F8253016E0FB699B7803F0CA
:402FC0007F02FB691878114913465B0013449B000B44083302469A70FB690833FB6197F82530013387F8253097F8252097F827309A42E2D300F0A0F90246094B1A6000238C
:403000007B84012387F8273030E000BF6884FF1FD484FF1F4884FF1F6384FF1F6584FF1F5C84FF1F97F82720154913465B0013449B000B447A8CDA8097F827201049134643
:403040005B0013449B000B4408331B889AB27B8C13447B847B8C03F001039AB27B8C13447B8497F82730013387F8273097F82730082BD7D9FFF7A6FD2837BD4680BD00BFD6
:403080006884FF1F90B585B000AF874B1B78DBB2002B00F00681844B1B78DBB2013BDBB2184600F00DF978607B6808337B607B681B78FB707B685B68BB607C4B1B78BB7045
:4030C0000023FB73E8E0BB681B78BA789A4240F0DD80BB78764AD35CDAB2BB685B789A4240F0D480BB689B7803F07F037B70BB68DB7803F003033B707A786E4913465B0015
:4031000013449B000B440022DA707A78BB689878684913465B0013449B000B4402461A717A78BB68D878634913465B0013449B000B4402461A707A78BB6898885D49134638
:403140005B0013449B000B44083302461A80BB689B78DBB25BB2002B18DA7A783B78012B01D1072000E00D20524913465B0013449B000B4402465A717A784E4913465B00F2
:4031800013449B000B4401225A7017E07A783B78012B01D1052000E00920464913465B0013449B000B4402465A717A78414913465B0013449B000B4400225A703E4A7B78AA
:4031C0001B01134401229A703B4879787A78394C13465B0013449B00234408331B889BB21B0A9BB2DAB20B0103441A70324879787A78304C13465B0013449B002344083310
:403200001B889BB2DAB20B0103445A702B4879787A78284C13465B0013449B002344DB889BB2DAB20B0103449A71244879787A78204C13465B0013449B002344DB889BB20C
:403240001B0A9BB2DAB20B010344DA711B4879787A78184C13465B0013449B002344DB889BB2DAB20B0103441A71144879787A78104C13465B0013449B002344DB889BB289
:403280001B0A9BB2DAB20B0103445A71BB680833BB60FB7B0133FB73FA7BFB789A42FFF412AF1437BD4690BD6384FF1F5884FF1FD484FF1F6884FF1FFC5F00407060004024
:4032C00080B485B000AF0346FB71104B1B78DBB20F4ADB0013445B68FB60FB681033FB60FB681B78FA799A4202D30023FB6005E0FB79DB00FA6813445B68FB60FB68184678
:403300001437BD465DF8047B704700BF4184FF1F5064000080B400AF054B1B78DBB2054ADB0013445B681846BD465DF8047B70474184FF1F5064000080B584B000AF104BD1
:403340001B78DBB2013BDBB21846FFF7B9FFB860BB68002B0DD0BB685B681B79FB71FB790233DB00BA681344BB60BB685B68FB6001E00023FB60FB6818461037BD4680BD2F
:403380006384FF1F80B582B000AF0023FB71314B1B79DBB203F07F03BB71BB79002B53D0BB79082B50D8BA79B9792B480B465B000B449B0003449B78DBB243F00103D8B2FE
:4033C000254913465B0013449B000B4402469A70BA79214913465B0013449B000B440022DA70BA79B9791C480B465B000B449B0003445B78DBB243F00203D8B2164913469A
:403400005B0013449B000B4402465A70BA79124913465B0013449B000B441B79DBB2DBB25BB2002B06DA0D4ABB791B0113448D229A7005E0094ABB791B01134489229A704A
:40344000FEF72EFE0346FB71FB7918460837BD4680BD00BF006000406884FF1FFC5F004080B582B000AF0023FB71464B1B79DBB203F07F03BB71BB79002B7DD0BB79082B16
:403480007AD8BA79B97940480B465B000B449B0003449B78DBB223F00103D8B23A4913465B0013449B000B4402469A70BA79364913465B0013449B000B440022DA70334A55
:4034C000BB791B0113447F221A70BA79B9792E480B465B000B449B0003445B78DBB223F00203D8B2284913465B0013449B000B4402465A70BA79244913465B0013449B0082
:403500000B441B79DBB2DBB25BB2002B18DABA791D4913465B0013449B000B445B78DBB2012B06D1194ABB791B0113440C229A701EE0164ABB791B0113440D229A7017E0FC
:40354000BA79114913465B0013449B000B445B78DBB2012B06D10D4ABB791B01134408229A7005E0094ABB791B01134409229A70FEF796FD0346FB71FB7918460837BD46CF
:4035800080BD00BF006000406884FF1FFC5F004080B584B000AF0023FB73154B1B79BB73144B1B78DBB2013BDBB21846FFF788FEB860BB685B681B79FB71BA7BFB799A425A
:4035C00002D9BB7B022B0ED8BB7BBA7B0A498A5CD1B20A4AD154BB7B054A9278D1B2064AD1540123FB73FB7B18461037BD4680BD006000406384FF1FD484FF1F4884FF1F8E
:4036000080B582B000AF0023FB710F4B1B78DBB2DBB25BB2002B12DA0B4B5B78DBB2012B00D00CE0094B0A4A5A60094B1B789AB2064B1A80FEF718FC0346FB7100BFFB79AB
:4036400018460837BD4680BD006000404C84FF1F6C64000080B400AF054B1B78DBB203F040039B09DBB21846BD465DF8047B70478F45004080B485B000AF0346FB710A4B33
:403680001B78DBB223F00103FB730749FB7903F00103DAB2FB7B1343DBB20B701437BD465DF8047B704700BF0051004080B582B000AF1D4B1B78DBB203F00303012B02D08C
:4036C000022B04D012E0184B1B79BB7111E0164B1B79DBB203F07F02144913465B0013449B000B4408339B78BB7102E00023BB7100BF0F4B1A68BB7913441B78022B06D014
:40370000032B09D1FEF7D4FD0346FB7107E0FEF757F80346FB7102E00023FB7100BFFB7918460837BD4680BD006000406884FF1F5C84FF1F014B1868704700BF4C82FF1FCF
:403740000E4B70B51E460E4C0025E41AA410A54204D056F8253098470135F8E702F048FF084B094C1E46E41AA4100025A54204D056F8253098470135F8E770BDFC650000E8
:40378000FC650000FC6500000466000010B5431E0A44914204D011F8014B03F8014FF8E710BD03460244934202D003F8011BFAE770472DE9F0471E4688B0149F002BB8BF53
:4037C00006F10043129927F02007B6BF1E4600232D23462F1446109DDDF84CA00B7003D0452F03D1013501E0032300E002238DE8280406AB039307AB04932246334600F043
:4038000023FD472F804602D1119BDB0726D5462F08EB050911D198F80030302B0AD1204631460022002302F033FC18B9C5F10105CAF80050DAF800309944204631460022C2
:40384000002302F025FC08B1CDF81C90079B4B4504D25A1C079230221A70F7E74046079B159AC8EB0303136008B0BDE8F087034673B50029B8BF494203F8022BB4BF2D22BA
:403880002B22092942701ADD0DF1070426460A2291FBF2F502FB1511092D01F1300104F8011D2946F3DC3031651E04F8011CB5421A460AD215F8012B03F8012BF7E71A462A
:4038C0003024214402F8024B5970101A02B070BD2DE9F04F91B08B4615461E461A9F044601F06EFAD0F800A0504600F019FC00230E933B680990073323F0070303F108021C
:403900009BF818803A60D3E90023CBE91223DBE9120100F0B9FB0128DBE9120119D10022002302F0BFFB10B12D238BF84330A04BA04FB8F1470F88BF1F460323CBF81030EF
:40394000DBF8003023F00403CBF800304FF00009A1E000F099FBDBF8003048B9964A974FB8F1470F88BF17460322CBF81020E9E7DBF80420DBE91201571CCDE90A0101D1C1
:40398000062209E0B8F1670F02D0B8F1470F05D1002A40F0C7810122CBF80420DBF8042043F480638DE80C00CBF800300DF1330302930DAB03930EAB059300230693CDF816
:4039C0001080DDE90A232046FFF7F3FE08F0DF03472B07460AD10D9BD81C03DBDBF80420934237DDA8F102085FFA88F8B8F1650F0D9915D8013942460BF150000D91FFF75B
:403A000036FF0E9A81468318012ACBF8103003DCDBF80020D10738D50133CBF8103034E0B8F1660F18D10029DBF8043009DDCBF810101BB9DBF80020D20721D501330B44FE
:403A40001CE01BB9DBF80020D00701D5023315E0012313E04FF067080D9B0E9A934207DBDBF80020CBF81030D10709D5013305E0002BD4BFC3F1020301231344CBF8103026
:403A80000D9B4FF00009CBF858309DF8333013B12D238BF843300096204659460FAA2B4600F05CF9013002D14FF0FF3052E1DBF800305A0505D4204629463A46DBF8103077
:403AC00008E1B8F1650F40F2D080DBE912010022002302F0DDFA50B320462946384A0123B0470130E0D00E9B0D9A9A4209DBDBF80030D80705D4DBF800309F0700F110810D
:403B000007E1204629465246099BB0470130CBD000270E9B013B9F42EDDA204629460BF11A020123B0470130BED00137F1E70D9B002B29DC20462946214A0123B0470130DA
:403B4000B2D00D9B2BB90E9B1BB9DBF80030D907D1D5204629465246099BB0470130A3D04FF000080D9B20465B429845294608DA0BF11A020123B047013095D008F101089A
:403B8000F0E73A460E9BA5E0DBF858200E9B9A42A8BF1A46002A914602DC4FF000081CE0204629463A464B46B0470130F5D17BE79A64000096640000A26400009E64000091
:403BC000A6640000204629460BF11A020123B04701303FF469AF08F10108DBF85830B9F1000FB4BF1A46C9EB03029045EADB07EB03080D9A0E9B9A4210DBDBF80030DA0703
:403C00000CD40E9A1744C8EB07030D9FD21B9342A8BF1346002B1F4608DC0EE0204629465246099BB0470130EBD13DE7204629464246B04701303FF437AF4FF000080AE06C
:403C4000204629460BF11A020123B04701303FF42BAF08F101080D9A0E9B002FA3EB0203A8BFDB1B9845EBDB45E70E9A012A01DCDB0736D5204629463A460123B047013080
:403C80003FF412AF204629465246099BB04701303FF40AAFDBE912010022002302F0F8F9E8B90E9B204629467A1C013B1DE0204629460BF11A020123B04701303FF4F4AEF0
:403CC00001370E9B013B9F42F1DB204629464B460BF15002B04701307FF40DAFE4E60027EFE7204629463A460123B0470130ECD1DAE6204629460BF119020123B0470130D2
:403D00003FF4D2AE0137DBF80C300F9A9B1A9F42EFDBDBF80C000F9B9842B8BF184619E00027F0E743F480638DE80C00CBF800300DF1330302930DAB03930EAB0593002338
:403D40000693CDF810802046DDE90A23FFF731FD074640E611B0BDE8F08F00BF2DE9F84391461F468A680B6906469342B8BF1346C9F8003091F843200C46DDF8208012B176
:403D80000133C9F800302368990642BFD9F800300233C9F80030256815F006051CD094F843302268003318BF012392061FD5E118302081F843005A1C94F8451022440233C9
:403DC00082F8431013E03046394604F119020123C047013007D00135E368D9F800209B1A9D42F0DBDBE74FF0FF30BDE8F8833046394604F14302C0470130F4D02268D9F824
:403E00000050E36802F00602042A08BF5D1B2269A3680CBF25EAE57500259342C4BF9B1AED184FF00009A9450ADA3046394604F11A020123C0470130D5D009F10109F2E781
:403E40000020BDE8F88300002DE9FF410C461746227E98466E2A06460A9B01F1430100F0B08012D8632A23D00AD8002A00F0BD80582A40F0CC8084F84520DFF804E257E02A
:403E8000642A1ED0692A1CD0C1E0732A00F0B18009D86F2A2ED0702A40F0B980226842F0200222603FE0752A24D0782A3BD0AEE01A6804F14205111D1960136884F8423012
:403EC000A9E020681A6810F0800F02D0101D186008E010F0400F02F10400186002D0B2F9003000E01368002B3EDA2D225B4284F8432039E020681A6810F0800F02D0101DBC
:403F0000186007E010F0400F02F10400186001D0138800E01368227EDFF864E16F2A0CBF08220A221CE07822DFF858E184F845202268186812F0800F00F104051D6003D1BA
:403F4000550601D5038800E00368D00744BF42F0200222601BB9226822F0200222601022002084F8430002E0DFF814E10A226568002DA8BF2068A560A4BF20F004002060A6
:403F800003B965B10D46B3FBF2F002FB10331EF8033005F8013D03460028F4D100E00D46082A0BD12368DA0708D5236962689A42DEBF302305F8013C05F1FF35491B21615C
:403FC0002EE025681A6815F0800F606903D0151D1D60136808E015F0400F02F104051D60136801D0188000E01860002323610D4616E01A68111D196015680021284662686A
:4040000000F0EAFE08B1401B6060636804E004F1420584F8422001232361002384F84330CDF800803046214603AA3B46FFF796FE013002D14FF0FF301FE0304639462A46A1
:404040002369C0470130F5D023689B0705D4E068039B9842B8BF18460FE00025E368039A9B1A9D42F3DA3046394604F119020123C0470130DED00135F0E704B0BDE8F081D9
:40408000A8640000B964000031F0004310B51BD00F4AA1F58014944210D901F1FF410C4A01F5E001914209D9B3F5801F08D3094A934207D1B0FA80F0400910BD042010BD2A
:4040C000032010BD002010BD0028E6D1022010BDFFFFDF7F0000F07F0EB400B54FF402719CB0ADF814106FF00041049107914FF6FF711DABADF81610084953F8042B029096
:404100000690086802A9019301F054FA029B00221A701CB05DF804EB03B070474C82FF1F034613F8012B002AFBD1181A013870472DE9F74F03690C698046A3427EDB013C36
:4041400001F114074FEA840E00F1140606EB0E0357F82450019356F824300135B3FBF5F507EB0E09BDB34FF0000A3846B446D34650F8043B9AB21B0C02FB05A26B4303EB06
:40418000124392B2C2EB0B0BBCF800204FEA134A5A441FFA83FBDCF800304845CBEB134303EB224392B242EA03424FEA234B4CF8042BDDD956F80E306BB9019B043BB3420F
:4041C0001A4602D8C8F8104005E01268043B002AF8D1013CF3E7404601F01DF800282BDB304601354FF0000E57F8042B036891B2C1EB0E0E120C99B27144C2EB134303EB17
:40420000214389B24FEA234E4F4541EA034340F8043BE9D956F8242006EB840362B9043BB3421A4602D8C8F8104005E01268043B002AF8D1013CF3E7284600E0002003B08B
:40424000BDE8F08F000000002DE9F04F456A95B08246219CCDE9022345B9102000F0B4FDCAF82400456085600560C560DAF82430196859B15A68012393404A608B60504613
:4042800000F0EDFDDAF8243000221A60039BA24A002BBDBF01232360039B0023BCBF23F000430393039FA8BF236027F000431B0D1B0593421DD142F20F73209A1360029BF1
:4042C00043B9964A964BC7F31300002814BF1846104600E09248229B002B00F06985C37813B100F1080300E0C31C229A136000F05FBDDDE90245002220462946002301F0F8
:40430000C7FE804658B1209A01231360229B002B00F03C8583481860013800F049BD13AB009312AB0193504622462B4600F0EEFFC7F30A5607905EB1C5F3130343F07F510E
:40434000204641F44011A6F2FF36CDF844801DE0139B129E1E446FF482639E42A1BF029A06F2124322FA03F06F4BB7BF6F4B9B1B029A9B1BAABF9F4002FA03F0384301F029
:40438000A9FB0123A1F1F871013E11930022684B01F062FA5AA3D3E9002301F011FC5AA3D3E9002301F05AFA044630460D4601F0A1FB57A3D3E9002301F002FC02460B4639
:4043C0002046294601F04AFA04460D4601F092FE2946834600222046002301F063FE58B1584601F087FB02460B462046294601F04FFE08B90BF1FF3BBBF1160F0DD84D4B55
:4044000003EBCB03D3E90001DDE9022301F068FE30B10BF1FF3B002300E00123109300E01090129B9E1B731E0A9345BF5B420993002300234CBF0A930993BBF1000F07DB68
:404440000A9BCDF834B05B440A9300230B9308E0099BCBEB03030993CBF100030B9300230D931E9B092B29D8052BC4BF043B1E931E9BC8BF0025A3F10203D8BF0125032B73
:4044800021D8DFE803F0020E0410002300E001230C931F9B002B20DC0123069305931A4619E0002300E001230C931F9B5B4406930133012B0593B8BF012311E0012500234B
:4044C0001E930C9501E001230C934FF0FF3306930593002212231F9202E01F9B06930593DAF8244000226260042101F114029A4222D86268490001326260F6E7AFF300802B
:4045000061436F63A787D23FB3C8608B288AC63FFB799F501344D33F0000F07FCA640000D3640000A76400000EFCFFFFEEFBFFFF0000F83FE06400005046616800F05AFCEF
:40454000DAF8243020601B680893059B0E2B00F24781002D00F04481DDE90223BBF1000FCDE90E2331DDB14A0BF00F034FEA2B1602EBC303F006D3E900450CD5DDE90E0185
:40458000AB4B06F00F06D3E9082301F043FC0327CDE9020100E00227DFF8948276B1F10708D5D8E900232046294601F009FB04460D460137761008F10808EFE7DDE902015D
:4045C00022462B4601F026FC1BE0CBF10004DCB1DDE90E01954B04F00F0203EBC203D3E9002301F0EDFA924D241102274CB1E20704D5D5E90023013701F0E2FA64100835D0
:40460000F4E7CDE9020100E00227109BDBB1DDE90245002220462946864B01F043FD90B1059B83B1069B002B40F3D680294620460022814B01F0C4FA0BF1FF36CDE90201DA
:404640000137069D01E05E46059D3846DDE9028901F050FA42464B4601F0B2FA774B002201F0FCF8CDE90201039BA3F150740394CDB9404649460022714B01F0EDF8029A7E
:4046800023468046894601F02BFD002840F0408240464946029A04F1004301F003FD002840F0308298E0614B0C996A1E03EBC203002947D0D3E900230020624901F0AAFB61
:4046C000DDE9022301F0C8F8CDE90201089C4946404601F00FFD074601F00CFA02460B464046494601F0B8F8DDE90223303704F8017B8046894601F0D5FC002840F03783E9
:4047000042464B4600204B4901F0A6F8DDE9022301F0C8FC002840F0D080089BE31AAB425ADADDE902010022434B01F049FA0022CDE90201404B4046494601F041FA8046FA
:404740008946C4E7D3E90001DDE9022301F038FA089BCDE902015C191D464946404601F0C9FC074601F0C6F902460B464046494601F072F8303705F8017BA5428046894693
:4047800023D100222F4BDDE9020101F067F802460B464046494601F0A3FC002840F08D80DDE902230020274901F056F802460B464046494601F076FC70B114F8013C621EF8
:4047C000302B40F0D4821446F7E700221A4B01F0F7F980468946C0E7DDE90E23CDE90223139B002BC0F28A80BBF10E0F00F386800E4B03EBCB03D3E900671F9B002B23DAB9
:40480000059B002B20DC40F07C81304600220C4B394601F0D5F9DDE9022301F057FC059D2E46002840F06F8174E100BFE0640000A86500000000F03F0000244000001C4076
:40484000000014400000E03F089CDDE9028932463B464046494601F0DDFA01F04BFC054601F048F932463B4601F0AAF90B4602464946404600F0F0FF05F1300E089B04F858
:4048800001EBC3EB040E059B9E452AD102460B4600F0E4FF32463B468046894601F020FC70B94046494632463B4601F0F1FB002800F05E82EB0703D45AE2B34600E01C467B
:4048C00014F8012C631E392A07D1089A9342F6D13023137013460BF1010B1A7801321A7046E20022A34B01F06BF9002200238046894601F0CDFB0028A9D039E20C9A002A53
:4049000032D01E9A012A0ADC119A12B103F2334302E0129BC3F136030B9D099C18E0059B5D1E0B9BAB42B7BF0B9B5D1BEA1A0D9BBEBF0B959B180D93059BB8BF0025002B4D
:40494000B9BF099B059A099C059BBCBF9C1A0023099A50461A4409920A9A01211A440A9200F01FFB064602E00B9D099C0C9E64B10A9B002B09DDA342A8BF2346099AE41AA1
:40498000D21A09920A9AD31A0A930B9B002B20DD0C9BC3B1002D10DD31462A46504600F099FB0646079A3146504600F003FB07460799504600F053FA07970B9B5A1B08D005
:4049C0005046079902E0504607990B9A00F082FB07905046012100F0E4FA0D9B0546002B0ADD29461A46504600F074FB1E9B0546012B04DD00271BE01E9B012B13DC029BCD
:404A00008BB9039BC3F313037BB9039B23F000473F0D3F0557B1099B0127013309930A9B01330A9302E0002700E0029F0D9B43B12B6905EB8303186900F066FAC0F1200020
:404A400000E001200A9B184410F01F0008D0C0F12003042B02DDC0F11C0002E008D018461C30099B0444034409930A9B03440A93099B002B05DD504607991A4600F078FB28
:404A800007900A9B002B05DD294650461A4600F06FFB0546109BEBB10798294600F0BBFB002817DA0023504607990A2200F0EEF90C9B0BF1FF3B0790002B00F06B81314641
:404AC000002350460A2200F0E1F9069B0646002B33DC68E1059B002B26DC1E9B022B23DD059B0693069B73B929460522504600F0CDF905460798294600F08DFB002809DC1E
:404B000001E000252E461F9B089C6FEA030B08E0B3462E46089B089A5C1C312313700BF1010BB14600260FE10C9B23B9059B0693089F079CC9E0059B0693002C05DD3146CB
:404B40005046224600F014FB0646AFB17168504600F050F90446326906F10C01023292000C30FEF713FE50462146012200F000FB814602E000002440B146089F079C29462B
:404B80002046FFF7D5FA3146099000F13008204600F041FB4A4605902946504600F057FBC26803463AB919462046079300F033FB079B024600E0012250461946079200F045
:404BC0004EF9079A92B91E9B83B9029B03F0010363B9B8F1390F3B4607943ED0059B7C1C002BC4BF099B03F131083DE0059B002B04DA002AC446079408DC21E024D11E9BE3
:404C000013BB029B03F00103F3B9F2E72146012250460597CDF8088000F0AAFA2946079000F0F9FA0028DDF808C0059B03DC07D118F0010F04D0B8F1390F0ED008F1010C2A
:404C40007C1C87F800C07FE0002A07F101020EDDB8F1390F3B46079403D1392201371A7057E0144608F1010887F800806CE0089B1746D31A02F8018C069A93423AD02146B8
:404C80000A220023504600F001F94E450446314650464FF00A024FF0000304D100F0F6F8064681466BE700F0F1F8494606460A225046002300F0EAF8814660E72146504620
:404CC0000A22002300F0E2F8044620462946FFF72FFA089B00F1300807F8018B069AFB1A9342EBDB089BB146012AACBF9B1801331F46002621460122504600F039FA294662
:404D0000079000F088FA002803DC15D118F0010F12D03C4614F8013C621E392B09D1089B9A4204D10BF1010B3123089A02E01446F0E70133137007E03C4614F8013C621EAC
:404D4000302B01D11446F8E75046294600F087F8B9F1000F0CD02EB14E4503D05046314600F07DF85046494600F079F800E0B3465046079900F073F80023209A23700BF1B1
:404D800001031360229B1BB11C6001E00A480FE008980DE0069B002B3FF7CAAE1E9B022B3FF7A0AEC4E61E9B022B3FF79BAEC4E615B0BDE8F08F00BFA6640000AFF3008057
:404DC000004870475082FF1F024B0146186800F041BB00BF4C82FF1F10B5C9B202449042034605D01C7801308C42F8D1184610BD002010BD70B5456A04460E463DB9102097
:404E0000FFF7E2FF6062456085600560C560656AEB6843B1636ADB6853F8260078B1026843F8262017E020460421212200F0C0FA636AE860DB68002BECD1002070BD0121FC
:404E400001FA06F56A1D2046920000F0B1FA0028F3D04660856000230361C36070BD70B5446A06460D463CB91020FFF7ADFF7062446084600460C4603DB1736A6A68DB68DA
:404E800053F82210296043F8225070BD2DE9F04106460C460F69984601F1140E0023DEF80000013385B2010C02FB0585514301EB1541ADB24FEA1148BB4205EB01414EF88F
:404EC000041BECDBB8F1000F1BD0A3689F4212DB616830460131FFF78DFF0546226904F10C01023292000C30FEF750FC21463046FFF7B5FF2C4604EB87030137C3F8148049
:404F000027612046BDE8F081030C1B0413B90004102300E0002310F07F4F04BF0002083310F0704F04BF0001043310F0404F04BF80000233002803DB420003D5581C70475F
:404F40001846704720207047036813F007020BD0D90722D49A074BBF5B089B08036003604CBF01200220704799B209B91B0C102213F0FF0F04BF1B0A0832190704BF1B09E1
:404F80000432990704BF9B080232D90702D45B0805D00132036010467047002070472020704710B50C460121FFF724FF01224461026110BD2DE9F74F14460A692369884655
:404FC0009A42BEBF0B46A0461C46D8F81070D4F81090D8F80830D8F8041007EB09069E42C8BF0131FFF706FF00F114052B4605EB860C634503D2002243F8042BF9E704F1A7
:40500000140208F1140102EB890301EB87070093009B01929A4257D2B2F800B0BBF1000F23D08946AE464FF0000859F8044BBEF800A0A3B20BFB03A34FEA144ADEF80040DD
:4050400043444FEA14480BFB0A84F24604EB13449BB243EA04434F454FEA14484AF8043B01D9D646E1E7CEF80480019B0432B3F802A0BAF1000F21D02C4689462B684FF0B2
:405080000008B9F800E0B4F802B09BB20AFB0EBEA346F04443EA08434BF8043B59F8043BB4F804E01B0C0AFB03E3B94503EB18434FEA134801D25C46E3E763600435A7E7EE
:4050C0005CF8043D13B9013E002EF9DC066103B0BDE8F08F12F003032DE9F04106460F46154607D0214A013B52F823200023FFF7CDFE0746AD1035D0746A3CB91020FFF78D
:4051000063FE7062446084600460C460D6F82480D8F808407CB9304640F27121FFF741FF0023C8F808000446036004E06D1019D0206870B10446EB07F8D53946224630460C
:40514000FFF738FF804639463046FFF788FE4746ECE7304621462246FFF72CFF002320600360E7E73846BDE8F08100BFD06500002DE9F0470C460746164623694FEA621A20
:405180000AEB03094968A36809F101059D4202DD01315B00FAE73846FFF72CFE804600F114010023534504DA002241F823200133F8E72AEAEA73206901EB830316F01F02BF
:4051C00004F1140101EB800E14D0C2F1200C00200E689A469640304343F8040B51F8040B714520FA0CF0F3D3CAF8040048B109F1020506E0043B51F8042B714543F8042FF4
:40520000F9D3013D3846C8F810502146FFF727FE4046BDE8F08703690A6910B59B1A11D192001430143183180A4453F8044D52F8041D8C4202D007D3012010BD8342F4D863
:40524000002010BD184610BD4FF0FF3010BD2DE9F84307460C46084611461546FFF7DBFF061E08D138463146FFF7C4FD012303614661BDE8F883BCBF23462C463846616886
:40528000BABF1D4601260026FFF7B4FD2B69C660266905F1140904F1140101EB860709EB830800F114054FF0000C51F8042B59F8044B93B29C44A3B2240CC3EB0C03C4EB3D
:4052C000124202EB23429BB24FEA224CC84543EA02428E4645F8042BE7D8BE450ED25EF8043B9AB262441B0C03EB224392B242EA03424FEA234C45F8042BEEE755F8043D87
:405300000BB9013EFAE70661BDE8F8832DE9F3411C4601211546089F099EFFF76BFDC4F31302C4F30A5480460CB142F480120192EDB102A840F8085DFFF706FE009B50B1F3
:40534000019AC0F1200102FA01F10B43C240C8F81430019201E0C8F81430019B002B14BF02250125C8F81830C8F8105009E001A8FFF7EAFD019B0125C8F81430C8F81050A2
:40538000203034B1A4F2334404443C60C0F1350009E0A0F2324008EB850338601869FFF7B3FDC0EB45103060404602B0BDE8F08138B502FB01F4214600F04CF8054618B14E
:4053C00000212246FEF7EDF9284638BD30B500293CD051F8042C0B1F1D49002AB8BF9B180A680C4612B95A600B6030BD93420DD219685818904201BF5A5852181A60426857
:4054000023605A6030BD994203D80A4651680029F9D1146815199D420AD11B682344D0188842136012D10868034413604B680CE002D90C23036030BD1C681819884201BFD8
:4054400008684968001918605960536030BD00BFDC82FF1F70B5CC1C24F0030408340C2C38BF0C24002C064603DA0C233360002070BD8C42F9D3204A136810461946A1B139
:405480000A68121B0ED40B2A03D90A608B188C501FE08B420BBF5A684A6802605A6018BF0B4616E00B464968E9E7144D2B681BB9304600F071F928603046214600F06CF909
:4054C000421C0346D1D0C51C25F0030585420AD11C6003F10B001A1D20F00700821A0AD05142995070BD3046E91A00F055F90130BBD02B46ECE770BDDC82FF1FD882FF1F04
:405500002DE9F0478E688246B3420C469046994640D38A8912F4906F3AD02568096902236F1A656905EB450595FBF3F57B1C4B449D4238BF1D4653050FD52946FFF78AFF79
:40554000064698B121693A46FEF720F9A38923F4906343F08003A38113E02A4600F047F9064670B950462169FFF730FF0C23CAF80030A3894FF0FF3043F04003A381BDE827
:40558000F08726613E4426604E466561ED1BA560B14500D24E4632462068414600F00CF9A36800209B1BA36023681E442660BDE8F08700002DE9F0439DB003938B890646A7
:4055C0001C060D4690460CD50B6953B94021FFF741FF2860286110B90C233360CCE040236B610023099320238DF8293030238DF82A3043461C4613F8012B1AB9B4EB08093A
:405600000FD002E0252AF5D1F8E73046294642464B46FFF775FF013000F0A980099B4B4409932378002B00F0A28000234FF0FF3204930793059206938DF853301A9304F1BE
:4056400001084446DFF84891217848460522FFF7C3FB08F10108049B30B1C9EB00000122824013430493ECE7D80644BF20228DF85320190744BF2B228DF8532022782A2A99
:4056800002D0079923460EE0039A0134111D12680391002ABBBF524243F0020307920792B8BF04930AE01C4622780133303A092A03D80A2000FB0121F5E7079123782E2B22
:4056C0001AD163782A2B0AD1039B02341A1D1B680392002BB8BF4FF0FF3305930CE0611C00220C4623780131303B092B03D80A2000FB0232F5E70592DFF8988021784046E8
:405700000322FFF769FB38B1049AC8EB00004023834013430493013421781A48062204F101088DF82810FFF757FB88B1164B33B9039B073323F007030833039313E003AB55
:405740000093304604A92A46104BFEF7C1F807E003AB0093304604A92A460C4BFEF774FB421C074603D0099B3B44099341E7AB895B0601D4099801E04FF0FF301DB0BDE853
:40578000F08300BFE6650000D138000001550000DC650000E265000038B5064C0023054608462360FAF78CFF431C02D1236803B12B6038BD0C85FF1F814210B501EB020372
:4057C00001D3421E0BE09842FBD28118D21AD34204D013F8014D01F8014DF8E710BD994204D011F8014B02F8014FF8E710BDF8B5074615460E4621B91146BDE8F840FFF782
:4058000029BE1AB9FFF7E2FD2846F8BD00F015F8A8420ED238462946FFF71CFE044650B131462A46FDF7B2FF38463146FFF7CEFD01E03046F8BD2046F8BD51F8040C0028BD
:40584000BEBF091851F8043CC01804387047000081F0004102E000BF83F0004330B54FEA41044FEA430594EA050F08BF90EA020F1FBF54EA000C55EA020C7FEA645C7FEA5E
:40588000655C00F0E2804FEA5454D4EB5555B8BF6D420CDD2C4480EA020281EA030382EA000083EA010180EA020281EA0303362D88BF30BD11F0004F4FEA01314FF4801C42
:4058C0004CEA113102D0404261EB410113F0004F4FEA03334CEA133302D0524263EB430394EA050F00F0A780A4F10104D5F1200E0DDB02FA0EFC22FA05F2801841F1000114
:4059000003FA0EF2801843FA05F359410EE0A5F120050EF1200E012A03FA0EFC28BF4CF0020C43FA05F3C01851EBE37101F0004507D54FF0000EDCF1000C7EEB00006EEB33
:405940000101B1F5801F1BD3B1F5001F0CD349085FEA30004FEA3C0C04F101044FEA445212F5800F80F09A80BCF1004F08BF5FEA500C50F1000041EB045141EA050130BDD2
:405980005FEA4C0C404141EB010111F4801FA4F10104E9D191F0000F04BF01460020B1FA81F308BF2033A3F10B03B3F120020CDA0C3208DD02F1140CC2F10C0201FA0CF070
:4059C00021FA02F10CE002F11402D8BFC2F1200C01FA02F120FA0CFCDCBF41EA0C019040E41AA2BF01EB0451294330BD6FEA04041F3C1CDA0C340EDC04F11404C4F12002C2
:405A000020FA04F001FA02F340EA030021FA04F345EA030130BDC4F10C04C4F1200220FA02F001FA04F340EA0300294630BD21FA04F0294630BD94F0000F83F4801306BF19
:405A400081F480110134013D4EE77FEA645C18BF7FEA655C29D094EA050F08BF90EA020F05D054EA000C04BF1946104630BD91EA030F1EBF0021002030BD5FEA545C05D186
:405A80004000494128BF41F0004130BD14F580043CBF01F5801130BD01F0004545F0FE4141F470014FF0000030BD7FEA645C1ABF194610467FEA655C1CBF0B46024650EACF
:405AC000013406BF52EA033591EA030F41F4002130BD00BF90F0000F04BF0021704730B54FF4806404F132044FF000054FF0000150E700BF90F0000F04BF0021704730B5BF
:405B00004FF4806404F1320410F0004548BF40424FF000013EE700BF42004FEAE2014FEA31014FEA02701FBF12F07F4393F07F4F81F06051704792F0000F14BF93F07F4F2C
:405B4000704730B54FF4607401F0004521F0004120E700BF50EA010208BF704730B54FF000050AE050EA010208BF704730B511F0004502D5404261EB41014FF4806404F16D
:405B800032045FEA915C3FF4DCAE4FF003025FEADC0C18BF03325FEADC0C18BF033202EBDC02C2F1200300FA03FC20FA02F001FA03FE40EA0E0021FA02F11444C1E600BF58
:405BC00070B54FF0FF0C4CF4E06C1CEA11541DBF1CEA135594EA0C0F95EA0C0F00F0DEF82C4481EA030621EA4C5123EA4C5350EA013518BF52EA033541F4801143F4801379
:405C000038D0A0FB02CE4FF00005E1FB02E506F00042E0FB03E54FF00006E1FB03569CF0000F18BF4EF0010EA4F1FF04B6F5007F64F5407404D25FEA4E0E6D4146EB060681
:405C400042EAC62141EA55514FEAC52040EA5E504FEACE2EB4F1FD0C88BFBCF5E06F1ED8BEF1004F08BF5FEA500E50F1000041EB045170BD06F0004646EA010140EA020035
:405C800081EA0301B4EB5C04C2BFD4EB0C0541EA045170BD41F480114FF0000E013C00F3AB8014F1360FDEBF002001F0004170BDC4F10004203C35DA0C341BDC04F114043C
:405CC000C4F1200500FA05F320FA04F001FA05F240EA020001F0004221F0004110EBD37021FA04F642EB06015EEA430E08BF20EAD37070BDC4F10C04C4F1200500FA04F336
:405D000020FA05F001FA04F240EA020001F0004110EBD37041F100015EEA430E08BF20EAD37070BDC4F1200500FA05F24EEA020E20FA04F301FA05F243EA020321FA04F063
:405D400001F0004121FA04F220EA020000EBD3705EEA430E08BF20EAD37070BD94F0000F0FD101F00046400041EB010111F4801F08BF013CF7D041EA060195F0000F18BFA8
:405D8000704703F00046520043EB030313F4801F08BF013DF7D043EA0603704794EA0C0F0CEA135518BF95EA0C0F0CD050EA410618BF52EA4306D1D181EA030101F00041AA
:405DC0004FF0000070BD50EA410606BF1046194652EA430619D094EA0C0F02D150EA013613D195EA0C0F05D152EA03361CBF104619460AD181EA030101F0004141F0FE41AC
:405E000041F470014FF0000070BD41F0FE4141F4780170BD70B54FF0FF0C4CF4E06C1CEA11541DBF1CEA135594EA0C0F95EA0C0F00F0A7F8A4EB050481EA030E52EA03350B
:405E40004FEA013100F088804FEA03334FF0805545EA131343EA12634FEA022245EA111545EA10654FEA00260EF000419D4208BF964244F1FD0404F5407402D25B084FEA80
:405E80003202B61A65EB03055B084FEA32024FF480104FF4002CB6EB020E75EB030E22BFB61A754640EA0C005B084FEA3202B6EB020E75EB030E22BFB61A754640EA5C00CC
:405EC0005B084FEA3202B6EB020E75EB030E22BFB61A754640EA9C005B084FEA3202B6EB020E75EB030E22BFB61A754640EADC0055EA060E18D04FEA051545EA16754FEA99
:405F000006164FEAC30343EA52734FEAC2025FEA1C1CC0D111F4801F0BD141EA00014FF000004FF0004CB6E711F4801F04BF01430020B4F1FD0C88BFBCF5E06F3FF6AFAEE0
:405F4000B5EB030C04BFB6EB020C5FEA500C50F1000041EB045170BD0EF0004E4EEA113114EB5C04C2BFD4EB0C0541EA045170BD41F480114FF0000E013C90E645EA060E40
:405F80008DE60CEA135594EA0C0F08BF95EA0C0F3FF43BAF94EA0C0F0AD150EA01347FF434AF95EA0C0F7FF425AF104619462CE795EA0C0F06D152EA03353FF4FDAE1046FE
:405FC000194622E750EA410618BF52EA43067FF4C5AE50EA41047FF40DAF52EA43057FF4EBAE12E74FF0FF3C06E000BF4FF0010C02E000BF4FF0010C4DF804CD4FEA410C4B
:406000007FEA6C5C4FEA430C18BF7FEA6C5C1BD001B050EA410C0CBF52EA430C91EA030F02BF90EA020F0020704710F1000F91EA030F58BF994208BF90422CBFD8176FEA1B
:40604000E37040F0010070474FEA410C7FEA6C5C02D150EA013C07D14FEA430C7FEA6C5CD6D152EA033CD3D05DF8040B704700BF8446104662468C461946634600E000BF73
:4060800001B5FFF7B7FF002848BF10F1000F01BD4DF808EDFFF7F4FF0CBF012000205DF808FB00BF4DF808EDFFF7EAFF34BF012000205DF808FB00BF4DF808EDFFF7E0FFC8
:4060C00094BF012000205DF808FB00BF4DF808EDFFF7CEFF94BF012000205DF808FB00BF4DF808EDFFF7C4FF34BF012000205DF808FB00BF4FEA410212F5001215D211D5AD
:406100006FF47873B3EB625212D94FEAC12343F0004343EA505311F0004F23FA02F018BF404270474FF00000704750EA013005D111F0004008BF6FF0004070474FF000002E
:40614000704700BF0000000044535020696E69742E2E2E2E2E2E0D00646F6E650A0D00004453502E2E2E2E2E2E0D0000636F6E6E65637465640A0D004E4F5420636F6E6E7F
:4061800065637465640A0D00566F6C756D653A2025690A0D000000005802000050020000480200004002000038020000380200003802000038020000C882FF1FC882FF1F5C
:4061C000C882FF1FC882FF1FC882FF1FC882FF1FC882FF1FC882FF1FC882FF1FC882FF1FC882FF1FC882FF1FC882FF1FC882FF1FC882FF1FC882FF1FC882FF1FC882FF1F1F
:40620000C882FF1FC882FF1FC882FF1F00000048080000481000004818000048A80100482000004828000048A800004828010048C8010048D8010048E80100486802004897
:40624000E802004868030048E803004868040048E804004868050048E805004868060048E806004868070048E807004868080048E808004868090048E8090048680A0048BE
:40628000E80A0048680B0048E80B0048680C0048E80C0048680D0048E80D0048680E004830313233343536373839414243444546000000001201000202000008B40432F261
:4062C000010001048001000009024300020104C032090400000102020002052400100104240202052406000105240100010705810308000A09040100020A000003070582AE
:40630000024000000705030240000000040309042C0343007900700072006500730073002000530065006D00690063006F006E0064007500630074006F00720038034300A1
:4063400044004300200043006F006D006D0075006E00690063006100740069006F006E00200049006E00740065007200660061006300650026034300440043002000440018
:40638000610074006100200049006E0074006500720066006100630065001A035300410052005F005300500049004D005F00550053004200000000000203000032000501D5
:4063C0000902A1010901A100050919012903150025019503750181029501750581010501093009311581257F750895028106C0C000000000000081030800020001008202B2
:4064000040000A000100030240000A00020A000001000000C862000003000000F463000000000000000000000000000000000000000000000C64000001000000B4620000AA
:4064400000000000000000000100000010640000010000003864000012034D005300460054003100300030000100000028000000000104000100000000000000000143595E
:4064800055534200000030303030310000000000000000004300494E4600696E66004E414E006E616E00300030313233343536373839414243444546003031323334353653
:4064C00037383961626364656600496E66696E697479004E614E00504F534958002E0000000000000000F03F000000000000244000000000000059400000000000408F405C
:40650000000000000088C34000000000006AF8400000000080842E4100000000D01263410000000084D797410000000065CDCD41000000205FA00242000000E87648374240
:40654000000000A2941A6D42000040E59C30A2420000901EC4BCD64200003426F56B0C430080E03779C3414300A0D8855734764300C84E676DC1AB43003D9160E458E14339
:40658000408CB5781DAF154450EFE2D6E41A4B4492D54D06CFF08044F64AE1C7022DB544B49DD9794378EA440080E03779C34143176E05B5B5B89346F5F93FE9034F384D97
:4065C000321D30F94877825A3CBF737FDD4F157505000000190000007D000000232D302B2000686C4C0065666745464700000000F8B500BFF8BC08BC9E4670478502000055
:40660000AD070000F8B500BFF8BC08BC9E46704761020000286600000881FF1F80010000880200000000000000000000000000000000000000000000000000000000000084
:406640000000000000000000000000000000000000000000000000000000000000000000000000000000000000000000000000000000000000000004000000000000000016
:40668000000000000000000000000000000000000000000000000000010000000000000000000000000007FFFFFFFFFF0011999A000000000000C0000000C000000008000B
:4066C00000000000000104E70000208A000000000000000000000000000000001085FF1F408AF701E8800000210000000000744000C2010000000800C201000000080000BC
:40670000A12000000000020000000000000000000000000000000000000000000000000000000000000000000000000094640000000000000000000000000000000000009E
:406740000000000000000000000000000000000000000000000000000000000000000000000000000000000000000000EC81FF1FDD640000E1650000E1650000E16500007B
:40678000E1650000E1650000E1650000E1650000E1650000E1650000FFFFFFFFFFFFFFFFFFFFFFFFFFFF000000000000000000000000000000000000000000000000000043
:4067C0000000000000000000000000000000000000000000000000000000000000000000000000000000000000000000000000000000000000000000000000000000000099
:406800000000000000000000000000000000000000000000000000000000000000000000000000000000000000000000000000000000000000000000000000000000000058
:406840000000000000000000000000000000000000000000000000000000000000000000000000000000000000000000000000000000000000000000000000000000000018
:4068800000000000000000000000000000000000000000000000000000000000000000000000000000000000000000000000000000000000000000000000000000000000D8
:020000040003F7
:0200000480007A
:400000000080000000000000020800000000000000000000400000000000000000000200AB00000000000000000200001E322100240019005902003018320400113022025B
:40004000000100545932000000000020414318185943000C18004100204011200F1F400100223000000041446203100004DEB0CF3BFFFFFF2200F00C0400000000000220A2
:4000800004040404000000010000C00040011011C00100114001400100000000000000000000000000000000000000000000000000000000000000000000000000000000B9
:4000C00000000000000000000000000000000000000000000000000000000000000000000000000000000000000000000000000000000000000000000000000040000000C0
:400100000000000400000001000000000000000000000000000000000000000000000000000000000000000002000D0031104200600000800002001D001000000D43009435
:40014000021018000D0000600D10000052C1243A0DA3004C0D0000100FE000007000001F200002800000000000000000000000000000000000000000000000000900040014
:4001800004040004000000010000000000000000000000000000000000000000000000000000000000000000000000000000000000000000000000000000000000000F0023
:4001C00000000000000000000100000000000000000001000000000001000000000000000000010000000000000000000000000000000000000000000000000000000000FB
:40020000000000000000000000000000000000000000000000000040000000000000000000000000000000000000000000000000000000000000000000000000000000007E
:4002400000000000000000000000000000000000000000000000000000000000000000000000000000000000000000000000000020000040000040000000000000000000DE
:40028000000000000000000000000000000000000000000000000000000000000000000000000000000000000000000000000000000000000000000000000000000000003E
:4002C00000000000000000000000000000000000000000000000000000000000000000000000000000000000000000000000000000000000000002000000000000004000BC
:400300000000000020000000000000000000020000000000000000000000000000000000000000000000000000000E0000000000000000000000000000000000000000008D
:400340000000000000000000000000000800000000000000000000000000000000000000000000000000000000000000000000000000000000000000000000000000400035
:40038000000000002000000000000000000002000000000000000000000000000000000000000000000000000000000000000000000000000000000000000000000000001B
:4003C00000000000000000000000000000000000000000000000000000000000000000000000000000000000000000000000000000000000000000000000000000000000FD
:4004000000000000000000000000000000000000000000000000000000000000000000000000000000000000000000000000000000000000000000000000000000000000BC
:40044000000000000000000000000200000000000000000000000000000000000000000000000000000000000000000020000000000000000000000000000000000040001A
:40048000000000000000000000000000000000000000000000000000000000000000000000000000000000000000000000000000000000000000000000000000000000003C
:4004C00002000000000000000000000000000000000000000000000000000000000000000000000000000000000040000000000000000000000000000000000000000000BA
:4005000000000000000000000000000000000000000000000000000000000000000000000000000000000000000000000000000000000000000000000000000000000000BB
:40054000000000000000000000000000000000000000000000000000000000000000000000000000000000000000000000000000000000000010004000000000000000002B
:4005800000100040000000000000000000000000200002000000000000000000000000000000000000000000000000000000000000000000000000000000000000000000C9
:4005C00000000000000000000000500000000000000000000000000000000000000000000000000000000000000000000000000000000000000000000000000000000000AB
:4006000000000000000000000000000000000000000000000000000000000000000000000000000000000000000000000000000000000000000000000000000000000000BA
:4006400000000000000000000000000000000000000000000000020000000000000000000000000000000000000000000015000000000000002021000000000000400019C9
:4006800000000000001100000000000000400042000000000040012800000000000010490000000000800420000000000000800200000000000000000000000000000000BF
:4006C00000000000200042040000000000024000000000000000000000000000000000000000000000000000000000000002000000000000000000000040450400000000C7
:40070000000442190000800000201138000000000000000000000000000000020000000000000000000000007000E000F00000000000F000F0007000000000000000F000EF
:4007400090000000000000000000000000000000200000000000020000000000000000000000000000000000000000000000000000000000000000000000000000000000C7
:400780000000000000000000000000000000000000000000000000000000000000000000000000000000000000000000000000000000000000000000000000000000000039
:4007C00000000000000000000000000010000000000000000000000000000000000000000000000000000000000000000600400900000000000A010000000000004000143B
:400800000000000004AC4228000000001A0020880000000000020028000000000000204500000000004006000000000000A800020000000004020006000000000002021439
:4008400000000000000000001000000A00008000000000000040255400000000000000010000000000000000000000000000000000000000000000800000000000000000A4
:4008800000000000000000000000000000000000000000000000000000000000000000000000000000000000E000B000E00000000000E000F000D000F00020000000000018
:4008C0001E000000000000000000000000000000000000000000000000000000000000000000000000000000000000000000000000000000000000000000000000000000DA
:4009000000000000000000000000000000000000000000000000000000000000000000000000000000000000000000000000000000000000000000000000000000000000B7
