:400000000010002011000000F9010000F901000080B500AF00F07CFA00F0F2F880B500AF0F4B0F4A12688021C9020A431A60202001F022FC0B4B0C4A1A600C4B10221A60AB
:400040000B4B802212061A60054B802212031A60084B094A1A60094B00221A60BD4680BD00010B4004010B40060000800C02024008010B4000000240130000800C020B4031
:4000800080B582B000AF72B6FB1D00221A7023E0FB1D1A78131C5B009B185B002D4A9B183B603B681A78597809020A43997809040A43DB781B061343191C3B681A795B7962
:4000C0001B0213439BB2081C191C00F01FF9FB1D1A78FB1D01321A70FB1D1B78012BD7D91D4B1E4A1A601E4B992212041A601D4B992212041A601C4A1B4B1B78DBB2022119
:400100000B43DBB21370194A184B1B78DBB23C218B43DBB214210B43DBB21370124A124B1B78DBB216210B43DBB21370104B08221A60104BC02212011A600F4B03221A6000
:400140000E4B0F4A1A60FFF769FF00F0EFF8BD4602B080BDDC2600000C000140EEEE000000500F4030500F4000700F4001700F4000000440080004400003044008030440EE
:40018000A40D000010B5064C2378002B07D1054B002B02D0044800E000BF0123237010BDF000002000000000D826000008B5084B002B03D00748084900E000BF0748036808
:4001C000002B00D108BD064B002BFBD09847F9E700000000D8260000F4000020D00000200000000080B500AF62B6002001F076F900F032F9FEE7C04680B500AFFEE7C046E5
:4002000080B586B000AF224B7B61224B3B61204B7B6135E03B691B68FB603B695B68BB603B699B683B6000237B600CE0FB681A68BB681A60BB680433BB60FB680433FB60DA
:400240007B6804337B607A683B689A42EED13B69DB683B6000237B6008E0BB6800221A60BB680433BB607B6804337B607A683B689A42F2D13B6910333B617B69013B7B6135
:400280007B69002BC6D102F0EBF9FFF7ABFFFEE701000000CC27000080B582B000AF00237B600FE07B68032B04D8134B7A689200D35800E0114B124A796889008B507B689C
:4002C00001337B607B682F2BECD9FFF7D9FE0D4B00221A600C4B1B68002B02D10A4B00221A608023DB058022D205126801210A431A60BD4602B080BD00000000F901000018
:4003000000000020C8000020C000002080B582B000AF786039607A683B68101C00211A1C02F0CDF9BD4602B080BDC04680B500AFBD4680BD80B584B000AF78600A1CBB1C85
:400340001A800E23FB1800221A8012E0BB1C1B88013B7A68D3181B7899B20E23FB180E22BA1812888A181A80BB1C1A88BB1C013A1A80BB1C1B88002BE8D10E23FB181B880A
:400380005B429BB2181CBD4604B080BD80B586B000AFF860B960BB1D1A801723FB1800221A701423FB1800221A801AE01423FB181A88FB68D3181B78DAB21423FB181B88EF
:4003C000B968CB181B789A4204D01723FB1802221A700DE01423FB181A881423FB1801321A801423FA18BB1D12881B889A42DDD31723FB181B78181CBD4606B080BDC046D1
:4004000080B586B000AFF860B9607A601723FB1800221A70FB68002B02D0002001F0D8FB0FE07B68013B7B60FA68BB68D2187B68D31819781723FB181722BA1812788A18DF
:400440001A707B68002BECD11723FB181B78181CBD4606B080BDC04690B583B000AF06237B60002000F084F8031E01D100237B601E4B1B681B68C03BFC1C0020C0211A1CB6
:40048000FFF7BEFF031C2370194B1B681A78FB1CF91C09788A1A1A70FB1CFA1C127852421A70134B1B681B78FA1C12789A4204D10E4B1B681B68002B02D1002001F088FBF8
:4004C0000C4B1B68402B02D07B68002B05D0094B00221A60002000F0D3F8142000F0D0F800F00AF8BD4603B090BDC046D8000020D4000020C000002080B500AF034B8022B0
:400500001A6001F06FFBBD4680BDC046C000002080B582B000AF134B1B681022134002D1114B00221A60104B1B68802B17D1FB1D00221A700C4B00221A60FB1D1B78022084
:40054000191C00F0ADFE031E09D0FB1D1B780220191C00F0A5FE031C181C00F007F8BD4602B080BD00030B40C00000200047C04690B587B000AF021CFB1D1A70FB1D1B78D7
:400580000320191C00F08CFE031C0133DC01FB1D1B780420191C00F083FE031CE318FB601323FB1800221A701223FB1800221A70FB1D1B780620191C00F072FE031E012BB3
:4005C00001D1002356E0FB1D1B780320191C00F067FE031C0133DB017B611FE07A690B23FB1812781A700B23FB181B78002B08D00B23FB181B78FF2B03D01323FB18012222
:400600001A701223FB181222B9180B22BA18097812788A181A707B6901337B617A69FB689A42DBD31223FB181222BA18127852421A701223FB181C78FB1D1B780120191C16
:4006400000F02EFE031C9C4204D11323FB181B78002B01D106230DE0FB1D1A78131C5B069B1ADB01054A94466344181C012100F0CBFD0023181CBD4607B090BDD17F000046
:4006800090B5DC4CA54400AF021CDB4BCE2189008C46BC4463441A70D84BFB1800221A80D74BFB180A221A70CC239B00FB1800221A70D44BFB1800221A70CB239B00FB18D6
:4006C00000221A8001F0D6FA62B6CF4BFB1800221A70C94BCE2292009446BC4463441B78002B07D0C44BCE2292009446BC4463441B7800E0FF23EA225200B8189622510002
:40070000C0229200BA1801F0DBFA031CC8229200BA181360B84BCE2292009446BC4463441B78002B06D0B64BFB181A78B44BFB18013A1A70B24BFB181B78002B05D0C82328
:400740009B00FB181B68002BC3D1C8239B00FB181B68002B01D000F0DCFCC0239B00FB181B88062B08D9A94BCE2292009446BC4463441B78012B04D0A34BFB1804221A7028
:4007800073E0A24BCE2292009446BC446344DB789BB21B0299B29D4BCE2292009446BC4463449B789AB2954BFB180A431A80934BFB181B880733C0229200BA181288934247
:4007C00007D88E4BFB181B88DA1D96235B009A4204D98D4BFB1803221A7046E0874BFB181B880533894ACE2189008C46BC446244D35C9BB21B0299B2804BFB181B880433E8
:40080000824ACE2080008446BC446244D35C9AB27F4BFB180A431A80784BFB181B8806337A4ACE2189008C46BC446244D35C172B04D0754BFB1804221A7016E06F4BFB18DE
:400840001B8804339BB2EA225200BA18101C191CFFF770FD031C1A1C6D4BFB181B88934203D0694BFB1808221A706A4BFB1800221A80654BFB181B78002B01D000F03BFC7A
:40088000654BFB18614ACE2189008C46BC44624412791A705C4BFB1804221A705B4BCE2292009446BC4463445B78313B142B01D900F074FB9A00594BD3181B689F46514BCE
:4008C000FB181B78012B1DD14C4BFB181B88002B18D10020FFF74CFE031C5A425341DBB21A1C4A4BCE2189008C46BC4463441A71484BFB1801221A80434BFB1800221A70A4
:4009000000F0F9FB00F0F7FB3E4BFB181B78012B00D09CE0394BFB181B88032B05D0374BFB181B88832B00D091E0384BCE2292009446BC4463449B799BB21B0299B2334B19
:40094000CE2292009446BC4463445B799AB2344BFB180A431A80C6239B00FB1800221A80294BFB1800221A702A4BFB1800221A80224BFB181B88032B0DD0204BFB181B88C2
:40098000DA1EA823F918EA235B00FB180733081C191C01F08BFE204BFB181B78002B51D11D4BFB181B781A021D4BFB181B88D318DB01C5229200BA181360C6239B00FB1819
:4009C000802252001A80164BFA18C6239B00FB1812881B889A4201D2002200E00A220A4BFB181A70084BFB181B78002B1AD000F082FBC046C4FCFFFFCFFCFFFF3203000016
:400A0000310300002F030000350300009CFEFFFF1E030000360300001D030000F02600001A030000CB4BFC18C5239B00FB181A68A823FB18101C191C8022FFF7A7FC031CF8
:400A4000237004E0C34BFB1809221A7053E352E3C14BFB181B78012B66D1C04BFB181B88012B61D1BE4BFB181B78002B5CD1BD4B1B681B68DA0BBC4BFB181A70B84BFA18D7
:400A8000B94BFB1812781B789A420AD1B54B1B681B68DB099AB2B54BFB18FF210A401A8011E0AF4BFA18B04BFB1812781B789A4204D9AE4BFB1800221A8004E0AB4BFB1868
:400AC000802252001A80A94BFB181B88DAB2A84BCE2189008C46BC4463441A71A34BFB181B881B0A9BB2DAB2A14BCE2189008C46BC4463445A719E4BCE2292009446BC4434
:400B00006344FF229A719A4BCE2292009446BC4463440022DA71974BFB1804221A808D4BFB1800221A70E6E2E5E2914BCE2292009446BC4463445B78342B1BD1864BFB18D1
:400B40001B78012B00D0D6E2844BFB181B88032B00D0D0E2CB239B00FB1880221A80CB239B00FB181B88A822BA18101C00211A1C01F0A5FD784BFB181B78012B00D0DCE00F
:400B8000764BFB181B88022B00D8D6E0CB239B00FB181B88A822BA18D118704BFB181B88DA1EEA235B00FB180733081C191C01F07DFDCB239B00FA18684BFB1812881B88BF
:400BC000D3189AB2CB239B00FB18033A1A80634BFB1880221A80C4239B00FB18802252001A80CB239B00FA185C4BFB1812881B889A4200D097E05E4BCE2292009446BC4471
:400C000063449B799BB21B0299B2594BCE2292009446BC4463445B799AB2CB239B00FB180A431A80CB239B00FA18C4239B00FB1812881B889A4201D2002200E00A22454B20
:400C4000FB181A70434BFB181B78002B00D052E2434BFB181B789BB21B0299B2464BFB18CB229200BA1812888A181A803D4B1B681B68DA09CA239B00FB181A80394B1B6813
:400C80001B687F22134008D0CA239B00FB181A88CA239B00FB1801321A80374BFA18CA239B00FB1812881B889A4209D2294BFB180A221A70CB239B00FB1800221A801AE28C
:400CC000CC239B00FB181B78002B1AD10C23FB18181C0021802201F0F2FC284BFB1800221A70264BFB181B78FF22D21A0C23FB18101C191C00F018FCCC239B00FB180122D9
:400D00001A701D4BFB181A88A823FB18101C191C00F00AFC031E01D00A2200E000220D4BFB181A7003E00B4BFB1803221A70CB239B00FB1800221A80DDE1DCE1064BFB1890
:400D40001B78012B05D1CB239B00FB1800221A80DFE1D0E1350300002F030000320300001D030000D8000020130300002A0300009CFEFFFF360300000E0300000D03000029
:400D8000CD4BFB181B78012B34D1CB239B00FB181A88CA4BFB181B88D3181A1C96235B009A4222D8C64BFB1800221A70CB239B00FB181B88A822BA18D118C04BFB181A88DC
:400DC000EA235B00FB180433081C191C01F06EFCCB239B00FB18CB229200B918B74ABA18098812888A181A8004E0B54BFB1803221A7080E17FE1B14BFB181B88002B27D12B
:400E0000B04BCE2292009446BC446344AE4A03CA03C3A94BFB1801221A70AC4BFB1808221A80CB239B00FB1800221A80A74BFB181A88EA235B00FB18191DA023FB18081CFD
:400E4000191C01F033FC9E4BFB1800221A7052E19B4BFB1804221A704DE1974BFB181B78012B00D08CE0954BFB181B88032B00D086E0974BCE2292009446BC4463449B7988
:400E80009BB21B0299B2924BCE2292009446BC4463445B799AB28F4BFB180A431A808E4BFB181B781A028B4BFB181B88D318DB01C1229200BA181360864BFB181B88FF2B50
:400EC00001D8002200E00A227D4BFB181A707C4BFB181B78002B00D00DE1804BFC18C1239B00FB181B680020191C8022FFF788FA031C2370784BFB181B789BB21B0299B2FD
:400F0000774BFB18734ABA1812888A181A80724BFB181B78002B1ED1714BFB181B88FF2B19D10520002100F0BBF9031CDAB26B4BFB186A49791809788A1A1A7006200021DC
:400F400000F0AEF9031CDAB2644BFB186349791809788A1A1A70614BFB181B785B42DAB25B4BCE2189008C46BC4463441A71544BFB1800221A70554BFB1801221A80BAE07C
:400F8000B9E00020FFF7F4FA031E02D1554B80221A6000F08FFE00F025FEACE0524B1B68002B00D183E0444BFB181B78012B00D07DE0474BCE2292009446BC4463445A7854
:400FC0004A4BCE2189008C46BC4463441A70474BCE2292009446BC446344384ABA1812885A80424BCE2292009446BC446344EA225200BA1804325A608C23FB18181C0021BD
:401000000C2201F05CFB3A4BCE2292009446BC446344EA225200BA1804329A60324B1B689822B9188C22BA18081C111C9847274BFB182F4ACE2189008C46BC44624492880F
:401040001A80224BFB181A882623FF339A420CD9274BCE2292009446BC4463449A68EA235B00FB1804339A420DD0214BCE2292009446BC4463449B68002B0DD1134BFB18AA
:401080001B88002B08D00E4BFB180E221A700F4BFB1800221A802DE0154BCE2292009446BC4463441A68064BFB181A7022E0044BFB1805221A701DE02F03000032030000E2
:4010C0003503000068FDFFFFE8260000360300009CFEFFFF0A0300001D0300002703000002030000C00000200C01002060FDFFFF54FDFFFFC046124BFB181978EA235B00F4
:40110000FA18104BFB181B88081C111C1A1C00F01FF80D4BCE2292009446BC4463441B78002B01D1FFF7D1FA084BFB181B78012B01D1FFF7CAFABD46CF239B009D4490BDE3
:401140003503000036030000CFFCFFFF2F03000090B585B000AF3960111CFB1D021C1A703B1D0A1C1A803B6801221A703B680133FA1D12781A703B6802333A1D1288D2B29D
:401180001A703B6803333A1D1288120A92B2D2B21A703B1D1B8804339BB20E22BC183A68101C191CFFF7C6F8031C23803B1D1B8804333A68D3180E22BA181288D2B21A7008
:4011C0003B1D1B8805333A68D3180E22BA181288120A92B2D2B21A703B1D1B8806333A68D31817221A703B1D1B8807339AB239683B1D081C111C1A1C962300F0C3FD031C18
:40120000181CBD4605B090BD80B5A6B000AF78600A1CFB1C1A707B689022BA1813609023FB181B68DA098E23FB181A807B687F2293438822BA1813609623FB1800221A8067
:4012400014E09623FB181B889622BA1811888822BA1812688A1811780822BA18D1549623FB181A889623FB1801321A809623FB181B887F2BE5D97B687F2213400822BA18F5
:40128000F91C0978D1548E23FB181A880823FB18101C191C00F048F9BD4626B080BDC04680B586B000AF021CFB1D1A70BB1D0A1C1A701323FB1802221A700023FB60FB1D32
:4012C0001B780C2B00D9A8E09A00774BD3181B689F46BB1D1A78131C5B069B1ADB01734A944663447B611323FB1801221A709AE0BB1D1A78131C5B069B1ADB016C4A9446E4
:4013000063447B611323FB1804221A708BE0BB1D1A78131C5B069B1ADB01664A944663447B6180E0BB1D1A78131C5B069B1ADB01614A944663447B611323FB1804221A7042
:4013400071E0BB1D1A78131C5B069B1ADB015B4A944663447B611323FB1801221A7062E0BB1D1A78131C5B069B1ADB01544A944663447B611323FB1801221A7053E0BB1DD0
:401380001A78131C5B069B1ADB014E4A944663447B6148E0BB1D1A78131C5B069B1ADB01494A944663447B613DE0BB1D1A78131C5B069B1ADB01454A944663447B6132E03C
:4013C000BB1D1A78131C5B069B1ADB01404A944663447B611323FB1804221A7023E0BB1D1A78131C5B069B1ADB013A4A944663447B611323FB1801221A7014E0BB1D1A78BF
:40140000131C5B069B1ADB01334A944663447B611323FB1804221A7005E0002000F0D8FB00237B61C0461323FB181B78012B03D17B691B78DBB2FB601323FB181B78022BA7
:401440000BD17B691B78DBB2FB607B6901331B78DBB21B02FA681343FB601323FB181B78042B1BD17B691B78DBB2FB607B6901331B78DBB21B02FA681343FB607B690233F2
:401480001B78DBB21B04FA681343FB607B6903331B78DBB21B06FA681343FB60FB68181CBD4606B080BDC04644270000C07F0000C17F0000C57F0000C97F0000D07F000014
:4014C000D17F0000D67F0000D27F0000D47F0000D87F0000DC7F0000E07F000080B584B000AF021CFB1D1A700E4B1B68DAB20F23FB1808218A431A70FB1D1B78DB00DBB27A
:4015000008221340D9B20F23FB180F22BA1812780A431A70034B0F22BA1812781A60BD4604B080BD0000044090B5AFB000AF7860396000239422BA18136000239022BA18E4
:4015400013600023A022BA1813600023B422BA1813600023B022BA1813600023AC22BA1813600023A822BA1813607B68FF2B00D943E13B68002B00D13FE10823FB180833AC
:401580001A1C3B68101C191C802201F08FF80223A422BA1813602FE00823FB18A422BA1812689200D3589C22BA1813609C23FB181B68002B19D0AC23FB181A689C23FB18E9
:4015C0001B68D318AC22BA181360A823FB181A689C23FB181B681343A822BA181360A423FB181B68B422BA181360A423FB181B680133A422BA181360A423FB181B68212B93
:40160000CAD9AC23FB181B68002B06D1A823FB181B68002B01D0012300E00023A022BA181360A023FB181B68002B11D00823FB18B422BA1812689200D358B022BA1813607C
:401640000823FB18B422BA18126892000021D1500823FB186E4A1A600823FB187F225A606C4B0822BA181A606B4B6C4A1A60694B1B681B0F1A07A0231B069A4204D0654B54
:401680001B680F22134000E000239422BA1813609423FB181B68002B00D0ADE09B23FC1800F02CFC031C237000F0C2F8031C9022BA1813609423FB181B68002B24D108235C
:4016C000FB18574A1A600823FB181A687B681B041A430823FB181A604E4B0822BA181A604D4B504A1A604B4B1B681B0F1A07A0231B069A4204D0474B1B680F22134000E0B9
:4017000000239422BA1813609423FB181B68002B60D1A023FB181B68002B5BD00823FB180833181C0021802200F0C9FF0823FB18B422BA1812689200B02179180968D15025
:401740000823FB18324A1A600823FB187F225A60304B0822BA181A602F4B304A1A602D4B1B681B0F1A07A0231B069A4204D0294B1B680F22134000E000239422BA181360EA
:401780009423FB181B68002B24D10823FB18264A1A600823FB181A687B681B041A430823FB181A601B4B0822BA181A601A4B1F4A1A60184B1B681B0F1A07A0231B069A42A8
:4017C00004D0144B1B680F22134000E000239422BA1813609023FB181B68002B05D100F039F8031C9022BA1813609B23FB181B78181C00F087FB04E003E004239422BA18B0
:4018000013609423FB181B68181CBD462FB090BDB6D70000080000400400004004000080B6D8000005000080B6D900000600008080B582B000AF00237B60044B1A68044B8C
:401840001A607B68181CBD4602B080BD08010B401001002080B582B000AF00237B60044A044B1B6813607B68181CBD4602B080BD08010B401001002090B585B000AF78602A
:401880000C23FC1800F03AFB031C23707B68022B00D8B4E07B68302B00D9B0E05E4B1B78DBB21A1E7B689A420AD35C4A0F23FB1812781A705A4A0E23FB1812781A703FE034
:4018C000584B1B78DBB21A1E7B689A420AD3564A0F23FB1812781A70544A0E23FB1812781A702DE0524B1B78DBB21A1E7B689A420AD3504A0F23FB1812781A704E4A0E2308
:40190000FB1812781A701BE04C4B1B78DBB21A1E7B689A420AD34A4A0F23FB1812781A70484A0E23FB1812781A7009E0464A0F23FB1812781A70454A0E23FB1812781A706A
:401940007B68DA1E0B23FB1841498A5C1A700B23FB181B782F2B0DD97B682A2B0AD93D4B19221A60052000F0BFFA0D23FB1819221A7007E0374B1B68DAB20D23FB183F21F4
:401980000A401A700B23FA180D23FB1812781B789A4208D22F4B7A68033A2D498A5C1A60052000F0A1FA7B68284A9A180A23FB1812781A70284B0A22BA1812781A60274B9C
:4019C0000F22BA1812781A60254B0E22BA1812781A60052000F03AF90B23FA180D23FB1812781B789A4209D91A4B7A68033A18498A5C1A60052000F077FA03E002E0002014
:401A000000F0E6F80C23FB181B78181C00F07AFABD4605B090BDC046C0F1FF0FC1F1FF0FC2F1FF0FC3F1FF0FC4F1FF0FC5F1FF0FC6F1FF0FC7F1FF0FC8F1FF0FC9F1FF0FBD
:401A4000CAF1FF0FCBF1FF0FCCF1FF0FCDF1FF0F782700002CFF0B4028FF0B401CFF0B4020FF0B4080B584B000AF021C3960FB1D1A7080239B05FB60FB1D1B781F2B02D906
:401A8000002000F0A5F8FB1D1B7810339B00FA68D3181B68BB60FB1D1B7810339B00FA68D3183A681A60BB68181CBD4604B080BD90B587B000AF021CFB1D1A70BB1D0A1CDF
:401AC0001A70BB1D1B78032B02D9002000F080F8FB1D1B781F2B02D9002000F079F8FB1D1B7803221340DB0006337B611323FC1800F004FA031C2370FB1D1B789B08DBB237
:401B00009B00144A944663441B68FB607B6903229A40131CDA43FB681340FB60BB1D1A787B699A40131CFA681343FB60FB1D1B789B08DBB29B00074A94466344FA681A607F
:401B40001323FB181B78181C00F0DCF9BD4607B090BDC04600E400E080B582B000AF021CFB1D1A70054BFA1D12781F210A40012191400A1C1A60BD4602B080BD00E100E028
:401B800080B582B000AF021CFB1D1A70054BFA1D12781F210A40012191400A1C1A60BD4602B080BD80E100E080B582B000AF021CFB1D1A70054BFA1D12781F210A4001219B
:401BC00091400A1C1A60BD4602B080BD80E200E080B582B000AF021CFB1D1A7001BEBD4602B080BD80B500AF044B044A12681204120C03490A431A60BD4680BD0CED00E05E
:401C00000400FA0580B582B000AF786009E00C4B1B68181C00F068F97B680A4A944663447B607A6880231B029A42F0D8064B1B687A685343181C00F057F9BD4602B080BDE0
:401C4000E80000200080FFFFE000002080B582B000AF021CBB1D1A80BB1D1B88044A12785343181C00F040F9BD4602B080BDC046E400002080B500AF0A4B181C402100F038
:401C800011F9094B181C002100F0E6F8074B181C00F082F9064B00221A6000F051F9BD4680BDC0465401002014010020F51D00009401002080B500AF00F054F9BD4680BD73
:401CC00090B587B000AFF860081C7A60191C0A23FB18021C1A800923FB180A1C1A7001237B61FB68002B42D00A23FB181B88002B3DD010237B610923FB181A78131C9B00E2
:401D00009B185B003B612FE01B4B1B78DBB210221340DBB2002B21D0184B1B689AB27B681A80154B00221A70144B00221A607B681A880A23FB181988101C82B28BB29A42A1
:401D400000D9081C83B21C1CFA680D4B101C191C221C00F0ABFC00237B6108E00120FFF751FF3B69013B3B613B69002BCCD17B69181CBD4607B090BDBC010020AC0100200A
:401D80005401002080B586B000AFF860081C7A60191C0A23FB18021C1A800923FB180A1C1A7001237B61FB68002B1AD00A23FB181B88002B15D07B680A22BA1812881A80A2
:401DC0000A23FB181B880949FA68081C111C1A1C00F06CFC0A23FB181A88054B1A6000237B617B69181CBD4606B080BD140100209401002080B500AF124B1B684022134051
:401E00001DD0114B1B68102213400ED00F4B1B68002B14D00D4B1A680D4B1A600D4B00221A600A4B00221A6009E00A4B1A68084B1B689A4203D0064B1A68064B1A60BD4610
:401E400080BDC0464C0F07406400074094010020B8010020A401002080B582B000AF786039607B68002B11D00B20FFF789FE094B7A681A60084B3A681A60084B00221A6053
:401E8000074B00221A600B20FFF766FEBD4602B080BDC046B0010020B8010020A4010020A001002080B582B000AF786039607B68002B0ED00B20FFF763FE074B7A681A60E4
:401EC000064B3A681A60064B00221A600B20FFF743FEBD4602B080BDB4010020A8010020AC010020000000000230800804D0C0460138FDD1C046C046C0467047EFF31080F3
:401F000072B6704780F310887047C046C046C04680B500AF00F086F8BD4680BD80B500AF064B064A1268802109060A431A6000F03FF800F045F8BD4680BDC0460000074005
:401F400080B500AF064B1B78002B04D1FFF7E0FF034B01221A70FFF7E1FFBD4680BDC0469801002080B500AF0B20FFF709FE00F02BF8074B064A1268520052081A60054B43
:401F800000221A600B20FFF70FFEBD4680BDC04600000740880F074080B582B000AF7860024B7A681A60BD4602B080BD9C01002080B500AF0B20FFF7CFFDBD4680BDC0468F
:401FC00080B500AFBD4680BD80B500AF00F0A6F8BD4680BD80B500AF0E4B1A6880235B00134012D00C4B1A688023DB0113400CD1084B084A126809490A401A60054B054ABD
:402000001268802149000A431A60054B02221A60BD4680BD0000074060000740FFFEFFFF6C00074080B500AF254B254A12680C210A431A60234B00221A60234B234A1A601B
:40204000234B244A1A60244B00221A60234B244A1A60244B1F4A1A60234B00221A600B20FFF78EFD0B200321FFF722FD1F4B0B20191CFFF7F7FC1E4B00221A601D4B0022FB
:402080001A601D4B4C22FF321A601C4B00221A601B4B00221A601B4B00221A601A4B10221A701A4B00221A70194B00221A60194B00221A60184B00221A70BD4680BDC04697
:4020C00070000740000007406000074077080040000307400701008004030740100307401000FE00000207400402074031210000C80E0740880E0740480F0740080F074016
:40210000C80F0740880F0740BE010020BC010020A4010020AC010020BD01002080B500AF024B10221A70BD4680BDC046BE01002080B582B000AF00233B60DA4B1B68002BBE
:4021400002D0D84B1B689847D74B1B680122134002D0D64B00221A60D54B1B78DBB220221340DBB2002B32D1D24B1A680223FF3313402CD0CE4B1B78DBB201221340DBB24D
:40218000002B10D0CC4B1B78DBB202229343DAB2C94B1A70C84B1B78DBB209221343DAB2C54B1A7010E0C44B1B78DBB220229343DAB2C14B1A70C04B1B78DBB27022524235
:4021C0001343DAB2BC4B1A70B94B00221A70B84B1B78DBB220221340DBB2002B00D00DE2B34B1B78DBB210221340DBB2002B00D1D6E1B04B1B680222134056D0AF4B022271
:402200001A60AF4B1B680F221A40AD4B196880231B020B4001D0012300E00023D3187B60A84B1B78DBB21A1E7B689A4208D9A24B1B78DBB204221343DAB29F4B1A700AE07C
:40224000A04B1B78DBB21A1C7B689A1A9E4B1B689A1A9D4B1A609C4B1A689C4B1A609C4B00221A60974B00221A709A4B994A1268802149020A431A60964B964A126896491A
:402280000A401A608C4B1B78DBB202229343DAB2894B1A70884B1B78DBB201221343DAB2854B1A70824B10221A70824B1B680822134048D0814B08221A60884B1A68802357
:4022C0009B01134019D00DE0854B1A68854B1B68D218854B1B68DBB21370824B1B685A1C804B1A60814B1B680F221340ECD17B4B7A4A12687E490A401A607E4B1B6820226F
:40230000134007D06C4B1B78DBB240221343DAB2694B1A70784B00221A60764B774A1A60654B1B78DBB220229343DAB2624B1A70614B1B78DBB210221343DAB25E4B1A7001
:402340005B4B10221A705B4B1B68402213404DD06B4B01221A606B4B1B681022134012D05B4B10221A60594B1A68574B1A60524B1B78DBB202221343DAB24F4B1A704C4BFB
:4023800012221A702CE0604B1A68564B1B68D31A7B607B68072B03D8574B04221A6014E07B68082B07D14D4B4C4A1268A02109020A431A6009E0494B484A12688021890137
:4023C0000A431A604C4B08221A603B4B1B78DBB220221343DAB2384B1A70354B11221A70364B4A4A1A604A4B01221A60494B1B680822134036D0444B1A683A4B1B68D31A66
:40240000083B7B607B68082B04D908237B6000233B6001E001233B6010E0314B1A68314B1B68D218304B1B68DBB213702D4B1B685A1C2C4B1A607B68013B7B607B68002BD8
:40244000EBD13B68002B09D0244B244A1268802109020A431A60284B00221A60254B08221A6066E02B4B1B680422134061D01E4B1B687B601B4B1A68234B1B689A424BD28A
:40248000234B01221A60164B1A68164B1B68D3187A68D2B21A70134B1B685A1C114B1A6044E0C0469C0100208C0E0740880E0740BE0100204C0F0740BC010020400F0740A9
:4024C00008020740BD010020A0010020A4010020880F074004020740FFFFFEFF60000740B4010020AC0100204003074008030740FF5FFFFFC00F0740C80F0740ED0F000050
:40250000800E074064000740A8010020FF0F00006C000740CC0F0740FFF75CFD394B1B78DBB240221343DAB2364B1A70364B04221A60364B1B68102213405FD026E0344BCF
:402540001A68344B1B689A420ED2334A334B19682F4B1B68CB181B78DBB213602C4B1B685A1C2B4B1A6011E02B4BFF221A602C4B1B78DBB220221340DBB2002B06D1284B9C
:402580001B78DBB20133DAB2254B1A70254B1B680F221340082BD2D1234B10221A602DE0224B224A1268520052081A60204B10221A70204B1F4A12681F490A401A601D4B4B
:4025C0001C4A12681D490A401A601D4B00221A601C4B00221A60144B1B4A1A600A4B1B4A1A601B4B1B4A1A601B4B1C4A1A600F4B0E4A1268802109060A431A60BD4602B075
:4026000080BDC046BC010020C00F07408C0F0740A0010020B801002040020740B0010020BD01002008020740800F074000000740BE01002060000740FF5FFFFFFFFCFFFF67
:40264000C80F0740880F0740ED0F0000F3070000400F0740FF0F0000000F0740170300000E4B70B500251E1C0D4CE41AA410A54204D0AB00F35898470135F8E700F094F84B
:40268000084B00251E1C084CE41AA410A54204D0AB00F35898470135F8E770BDB4270000B4270000B4270000BC270000002310B5934203D0CC5CC4540133F9E710BD031C4C
:4026C0008218934202D019700133FAE77047000030000000002800000000000000300F40000400400F4000049311C80411320101BE080000500A00009C0F00002A0B000021
:402700003C0D00009C0F0000800D0000F60D00002A0B00005A0E0000820F00009C0F00009C0F00009C0F00009C0F00009C0F00009C0F00009C0F00009C0F00009C0F0000E4
:40274000080900001A140000D2120000F01200000E130000241300004213000060130000941300007E130000AA130000C0130000DE130000FC130000030405060708090A18
:402780000B0C0E0F101112131415161718191B1C1D1E1F2021222325262728292A2B2E2F3031323334350000F8B5C046F8BC08BC9E467047AD01000099020000F8B5C0469B
:4027C000F8BC08BC9E46704785010000E0270000D000002020000000D00000000000000000000000D0260000D42600000024F400803E0000100000000000401F0000000024
:402800000000000000000000000000000000000000000000000000000000000000000000000000000000000000000000000000000000000000000000000000000000000098
:402840000000000000000000000000000000000000000000000000000000000000000000000000000000000000000000000000000000000000000000000000000000000058
:402880000000000000000000000000000000000000000000000000000000000000000000000000000000000000000000000000000000000000000000000000000000000018
:4028C00000000000000000000000000000000000000000000000000000000000000000000000000000000000000000000000000000000000000000000000000000000000D8
:407FC0000000000000000000000000000000000000000000010000000000000000000000000000000000000000000000000000000000000000000000000000000000000080
:0200000490303A
:020000008D432E
:0200000490402A
:200000000000000000000000000000000000000000000000000000000000000000000000E0
:0200000490501A
:0C000000000204C81193110104D59ED623
:0200000490600A
:0100000001FE
:00000001FF