:400000000080002011000000950000009500000080B500AF024A034B1B68136000F03EF8BC760040FA46004010B5054C237833B9044B13B10448AFF300800123237010BDB7
:400040004081FF1F00000000841E0000084B10B51BB108480849AFF300800848036803B910BD074B002BFBD0BDE81040184700BF00000000841E00004481FF1F0881FF1F8D
:400080000000000080B500AF62B600F09BFA00F0B5FAFCE780B400AFFEE700BF80B586B000AF224B7B61224B3B61204B7B6135E03B691B68FB603B695B68BB603B699B6843
:4000C0003B6000237B600CE0FB681A68BB681A60BB680433BB60FB680433FB607B6804337B607A683B689A42EED13B69DB683B6000237B6008E0BB6800221A60BB680433F9
:40010000BB607B6804337B607A683B689A42F2D13B6910333B617B69013B7B617B69002BC6D101F075FEFFF7ADFFFEE7010000006C1F000080B582B000AF174B174A1A609C
:40014000174A174B1B6843F40073136000237B600FE07B68032B04D8124A7B6852F8233000E0114B11497A6841F822307B6801337B607B682F2BECD90D4B1B78DAB20D4BA0
:400180001A700D4B094A1A6000F068F90B4B00221A600837BD4680BD0CED00E00004FA0514ED00E000000000950000000080FF1FBC7600400481FF1F08ED00E00081FF1F55
:4001C00080B582B000AF78603960786800213A6801F04FFE0837BD4680BD00BF80B584B000AFF860B9607A60F868B9687A6801F035FE1037BD4680BD80B483B000AF034689
:40020000FB71FEE780B487B000AF7860396000233B6100237B6127E07B699B007A6813441B68BB60BB68FB73BB6823F0FF03BB6014E03B695B003A6813441B781A46BB68E1
:40024000134419463B695B003A6813445B780B703B6901333B61FB7B013BFB73FB7B002BE7D17B6901337B617B69192BD4D91C37BD465DF8047B704780B582B000AF304B5A
:4002800001221A802F4B18221A702F4B02221A704FF0402308221A702C4B03221A702C4B2C4A1278D2B21A702B4B08221A802B4B41F251221A800023FB7019237B6014E091
:4002C000FB785B00DAB2264B1B78DBB203F00103DBB21343DBB203F00303FB704FF4F07000F0FEF97B68013B7B607B68002B02D0FB78032BE4D17B68002B02D10320FFF794
:400300007BFF184B4FF480721A80164B07221A70154B00221A70154B48221A70114B00221A70134B02221A70124A124B1B78DBB243F00103DBB213700837BD4680BD00BF2B
:4003400080400040824000400043004000420040A14600400801004922420040204200402542004004400040064000400840004001400040A243004080B483B000AF0F4B68
:400380001B78FB710E4AFB7903F00703DBB213700C4AFB791B09DBB213700B4B10221A700A4B00221A700A4B20221A70094B44221A700C37BD465DF8047B7047CF01004905
:4003C0006E5800406F580040FD51004070580040D35A00407658004080B483B000AF0346FB71FB79092B0ED8FB79094A52F82330FA79074951F822201178FA790548825CAD
:400400000A43D2B21A700C37BD465DF8047B7047881E0000B01E000080B483B000AF0346FB71FB79092B10D8FB790A4A52F82330FA79084951F822201178FA790648825CE5
:40044000D243D2B20A40D2B21A700C37BD465DF8047B7047881E0000B01E000080B582B000AF72B6414A414B1B78DBB243F00403DBB213700023FB7113E0FA7913465B00DE
:4004800013445B003A4A13443B603B681A683B689B889BB210461946FFF792FEFB790133FB71FB79062BE8D94FF090403149FFF7A9FE314B4FF440721A80304B40F2032224
:4004C0001A802F4A2E4B1B78DBB243F00203DBB213702C4A2B4B1B78DBB243F00203DBB21370294A284B1B78DBB243F04003DBB21370264A254B1B78DBB243F01003DBB255
:400500001370234823490822FFF768FE224823490A22FFF763FE224822490522FFF75EFE214822490822FFF759FE214B44221A70204A204B1B78DBB243F00803DBB213704A
:400540001D4B61221A70FFF797FE1B4B81221A701A4B01221A70FFF70FFF19480A490E22FFF73CFE0837BD4680BD00BFE8460040BC1E000068000048705800404C5800409C
:400580000350014013500140A0430040C2430040025100409C030048C0510040A4030048CB510040B0030048F2510040B80300485B0A0140224300400048004004000840E5
:4005C000B043004080B500AF0A4801F0C5F90A4B01221A7000F0FEFB00F02AFE00F028FE00F052F93F203F21034A00F081F900F06BFC80BD7581FF1F7481FF1F80B500AF7A
:4006000000F08CFC0346002B21D1114801F038FA00F0C2FE0F4800F025F80D4801F0C4F90D4B4FF400421A6000BF0C4B5B78DBB2042BFAD100F038F9034603F01003002BE7
:40064000F3D1074B4FF400421A6000F03DFC80BD7581FF1F7881FF1F00E100E07481FF1F80E100E0B0B584B000AF78600023FB7319E0FC7BFB7B184601F07AF803461B0201
:400680009DB2FB7B184601F073F803461B0A9BB29BB22A4613439BB29AB27B6823F81420FB7B0133FB73FB7B002BE2D000F05AFF0023FB730BE0FB7BFA7B0849895C7A68EF
:4006C00013440A4683F82C20FB7B0133FB73FB7B002BF0D01037BD46B0BD00BF0482FF1F0230800803D000BF01380046FCD17047EFF3108072B6704780F31088704700BFD8
:4007000080B483B000AF0346FB7101BE0C37BD465DF8047B704700BF80B584B000AF03463960FB710F4B1B68FB60FB791F2B02D90020FFF7E5FFFB7903F01F0310339B0007
:40074000FA6813441B68BB60FB7903F01F0310339B00FA6813443A681A60BB6818461037BD4680BD08ED00E080B582B000AF03460A46FB711346BB71BB79072B02D9002008
:40078000FFF7BEFFFB791F2B02D90020FFF7B8FFFB7903F01F0303F1604303F56443BA795201D2B21A700837BD4680BD80B500AF154B01221A70154B81221A70144B04224B
:4007C0001A70144B03221A70134B00221A70134B4FF400421A600F200721FFF7C5FF0F200F49FFF799FF0F4B00221A700E4B00221A700E4B00221A800D4B00221A800D4B48
:4008000000221A8080BD00BFD6490040C8490040CA490040DB490040DC49004080E100E05D090000B681FF1FBC81FF1FC481FF1FB881FF1FBA81FF1F80B582B000AFFFF7BE
:4008400057FF0346FB710D4A0C4B1B78DBB243F00403DBB213700A4A094B1B78DBB243F00403DBB21370FB791846FFF745FF054B4FF400421A600837BD4680BDA543004041
:40088000B543004000E100E080B500AF054B1B78002B04D1FFF78AFF024B01221A70FFF7CBFF80BD5C81FF1F80B483B000AF0D4B4FF400421A600C4B1B78FB710A4B1B785C
:4008C000DBB203F01003DAB2074B1A70074B4FF400421A60FB7918460C37BD465DF8047B704700BF80E100E0BC81FF1F00E100E080B483B000AF03463A60FB800B46BB80ED
:400900000F4B4FF400421A603B68002B08D00D4A3B6813600C4AFB8813800C4ABB8813800B4B00221A800B4B00221A800A4B4FF400421A600C37BD465DF8047B704700BFAB
:4009400080E100E0C081FF1FB481FF1FBA81FF1FC481FF1FB881FF1F00E100E080B400AF974B1B78DAB2974B1A70964B1B7803F00803002B42D0944B1B78DBB203F00103BB
:40098000002B24D0904A914B1B689149098889B20B441B78DBB21370894B14221A708C4B1B889AB28B4B1A808A4B1B889BB201339AB2884B1A80884B1B78DBB243F0110391
:4009C000DAB2854B1A70854B08221A70D9E07C4B10221A70804B1B78DBB243F01203DAB27D4B1A707D4B01221A707D4A7C4B1B78DBB243F01003DBB21370C2E0714B1B78D6
:400A000003F00103002B00F0BC80744B1B78DBB2013B072B00F2A88001A252F823F000BF410A00005B0A0000690B0000A70A0000690B0000690B0000690B0000F10A000016
:400A4000614B1B78DBB29AB2664B1A805C4B10221A70624B02221A7093E0624B1B881B029AB2594B1B78DBB29BB213439AB25D4B1A805C4B1A885C4B1B889BB29A420ED298
:400A80004F4B10221A70574B1A88514B1A80554B1A88504B1A80514B04221A7071E0484B00221A706DE04B4B1B889AB24F4B1B889BB29A4218D2444B1B78DAB24C4B1A7022
:400AC0003F4B10221A70414B1B68424A128892B21344474A12781A703E4B1B889BB201339AB23C4B1A804CE0354B00221A7048E0344B1B7803F00203002B23D1354B1B8855
:400B00009AB2394B1B889BB29A4214D22E4A2F4B1B683049098889B20B441B78DBB21370274B04221A702B4B1B889BB201339AB2284B1A8025E0244BFF221A70204B0422C2
:400B40001A701EE0204BFF221A701D4B00221A70214B1B78DBB223F01003DAB21E4B1A701E4B00221A700CE01C4B00221A70184B00221A80174B00221A80114B00221A7039
:400B800000BF0F4B1B78DBB203F02003002B12D0114B1B78DBB223F01003DAB20E4B1A700E4B00221A700E4A0D4B1B78DBB223F01003DBB21370BD465DF8047B704700BF70
:400BC000D74900405E81FF1FD8490040C081FF1FC481FF1FB881FF1FBC81FF1FB681FF1FD64900406081FF1FB481FF1FBA81FF1F6281FF1F80B582B000AF00F09FF90220A3
:400C000000F0A8FAFFF774FD0346FB713B4A3B4B1B78DBB243F00303DBB21370384A384B1B78DBB243F00303DBB21370FB791846FFF762FD334B4FF434421A80324B4FF66A
:400C4000FF721A80314B07221A70FFF751FD0346FB712F4A2E4B1B78DBB243F00303DBB213702C4A2B4B1B78DBB243F00303DBB21370FB791846FFF73FFD274BFF221A7070
:400C8000264BFF221A70264BFF221A70254BFF221A70254BFF221A70244BFF221A70244B01221A6000202349FFF736FD00200721FFF75AFD01F078F80720FFF78DFB082028
:400CC000FFF78AFB0920FFF787FB1B4A1A4B1B78DBB243F00403DBB2137000F003FF00F08DFF002000F0E6FF042001F003F8002001F020F80837BD4680BD00BF9A6400408C
:400D00009B6400402A6400404A6400408A6400409C6400409D6400402C6400404C6400400C6400402D6400405D6400404D64004080E100E0ED1700007964004080B582B00D
:400D400000AFFFF7D5FC0346FB711C4A1B4B1B78DBB243F02003DBB2137001F03FF800F0F3FE00F06DFF164A154B1B78DBB243F01003DBB21370134A124B1B78DBB243F04E
:400D80001003DBB21370104A0F4B1B78DBB243F00103DBB21370FB791846FFF7ADFC0B4B01221A600A4A0A4B1B78DBB263F07F03DBB213700837BD4680BD00BF9A64004067
:400DC000BB430040AB4300407058004000E100E07964004080B500AF054B1B78002B04D1FFF708FF024B01221A70FFF7A7FF80BD6481FF1F80B485B000AF0346FB71FB79C6
:400E00000133FB71FB79072B00D111E0FB79DB08FB73FB7903F00703012202FA03F3BB73FB7B074AD25CBB7B1340DBB2002BE6D0FB7918461437BD465DF8047B704700BFDB
:400E40000C81FF1F80B584B000AF0346FB71FB790B4AD35CFB73FB790A4AD35C184600F069FF094AFB7B0949CB5C1370FB79084AD35C184600F058F91037BD4680BD00BF48
:400E8000341F00001081FF1F5C6400401881FF1F1C81FF1F80B582B000AF0346FB71084B00221A70074AFB791370054B81221A70FB79184600F0C0F80837BD4680BD00BF77
:400EC000C981FF1FC881FF1F80B500AF114B00221A70114BFF221A700F4B1B78DBB21846FFF788FF03461A460B4B1A700A4B1B78DBB2062B0DD8074B1B78DBB243F001031E
:400F0000DAB2044B1A70044B1B78DBB2184600F093F880BDC981FF1FC881FF1F80B400AF054B1B78DBB203F00103DBB21846BD465DF8047B704700BFC981FF1F80B582B0A7
:400F400000AF0023FB7106E0FB79184600F03EF8FB790133FB71FB79062BF5D90837BD4680BD00BF80B584B000AF0346FB71FB79124AD35CFB73FB79114AD35CBB73FB79B6
:400F8000104A52F8233009221A70FB7B0F2B01D10723FB73FB7B0C4A52F82330FA7B0A4951F822201178BA7B0A43D2B21A70FB791846FFF711FA1037BD4680BD041F000019
:400FC0000C1F0000E81E0000141F000080B584B000AF0346FB71FB79134AD35CFB73FB79124AD35CBB73FB791846FFF715FAFB7B0F2B01D10723FB73FB7B0D4A52F82330CA
:40100000FA7B0B4951F822201178BA7BD243D2B20A40D2B21A70FB79064A52F8233008221A701037BD4680BD041F00000C1F0000141F0000E81E000080B582B000AF03462B
:40104000FB71FB791846FFF7FDFE0F4A0E4B1B78DBB243F00103DBB213700C4A0B4B1B78DBB223F00103DBB21370FB791846FFF779FF054A044B1B78DBB243F00203DBB272
:4010800013700837BD4680BD796400407058004080B582B000AF0346FB711E4A1D4B1B78DBB223F00303DBB21370FB791A4A1278D2B292B2120291B2184A22F81310184BA2
:4010C0001B78DBB29AB2FB79F979144830F811100A4391B2114A22F81310FB79FA790F4931F81220D24391B20C4A22F81310FB791846FFF76BFF002000F01CFE094A094B49
:401100001B78DBB243F00103DBB213700837BD4680BD00BF796400401D640040CC81FF1F0D6400407058004080B483B000AF0346FB71064AFB791370054AFB795B08DBB243
:4011400013700C37BD465DF8047B7047296400403964004080B483B000AF0346FB71FB79012B08D10A4A0A4B1B78DBB223F01003DBB2137007E0064A054B1B78DBB243F054
:401180001003DBB213700C37BD465DF8047B70477964004080B485B000AF0346FB71FB79114AD35CFB73FB79FA79104931F812100F4A22F81310FB790E4A0021D154FB793E
:4011C0000D4A002122F81310FB7B002B06D0FB7B013BFA7B0949895C094AD1541437BD465DF8047B704700BF341F0000CC81FF1FEC81FF1FFC81FF1FDC81FF1F3C81FF1F1B
:401200006881FF1F80B582B000AF0346FB71FB791846FFF73FFE00BFFFF780FE0346002BFAD1FB791846FFF7B5FF0837BD4680BD80B582B000AF0023FB7106E0FB7918460D
:40124000FFF7E0FFFB790133FB71FB79062BF5D90837BD4680BD00BF80B586B000AF0346FB71FB79454AD35C7B757B7D444A32F813307B82FB79434A32F813303B82FB7954
:40128000414A32F813303A8A9A4209D3FB793E4A32F813303A8AD31AFB8201237B7508E0FB79394A32F813203B8AD31AFB8200237B757B7D002B18D1FB8A142B15D9FB795F
:4012C000324AD35C042B08D9FB791846FFF762FFFB792E4A0021D1543AE0FB792B4AD25C0132D1B2294AD15432E0FA8A7B8A9A4205D9FB8A132B2BD87B7D002B28D1FB79AE
:40130000214A32F813301B02FB60FB79204AD35C1A46FB681343FB603B8AFA681344FB60FB79194A32F813301A46FB689B1AFB60FB79FA68120A91B2134A22F81310FB79A9
:40134000FA68D1B2124AD154FB79104A0021D154FA8A7B8A9A4208D97B7D002B05D0FB790C49FA8A21F8132004E0FB79094A002122F813101837BD4680BD00BF341F000072
:401380002C81FF1FCC81FF1FEC81FF1F0882FF1FFC81FF1FDC81FF1F80B582B000AF0023FB7118E0FB79DB08BB71FB7903F00703012202FA03F37B71BB790A4AD25C7B7972
:4013C0001340DBB2002B03D0FB791846FFF744FFFB790133FB71FB79062BE3D90837BD4680BD00BF0C81FF1F80B487B000AF0346FB71FB79DB08BB75FB7903F007030122BC
:4014000002FA03F37B75FB793A4AD35C3B753B7D394A32F813307B823B7D384A32F813303B823B7D364AD35CFB733B7D002B06D10223FB75FB7D334A0121D15402E03B7DF0
:40144000013BFB75BB7D304AD25C7B7D1340DBB2002B19D0FB792D4A32F8133019467A8A3B8AD31A994233DABB7DBA7D2649895C7A7DD243D2B20A40D1B2234AD154FB7D75
:401480002049FA7BCA5423E0FB79204A32F8133019467A8A3B8A1344994215DDFB7D194AD35C012B08D8BB7DBA7D1749895C7A7D0A43D1B2144AD154FB7D124AD25C013A45
:4014C000D1B2104AD15403E0FB7D0E49FA7BCA54BB7D0D4AD25C7B7D1340DBB2002B01D0012300E0002318461C37BD465DF8047B704700BF341F00002481FF1F3481FF1F06
:401500003C81FF1F6881FF1F0482FF1FDC81FF1F80B584B000AF0346FB71FB790F4AD35CFB73FB790E4AD25CFB7B13447B730023BB73FB7B1846FFF757FF0346002B01D008
:401540000123BB73FB7B0133FB73FA7B7B7B9A42EFD3BB7B18461037BD4680BD3C1F0000401F000080B582B000AF0023BB710023FB710BE0FB791846FFF7CAFF0346002B3F
:4015800001D00123BB71FB790133FB71FB79022BF0D9BB7918460837BD4680BD80B485B000AF0346FB710B46BB711346BB80FF23BB730023BB81FB795B00164A1344BB604D
:4015C0000023FB731AE0FB7B5B00BA6813441B88BA889A420FD2FB7B5B00BA6813441B88BA899A4207D2FB7BBB73FB7B5B00BA6813441B88BB81FB7B0133FB73FA7BBB7901
:401600009A42E0D3BB7B18461437BD465DF8047B704700BFDC81FF1F90B488B000AF0446084611461A462346FB710346BB710B467B7113467B800023FB770023BB77BB7901
:401640005B00494A1344BB61FB79002B02D0FB79013BFB77FB790133BB77FB795B00BA6913441A88414B5A80FB79002B0AD13F4B00221A80BB7F5B00BA6913441A883B4B54
:401680009A801DE0FA797B79013B9A420AD1FB7F5B00BA6913441A88344B1A80334B00229A800DE0FB7F5B00BA6913441A882F4B1A80BB7F5B00BA6913441A882B4B9A80C2
:4016C0002A4B1B883A8D9A4207D2284B1A883B8DD31A9AB2254B1A8002E0244B00221A80224B5A883B8DD31A9AB2204B5A801F4B9B883A8D9A4207D21C4B9A883B8DD31A4D
:401700009AB21A4B9A8002E0184B00229A80174B9B881A46154B1B88D31A7B61134B1B881A46124B5B881344104A928813443B617B691B021A463B6992FBF3F3FA7912024E
:4017400013443B617B881AB23B6902FB03F33B613B6903F5FE431B0CFB73FB7B18462037BD4690BC704700BFDC81FF1F6C81FF1F90B587B002AF0346FB71FB79174AD35CA6
:401780007B73FB79164AD35C3B73FB79154A32F81330797B3A7B084611461A46FFF7FEFE0346FB72FB7AFF2B0FD04FF4C854FB790D4A32F81330F87A797B3A7B00932346C8
:4017C000FFF72AFF0346FB8102E04FF6FF73FB81FB8918461437BD4690BD00BF3C1F0000401F00002481FF1F2C81FF1F80B500AF1A4B1B78DBB21846FFF74AFC184B1B7873
:40180000DBB2DBB25BB2002B08DA154B1B78DBB223F00103DAB2124B1A701DE00F4B1B78DBB21846FFF7E6FA03461A460B4B1A700A4B1B78DBB2062B06D8084B1B78DBB23F
:401840001846FFF7F9FB07E0054B1B78DBB223F00103DAB2024B1A7080BD00BFC881FF1FC981FF1F80B584B000AF78607B681B78FB73FB7B304AD35CBB73FB7B7A68527841
:40188000D1B22E4AD154BB7B7A689278D1B22C4AD1547B68DA78D2B21B79DBB21B021343BB81BB7BBA89120291B2BA89120A92B292B20A4392B291B2224A22F813107B6828
:4018C0005A79D2B29B79DBB21B021343BB81BB7BBA89120291B2BA89120A92B292B20A4392B291B2184A22F813107B68DA79D2B21B7ADBB21B021343BB81BB7BBA891202FF
:4019000091B2BA89120A92B292B20A4392B291B20E4A22F81310BB7B7A68527AD1B20C4AD154FB7B7A68927AD1B20A4AD154FFF77FFC1037BD4680BD341F00001081FF1FD8
:401940001881FF1F2481FF1F2C81FF1F3481FF1F3C81FF1F1C81FF1F80B483B000AF78607B6804221A707B685A7800225A709A78002242F03E029A707B68012283F8302016
:401980007B6893F83120002242F0190283F8312093F83220002242F0400283F832200C37BD465DF8047B704780B485B000AF786000BF7B681B78DBB2042BFAD10023FB73DF
:4019C0004CE0FB7BFA7B2B4931F81220120290B2FA7B284931F81220120A92B292B201460A4392B291B27A685B0013440A46A3F80520FB7BFA7B204931F81220120290B202
:401A0000FA7B1D4931F81220120A92B292B201460A4392B291B27A6808335B0013440A46A3F80320FB7BFA7B144931F81220120290B2FA7B114931F81220120A92B292B20D
:401A400001460A4392B291B27A680C335B0013440A46A3F80920FB7B0133FB73FB7B062BAFD97B6884221A701437BD465DF8047B704700BFCC81FF1FEC81FF1FDC81FF1F01
:401A800080B584B000AF78607B685A78D2B29B78DBB21B021343FB81FB891B029AB2FB891B0A9BB29BB213439BB21BB20C4A934212D17B683333BB60B868FFF7D3FE7B6892
:401AC0005A7800225A709A78002242F03E029A707B68002283F830201037BD4680BD00BF3E80FFFF80B500AF002000F047F8144A134B1B78DBB243F02003DBB21370104AD7
:401B00000F4B1B78DBB223F00403DBB213700C4A0B4B1B78DBB243F00803DBB21370094A084B1B78DBB223F01803DBB21370054A044B1B78DBB243F01003DBB2137080BD92
:401B400042580040D75A004080B400AF094A094B1B78DBB243F00403DBB21370064A064B1B78DBB243F00403DBB21370BD465DF8047B7047A7430040B743004080B483B0C2
:401B800000AF0346FB71164B154A1278D2B2D2B222F00302D1B2FA7902F00302D2B20A43D2B2D2B21A70FB79012B0AD10D4B0E4A1278D2B21A700D4B0D4A1278D2B21A70FE
:401BC00009E0084B0B4A1278D2B21A70074B0A4A1278D2B21A700C37BD465DF8047B70474258004034460040120100493546004016010049B1010049B901004980B500AFC0
:401C00000D4B14221A700D4B00221A700B4A0B4B1B78DBB243F00403DBB21370074A074B1B78DBB243F00203DBB21370002000F021F800F08FF880BD28580040295800400A
:401C400080B400AF094A094B1B78DBB243F00403DBB21370064A064B1B78DBB243F00403DBB21370BD465DF8047B7047A8430040B843004080B483B000AF0346FB710C4A50
:401C80000B4B1B78DBB223F00203DBB213700849074B1B78DAB2FB7903F00203DBB21343DBB20B700C37BD465DF8047B704700BF2858004080B582B000AF0346FB710C4AFC
:401CC0000B4B1B78DBB223F00403DBB213700849074B1B78DAB2FB7903F00403DBB21343DBB20B7000F036F80837BD4680BD00BF2958004080B582B000AF0346FB710C4AEB
:401D00000B4B1B78DBB223F00C03DBB213700849074B1B78DAB2FB7903F00C03DBB21343DBB20B7000F016F80837BD4680BD00BF2858004080B483B000AF0346FB71044AC3
:401D4000FB7913700C37BD465DF8047B704700BF825B004080B483B000AF104B1B78DBB203F00C035B08FB710D4B1B78DBB203F00403DBB2002B02D0FB790133FB71094AFA
:401D8000FB7903F1924303F594731B78DBB213700C37BD465DF8047B704700BF28580040295800400A46004080B500AF00F002F880BD00BF80B582B000AF0023FB7106E04E
:401DC000FB791846FEF728FBFB790133FB71FB79092BF5D90837BD4680BD00BF80B400AF094A094B1B78DBB243F00103DBB21370064A064B1B78DBB243F00103DBB2137038
:401E0000BD465DF8047B7047A2430040B24300400E4B70B51E460E4C0025E41AA410A54204D056F8253098470135F8E700F08CF8084B094C1E46E41AA4100025A54204D043
:401E400056F8253098470135F8E770BD541F0000541F0000541F00005C1F000010B5431E0A44914204D011F8014B03F8014FF8E710BD03460244934202D003F8011BFAE735
:401E800070470000000000000C5100400C5100400C5100400C5100400C5100400C5100400C510040FC510040D35A0040935A0040204001020408101001100000C849004008
:401EC000190010510040600000000140001000140140000800400140000A004C014000020050014020000000055000400650004000500040015000400250004003500040DE
:401F00000450004000000000000000002040010204081000065200400E520040165200401E520040265200402E520040365200407E520040010200000000000002000100A8
:401F40000501010000190000F8B500BFF8BC08BC9E4670474D00000035010000F8B500BFF8BC08BC9E46704729000000801F00000881FF1F38000000D00000000000000049
:401F8000000000007F0000002B293031292622003F3F1F00020203030303030054007C00420000002A002D002100000000001200090000000105050000000000000000001C
:401FC00000000000000000000000000000000000000000000000000000000000000000000000000000000000000000000000000000000000000000000000000000000000E1
:4020000000000000000000000000000000000000000000000000000000000000000000000000000000000000000000000000000000000000000000000000000000000000A0
:402040000000000000000000000000000000000000000000000000000000000000000000000000000000000000000000000000000000000000000000000000000000000060
:402080000000000000000000000000000000000000000000000000000000000000000000000000000000000000000000000000000000000000000000000000000000000020
:020000040003F7
:0200000480007A
:40000000035200400864004001030140010701402F0801402C090140460A01402C0B0140500C01402E0D0140031501400117014001190140031B014004400140034101406B
:40004000034201400443014004460140024701400348014010490140084C0140064D01400350014002510140067F6001640309FF0CFF0DFF1CFF1DFF2CFF2DFF8A1FEA0257
:40008000E20284048503860288028A048F0193049406950297019B029F08A001A401A804A901AB02AD04AF08B303B406B50CB601B880BF10C012C545C602C807C9FFCAFFD4
:4000C000CBFFCC02CD20CF05D110D217D804D904DA04DB04DF01E040E140E280E480E6800004012009081088122019301A021B2021082208230429503108329138043940D6
:400100004004414048804A205140680869446A20714087049004954496029D10A280A608A720AB80AC02C006C204C40ECA0CCC0FCE0AD00CEA01EC020008041E0704081C3D
:4001400009060A020C010F0110021102130415011704180E19011A101D041E011F02200423022506281229072A0C2C1E2F0230013106321E340135014004410249FF4AFF45
:400180004BFF4C024D0C4EF85602580459045A045B045E085F01624863A168F06AF06CF06EF0C006C103C5A0C9FFCAFFCBFFCC03CD0CCEF4DA04DF01E248E3A1E8F0EAF088
:4001C000ECF0EEF00180024003280A4611221202184019041B18200421102212230829142A42325A39443B10404447084E804F20724079209284931095049642980299802F
:400200009A429F80A111A60AA728C00FC20BC40BCA0FCC0FCE0ED045D220DE040E0F1407161018061A082C092E043204340336183E544031410245064606472048255804E1
:400240005A045F01610C62F0630C650C670C6840694C6A406B4C6C906D586F0C840588018A048C058D529204976098059B039E029F7BA129A578A601A704AA01AC05AD7B65
:40028000B004B160B318B401B507B602BF15C042C103C506C702C811D608D804D904DA04DB0FDF01E10CE2F0E30CE50CE70CE840E94CEA40EB4CEC90ED58EF0C032A048082
:4002C00008010A460F381104120A1602188019801A841B121DA82044210428022A022B10302832403A404044410445A848204F085008550156425B80600278018C408D101C
:40030000A602AE02C087C26BC487CA0BCC0ECE08D077D608D808DE01E008E401EA05E201E201E008E401EA0530207380CC10DC809F80AC20EA403E109F80CE208780961067
:400340009F80E24002043B20C002CE08AA04AF1080089610E2801220164070087710822086409B10A008AA10AB10C430DC80DE20E010E480EAA01108132017047B107F40B2
:400380008304C40EDE03831087409780A710A904AB2000010C010E01000303C000007F000000000003000000030003000003000000020000000000000000000000001000E3
:4003C00000000000000000000000000000000000000000000000000000000000000000000000000000000000000000000000000000000000000000000000000000000000FD
:4004000000000000000000000000000000000000000000000000000000000000000000000000000000000000000000000000000000000000000000000000000000000000BC
:40044000000000000000000000000000000000000000000000000000000000000000000000000000000000000000000000000000000000000000000000000000000000007C
:40048000000000000000000000000000000000000000000000000000000000000000000000000000000000000000000000000000000000000000000000000000000000003C
:0200000490006A
:0400000000004005B7
:0200000490105A
:04000000BC90ACAF55
:0200000490303A
:02000000956900
:0200000490402A
:4000000000000000000000000000000000000000000000000000000000000000000000000000000000000000000000000000000000000000000000000000000000000000C0
:400040000000000000000000000000000000000000000000000000000000000000000000000000000000000000000000000000000000000000000000000000000000000080
:400080000000000000000000000000000000000000000000000000000000000000000000000000000000000000000000000000000000000000000000000000000000000040
:4000C0000000000000000000000000000000000000000000000000000000000000000000000000000000000000000000000000000000000000000000000000000000000000
:0200000490501A
:0C00000000012E16106900012E23A5D26D
:00000001FF