:4000000000800020110000005D0100005D01000080B500AF024A034B1B68136000F0A2F8BC760040FA46004010B5054C237833B9044B13B10448AFF300800123237010BDC1
:400040006081FF1F000000007C310000084B10B51BB108480849AFF300800848036803B910BD074B002BFBD0BDE81040184700BF000000007C3100006481FF1F0881FF1F37
:400080000000000080B586B000AFFF23FB7502F00DFE62B60020012100F096FA02F062FF034603F01003002B1CD002F0C5FF0346032B0ED1114B1B78012B0AD10F4B9B7895
:4000C000172B06D10D4B5B78184600F01BF80346FB7502F0C9FF02F077FF094AFB7D5370FF23FB7502F03EFF034603F00103002B03D002F0ADFF02F041FFCFE78881FF1F46
:400100002C81FF1F80B584B000AF78600023FB7300F024FC0346002B06D000F013FC0346002B01D000F094FD00F00CFC0346002B0CD000BF00F066FE0346002BFAD006486D
:4001400000F0F2FD4FF4FA7002F06AFCFB7B18461037BD4680BD00BFB031000080B400AFFEE700BF80B586B000AF224B7B61224B3B61204B7B6135E03B691B68FB603B692B
:400180005B68BB603B699B683B6000237B600CE0FB681A68BB681A60BB680433BB60FB680433FB607B6804337B607A683B689A42EED13B69DB683B6000237B6008E0BB68A9
:4001C00000221A60BB680433BB607B6804337B607A683B689A42F2D13B6910333B617B69013B7B617B69002BC6D102F08DFFFFF749FFFEE7010000004C35000080B582B026
:4002000000AF174B174A1A60174A174B1B6843F40073136000237B600FE07B68032B04D8124A7B6852F8233000E0114B11497A6841F822307B6801337B607B682F2BECD9C2
:400240000D4B1B78DAB20D4B1A700D4B094A1A6000F01CF90B4B00221A600837BD4680BD0CED00E00004FA0514ED00E0000000005D0100000080FF1FBC7600400481FF1FBC
:4002800008ED00E00081FF1F80B582B000AF78603960786800213A6802F067FF0837BD4680BD00BF80B584B000AFF860B9607A60F868B9687A6802F04DFF1037BD4680BD7F
:4002C00080B584B000AFF860B9607A60F868B9687A6802F03FFF1037BD4680BD80B483B000AF0346FB71FEE780B487B000AF7860396000233B6100237B6127E07B699B0002
:400300007A6813441B68BB60BB68FB73BB6823F0FF03BB6014E03B695B003A6813441B781A46BB68134419463B695B003A6813445B780B703B6901333B61FB7B013BFB7370
:40034000FB7B002BE7D17B6901337B617B69192BD4D91C37BD465DF8047B704780B582B000AF2B482B490422FFF7AAFF2A4B06221A702A4B52221A70294B2A4A1278D2B228
:400380001A70294B40F618021A80284B41F251221A800023FB7019237B6014E0FB785B00DAB2234B1B78DBB203F00103DBB21343DBB203F00303FB704FF4F07002F0F8FACF
:4003C0007B68013B7B607B68002B02D0FB78032BE4D17B68002B02D10320FFF77FFF154B4FF480721A80134B07221A70124B00221A70124B48221A700E4B00221A70104B5B
:4004000000221A700F4B02221A700837BD4680BD00410040B83100000043004000420040A14600400F0100492242004020420040254200400440004006400040084000401B
:40044000094000400140004080B483B000AF0B4B1B78FB710A4AFB7903F00703DBB21370084AFB791B09DBB21370074B44221A700C37BD465DF8047B704700BFCF0100494D
:400480006E5800406F5800407658004080B582B000AF72B6394B60221A70FFF75FFF374B00221A70364A364B1B78DBB243F00403DBB213700023FB7113E0FA7913465B00BD
:4004C00013445B002F4A13443B603B681A683B689B889BB210461946FFF7D6FEFB790133FB71FB79082BE8D927482849FFF7FCFE274A274B1B78DBB243F00203DBB2137091
:40050000244A244B1B78DBB243F00203DBB21370214A214B1B78DBB243F04003DBB213701E4A1E4B1B78DBB243F01003DBB213701B481C490A22FFF7C3FE1B481B490A2214
:40054000FFF7BEFE1A481B490822FFF7B9FE1A481A490822FFF7B4FE194A194B1B78DBB243F00803DBB21370FFF76EFF15480A490E22FFF797FE0837BD4680BD004800408B
:40058000E8460040BC310000F43100005C3200000350014013500140A0430040C24300400051004018330000F05100402433000012510040303300003251004038330000A5
:4005C00022430040B043004080B582B000AF03460A46FB711346BB71084B1B78002B04D100F00EF8054B01221A70FA79BB791046194600F0D5F80837BD4680BD7C81FF1FF7
:4006000080B582B000AF02F0F2F90346FB71534A524B1B78DBB243F00103DBB21370504A4F4B1B78DBB243F00103DBB213704D4B01221A704C4B02221A704C4A4B4B1B788D
:40064000DBB203F07F03DBB21370002002F00AFA474A474B1B78DBB223F00603DBB21370444A444B1B78DBB223F02003DBB213703F4A3F4B1B78DBB243F00103DBB21370E6
:40068000012002F0EFF9282002F0ECF93A4A3A4B1B78DBB203F07F03DBB21370364A364B1B78DBB223F04003DBB21370304A304B1B78DBB243F00203DBB21370022002F07A
:4006C000D1F92B4A2A4B1B78DBB243F00403DBB213702A4B00221A70294B00221A70FB79184602F088F91720072102F0F5F91720244902F0C9F91820072102F0EDF918204F
:40070000214902F0C1F91520072102F0E5F915201E4902F0B9F90020072102F0DDF900201B4902F0B1F90120072102F0D5F90120184902F0A9F90220072102F0CDF90220C3
:40074000154902F0A1F90C20072102F0C5F90C20124902F099F90837BD4680BDA5430040B54300409D60004009600040106000409443004012600040F85100408460004095
:4007800085600040ED150000BD0E0000E1150000DD1400003115000085150000A119000080B584B000AF03460A46FB711346BB710023FB7306E0FB7B324A0121D154FB7BFE
:4007C0000133FB73FB7B012BF5D92F4AFB7913702E4B00221A702E4B00221A702D4B00221A702D4B00221A702C4B00221A702C4B00221A702B4B00221A702B4B4FF40002C2
:400800001A60294B4FF080721A60274B4FF400121A60254B01221A60234B02221A60224B04221A60BB79002B02D0012B09D011E01E4A1E4B1B78DBB223F00103DBB2137079
:4008400011E01A4A194B1B78DBB243F00103DBB2137008E0154A154B1B78DBB243F00103DBB2137000BF124B03221A70114B80221A70012002F09CF80F4B04221A701037FF
:40088000BD4680BD4082FF1FA581FF1FA881FF1FC481FF1FC781FF1FBC81FF1FC681FF1FC981FF1FA481FF1F00E100E00960004028600040086000401260004080B483B066
:4008C00000AF0023FB7106E0FB79144A0121D154FB790133FB71FB79012BF5D9104B00221A70104B00221A700F4B00221A700F4B00221A700E4B00221A700E4B00221A7015
:400900000D4B00221A700D4B03221A700C4B80221A700C37BD465DF8047B70474082FF1FA881FF1FC481FF1FC781FF1FBC81FF1FC681FF1FC981FF1FA481FF1F2860004035
:400940000860004080B400AF034B1B78DBB21846BD465DF8047B7047C781FF1F80B483B000AF0023FB71094B1B78DBB2002B05D0064B1B78FB71054B00221A70FB791846F5
:400980000C37BD465DF8047B704700BFC481FF1F80B483B000AF0346FB71FA79064913465B0013449B000B445B78DBB218460C37BD465DF8047B7047CC81FF1FB0B485B02F
:4009C00000AF03463960FB711346BB80FB79002B66D0FB79082B63D8B988FA79324813465B0013449B000344DB889BB2C3F5007399420BD9FA792C4913465B0013449B006C
:400A00000B44DB889BB2C3F50073BB80274CF979BB881B0A9BB2D8B2FA79234D13465B0013449B002B44DB78DBB20343DAB20B0123441A701D4AFB79B988C9B21B0113447C
:400A40000A465A703B68002B13D00023FB810CE01748FB79FA8939680A4412781B01034408331A70FB890133FB81FA89BB889A42EED3FA790C4913465B0013449B000B44D5
:400A800000225A700948F979FA79074C13465B0013449B0023445B79DAB20B0103449A701437BD46B0BC7047CC81FF1FFC5F00407060004090B482B000AF0346FB71FB7922
:400AC000002B19D0FB79082B16D8FA790C4913465B0013449B000B4400225A700948F979FA79074C13465B0013449B0023445B79DAB20B0103449A700837BD4690BC70470C
:400B0000CC81FF1FFC5F004080B582B000AF0023FB71324B1B79DBB2184600F069F80346BB712E4B1B78DBB2DBB25BB2002B16DA2A4B5B78DBB2212B00D00FE0284B07227E
:400B40001A80BA791346DB009B1A264A1344244A536000F02DFB0346FB7100BF38E01F4B5B78DBB2202B02D0222B1AD030E01C4B07221A80BA791346DB009B1A194A134405
:400B8000174A5360BB79BA7917498A5CD2B242F00102D1B2144AD15400F08AFB0346FB7116E0BB790D4A9278D2B291B20F4A22F81310BB79BA790C498A5CD2B242F0020247
:400BC000D1B2094AD15400F00FFC0346FB7100BFFB7918460837BD4680BD00BF00600040B081FF1F3081FF1F8C81FF1FA081FF1F80B485B000AF0346FB710023FB73FF23D3
:400C0000BB7317E0FB7B104AD35C7B737A7B0F4913465B0013449B000B4408339B78DBB2FA799A4203D1FB7BBB730223FB73FB7B0133FB73FB7B012BE4D9BB7B18461437D5
:400C4000BD465DF8047B70479481FF1FCC81FF1F80B582B000AF0023BB71224B00221A70214B00221A70204B00225A700023FB7110E0FB791D4AD35C7B717B79002B06D0F1
:400C80007B79082B03D87B791846FFF713FFFB790133FB71FB79012BEBD9154B1B78DBB2002B18D0114B1B78DBB2002B13D0114B1B78DBB2002B0ED00D4B1B78DBB2082B13
:400CC00009D80A4B1B78DBB2082B04D8094B1B78DBB2082B01D90123BB71BB7918460837BD4680BD7D81FF1F8C81FF1F9881FF1F9081FF1F9481FF1F80B485B000AF7860DD
:400D00000023FB8102E0FB890133FB81FB897A6813441B78002BF6D1FB8918461437BD465DF8047B704700BF80B584B000AF78600023BB81304B1B781A46304B9B5CFB72A6
:400D40007868FFF7D9FF0346FB81FA7A2C4913465B0013449B000B4408331B889BB2FA899A420AD9FA7A264913465B0013449B000B4408331B889BB200E0FB893B81BB894E
:400D80007A681A44F97A3B89084611461A46FFF715FEFA893B89D31AFB81FB89002B0CD1FA7A174913465B0013449B000B4408331B889BB23A899A4218D1BA893B89134498
:400DC000BB8100BFFA7A0E4913465B0013449B000B445B78DBB2002BF4D0FB89002B05D1FB7A184600210022FFF7E8FDFB89002BABD11037BD4680BD7D81FF1F9081FF1F76
:400E0000CC81FF1F80B500AF054B1B781A46054B9B5CDBB21846FFF7BBFD0346184680BD7D81FF1F9081FF1F80B485B000AF78600B46FB701346BB707B68DB7803F00303B2
:400E4000FB737B689B78DBB25BB2002B1ADAFB7B032B0AD0BB7803F001031549FA78CA54BB7843F00103BB701BE0BB789B08DBB203F001030F49FA78CA54BB7843F0040380
:400E8000BB700EE0FB7B032B0BD0BB785B08DBB203F001030849FA78CA54BB7843F00203BB70BB7818461437BD465DF8047B70479081FF1F9481FF1F9881FF1F80B582B09F
:400EC00000AF374B1B78BB71BB7903F01003002B63D00123FB71BB795BB2002B13DABB7903F00F03012B02D00023FB711DE000F061F82C4B1B78DBB2DBB25BB2002B14DA2B
:400F00000023FB7111E0BB7903F04003002B02D000F094F809E0BB7903F02003002B02D000F0B2F801E00023FB71FB79002B34D01B4B1B78BB71BB795BB2002B2DDB1A4B73
:400F40001B78DAB2194B1B78DBB21343BB71184ABB791370164B1B78DBB2BA799A421CD1104B1B78FB710E4B1B78DBB223F07F03BB71BB79002B0AD1094B0A4A1278D2B232
:400F80001A70074B1B78DBB203F00F03FB71054B1B78DBB2FA799A42E2D10837BD4680BD28600040C581FF1F3A82FF1FC881FF1F2960004080B582B000AF1D4B1B78FB7120
:400FC0001B4AFB7913701A4B1B78FB71FB795BB2002B03DA174AFB79137025E0022000F043FA154B1B78DBB203F06003202B08D0402B0BD0002B0ED100F0D8FC0346FB713A
:401000000CE002F03DF80346FB7107E001F094FC0346FB7102E00023FB7100BFFB79002B02D1044B03221A700837BD4680BD00BF28600040C581FF1F0060004080B500AF3D
:40104000104B1B78DBB2062B19D801A252F823F07F1000007F1000006D1000007F100000731000007F1000007910000000F0FAF806E000F0A9F903E000F0D2F900E000BF77
:4010800080BD00BFA881FF1F80B500AF124B1B78DBB2062B1DD801A252F823F0D3100000D3100000B9100000D3100000BF100000D3100000C510000000F0DAF80AE000F0D1
:4010C00029F907E0032000F0CFF9044B03221A7000E000BF80BD00BFA881FF1FC581FF1F80B483B000AF0023FB71294B1B78DBB29AB2284B1B889BB213449AB2254B1A8033
:4011000015E02549FB79254A52681278D2B2CA54224B5B680133214A5360FB790133FB711E4B1B889BB2013B9AB21C4B1A801B4B1B889BB2002B02D0FB79072BE1D9144BF9
:401140001B78DBB2082B02D0FB79002B0FD0144B1B78DBB283F07F03DB43DAB2104B1A70104B0F221A70104B02221A7005E00D4B02221A700C4B02221A700C4AFB7913706D
:40118000034AFB7913700C37BD465DF8047B7047A481FF1FA681FF1F00600040B081FF1F3A82FF1FC581FF1FA881FF1FC881FF1F80B582B000AF164B1B889BB2002B02D152
:4011C00000F02EF81EE0134B02221A70124B00221A7000F069F9114BDB79DBB29BB21B029AB20E4B9B79DBB29BB21343FB80084B1B889BB2FA889A4202D2054AFB8813808F
:40120000FFF76EFF012318460837BD4680BD00BFB081FF1FA881FF1F3A82FF1F0060004080B400AF0A4B02221A700A4B80221A70094B0F221A70094B00221A70084B002290
:401240001A7001231846BD465DF8047B704700BFA881FF1F3A82FF1FC581FF1FA481FF1FC881FF1F80B500AFFFF73AFF80BD00BF80B500AF0A4B1B78DBB29AB2094B1B883B
:401280009BB213449AB2074B1A80074B00221A70012000F0E9F8054B03221A7080BD00BFA481FF1FA681FF1FA881FF1FC581FF1F80B582B000AF124B04221A70114B802213
:4012C0001A7000F0F1F8104BDB79DBB29BB21B029AB20D4B9B79DBB29BB21343FB800B4B1B889BB2FA889A4202D2084AFB881380074B0B221A70012318460837BD4680BD98
:40130000A881FF1F3A82FF1F00600040B081FF1FC581FF1F80B483B000AF0023BB71234B1B78DBB203F00F03DBB2023BFB71FB799AB21F4B1B889BB213449AB21C4B1A804D
:4013400018E01C4B5B681C49BA798A5CD2B21A70184B5B680133174A5360BB790133BB71FB79013BFB71134B1B889BB2013B9AB2104B1A800F4B1B889BB2002B02D0FB791B
:40138000002BDED10D4AFB7913700D4B1B78DBB283F07F03DB43DAB2094B1A70094B0B221A700C37BD465DF8047B704729600040A681FF1FB081FF1F00600040C881FF1FD0
:4013C0003A82FF1FC581FF1F80B500AF044B00221A70012000F048F8024B03221A7080BDA881FF1FC581FF1F80B400AF084B06221A70084B06221A70074B80221A70074BDE
:4014000000221A7001231846BD465DF8047B7047A881FF1FC581FF1F3A82FF1FC881FF1F80B500AF0C4B1B78DBB2002B0AD00B4A094B1B78DBB263F07F03DBB21370064BA5
:4014400000221A70064B00221A70012000F00CF8044B03221A7080BDC681FF1F08600040A881FF1FC581FF1F80B483B000AF0346FB710B4B9B68002B0CD0094B9B68FA79C6
:401480001A70074B9B68074A128892B25A80044B00229A600C37BD465DF8047B704700BFB081FF1FA681FF1F80B400AF094B00221A80094B9B68002B07D0074B9B680022F2
:4014C0001A70054B9B6800225A80BD465DF8047B704700BFA681FF1FB081FF1F80B400AF104A104B1B78DBB223F00103DBB213700D4B9B7C0D4B1B7BDBB203F00303012B44
:4015000008D00A4BDB7BDBB283F07F03DB43DAB2064BDA73054B01225A73BD465DF8047B704700BF0B600040FC5F0040CC81FF1F80B400AF104A104B1B78DBB223F0020350
:40154000DBB213700D4B93F822300D4B1B7EDBB203F00303012B08D0094BDB7EDBB283F07F03DB43DAB2064BDA76054B01225A76BD465DF8047B70470B600040FC5F00401A
:40158000CC81FF1F80B400AF124A124B1B78DBB223F00403DBB213700F4B93F832300F4B93F82430DBB203F00303012B0AD00B4B93F82730DBB283F07F03DB43DAB2074B18
:4015C00083F82720054B012283F82520BD465DF8047B70470B600040FC5F0040CC81FF1F80B400AFBD465DF8047B704780B500AFFFF764F980BD00BF80B582B000AF0023DA
:40160000FB716C4B1B79BB716A4B1B78DBB2DBB25BB2002B6DDA674B5B78DBB2013B052B65D801A252F823F087160000A1160000CD160000EF160000EF1600004116000093
:401640005C4BDB78DBB2212B0BD100F0BDF85A4B1B889BB2002B15D0FFF7AAFD0346FB7146E0544BDB78DBB2222B0BD100F0EAF8514B1B889BB2002B04D0FFF799FD03461F
:40168000FB7135E034E000F025F94B4B1B889BB2002B04D0FFF78CFD0346FB7128E027E0BB79012B11D8434B9B78DBB2002B0CD1414B01221A80BB79404A13443E4A5360A7
:4016C000FFF776FD0346FB7112E011E0BB79012B0CD8394B01221A80BB79394A1344364A5360FFF765FD0346FB7101E000E000BF5AE0304B5B78DBB20A2B11D00B2B3FD026
:40170000092B00D050E000F0E5F82B4B1B889BB2002B04D0FFF7CCFD0346FB7144E043E0BB79012B2BD8234B9B78DBB2002B26D1BB79204AD278D1B2204AD154BB791F4A5E
:40174000D35CDAB2BB791F49CB5CDBB29A4204D2BB791C4A0021D1540CE0BB79194AD35CDBB2012B06D9BB79BA7914498A5CD1B2144AD154FFF738FE0346FB7114E013E00A
:40178000BB79012B0FD80B4B9B78DBB2012B0AD8BB79084A9278D1B2094AD154FFF724FE0346FB71FFE700BFFB7918460837BD4680BD00BF00600040B081FF1F4882FF1FFA
:4017C0004082FF1F4482FF1F80B584B000AF194B1B78DBB2013BDBB2184600F00DFFF860154B1B79FB72FB7A0233DB00FA681344FB60FB685B68FB60FB7A104AD35CDBB208
:40180000DB00FA681344FB60FB685B68FB60FB682033FB60FB685B687B607B681B78DBB29AB2074B1A80064A7B6853601037BD4680BD00BFC781FF1F006000403882FF1FE1
:40184000B081FF1F80B584B000AF1E4B1B78DBB2013BDBB2184600F0CFFEF8601A4B1B79FB72FB7A0233DB00FA681344FB60FB685B68FB60FB7A154AD35CDBB2DB00FA68EF
:401880001344FB60FB685B68FB60FB681833FB60FB685B687B607B6801331B78DBB29BB21B029AB27B681B78DBB29BB213439AB2074B1A807B680233054A53601037BD46BC
:4018C00080BD00BFC781FF1F006000403882FF1FB081FF1F80B584B000AF2D4B00221A802C4B1B78DBB2013BDBB2184600F084FEF860294BDB78FB72274B1B79BB72BB7A4F
:401900000233DB00FA681344FB60FB685B68FB60BB7A012B38D8BB7A204AD35CDBB2DB00FA681344FB60FB685B68FB60FB7A002B2AD0FB7A032B27D8FB7A03F10053013B92
:40194000DB00FA681344FB60134B9B78FB72FB681B78FA7A9A4217D8FB685B687B60FA7A13465B0013449B001A467B6813447B607B685B68064A53607B681A88044B1A80BE
:401980007B689B68024A93601037BD4680BD00BFB081FF1FC781FF1F006000403882FF1F80B500AF00F0F2FF80BD00BF80B586B000AF0023FB759D4B1B78FB7100233B617B
:4019C0009B4B00221A80FB795BB2002B80F20481964B5B78DBB20A2B00F2FC8001A252F823F000BF2D1B0000D51B0000D51B0000D51B0000D51B0000D51B0000111A0000DC
:401A0000D51B00009F1B0000D51B0000B51B0000864BDB78DBB2012B0ED100F017FEB860BB685B68824A5360814B12221A80FFF7BFFB0346FB7578E07C4BDB78DBB2022BCF
:401A400024D17A4B9B78DBB2184600F0D5FDB860BB68002B69D0BB685B68754A5360744B5B6803331B78DBB29BB21B029AB2704B5B6802331B78DBB29BB213439AB26C4BEE
:401A80001A80FFF795FB0346FB75A4E0674BDB78DBB2032B44D10023FB73664B3B6109E03B691B78BB71BB793A6913443B61FB7B0133FB735D4B9B78DBB2FA7B9A4204D279
:401AC0003B691B78DBB2002BEAD1584B9B78DBB2EE2B01D1584B3B61544B9B78DBB2002B0BD0524B9B78DAB2544B1B7C9A4204D1534800F0A1F9524B3B613B691B78DBB245
:401B0000002B12D03B691B78DBB29AB2484B1A80474A3B695360FFF74BFB0346FB755AE001F0AEFA0346FB7555E054E0FB7903F00303002B1FD0022B00D02FE03C4B02224B
:401B40001A803A4B1B79DBB203F07F023D4913465B0013449B000B449B78DAB23A4B1A70394B00225A70324B374A5A60FFF720FB0346FB7512E02E4B02221A80334B1B785C
:401B8000DAB2314B1A70304B00225A70284B2E4A5A60FFF70DFB0346FB7500BF1BE0244B01221A80224B2A4A5A60FFF701FB0346FB7510E01E4B01221A801C4B1B79DBB206
:401BC0001A46244B13441A4A5360FFF7F1FA0346FB7500E000BF19E1144B5B78DBB2013B0A2B00F2128101A252F823F0F71C00000B1E0000811D00000B1E0000191C000088
:401C00000B1E00000B1E00000B1E00005D1C00000B1E0000B31C0000044B9B78DAB20E4B1A70FFF7E1FB0346FB75EFE000600040B081FF1FAC330000EC3400005433000018
:401C40005C82FF1FCC81FF1F8081FF1FC981FF1FC781FF1F3882FF1FC681FF1F6E4B9B787B717B79002B06D07B79013BDBB2184600F0C2FCB8607B79002B02D0BB68002B06
:401C800002D17B79002B13D1644B1B78DBB27A799A4208D0614A7B791370614B01221A70012000F0C1F9FFF79FFB0346FB75ADE0ACE000F009FE0346002B1BD0564B1B79A5
:401CC0003B71554B1B79DAB2564B1A703B79564AD35CDAB23B795549CB5CDBB29A4204D04F4B01221A7000F069FBFFF77DFB0346FB758BE08AE0FB7903F00303012B22D066
:401D0000012B0DD3022B00D039E0434B9B78DBB2002B04D100F040FD0346FB752FE02EE03D4B9B78DBB2012B0CD1414B1B78DBB223F00203DAB23E4B1A70FFF755FB03462D
:401D4000FB751CE01BE0344B1B79DBB2012B15D8314B9B78DBB2DB43DBB22F4A1279D2B211461046334A125CD2B21340DAB2314B5A54FFF739FB0346FB75FFE700BF45E022
:401D8000FB7903F00303012B22D0012B0DD3022B00D039E0204B9B78DBB2002B04D100F08DFC0346FB752FE02EE01B4B9B78DBB2012B0CD11E4B1B78DBB243F00203DAB2C0
:401DC0001B4B1A70FFF710FB0346FB751CE01BE0114B1B79DBB2012B15D80F4B9B78DBB2DB43DBB20C4A1279D2B211461046114A125CD2B21340DAB20E4B5A54FFF7F4FADE
:401E00000346FB75FFE700BF00E000BFFB7D18461837BD4680BD00BF00600040C781FF1FC481FF1FBC81FF1FAC81FF1F3882FF1FC981FF1F3C82FF1FB0B58AB000AF786030
:401E4000314B07F114041D460FCD0FC42B682370002387F826307B68002B52D07B6822221A707B68013303221A7007F10C03184600F054FE022387F827303EE097F8273059
:401E80007A68134497F8262007F128010A4412F81C2C1209D2B207F128010A4412F8142C1A7097F8273001337A68134400221A7097F8273002337A68134497F8262007F151
:401EC00028010A4412F81C2C02F00F0207F128010A4412F8142C1A7097F8273003337A68134400221A7097F82630013387F8263097F82730043387F8273097F82730212BBF
:401F0000BCD92837BD46B0BD4033000090B482B000AF0123FB7174E03F4AFB791B0113440C221A70FA793D4913465B0013449B000B445B79DBB2002B1AD0FA7937491346E9
:401F40005B0013449B000B441B79DBB2DBB25BB2002B06DA324AFB791B0113440C229A700CE02F4AFB791B01134408229A7005E02B4AFB791B01134480229A702648F97917
:401F8000FA79264C13465B0013449B002344DB889BB2DAB20B0103449A711F48F979FA791E4C13465B0013449B002344DB889BB21B0A9BB2DAB20B010344DA711648F979B6
:401FC000FA79164C13465B0013449B002344DB889BB2DAB20B0103441A710F48F979FA790E4C13465B0013449B002344DB889BB21B0A9BB2DAB20B0103445A71FB790133CE
:40200000FB71FB79082B87D9064BFF221A700837BD4690BC704700BF70600040CC81FF1FFC5F00400A60004080B58AB000AF0346FB7100237B84002387F827304CE097F8C4
:402040002720C44913465B0013449B000B4400221A7097F82720BF4913465B0013449B000B4400229A7097F82720BA4913465B0013449B000B440022DA7097F82720B5495E
:4020800013465B0013449B000B44083300221A8097F82720AF4913465B0013449B000B44083300229A7097F82720AA4913465B0013449B000B4400225A7097F82720A5499C
:4020C00013465B0013449B000B4400225A7197F82730013387F8273097F82730082BAED9FB79002B16D0002387F825300EE097F82530994A0021D15497F82530974A002111
:40210000D15497F82530013387F8253097F82530012BECD9924B1B78DBB2002B00F049810023FB768E4B1B78DBB2013BDBB2184600F062FA78617B695B683B613B690733DD
:402140001B7803F04003002B08D0864B1B78DBB243F00103DAB2834B1A7007E0814B1B78DBB223F00103DAB27E4B1A707B6908337B617B691B7887F82730012387F825307E
:40218000B3E07B695B68FB61002387F82630A0E097F82520FB699B7803F07F039A4240F0908097F825206B4913465B0013449B000B4408331B889AB2FB699B889A420CD24D
:4021C00097F82520FB699888624913465B0013449B000B44083302461A80FB691B781A465D4B9B5CDAB2FB695B789A4269D197F82520FB699878574913465B0013449B006D
:402200000B4402461A7197F82520FB69D878514913465B0013449B000B4402461A70FB69DB7803F00303FB73FB699B78DBB25BB2002B1ADA97F82520FB7B012B01D10720D6
:4022400000E00D20434913465B0013449B000B4402465A7197F825203E4913465B0013449B000B4401225A7019E097F82520FB7B012B01D1052000E00920364913465B00DE
:4022800013449B000B4402465A7197F82520314913465B0013449B000B4400225A70FB699B790A2B03D0FB699B79022B09D197F82520FB7EF86911461A46FEF7B5FD034647
:4022C000FB76FB690833FB6197F82630013387F8263097F8262097F827309A42FFF458AF97F82530013387F8253097F82530082B7FF647AF7B695B68FB61002387F825308B
:4023000016E0FB699B7803F07F02FB691878114913465B0013449B000B44083302469A70FB690833FB6197F82530013387F8253097F8252097F827309A42E2D300F098F939
:402340000246094B1A6000237B84012387F8273029E000BFCC81FF1F3882FF1FAC81FF1FC781FF1FC981FF1FC081FF1F97F82720114913465B0013449B000B447A8CDA8023
:4023800097F827200C4913465B0013449B000B4408331B889AB27B8C13447B8497F82730013387F8273097F82730082BDED9FFF7ADFD2837BD4680BDCC81FF1F90B585B092
:4023C00000AF874B1B78DBB2002B00F00681844B1B78DBB2013BDBB2184600F00DF978607B6808337B607B681B78FB707B685B68BB607C4B1B78BB700023FB73E8E0BB681A
:402400001B78BA789A4240F0DD80BB78764AD35CDAB2BB685B789A4240F0D480BB689B7803F07F037B70BB68DB7803F003033B707A786E4913465B0013449B000B440022FA
:40244000DA707A78BB689878684913465B0013449B000B4402461A717A78BB68D878634913465B0013449B000B4402461A707A78BB6898885D4913465B0013449B000B44CC
:40248000083302461A80BB689B78DBB25BB2002B18DA7A783B78012B01D1072000E00D20524913465B0013449B000B4402465A717A784E4913465B0013449B000B440122F7
:4024C0005A7017E07A783B78012B01D1052000E00920464913465B0013449B000B4402465A717A78414913465B0013449B000B4400225A703E4A7B781B01134401229A703B
:402500003B4879787A78394C13465B0013449B00234408331B889BB21B0A9BB2DAB20B0103441A70324879787A78304C13465B0013449B00234408331B889BB2DAB20B01F4
:4025400003445A702B4879787A78284C13465B0013449B002344DB889BB2DAB20B0103449A71244879787A78204C13465B0013449B002344DB889BB21B0A9BB2DAB20B0157
:402580000344DA711B4879787A78184C13465B0013449B002344DB889BB2DAB20B0103441A71144879787A78104C13465B0013449B002344DB889BB21B0A9BB2DAB20B0156
:4025C00003445A71BB680833BB60FB7B0133FB73FA7BFB789A42FFF412AF1437BD4690BDC781FF1FBC81FF1F3882FF1FCC81FF1FFC5F00407060004080B485B000AF034615
:40260000FB71104B1B78DBB20F4ADB0013445B68FB60FB681033FB60FB681B78FA799A4202D30023FB6005E0FB79DB00FA6813445B68FB60FB6818461437BD465DF8047B83
:40264000704700BFA581FF1FE434000080B400AF054B1B78DBB2054ADB0013445B681846BD465DF8047B7047A581FF1FE434000080B584B000AF104B1B78DBB2013BDBB24D
:402680001846FFF7B9FFB860BB68002B0DD0BB685B681B79FB71FB790233DB00BA681344BB60BB685B68FB6001E00023FB60FB6818461037BD4680BDC781FF1F80B582B018
:4026C00000AF0023FB71314B1B79DBB203F07F03BB71BB79002B53D0BB79082B50D8BA79B9792B480B465B000B449B0003449B78DBB243F00103D8B2254913465B001344BE
:402700009B000B4402469A70BA79214913465B0013449B000B440022DA70BA79B9791C480B465B000B449B0003445B78DBB243F00203D8B2164913465B0013449B000B4443
:4027400002465A70BA79124913465B0013449B000B441B79DBB2DBB25BB2002B06DA0D4ABB791B0113448D229A7005E0094ABB791B01134489229A70FEF736FE0346FB71D5
:40278000FB7918460837BD4680BD00BF00600040CC81FF1FFC5F004080B582B000AF0023FB71464B1B79DBB203F07F03BB71BB79002B7DD0BB79082B7AD8BA79B979404819
:4027C0000B465B000B449B0003449B78DBB223F00103D8B23A4913465B0013449B000B4402469A70BA79364913465B0013449B000B440022DA70334ABB791B0113447F2219
:402800001A70BA79B9792E480B465B000B449B0003445B78DBB223F00203D8B2284913465B0013449B000B4402465A70BA79244913465B0013449B000B441B79DBB2DBB299
:402840005BB2002B18DABA791D4913465B0013449B000B445B78DBB2012B06D1194ABB791B0113440C229A701EE0164ABB791B0113440D229A7017E0BA79114913465B0085
:4028800013449B000B445B78DBB2012B06D10D4ABB791B01134408229A7005E0094ABB791B01134409229A70FEF79EFD0346FB71FB7918460837BD4680BD00BF0060004039
:4028C000CC81FF1FFC5F004080B584B000AF0023FB73154B1B79BB73144B1B78DBB2013BDBB21846FFF788FEB860BB685B681B79FB71BA7BFB799A4202D9BB7B022B0ED83E
:40290000BB7BBA7B0A498A5CD1B20A4AD154BB7B054A9278D1B2064AD1540123FB73FB7B18461037BD4680BD00600040C781FF1F3882FF1FAC81FF1F80B582B000AF002321
:40294000FB710F4B1B78DBB2DBB25BB2002B12DA0B4B5B78DBB2012B00D00CE0094B0A4A5A60094B1B789AB2064B1A80FEF720FC0346FB7100BFFB7918460837BD4680BDCC
:4029800000600040B081FF1F0035000080B400AF054B1B78DBB203F040039B09DBB21846BD465DF8047B70478F45004000000000142816D902B4012114381049097811F00F
:4029C000C001890904B40E4A515C04BC00BF00BF00BF8841FDD500BF00BF02BC704700BF00BF70F10400FCD570470B050709EFF3108072B6704780F3108870470048004016
:402A0000EA290000AFF3008080B483B000AF0346FB7101BE0C37BD465DF8047B704700BF80B582B000AF786008E00C4B1B681846FFF7BEFF7B68A3F500437B607B68B3F562
:402A4000004FF2D8064B1B687A6802FB03F31846FFF7AEFF0837BD4680BD00BF5881FF1F5081FF1F80B582B000AF0346FB80FB88044A127802FB03F31846FFF799FF08371C
:402A8000BD4680BD5481FF1F80B584B000AF03463960FB710F4B1B68FB60FB791F2B02D90020FFF7B1FFFB7903F01F0310339B00FA6813441B68BB60FB7903F01F0310335C
:402AC0009B00FA6813443A681A60BB6818461037BD4680BD08ED00E080B582B000AF03460A46FB711346BB71BB79072B02D90020FFF78AFFFB791F2B02D90020FFF784FFD7
:402B0000FB7903F01F0303F1604303F56443BA795201D2B21A700837BD4680BD80B483B000AF7860264B1B78DBB21A467B681A60244B1B78DBB21B027A6812681A437B683F
:402B40001A60214B1B78DBB21B047A6812681A437B681A601D4B1B78DBB21B067A6812681A437B681A607B680433194A1278D2B21A60184B1B78DBB21A027B6804337968BC
:402B8000043109680A431A60134B1B78DBB21A047B6804337968043109680A431A600F4B1B78DBB21A067B6804337968043109680A431A600C37BD465DF8047B704700BF12
:402BC0000301004904010049EC460040020100490101004900010049050100490601004980B500AF154B01221A70154B81221A70144B08221A70144B28221A70134B002204
:402C00001A70134B4FF400421A600F200721FFF763FF0F200F49FFF737FF0F4B10221A700E4B00221A700E4B00221A700D4B00221A70082000F0EEF980BD00BFD6490040CD
:402C4000C8490040CA490040DB490040DC49004080E100E0D92C00004A82FF1F5482FF1F4C82FF1F4D82FF1F80B582B000AFFFF7BEFE0346FB710B4A0A4B1B78DBB243F070
:402C80000403DBB21370084A074B1B78DBB243F00403DBB21370FB791846FFF7ACFE0837BD4680BDA5430040B543004080B500AF074B1B78002B04D1FFF792FF044B0122DC
:402CC0001A70FFF7D1FF034B4FF400421A6080BD8481FF1F00E100E080B582B000AF964B1B78FB71954B1B78DBB203F04003DBB2002B40F01E81914B1B78DBB203F0100361
:402D0000DBB2002B00F01281FB7903F02003002B09D1FB7903F00103002B24D0FB7903F00803002B1FD0854B1B78DBB2112B1AD1834A834B1B78DBB223F01003DBB21370AB
:402D4000804B1B78DBB223F02003DAB27D4B1A707C4B1B78DBB243F01003DAB2794B1A70764B10221A70FB7903F00103002B00F0E080FB7903F00803002B54D0724B1B78D9
:402D8000DBB203F00103002B36D0704B1B78DAB26F4B1B78DBB29A421CD26B4A6D4B1B686A490978C9B20B441B78DBB21370624B14221A70654B1B78DBB20133DAB2634BA4
:402DC0001A70604B1B78DBB243F00203DAB25D4B1A700DE05C4BFF221A70574B14221A70584B1B78DBB243F00603DAB2554B1A70524B12221A709CE04F4B10221A704F4B6B
:402E000011221A704F4B1B78DBB243F02003DAB24C4B1A704A4A4A4B1B78DBB243F01003DBB2137085E0454B1B78DBB2112B29D1494B1B78DAB2494B1B78DBB29A4215D204
:402E4000414B1B78BB713C4B10221A70444B1B68414A1278D2B21344BA791A703E4B1B78DBB20133DAB23C4B1A7062E0324B00221A70344B1B78DBB243F04003DAB2314B03
:402E80001A7056E02D4B1B78DBB2122B4AD1FB7903F00203002B2BD12C4B1B78DAB22C4B1B78DBB29A4214D2274A2A4B1B6827490978C9B20B441B78DBB213701E4B04228A
:402EC0001A70224B1B78DBB20133DAB21F4B1A702FE01D4BFF221A70174B04221A70194B1B78DBB243F00403DAB2164B1A7020E0154BFF221A70104B00221A70114B1B789D
:402F0000DBB223F00203DAB20E4B1A700D4B1B78DBB243F00103DAB20A4B1A70074B10221A7006E00020FFF76FFD02E0034B10221A700837BD4680BDD74900404A82FF1F38
:402F4000D64900405482FF1FD84900404C82FF1F4F82FF1F5082FF1F4D82FF1F4E82FF1F5882FF1F80B400AF034B1B78DBB21846BD465DF8047B70475482FF1F80B483B067
:402F800000AF0E4B4FF400421A600D4B1B78DBB203F00F03FB710A4B1B78DBB223F00D03DAB2074B1A70074B4FF400421A60FB7918460C37BD465DF8047B704780E100E0EC
:402FC0005482FF1F00E100E080B483B000AF0E4B4FF400421A600D4B1B78DBB223F00F03FB710A4B1B78DBB203F02F03DAB2074B1A70074B4FF400421A60FB7918460C373D
:40300000BD465DF8047B704780E100E05482FF1F00E100E080B483B000AF0346FB71054AFB7903F07F03DBB213700C37BD465DF8047B7047CA49004080B400AF034B1B7811
:40304000DBB21846BD465DF8047B70474D82FF1F80B400AF034B00221A70BD465DF8047B704700BF4C82FF1F80B400AF034B00221A70BD465DF8047B704700BF4D82FF1FBD
:4030800080B582B000AF1D4B1B78DBB203F00303012B02D0022B04D012E0184B1B79BB7111E0164B1B79DBB203F07F02144913465B0013449B000B4408339B78BB7102E0D0
:4030C0000023BB7100BF0F4B1A68BB7913441B78022B06D0032B09D1FEF78EFA0346FB7107E0FDF711FD0346FB7102E00023FB7100BFFB7918460837BD4680BD00600040CC
:40310000CC81FF1FC081FF1F0E4B70B51E460E4C0025E41AA410A54204D056F8253098470135F8E700F000FA084B094C1E46E41AA4100025A54204D056F825309847013520
:40314000F8E770BD3435000034350000343500003C35000010B5431E0A44914204D011F8014B03F8014FF8E710BD03460244934202D003F8011BFAE770470000000000004B
:403180004E6F6E65000000004F6464004576656E000000004D61726B00000000537061636500000031000000312E350032000000426C61626C610A0005001001C8490040BD
:4031C0001900205100401000405100403000C0510040100000000140001000140140000800400140000A004C014000020050014020000000014500400252004003020140BA
:4032000004030140030501400107014001090140010B0140010D0140011501400317014003190140011B0140034001400B4101400942014006430140024501400346014028
:403240000847014007480140024901400C4C0140014D014002500140025101407E0201807C4056085B045D905F908B10D630E480AB80AF80E801EA02EA02E801E480EA01A5
:40328000E202EA02EE0AE202EA02EE0AEA0133813640CC700B800D105A0462108B409F01A640A780C290D640D8403E1096049E109F01A640A780AD10CE20E84096149F015D
:4032C000A640A780AE10EA408804E40190019804A80108080B040F40900198049E80AE80C20E86049614AE40AF81E240EA40EE50AA10EA801324168078047C0187049001F9
:4033000098049E80AC08AF44C40EDE03AB2001010901002A03C000009000000090009000000000004000000000000000C00000000004000000000000800000000000000081
:4033400030313233343536373839414243444546000000001201000202000008B40432F20100010480010000090243000201018032090400000102020002052400100104D3
:40338000240202052406000105240100010705810308000A09040100020A000003070582024000000705030240000000040309042C0343007900700072006500730073007E
:4033C0002000530065006D00690063006F006E0064007500630074006F0072003803430044004300200043006F006D006D0075006E00690063006100740069006F006E00D3
:40340000200049006E007400650072006600610063006500260343004400430020004400610074006100200049006E007400650072006600610063006500100355005300E2
:4034400042005500410052005400000002030000320005010902A1010901A100050919012903150025019503750181029501750581010501093009311581257F75089502C0
:403480008106C0C00000000000008103080002000100820240000A000100030240000A00020A000001000000683300000300000088340000000000000000000000000000F1
:4034C0000000000000000000A03400000100000054330000000000000000000001000000A434000001000000CC34000012034D0053004600540031003000300001000000B5
:4035000028000000000104000100000000000000000143595553420000003030303031000000000000000000F8B500BFF8BC08BC9E4670474D000000FD010000F8B500BFAF
:40354000F8BC08BC9E46704729000000603500000881FF1F5800000020010000000000000000000080310000883100008C310000943100009C310000A4310000A8310000F3
:40358000AC31000001FF170000C2010000000800C201000000080000A120000000000200000000000090D00300FA0000400000000000007D000000000000000000000000A4
:4035C00000000000000000000000000000000000000000000000000000000000000000000000000000000000000000000000000000000000000000000000000000000000CB
:40360000000000000000000000000000000000000000000000000000000000000000000000000000000000000000000000000000000000000000000000000000000000008A
:40364000000000000000000000000000000000000000000000000000000000000000000000000000000000000000000000000000000000000000000000000000000000004A
:40368000000000000000000000000000000000000000000000000000000000000000000000000000000000000000000000000000000000000000000000000000000000000A
:0200000480007A
:0200000490006A
:040000000800C0052F
:0200000490105A
:04000000BC90ACAF55
:0200000490303A
:02000000291EB7
:0200000490402A
:4000000000000000000000000000000000000000000000000000000000000000000000000000000000000000000000000000000000000000000000000000000000000000C0
:400040000000000000000000000000000000000000000000000000000000000000000000000000000000000000000000000000000000000000000000000000000000000080
:400080000000000000000000000000000000000000000000000000000000000000000000000000000000000000000000000000000000000000000000000000000000000040
:4000C0000000000000000000000000000000000000000000000000000000000000000000000000000000000000000000000000000000000000000000000000000000000000
:0200000490501A
:0C00000000012E16106900012E2A39871D
:00000001FF