:400000000080002011000000810100008101000008B5044B1A6803F53F5302331A6000F0B1F800BFFA46004010B5054C237833B9044B13B10448AFF300800123237010BDCA
:400040001081FF1F00000000B00A0000084B10B51BB108480849AFF300800848036803B910BD074B002BFBD0BDE81040184700BF00000000B00A00001481FF1F0881FF1FBD
:400080000000000070B562B600F01CF8012600252C46204600F01AF80028FAD100F03EF80028F6D1642D01D015B102E0002600E001261EB10135EDB22C46EAE7013DEDB2D6
:4000C0002C46E6E708B500F037FA08BD10B582B001238DF804308DF8050017238DF80630082001A90322002300F0A0FB00F06CFC10F0020FFAD000F067FC10F0800F05D13B
:4001000000F096FC032803D0FF2402E0FF2400E0002400F075FC204602B010BD10B582B0082001A90322002300F0E6FB00F04CFC10F0010FFAD000F047FC10F0800F10D136
:4001400000F070FC03280ED19DF80430012B0CD19DF80630172B0AD19DF805304BB1FF2408E0FF2406E0FF2404E0FF2402E0FF2400E0002400F044FC204602B010BD00BF7E
:40018000FEE700BF08B5104E104D16E029686B68AC68002204E051F8040B43F8040B0432A242F8D1E868002203E0002143F8041B04328242F9D11035013E002EE6D100F03D
:4001C0003DFCFFF75FFFFEE701000000140B000008B5124A124B1A60124A136843F40073136000230AE0032B03D80F4A52F8231000E00E490E4A42F8231001332F2BF2D948
:400200000C4B1A780C4B1A70094A0C4B1A6000F0A1F800220A4B1A6008BD00BF0004FA050CED00E014ED00E000000000810100000080FF1FBC7600400481FF1F08ED00E00B
:400240000081FF1FFEE700BFF0B40022174611E050F82760F3B226F0FF0608E001EB420511F812406D78A5550132013BDBB2002BF4D101370E2FEBD9F0BC7047064B1B78D7
:40028000DBB203F00701054A11701B09013213704422034B1A707047CF0100496E5800407658004008B50A46002100F0F8FB08BD38B502221E4B1A7008224FF040231A70BA
:4002C000032103F5007319701A4B1B78DBB21A490B701A4B1A8041F25122023B1A80002419250CE0164B1B7803F0010343EA440404F003044FF4F07000F09AF8013D0DB13D
:40030000032CEFD115B90320FFF79CFF0D4B4FF480721A8007221A7000220B490A704820023108701A700222033B1A7038BD00BF0043004008010049A146004022420040A5
:4003400025420040044000400640004008B500F09BFB08BD70B572B6284A137843F00403137000240CE0264963001A1952000A4423445B00C8589188FFF794FF0134E4B2B9
:40038000092CF0D94FF090401E49FFF75DFF1E4A137843F0020313701032137843F0020313701A4C237843F040032370A2F58632513A137843F010031370154815490A2222
:4003C000FFF7C4FF144815490822FFF7BFFF144A137843F008031370124E01253570FFF767FF81233370104B1D70FFF747FF0F4821460E22FFF7AAFF70BD00BFE846004029
:40040000B40A00003C00004803500140A043004000510040AC00004822510040B8000048224300400048004004000840B04300400230800803D000BF01380046FCD1704790
:40044000EFF3108072B6704780F31088704700BF01BE704770B504460E46074B1D681F2802D90020FFF7F4FF04F01F04103455F8240045F8246070BD08ED00E038B50446A9
:400480000D46072902D90020FFF7E2FF1F2C02D90020FFF7DDFF04F01F0000F1604000F564406D01EDB2057038BD00BF38B50222114B1A7081220E3B1A70082202331A7006
:4004C0000F2511331D70002401331C704FF400420A4B1A6028460721FFF7D0FF28460849FFF7B8FF1022074B1A70074B1C70074B1C70074B1C7038BDD649004080E100E0BB
:40050000610500002D81FF1F3981FF1F3881FF1F3A81FF1F08B5FFF793FF064A137843F0040313701032137843F004031370FFF78BFF08BDA543004008B5074B1B7823B9AF
:40054000FFF7B4FF0122044B1A70FFF7E3FF4FF40042024B1A6008BD2C81FF1F00E100E038B5A44B1C78E4B2A34B1B7813F0400F00F0378114F0010F00F01B819E4B1B78C4
:40058000453B052B00F21281DFE813F006008200100110010600DE0004F0DF0504F00A04082C42D1944B1B78DBB2452B35D1934B1B7813F0FF0F10D0914B1B681B78DBB237
:4005C000904A137004228B4B1A7001228E4B1A704622894B1A702C46EBE08C4B1B7813F0020F0DD08A4A137843F00A0313706022814B1A704FF40042864B1A602C46D8E040
:40060000854A137843F0100313701022834B1A700422023B1A702C46CBE00022754B1A704A22754B1A702C46C3E00A2C2BD1784A137843F0A0031370744B1B7813F0020F8E
:4006400014D06D4B1B7813F0080F01D0092300E00A236F4A11780B4313706022664B1A704FF400426B4B1A602C46A2E06A4A137843F0100313701022684B1A700422023BD4
:400680001A702C4695E00020FFF7E2FE2C4690E014F0020F35D15C4B1B78584A1278DBB2934210D2584A1378DBB255490968CB5CDBB254490B7004214E4B19701378013391
:4006C000DBB2137075E0514B1B7813F0020F0CD04F4A137843F00A0313706022464B1A704FF400424B4B1A6063E04B4A137843F0100313701022494B1A700422023B1A70F4
:4007000057E0424B1B7813F0020F0CD0404A137843F09A0313706022374B1A704FF400423C4B1A6045E03C4A137843F01003137010223A4B1A700422023B1A70344A1378C0
:4007400043F09003137034E0354A1378DBB2354908682C490978C9B2C15413780133DBB213701378304A1278DBB2934203D21022204B1A701DE0254B1B7813F0020F0CD065
:40078000234A137843F00903137060221A4B1A704FF400421F4B1A600BE01F4A137843F0100313700022134B1A7002E00020FFF74FFE14F0200F1CD00F4B1B7813F0080F88
:4007C00001D0012300E00223114A11780B431370114A137803F0EF0313701022064B1A7038BD054B1B7813F0100F02D11022024B1A7038BDD74900402D81FF1F3D81FF1F1C
:400800003481FF1FD84900403A81FF1F3B81FF1F3981FF1F80E100E0D6490040D94900403881FF1F3081FF1F3C81FF1F002948D070B40C4626490978C9B2102906D12549D6
:40084000097811F0080F11D1002112E020490978C9B260290CD14FF400451F490D601F4D297801F0F7012970002102E0012100E0022149BB4526164D2E700026184D2E7072
:40088000184D2A70184A1460184A1370134C227802F0FD0222704200D2B21548027013F0010F06D012220B4B1A700422023B1A7002E00122074B1A704FF400420D4B1A604B
:4008C00002E0022108467047084670BC704700BF2D81FF1FD949004080E200E03981FF1F3A81FF1F3D81FF1F3481FF1F3B81FF1FD849004000E100E000294AD070B40C4679
:4009000027490978C9B2102906D12649097811F0080F11D1002112E021490978C9B260290CD14FF4004520490D60204D297801F0F7012970002102E0012100E0022159BB48
:400940004926174D2E700026194D2E70194D2A70194A1460194A1370144C227802F0FE0222704200D2B242F001021548027013F0010F06D012220B4B1A700422023B1A70ED
:4009800002E00122074B1A704FF400420D4B1A6002E0022108467047084670BC704700BF2D81FF1FD949004080E200E03981FF1F3881FF1F3C81FF1F3081FF1F3B81FF1F62
:4009C000D849004000E100E04FF40042084B1A60084B1878C0B2084B1B7813F0400F01D040F004004FF40042044B1A60704700BF80E100E03981FF1F2D81FF1F00E100E087
:400A00004FF40043044A1360044A107800211170034A1360704700BF80E100E03981FF1F00E100E0014B1878704700BF3881FF1F014B1878704700BF3A81FF1F0E4B70B515
:400A40001E460E4C0025E41AA410A54204D056F8253098470135F8E700F04AF8084B094C1E46E41AA4100025A54204D056F8253098470135F8E770BDFC0A0000FC0A0000EF
:400A8000FC0A0000040B000010B5431E0A44914204D011F8014B03F8014FF8E710BD03460244934202D003F8011BFAE77047000000000000C84900401900105100401000BA
:400AC000305100404000C05100401000F0510040100000000140001000140140000800400140000A004C01400002005001402000F8B500BFF8BC08BC9E4670474D000000BE
:400B0000D1010000F8B500BFF8BC08BC9E46704729000000280B00000881FF1F08000000300000000000000000000000000000000000000000000000000000000000000029
:400B40000000000000000000000000000000000000000000000000000000000000000000000000000000000000000000000000000000000000000000000000000000000075
:400B80000000000000000000000000000000000000000000000000000000000000000000000000000000000000000000000000000000000000000000000000000000000035
:400BC00000000000000000000000000000000000000000000000000000000000000000000000000000000000000000000000000000000000000000000000000000000000F5
:400C000000000000000000000000000000000000000000000000000000000000000000000000000000000000000000000000000000000000000000000000000000000000B4
:020000040003F7
:0200000480007A
:400000000352004003050140030B014001150140011B0140074101400942014001430140084601400447014001480140024901400B4C0140014D0140015101400003010155
:400040000403E60AE880EC10E60AE880EC10EA01EA010001050257805E80C030D440D6203E1086408780A640A780B102B401CE20E6509610850486809820A110B020B5105D
:40008000E801EC0895049820A110A6809610AA10EA8012801320150478207D2095049820A110A680C40EDE03AB2003C00300000003000300000000000002020000000000E8
:4000C0000000000000000000000000000000000000000000000000000000000000000000000000000000000000000000000000000000000000000000000000000000000000
:4001000000000000000000000000000000000000000000000000000000000000000000000000000000000000000000000000000000000000000000000000000000000000BF
:40014000000000000000000000000000000000000000000000000000000000000000000000000000000000000000000000000000000000000000000000000000000000007F
:40018000000000000000000000000000000000000000000000000000000000000000000000000000000000000000000000000000000000000000000000000000000000003F
:0200000490006A
:0400000000004005B7
:0200000490105A
:04000000BC90ACAF55
:0200000490303A
:02000000FA897B
:0200000490402A
:4000000000000000000000000000000000000000000000000000000000000000000000000000000000000000000000000000000000000000000000000000000000000000C0
:400040000000000000000000000000000000000000000000000000000000000000000000000000000000000000000000000000000000000000000000000000000000000080
:400080000000000000000000000000000000000000000000000000000000000000000000000000000000000000000000000000000000000000000000000000000000000040
:4000C0000000000000000000000000000000000000000000000000000000000000000000000000000000000000000000000000000000000000000000000000000000000000
:0200000490501A
:0C00000000012E12306900012E162AF2B9
:00000001FF